{
  "address": "0xE85E24C9E85a8e1DAF575DEEbFE2eccdB2a09122",
  "abi": [
    {
      "anonymous": false,
      "inputs": [
        {
          "indexed": true,
          "internalType": "address",
          "name": "sender",
          "type": "address"
        },
        {
          "indexed": false,
          "internalType": "address",
          "name": "receiver",
          "type": "address"
        },
        {
          "indexed": false,
          "internalType": "uint256",
          "name": "amount",
          "type": "uint256"
        }
      ],
      "name": "FeeWithdrawn",
      "type": "event"
    },
    {
      "anonymous": false,
      "inputs": [
        {
          "indexed": false,
          "internalType": "uint8",
          "name": "version",
          "type": "uint8"
        }
      ],
      "name": "Initialized",
      "type": "event"
    },
    {
      "anonymous": false,
      "inputs": [
        {
          "indexed": true,
          "internalType": "address",
          "name": "previousOwner",
          "type": "address"
        },
        {
          "indexed": true,
          "internalType": "address",
          "name": "newOwner",
          "type": "address"
        }
      ],
      "name": "OwnershipTransferred",
      "type": "event"
    },
    {
      "anonymous": false,
      "inputs": [
        {
          "indexed": true,
          "internalType": "address",
          "name": "sender",
          "type": "address"
        },
        {
          "indexed": false,
          "internalType": "address",
          "name": "receiver",
          "type": "address"
        },
        {
          "indexed": false,
          "internalType": "uint256",
          "name": "amount",
          "type": "uint256"
        }
      ],
      "name": "RewardPaid",
      "type": "event"
    },
    {
      "anonymous": false,
      "inputs": [
        {
          "indexed": true,
          "internalType": "address",
          "name": "sender",
          "type": "address"
        },
        {
          "indexed": false,
          "internalType": "uint256",
          "name": "amount",
          "type": "uint256"
        }
      ],
      "name": "RewardReceived",
      "type": "event"
    },
    {
      "inputs": [],
      "name": "FEE_RATE_DENOMINATOR",
      "outputs": [
        {
          "internalType": "uint256",
          "name": "",
          "type": "uint256"
        }
      ],
      "stateMutability": "view",
      "type": "function"
    },
    {
      "inputs": [],
      "name": "REWARD_DURATION",
      "outputs": [
        {
          "internalType": "uint256",
          "name": "",
          "type": "uint256"
        }
      ],
      "stateMutability": "view",
      "type": "function"
    },
    {
      "inputs": [],
      "name": "REWARD_DURATION_DAYS",
      "outputs": [
        {
          "internalType": "uint256",
          "name": "",
          "type": "uint256"
        }
      ],
      "stateMutability": "view",
      "type": "function"
    },
    {
      "inputs": [],
      "name": "fee",
      "outputs": [
        {
          "internalType": "uint256",
          "name": "feeRate",
          "type": "uint256"
        },
        {
          "internalType": "uint256",
          "name": "totalFee",
          "type": "uint256"
        },
        {
          "internalType": "uint256",
          "name": "claimedFee",
          "type": "uint256"
        }
      ],
      "stateMutability": "view",
      "type": "function"
    },
    {
      "inputs": [],
      "name": "getTodayTimestamp",
      "outputs": [
        {
          "internalType": "uint256",
          "name": "",
          "type": "uint256"
        }
      ],
      "stateMutability": "view",
      "type": "function"
    },
    {
      "inputs": [
        {
          "internalType": "uint256",
          "name": "_feeRate",
          "type": "uint256"
        },
        {
          "internalType": "address",
          "name": "_rewardReceiver",
          "type": "address"
        }
      ],
      "name": "initialize",
      "outputs": [],
      "stateMutability": "nonpayable",
      "type": "function"
    },
    {
      "inputs": [],
      "name": "owner",
      "outputs": [
        {
          "internalType": "address",
          "name": "",
          "type": "address"
        }
      ],
      "stateMutability": "view",
      "type": "function"
    },
    {
      "inputs": [],
      "name": "payReward",
      "outputs": [],
      "stateMutability": "nonpayable",
      "type": "function"
    },
    {
      "inputs": [],
      "name": "renounceOwnership",
      "outputs": [],
      "stateMutability": "nonpayable",
      "type": "function"
    },
    {
      "inputs": [],
      "name": "reward",
      "outputs": [
        {
          "internalType": "uint256",
          "name": "total",
          "type": "uint256"
        },
        {
          "internalType": "uint256",
          "name": "perDay",
          "type": "uint256"
        },
        {
          "internalType": "uint256",
          "name": "paid",
          "type": "uint256"
        },
        {
          "internalType": "uint256",
          "name": "pending",
          "type": "uint256"
        },
        {
          "internalType": "uint256",
          "name": "lastPaidAt",
          "type": "uint256"
        },
        {
          "internalType": "uint256",
          "name": "finishAt",
          "type": "uint256"
        }
      ],
      "stateMutability": "view",
      "type": "function"
    },
    {
      "inputs": [
        {
          "internalType": "uint256",
          "name": "",
          "type": "uint256"
        }
      ],
      "name": "rewardDays",
      "outputs": [
        {
          "internalType": "bool",
          "name": "",
          "type": "bool"
        }
      ],
      "stateMutability": "view",
      "type": "function"
    },
    {
      "inputs": [],
      "name": "rewardReceiver",
      "outputs": [
        {
          "internalType": "address",
          "name": "",
          "type": "address"
        }
      ],
      "stateMutability": "view",
      "type": "function"
    },
    {
      "inputs": [
        {
          "internalType": "uint256",
          "name": "_feeRate",
          "type": "uint256"
        }
      ],
      "name": "setFeeRate",
      "outputs": [],
      "stateMutability": "nonpayable",
      "type": "function"
    },
    {
      "inputs": [
        {
          "internalType": "address",
          "name": "newOwner",
          "type": "address"
        }
      ],
      "name": "transferOwnership",
      "outputs": [],
      "stateMutability": "nonpayable",
      "type": "function"
    },
    {
      "inputs": [
        {
          "internalType": "address",
          "name": "receiver",
          "type": "address"
        },
        {
          "internalType": "uint256",
          "name": "amount",
          "type": "uint256"
        }
      ],
      "name": "withdrawFee",
      "outputs": [],
      "stateMutability": "nonpayable",
      "type": "function"
    },
    {
      "stateMutability": "payable",
      "type": "receive"
    }
  ],
  "transactionHash": "0x7a9a8dcebcf571c20be229ae5ea3514780bf8f6ddf50856f7c32789fc1c421e5",
  "args": [],
  "numDeployments": 1,
  "solcInputHash": "142cb5ccb9614e8b4ba2fd5b7b79ef26",
  "bytecode": "0x608060405234801561001057600080fd5b50610d9e806100206000396000f3fe6080604052600436106100ec5760003560e01c80635ade228a1161008a578063da35a26f11610059578063da35a26f146103ef578063ddca3f431461040f578063f2fde38b14610449578063fd9be5221461046957600080fd5b80635ade228a14610392578063715018a6146103a75780637842a3a4146103bc5780638da5cb5b146103d157600080fd5b80632a487ef3116100c65780632a487ef314610322578063303e27ca1461034557806345596e2e1461035a5780635a70ad281461037c57600080fd5b8063033452031461024d5780631dac30b014610292578063228cb733146102ca57600080fd5b3661024857606554600090612710906101059034610c0b565b61010f9190610c28565b9050600061011d8234610c4a565b9050601e8110156101755760405162461bcd60e51b815260206004820152601860248201527f52657761726420616d6f756e7420697320746f6f206c6f77000000000000000060448201526064015b60405180910390fd5b61017d610489565b60695461018a9190610c0b565b606b546101979190610c5d565b606b556101a26104c8565b606c556101b3601e62015180610c0b565b606c546101c09190610c5d565b606d556068546101d1908290610c5d565b6068819055606b54606a54601e926101e99190610c4a565b6101f39190610c4a565b6101fd9190610c28565b60695560665461020e908390610c5d565b60665560405134815233907f9ac954606f877c9c9e6deec30e9265abff5a57c7123a34777ca9321eb6c26d8e9060200160405180910390a2005b600080fd5b34801561025957600080fd5b5061027d610268366004610c70565b606f6020526000908152604090205460ff1681565b60405190151581526020015b60405180910390f35b34801561029e57600080fd5b50606e546102b2906001600160a01b031681565b6040516001600160a01b039091168152602001610289565b3480156102d657600080fd5b50606854606954606a54606b54606c54606d546102f595949392919086565b604080519687526020870195909552938501929092526060840152608083015260a082015260c001610289565b34801561032e57600080fd5b506103376104c8565b604051908152602001610289565b34801561035157600080fd5b506103376104e9565b34801561036657600080fd5b5061037a610375366004610c70565b6104fa565b005b34801561038857600080fd5b5061033761271081565b34801561039e57600080fd5b50610337601e81565b3480156103b357600080fd5b5061037a61050e565b3480156103c857600080fd5b5061037a610522565b3480156103dd57600080fd5b506033546001600160a01b03166102b2565b3480156103fb57600080fd5b5061037a61040a366004610ca5565b6106b1565b34801561041b57600080fd5b5060655460665460675461042e92919083565b60408051938452602084019290925290820152606001610289565b34801561045557600080fd5b5061037a610464366004610cd1565b61084e565b34801561047557600080fd5b5061037a610484366004610cf3565b6108c4565b6000806068600501544211156104a157606d546104a3565b425b606c5490915062015180906104b89083610c4a565b6104c29190610c28565b91505090565b60006104d76201518042610c28565b6104e49062015180610c0b565b905090565b6104f7601e62015180610c0b565b81565b610502610986565b61050b816109e0565b50565b610516610986565b6105206000610a30565b565b61052a610986565b60006105346104c8565b6000818152606f602052604090205490915060ff16156105835760405162461bcd60e51b815260206004820152600a6024820152695061696420746f64617960b01b604482015260640161016c565b6000818152606f60205260408120805460ff191660011790556105a4610489565b6069546105b19190610c0b565b606b546105be9190610c5d565b606854606a54919250906105d3908390610c5d565b11156106215760405162461bcd60e51b815260206004820152601860248201527f50617920616d6f756e7420657863656564732072616e67650000000000000000604482015260640161016c565b606d5482111561063357606d54610635565b815b606c55606a54610646908290610c5d565b606a556000606b55606e54610664906001600160a01b031682610a82565b606e54604080516001600160a01b0390921682526020820183905233917f540798df468d7b23d11f156fdb954cb19ad414d150722a7b6d55ba369dea792e91015b60405180910390a25050565b600054610100900460ff16158080156106d15750600054600160ff909116105b806106eb5750303b1580156106eb575060005460ff166001145b61074e5760405162461bcd60e51b815260206004820152602e60248201527f496e697469616c697a61626c653a20636f6e747261637420697320616c72656160448201526d191e481a5b9a5d1a585b1a5e995960921b606482015260840161016c565b6000805460ff191660011790558015610771576000805461ff0019166101001790555b6001600160a01b0382166107c75760405162461bcd60e51b815260206004820152601f60248201527f496e76616c696420726577617264207265636569766572206164647265737300604482015260640161016c565b6107cf610b9b565b6107d76104c8565b606c819055606d55606e80546001600160a01b0319166001600160a01b038416179055610803836109e0565b8015610849576000805461ff0019169055604051600181527f7f26b83ff96e1f2b6a682f133852f6798a09c465da95921460cefb38474024989060200160405180910390a15b505050565b610856610986565b6001600160a01b0381166108bb5760405162461bcd60e51b815260206004820152602660248201527f4f776e61626c653a206e6577206f776e657220697320746865207a65726f206160448201526564647265737360d01b606482015260840161016c565b61050b81610a30565b6108cc610986565b6066546067546108dd908390610c5d565b111561092b5760405162461bcd60e51b815260206004820152601d60248201527f576974686472617720616d6f756e7420657863656564732072616e6765000000604482015260640161016c565b606754610939908290610c5d565b6067556109468282610a82565b604080516001600160a01b03841681526020810183905233917eed5939179dc194223f0edd1517ecee2210b22da7f82c8e4b1795e93b9f06aa91016106a5565b6033546001600160a01b031633146105205760405162461bcd60e51b815260206004820181905260248201527f4f776e61626c653a2063616c6c6572206973206e6f7420746865206f776e6572604482015260640161016c565b612710811115610a2b5760405162461bcd60e51b8152602060048201526016602482015275466565207261746520657863656564732072616e676560501b604482015260640161016c565b606555565b603380546001600160a01b038381166001600160a01b0319831681179093556040519116919082907f8be0079c531659141344cd1fd0a4f28419497f9722a3daafe3b4186f6b6457e090600090a35050565b80471015610ad25760405162461bcd60e51b815260206004820152601d60248201527f416464726573733a20696e73756666696369656e742062616c616e6365000000604482015260640161016c565b6000826001600160a01b03168260405160006040518083038185875af1925050503d8060008114610b1f576040519150601f19603f3d011682016040523d82523d6000602084013e610b24565b606091505b50509050806108495760405162461bcd60e51b815260206004820152603a60248201527f416464726573733a20756e61626c6520746f2073656e642076616c75652c207260448201527f6563697069656e74206d61792068617665207265766572746564000000000000606482015260840161016c565b600054610100900460ff16610bc25760405162461bcd60e51b815260040161016c90610d1d565b610520600054610100900460ff16610bec5760405162461bcd60e51b815260040161016c90610d1d565b61052033610a30565b634e487b7160e01b600052601160045260246000fd5b8082028115828204841417610c2257610c22610bf5565b92915050565b600082610c4557634e487b7160e01b600052601260045260246000fd5b500490565b81810381811115610c2257610c22610bf5565b80820180821115610c2257610c22610bf5565b600060208284031215610c8257600080fd5b5035919050565b80356001600160a01b0381168114610ca057600080fd5b919050565b60008060408385031215610cb857600080fd5b82359150610cc860208401610c89565b90509250929050565b600060208284031215610ce357600080fd5b610cec82610c89565b9392505050565b60008060408385031215610d0657600080fd5b610d0f83610c89565b946020939093013593505050565b6020808252602b908201527f496e697469616c697a61626c653a20636f6e7472616374206973206e6f74206960408201526a6e697469616c697a696e6760a81b60608201526080019056fea26469706673582212204164b7cb21b8a9dcff6a9dd2d19a5c22f4bdbbf7e23c66d218e068a84323245164736f6c63430008110033",
  "devdoc": {
    "kind": "dev",
    "methods": {
      "owner()": {
        "details": "Returns the address of the current owner."
      },
      "renounceOwnership()": {
        "details": "Leaves the contract without owner. It will not be possible to call `onlyOwner` functions anymore. Can only be called by the current owner. NOTE: Renouncing ownership will leave the contract without an owner, thereby removing any functionality that is only available to the owner."
      },
      "transferOwnership(address)": {
        "details": "Transfers ownership of the contract to a new account (`newOwner`). Can only be called by the current owner."
      }
    },
    "version": 1
  },
  "userdoc": {
    "kind": "user",
    "methods": {},
    "version": 1
  },
  "storageLayout": {
    "storage": [
      {
        "astId": 138,
        "contract": "contracts/MevReward.sol:MevReward",
        "label": "_initialized",
        "offset": 0,
        "slot": "0",
        "type": "t_uint8"
      },
      {
        "astId": 141,
        "contract": "contracts/MevReward.sol:MevReward",
        "label": "_initializing",
        "offset": 1,
        "slot": "0",
        "type": "t_bool"
      },
      {
        "astId": 1220,
        "contract": "contracts/MevReward.sol:MevReward",
        "label": "__gap",
        "offset": 0,
        "slot": "1",
        "type": "t_array(t_uint256)50_storage"
      },
      {
        "astId": 10,
        "contract": "contracts/MevReward.sol:MevReward",
        "label": "_owner",
        "offset": 0,
        "slot": "51",
        "type": "t_address"
      },
      {
        "astId": 130,
        "contract": "contracts/MevReward.sol:MevReward",
        "label": "__gap",
        "offset": 0,
        "slot": "52",
        "type": "t_array(t_uint256)49_storage"
      },
      {
        "astId": 1283,
        "contract": "contracts/MevReward.sol:MevReward",
        "label": "fee",
        "offset": 0,
        "slot": "101",
        "type": "t_struct(Fee)1280_storage"
      },
      {
        "astId": 1286,
        "contract": "contracts/MevReward.sol:MevReward",
        "label": "reward",
        "offset": 0,
        "slot": "104",
        "type": "t_struct(Reward)1273_storage"
      },
      {
        "astId": 1288,
        "contract": "contracts/MevReward.sol:MevReward",
        "label": "rewardReceiver",
        "offset": 0,
        "slot": "110",
        "type": "t_address"
      },
      {
        "astId": 1292,
        "contract": "contracts/MevReward.sol:MevReward",
        "label": "rewardDays",
        "offset": 0,
        "slot": "111",
        "type": "t_mapping(t_uint256,t_bool)"
      }
    ],
    "types": {
      "t_address": {
        "encoding": "inplace",
        "label": "address",
        "numberOfBytes": "20"
      },
      "t_array(t_uint256)49_storage": {
        "base": "t_uint256",
        "encoding": "inplace",
        "label": "uint256[49]",
        "numberOfBytes": "1568"
      },
      "t_array(t_uint256)50_storage": {
        "base": "t_uint256",
        "encoding": "inplace",
        "label": "uint256[50]",
        "numberOfBytes": "1600"
      },
      "t_bool": {
        "encoding": "inplace",
        "label": "bool",
        "numberOfBytes": "1"
      },
      "t_mapping(t_uint256,t_bool)": {
        "encoding": "mapping",
        "key": "t_uint256",
        "label": "mapping(uint256 => bool)",
        "numberOfBytes": "32",
        "value": "t_bool"
      },
      "t_struct(Fee)1280_storage": {
        "encoding": "inplace",
        "label": "struct MevReward.Fee",
        "members": [
          {
            "astId": 1275,
            "contract": "contracts/MevReward.sol:MevReward",
            "label": "feeRate",
            "offset": 0,
            "slot": "0",
            "type": "t_uint256"
          },
          {
            "astId": 1277,
            "contract": "contracts/MevReward.sol:MevReward",
            "label": "totalFee",
            "offset": 0,
            "slot": "1",
            "type": "t_uint256"
          },
          {
            "astId": 1279,
            "contract": "contracts/MevReward.sol:MevReward",
            "label": "claimedFee",
            "offset": 0,
            "slot": "2",
            "type": "t_uint256"
          }
        ],
        "numberOfBytes": "96"
      },
      "t_struct(Reward)1273_storage": {
        "encoding": "inplace",
        "label": "struct MevReward.Reward",
        "members": [
          {
            "astId": 1262,
            "contract": "contracts/MevReward.sol:MevReward",
            "label": "total",
            "offset": 0,
            "slot": "0",
            "type": "t_uint256"
          },
          {
            "astId": 1264,
            "contract": "contracts/MevReward.sol:MevReward",
            "label": "perDay",
            "offset": 0,
            "slot": "1",
            "type": "t_uint256"
          },
          {
            "astId": 1266,
            "contract": "contracts/MevReward.sol:MevReward",
            "label": "paid",
            "offset": 0,
            "slot": "2",
            "type": "t_uint256"
          },
          {
            "astId": 1268,
            "contract": "contracts/MevReward.sol:MevReward",
            "label": "pending",
            "offset": 0,
            "slot": "3",
            "type": "t_uint256"
          },
          {
            "astId": 1270,
            "contract": "contracts/MevReward.sol:MevReward",
            "label": "lastPaidAt",
            "offset": 0,
            "slot": "4",
            "type": "t_uint256"
          },
          {
            "astId": 1272,
            "contract": "contracts/MevReward.sol:MevReward",
            "label": "finishAt",
            "offset": 0,
            "slot": "5",
            "type": "t_uint256"
          }
        ],
        "numberOfBytes": "192"
      },
      "t_uint256": {
        "encoding": "inplace",
        "label": "uint256",
        "numberOfBytes": "32"
      },
      "t_uint8": {
        "encoding": "inplace",
        "label": "uint8",
        "numberOfBytes": "1"
      }
    }
  }
}