{
  "address": "0x2f937004cAAcb434DC2C1891a7ba163bcC9c0766",
  "abi": [
    {
      "anonymous": false,
      "inputs": [
        {
          "indexed": true,
          "internalType": "address",
          "name": "sender",
          "type": "address"
        },
        {
          "indexed": false,
          "internalType": "uint256",
          "name": "tokenAmount",
          "type": "uint256"
        },
        {
          "indexed": false,
          "internalType": "uint256",
          "name": "vTokenAmount",
          "type": "uint256"
        }
      ],
      "name": "Deposited",
      "type": "event"
    },
    {
      "anonymous": false,
      "inputs": [
        {
          "indexed": false,
          "internalType": "uint8",
          "name": "version",
          "type": "uint8"
        }
      ],
      "name": "Initialized",
      "type": "event"
    },
    {
      "anonymous": false,
      "inputs": [
        {
          "indexed": true,
          "internalType": "address",
          "name": "previousOwner",
          "type": "address"
        },
        {
          "indexed": true,
          "internalType": "address",
          "name": "newOwner",
          "type": "address"
        }
      ],
      "name": "OwnershipTransferred",
      "type": "event"
    },
    {
      "anonymous": false,
      "inputs": [
        {
          "indexed": false,
          "internalType": "address",
          "name": "account",
          "type": "address"
        }
      ],
      "name": "Paused",
      "type": "event"
    },
    {
      "anonymous": false,
      "inputs": [
        {
          "indexed": true,
          "internalType": "address",
          "name": "sender",
          "type": "address"
        },
        {
          "indexed": false,
          "internalType": "uint256",
          "name": "tokenAmount",
          "type": "uint256"
        },
        {
          "indexed": false,
          "internalType": "uint256",
          "name": "vTokenAmount",
          "type": "uint256"
        }
      ],
      "name": "Renewed",
      "type": "event"
    },
    {
      "anonymous": false,
      "inputs": [
        {
          "indexed": true,
          "internalType": "address",
          "name": "sender",
          "type": "address"
        },
        {
          "indexed": false,
          "internalType": "uint256",
          "name": "amount",
          "type": "uint256"
        },
        {
          "indexed": false,
          "internalType": "uint256",
          "name": "fee",
          "type": "uint256"
        }
      ],
      "name": "RewardAdded",
      "type": "event"
    },
    {
      "anonymous": false,
      "inputs": [
        {
          "indexed": true,
          "internalType": "address",
          "name": "sender",
          "type": "address"
        },
        {
          "indexed": false,
          "internalType": "uint256",
          "name": "amount",
          "type": "uint256"
        }
      ],
      "name": "RewardRemoved",
      "type": "event"
    },
    {
      "anonymous": false,
      "inputs": [
        {
          "indexed": false,
          "internalType": "address",
          "name": "account",
          "type": "address"
        }
      ],
      "name": "Unpaused",
      "type": "event"
    },
    {
      "anonymous": false,
      "inputs": [
        {
          "indexed": true,
          "internalType": "address",
          "name": "sender",
          "type": "address"
        },
        {
          "indexed": false,
          "internalType": "uint256",
          "name": "ethAmount",
          "type": "uint256"
        }
      ],
      "name": "WithdrawCompleted",
      "type": "event"
    },
    {
      "anonymous": false,
      "inputs": [
        {
          "indexed": true,
          "internalType": "address",
          "name": "sender",
          "type": "address"
        },
        {
          "indexed": false,
          "internalType": "uint256",
          "name": "vETHAmount",
          "type": "uint256"
        },
        {
          "indexed": false,
          "internalType": "uint256",
          "name": "ethAmount",
          "type": "uint256"
        }
      ],
      "name": "WithdrawRequested",
      "type": "event"
    },
    {
      "inputs": [],
      "name": "DEAD_ADDRESS",
      "outputs": [
        {
          "internalType": "address",
          "name": "",
          "type": "address"
        }
      ],
      "stateMutability": "view",
      "type": "function"
    },
    {
      "inputs": [],
      "name": "DEPOSIT_ETH",
      "outputs": [
        {
          "internalType": "uint256",
          "name": "",
          "type": "uint256"
        }
      ],
      "stateMutability": "view",
      "type": "function"
    },
    {
      "inputs": [],
      "name": "FEE_RATE_DENOMINATOR",
      "outputs": [
        {
          "internalType": "uint256",
          "name": "",
          "type": "uint256"
        }
      ],
      "stateMutability": "view",
      "type": "function"
    },
    {
      "inputs": [
        {
          "internalType": "uint256",
          "name": "amount",
          "type": "uint256"
        }
      ],
      "name": "addReward",
      "outputs": [],
      "stateMutability": "nonpayable",
      "type": "function"
    },
    {
      "inputs": [
        {
          "internalType": "uint256",
          "name": "n",
          "type": "uint256"
        }
      ],
      "name": "adjustWithdrawalNodeNumber",
      "outputs": [],
      "stateMutability": "nonpayable",
      "type": "function"
    },
    {
      "inputs": [
        {
          "internalType": "uint256",
          "name": "vTokenAmount",
          "type": "uint256"
        }
      ],
      "name": "calculateTokenAmount",
      "outputs": [
        {
          "internalType": "uint256",
          "name": "tokenAmount",
          "type": "uint256"
        }
      ],
      "stateMutability": "view",
      "type": "function"
    },
    {
      "inputs": [
        {
          "internalType": "uint256",
          "name": "tokenAmount",
          "type": "uint256"
        }
      ],
      "name": "calculateVTokenAmount",
      "outputs": [
        {
          "internalType": "uint256",
          "name": "vTokenAmount",
          "type": "uint256"
        }
      ],
      "stateMutability": "view",
      "type": "function"
    },
    {
      "inputs": [],
      "name": "completedWithdrawal",
      "outputs": [
        {
          "internalType": "uint256",
          "name": "",
          "type": "uint256"
        }
      ],
      "stateMutability": "view",
      "type": "function"
    },
    {
      "inputs": [],
      "name": "feeRate",
      "outputs": [
        {
          "internalType": "uint256",
          "name": "",
          "type": "uint256"
        }
      ],
      "stateMutability": "view",
      "type": "function"
    },
    {
      "inputs": [],
      "name": "feeReceiver",
      "outputs": [
        {
          "internalType": "address",
          "name": "",
          "type": "address"
        }
      ],
      "stateMutability": "view",
      "type": "function"
    },
    {
      "inputs": [],
      "name": "getHistoryETH",
      "outputs": [
        {
          "internalType": "uint256",
          "name": "",
          "type": "uint256"
        }
      ],
      "stateMutability": "view",
      "type": "function"
    },
    {
      "inputs": [],
      "name": "getTodayTimestamp",
      "outputs": [
        {
          "internalType": "uint256",
          "name": "",
          "type": "uint256"
        }
      ],
      "stateMutability": "view",
      "type": "function"
    },
    {
      "inputs": [
        {
          "internalType": "address",
          "name": "_vETH1",
          "type": "address"
        },
        {
          "internalType": "address",
          "name": "_vETH2",
          "type": "address"
        },
        {
          "internalType": "address",
          "name": "_slpDeposit",
          "type": "address"
        },
        {
          "internalType": "address",
          "name": "_operator",
          "type": "address"
        },
        {
          "internalType": "address",
          "name": "_feeReceiver",
          "type": "address"
        },
        {
          "internalType": "uint256",
          "name": "_initTokenPool",
          "type": "uint256"
        },
        {
          "internalType": "uint256",
          "name": "_feeRate",
          "type": "uint256"
        }
      ],
      "name": "initialize",
      "outputs": [],
      "stateMutability": "nonpayable",
      "type": "function"
    },
    {
      "inputs": [],
      "name": "mint",
      "outputs": [],
      "stateMutability": "payable",
      "type": "function"
    },
    {
      "inputs": [],
      "name": "operator",
      "outputs": [
        {
          "internalType": "address",
          "name": "",
          "type": "address"
        }
      ],
      "stateMutability": "view",
      "type": "function"
    },
    {
      "inputs": [],
      "name": "owner",
      "outputs": [
        {
          "internalType": "address",
          "name": "",
          "type": "address"
        }
      ],
      "stateMutability": "view",
      "type": "function"
    },
    {
      "inputs": [],
      "name": "pause",
      "outputs": [],
      "stateMutability": "nonpayable",
      "type": "function"
    },
    {
      "inputs": [],
      "name": "paused",
      "outputs": [
        {
          "internalType": "bool",
          "name": "",
          "type": "bool"
        }
      ],
      "stateMutability": "view",
      "type": "function"
    },
    {
      "inputs": [],
      "name": "queuedWithdrawal",
      "outputs": [
        {
          "internalType": "uint256",
          "name": "",
          "type": "uint256"
        }
      ],
      "stateMutability": "view",
      "type": "function"
    },
    {
      "inputs": [
        {
          "internalType": "uint256",
          "name": "amount",
          "type": "uint256"
        }
      ],
      "name": "removeReward",
      "outputs": [],
      "stateMutability": "nonpayable",
      "type": "function"
    },
    {
      "inputs": [
        {
          "internalType": "uint256",
          "name": "vETH1Amount",
          "type": "uint256"
        }
      ],
      "name": "renew",
      "outputs": [],
      "stateMutability": "nonpayable",
      "type": "function"
    },
    {
      "inputs": [],
      "name": "renounceOwnership",
      "outputs": [],
      "stateMutability": "nonpayable",
      "type": "function"
    },
    {
      "inputs": [
        {
          "internalType": "uint256",
          "name": "",
          "type": "uint256"
        }
      ],
      "name": "rewardDays",
      "outputs": [
        {
          "internalType": "bool",
          "name": "",
          "type": "bool"
        }
      ],
      "stateMutability": "view",
      "type": "function"
    },
    {
      "inputs": [
        {
          "internalType": "uint256",
          "name": "_feeRate",
          "type": "uint256"
        }
      ],
      "name": "setFeeRate",
      "outputs": [],
      "stateMutability": "nonpayable",
      "type": "function"
    },
    {
      "inputs": [
        {
          "internalType": "address",
          "name": "_feeReceiver",
          "type": "address"
        }
      ],
      "name": "setFeeReceiver",
      "outputs": [],
      "stateMutability": "nonpayable",
      "type": "function"
    },
    {
      "inputs": [
        {
          "internalType": "address",
          "name": "newOperator",
          "type": "address"
        }
      ],
      "name": "setOperator",
      "outputs": [],
      "stateMutability": "nonpayable",
      "type": "function"
    },
    {
      "inputs": [],
      "name": "slpDeposit",
      "outputs": [
        {
          "internalType": "address",
          "name": "",
          "type": "address"
        }
      ],
      "stateMutability": "view",
      "type": "function"
    },
    {
      "inputs": [],
      "name": "tokenPool",
      "outputs": [
        {
          "internalType": "uint256",
          "name": "",
          "type": "uint256"
        }
      ],
      "stateMutability": "view",
      "type": "function"
    },
    {
      "inputs": [
        {
          "internalType": "address",
          "name": "newOwner",
          "type": "address"
        }
      ],
      "name": "transferOwnership",
      "outputs": [],
      "stateMutability": "nonpayable",
      "type": "function"
    },
    {
      "inputs": [],
      "name": "unpause",
      "outputs": [],
      "stateMutability": "nonpayable",
      "type": "function"
    },
    {
      "inputs": [],
      "name": "vETH1",
      "outputs": [
        {
          "internalType": "address",
          "name": "",
          "type": "address"
        }
      ],
      "stateMutability": "view",
      "type": "function"
    },
    {
      "inputs": [],
      "name": "vETH2",
      "outputs": [
        {
          "internalType": "address",
          "name": "",
          "type": "address"
        }
      ],
      "stateMutability": "view",
      "type": "function"
    },
    {
      "inputs": [
        {
          "internalType": "uint256",
          "name": "ethAmount",
          "type": "uint256"
        }
      ],
      "name": "withdrawComplete",
      "outputs": [],
      "stateMutability": "nonpayable",
      "type": "function"
    },
    {
      "inputs": [
        {
          "internalType": "uint256",
          "name": "vETHAmount",
          "type": "uint256"
        }
      ],
      "name": "withdrawRequest",
      "outputs": [],
      "stateMutability": "nonpayable",
      "type": "function"
    },
    {
      "inputs": [],
      "name": "withdrawReward",
      "outputs": [],
      "stateMutability": "nonpayable",
      "type": "function"
    },
    {
      "inputs": [],
      "name": "withdrawalNodeNumber",
      "outputs": [
        {
          "internalType": "uint256",
          "name": "",
          "type": "uint256"
        }
      ],
      "stateMutability": "view",
      "type": "function"
    },
    {
      "inputs": [
        {
          "internalType": "address",
          "name": "",
          "type": "address"
        }
      ],
      "name": "withdrawals",
      "outputs": [
        {
          "internalType": "uint256",
          "name": "queued",
          "type": "uint256"
        },
        {
          "internalType": "uint256",
          "name": "pending",
          "type": "uint256"
        }
      ],
      "stateMutability": "view",
      "type": "function"
    }
  ],
  "transactionHash": "0x8ef79568786940d794f152d45711a61b53582ee12b805966902f6702e1a6ee8e",
  "args": [],
  "numDeployments": 1,
  "solcInputHash": "5061145e334687301e6ccb3e75a1aa04",
  "bytecode": "0x608060405234801561001057600080fd5b50611e68806100206000396000f3fe60806040526004361061021a5760003560e01c8063715018a611610123578063abc9653e116100ab578063c553173f1161006f578063c553173f146105f6578063c885bc5814610616578063dcce58d01461062b578063efdcd97414610648578063f2fde38b1461066857600080fd5b8063abc9653e14610556578063b179b46514610576578063b33f952714610596578063b3ab15fb146105b6578063b3f00674146105d657600080fd5b80638456cb59116100f25780638456cb59146104d75780638da5cb5b146104ec578063978bbdb91461050a578063996e5c0614610520578063a24bcf461461053657600080fd5b8063715018a61461043957806374899a7e1461044e57806374de4ec41461046e5780637a9262a21461048e57600080fd5b80633f4ba83a116101a65780635a70ad28116101755780635a70ad28146103bf5780635baa7509146103d55780635c975abb146103f557806363ea1b921461040d5780636b96bb871461042357600080fd5b80633f4ba83a1461035457806345596e2e146103695780634e6fd6c414610389578063570ca7351461039f57600080fd5b8063193a225c116101ed578063193a225c146102b25780631ec01fcd146102ea57806322f808d51461030a5780632a487ef31461032a5780632ea5eadb1461033f57600080fd5b8063033452031461021f578063039f988b14610264578063104e9929146102865780631249c58b146102aa575b600080fd5b34801561022b57600080fd5b5061024f61023a366004611b9c565b60d06020526000908152604090205460ff1681565b60405190151581526020015b60405180910390f35b34801561027057600080fd5b5061028461027f366004611b9c565b610688565b005b34801561029257600080fd5b5061029c60ce5481565b60405190815260200161025b565b61028461071d565b3480156102be57600080fd5b5060ca546102d2906001600160a01b031681565b6040516001600160a01b03909116815260200161025b565b3480156102f657600080fd5b5060c9546102d2906001600160a01b031681565b34801561031657600080fd5b5060cb546102d2906001600160a01b031681565b34801561033657600080fd5b5061029c610895565b34801561034b57600080fd5b5061029c6108b6565b34801561036057600080fd5b506102846108c6565b34801561037557600080fd5b50610284610384366004611b9c565b6108d6565b34801561039557600080fd5b506102d261dead81565b3480156103ab57600080fd5b5060cc546102d2906001600160a01b031681565b3480156103cb57600080fd5b5061029c61271081565b3480156103e157600080fd5b506102846103f0366004611b9c565b6108ea565b34801561040157600080fd5b5060975460ff1661024f565b34801561041957600080fd5b5061029c60d25481565b34801561042f57600080fd5b5061029c60d35481565b34801561044557600080fd5b50610284610a1a565b34801561045a57600080fd5b50610284610469366004611b9c565b610a2c565b34801561047a57600080fd5b50610284610489366004611b9c565b610b39565b34801561049a57600080fd5b506104c26104a9366004611bd1565b60d4602052600090815260409020805460019091015482565b6040805192835260208301919091520161025b565b3480156104e357600080fd5b50610284610cc0565b3480156104f857600080fd5b506033546001600160a01b03166102d2565b34801561051657600080fd5b5061029c60cf5481565b34801561052c57600080fd5b5061029c60d15481565b34801561054257600080fd5b5061029c610551366004611b9c565b610cd0565b34801561056257600080fd5b50610284610571366004611b9c565b610d6c565b34801561058257600080fd5b5061029c610591366004611b9c565b610ee0565b3480156105a257600080fd5b506102846105b1366004611bec565b610f6a565b3480156105c257600080fd5b506102846105d1366004611bd1565b6111d1565b3480156105e257600080fd5b5060cd546102d2906001600160a01b031681565b34801561060257600080fd5b50610284610611366004611b9c565b6111e2565b34801561062257600080fd5b506102846112cf565b34801561063757600080fd5b5061029c6801bc16d674ec80000081565b34801561065457600080fd5b50610284610663366004611bd1565b6113cd565b34801561067457600080fd5b50610284610683366004611bd1565b6113de565b60cc546001600160a01b031633146106bb5760405162461bcd60e51b81526004016106b290611c64565b60405180910390fd5b6106c36108b6565b6801bc16d674ec8000008260d3546106db9190611caa565b6106e59190611cc3565b11156107035760405162461bcd60e51b81526004016106b290611cda565b8060d360008282546107159190611caa565b909155505050565b610725611454565b61072d6114ad565b34806107695760405162461bcd60e51b815260206004820152600b60248201526a16995c9bc8185b5bdd5b9d60aa1b60448201526064016106b2565b600061077482610ee0565b90508160ce546107849190611caa565b60ce5560cb546040805163f6326fb360e01b815290516001600160a01b039092169163f6326fb3918591600480830192600092919082900301818588803b1580156107ce57600080fd5b505af11580156107e2573d6000803e3d6000fd5b505060ca546040516340c10f1960e01b8152336004820152602481018690526001600160a01b0390911693506340c10f1992506044019050600060405180830381600087803b15801561083457600080fd5b505af1158015610848573d6000803e3d6000fd5b505060408051858152602081018590523393507f73a19dd210f1a7f902193214c0ee91dd35ee5b4d920cba8d519eca65a7b488ca92500160405180910390a250506108936001606555565b565b60006108a46201518042611d04565b6108b19062015180611cc3565b905090565b600060d254476108b19190611caa565b6108ce6114fa565b610893611554565b6108de6114fa565b6108e7816115a6565b50565b6108f2611454565b6108fa6114ad565b600081116109385760405162461bcd60e51b815260206004820152600b60248201526a16995c9bc8185b5bdd5b9d60aa1b60448201526064016106b2565b600061094382610ee0565b90508160ce546109539190611caa565b60ce5560c954610970906001600160a01b03163361dead856115f6565b60ca546040516340c10f1960e01b8152336004820152602481018390526001600160a01b03909116906340c10f1990604401600060405180830381600087803b1580156109bc57600080fd5b505af11580156109d0573d6000803e3d6000fd5b505060408051858152602081018590523393507f9f1eab6cdd1daff5126e5746868327717314baefd3abd72422a3064e1300279c92500160405180910390a2506108e76001606555565b610a226114fa565b6108936000611656565b610a34611454565b610a3c6114ad565b33600090815260d46020526040812090610a5583610cd0565b905080826001016000828254610a6b9190611caa565b909155505060d18054808455829190600090610a88908490611caa565b909155505060ca54604051632770a7eb60e21b8152336004820152602481018390526001600160a01b0390911690639dc29fac90604401600060405180830381600087803b158015610ad957600080fd5b505af1158015610aed573d6000803e3d6000fd5b505060408051868152602081018590523393507fd72eb5d043f24a0168ae744d5c44f9596fd673a26bf74d9646bff4b844882d149250015b60405180910390a250506108e76001606555565b60cc546001600160a01b03163314610b635760405162461bcd60e51b81526004016106b290611c64565b6000610b6d610895565b600081815260d0602052604090205490915060ff1615610bc35760405162461bcd60e51b8152602060048201526011602482015270526577617264207061696420746f64617960781b60448201526064016106b2565b600081815260d060205260408120805460ff1916600117905560cf5461271090610bed9085611cc3565b610bf79190611d04565b90506000610c0482610ee0565b90508360ce54610c149190611caa565b60ce5560ca5460cd546040516340c10f1960e01b81526001600160a01b039182166004820152602481018490529116906340c10f1990604401600060405180830381600087803b158015610c6757600080fd5b505af1158015610c7b573d6000803e3d6000fd5b505060408051878152602081018590523393507f6a6f77044107a33658235d41bedbbaf2fe9ccdceb313143c947a5e76e1ec847492500160405180910390a250505050565b610cc86114fa565b6108936116a8565b60008060ca60009054906101000a90046001600160a01b03166001600160a01b03166318160ddd6040518163ffffffff1660e01b8152600401602060405180830381865afa158015610d26573d6000803e3d6000fd5b505050506040513d601f19601f82011682018060405250810190610d4a9190611d26565b90508060ce5484610d5b9190611cc3565b610d659190611d04565b9392505050565b610d74611454565b610d7c6114ad565b33600090815260d4602052604090206001810154821115610ddf5760405162461bcd60e51b815260206004820152601e60248201527f496e73756666696369656e74207769746864726177616c20616d6f756e74000060448201526064016106b2565b6000610de96108b6565b9050806801bc16d674ec80000060d354610e039190611cc3565b1115610e215760405162461bcd60e51b81526004016106b290611cda565b81548190610e30908590611caa565b1115610e4e5760405162461bcd60e51b81526004016106b290611cda565b82826001016000828254610e629190611d3f565b925050819055508260d26000828254610e7b9190611caa565b9091555050604051339084156108fc029085906000818181858888f19350505050158015610ead573d6000803e3d6000fd5b5060405183815233907f60188009b974c2fa66ee3b916d93f64d6534ea2204e0c466f9784ace689e8e4990602001610b25565b60008060ca60009054906101000a90046001600160a01b03166001600160a01b03166318160ddd6040518163ffffffff1660e01b8152600401602060405180830381865afa158015610f36573d6000803e3d6000fd5b505050506040513d601f19601f82011682018060405250810190610f5a9190611d26565b60ce54909150610d5b8285611cc3565b600054610100900460ff1615808015610f8a5750600054600160ff909116105b80610fa45750303b158015610fa4575060005460ff166001145b6110075760405162461bcd60e51b815260206004820152602e60248201527f496e697469616c697a61626c653a20636f6e747261637420697320616c72656160448201526d191e481a5b9a5d1a585b1a5e995960921b60648201526084016106b2565b6000805460ff19166001179055801561102a576000805461ff0019166101001790555b6001600160a01b0388166110705760405162461bcd60e51b815260206004820152600d60248201526c496e76616c696420764554483160981b60448201526064016106b2565b6001600160a01b0387166110b65760405162461bcd60e51b815260206004820152600d60248201526c24b73b30b634b2103b22aa241960991b60448201526064016106b2565b6001600160a01b03861661110c5760405162461bcd60e51b815260206004820152601b60248201527f496e76616c696420534c50206465706f7369742061646472657373000000000060448201526064016106b2565b6111146116e5565b61111c611714565b611124611743565b61112d826115a6565b61113684611772565b61113f856117ea565b60c980546001600160a01b03808b166001600160a01b03199283161790925560ca80548a841690831617905560cb80549289169290911691909117905560ce83905580156111c7576000805461ff0019169055604051600181527f7f26b83ff96e1f2b6a682f133852f6798a09c465da95921460cefb38474024989060200160405180910390a15b5050505050505050565b6111d96114fa565b6108e7816117ea565b60cc546001600160a01b0316331461120c5760405162461bcd60e51b81526004016106b290611c64565b6000611216610895565b600081815260d0602052604090205490915060ff161561126c5760405162461bcd60e51b8152602060048201526011602482015270526577617264207061696420746f64617960781b60448201526064016106b2565b600081815260d060205260409020805460ff1916600117905560ce54611293908390611d3f565b60ce5560405182815233907fccdd1b4597f1516187e25b38fbad3e75a428981d2a1d898667abb3cdd95a672f9060200160405180910390a25050565b60cc546001600160a01b031633146112f95760405162461bcd60e51b81526004016106b290611c64565b60006113036108b6565b9050806801bc16d674ec80000060d35461131d9190611cc3565b111561133b5760405162461bcd60e51b81526004016106b290611cda565b60006801bc16d674ec80000060d3546113549190611cc3565b61135e9083611d3f565b905060cb60009054906101000a90046001600160a01b03166001600160a01b031663f6326fb3826040518263ffffffff1660e01b81526004016000604051808303818588803b1580156113b057600080fd5b505af11580156113c4573d6000803e3d6000fd5b50505050505050565b6113d56114fa565b6108e781611772565b6113e66114fa565b6001600160a01b03811661144b5760405162461bcd60e51b815260206004820152602660248201527f4f776e61626c653a206e6577206f776e657220697320746865207a65726f206160448201526564647265737360d01b60648201526084016106b2565b6108e781611656565b6002606554036114a65760405162461bcd60e51b815260206004820152601f60248201527f5265656e7472616e637947756172643a207265656e7472616e742063616c6c0060448201526064016106b2565b6002606555565b60975460ff16156108935760405162461bcd60e51b815260206004820152601060248201526f14185d5cd8589b194e881c185d5cd95960821b60448201526064016106b2565b6001606555565b6033546001600160a01b031633146108935760405162461bcd60e51b815260206004820181905260248201527f4f776e61626c653a2063616c6c6572206973206e6f7420746865206f776e657260448201526064016106b2565b61155c611862565b6097805460ff191690557f5db9ee0a495bf2e6ff9c91a7834c1ba4fdd244a5e8aa4e537bd38aeae4b073aa335b6040516001600160a01b03909116815260200160405180910390a1565b6127108111156115f15760405162461bcd60e51b8152602060048201526016602482015275466565207261746520657863656564732072616e676560501b60448201526064016106b2565b60cf55565b604080516001600160a01b0385811660248301528416604482015260648082018490528251808303909101815260849091019091526020810180516001600160e01b03166323b872dd60e01b1790526116509085906118ab565b50505050565b603380546001600160a01b038381166001600160a01b0319831681179093556040519116919082907f8be0079c531659141344cd1fd0a4f28419497f9722a3daafe3b4186f6b6457e090600090a35050565b6116b06114ad565b6097805460ff191660011790557f62e78cea01bee320cd4e420270b5ea74000d11b0c9f74754ebdbfc544b05a2586115893390565b600054610100900460ff1661170c5760405162461bcd60e51b81526004016106b290611d52565b610893611982565b600054610100900460ff1661173b5760405162461bcd60e51b81526004016106b290611d52565b6108936119b2565b600054610100900460ff1661176a5760405162461bcd60e51b81526004016106b290611d52565b6108936119d9565b6001600160a01b0381166117c85760405162461bcd60e51b815260206004820152601c60248201527f496e76616c69642066656520726563656976657220616464726573730000000060448201526064016106b2565b60cd80546001600160a01b0319166001600160a01b0392909216919091179055565b6001600160a01b0381166118405760405162461bcd60e51b815260206004820152601860248201527f496e76616c6964206f70657261746f722061646472657373000000000000000060448201526064016106b2565b60cc80546001600160a01b0319166001600160a01b0392909216919091179055565b60975460ff166108935760405162461bcd60e51b815260206004820152601460248201527314185d5cd8589b194e881b9bdd081c185d5cd95960621b60448201526064016106b2565b6000611900826040518060400160405280602081526020017f5361666545524332303a206c6f772d6c6576656c2063616c6c206661696c6564815250856001600160a01b0316611a0c9092919063ffffffff16565b80519091501561197d578080602001905181019061191e9190611d9d565b61197d5760405162461bcd60e51b815260206004820152602a60248201527f5361666545524332303a204552433230206f7065726174696f6e20646964206e6044820152691bdd081cdd58d8d9595960b21b60648201526084016106b2565b505050565b600054610100900460ff166119a95760405162461bcd60e51b81526004016106b290611d52565b61089333611656565b600054610100900460ff166114f35760405162461bcd60e51b81526004016106b290611d52565b600054610100900460ff16611a005760405162461bcd60e51b81526004016106b290611d52565b6097805460ff19169055565b6060611a1b8484600085611a23565b949350505050565b606082471015611a845760405162461bcd60e51b815260206004820152602660248201527f416464726573733a20696e73756666696369656e742062616c616e636520666f6044820152651c8818d85b1b60d21b60648201526084016106b2565b600080866001600160a01b03168587604051611aa09190611de3565b60006040518083038185875af1925050503d8060008114611add576040519150601f19603f3d011682016040523d82523d6000602084013e611ae2565b606091505b5091509150611af387838387611afe565b979650505050505050565b60608315611b6d578251600003611b66576001600160a01b0385163b611b665760405162461bcd60e51b815260206004820152601d60248201527f416464726573733a2063616c6c20746f206e6f6e2d636f6e747261637400000060448201526064016106b2565b5081611a1b565b611a1b8383815115611b825781518083602001fd5b8060405162461bcd60e51b81526004016106b29190611dff565b600060208284031215611bae57600080fd5b5035919050565b80356001600160a01b0381168114611bcc57600080fd5b919050565b600060208284031215611be357600080fd5b610d6582611bb5565b600080600080600080600060e0888a031215611c0757600080fd5b611c1088611bb5565b9650611c1e60208901611bb5565b9550611c2c60408901611bb5565b9450611c3a60608901611bb5565b9350611c4860808901611bb5565b925060a0880135915060c0880135905092959891949750929550565b60208082526016908201527521b0b63632b91034b9903737ba1037b832b930ba37b960511b604082015260600190565b634e487b7160e01b600052601160045260246000fd5b80820180821115611cbd57611cbd611c94565b92915050565b8082028115828204841417611cbd57611cbd611c94565b60208082526010908201526f08af0c6cacac840e8dee8c2d8408aa8960831b604082015260600190565b600082611d2157634e487b7160e01b600052601260045260246000fd5b500490565b600060208284031215611d3857600080fd5b5051919050565b81810381811115611cbd57611cbd611c94565b6020808252602b908201527f496e697469616c697a61626c653a20636f6e7472616374206973206e6f74206960408201526a6e697469616c697a696e6760a81b606082015260800190565b600060208284031215611daf57600080fd5b81518015158114610d6557600080fd5b60005b83811015611dda578181015183820152602001611dc2565b50506000910152565b60008251611df5818460208701611dbf565b9190910192915050565b6020815260008251806020840152611e1e816040850160208701611dbf565b601f01601f1916919091016040019291505056fea2646970667358221220a367a79704bd4d164b3bd22cad39c2eca9f8be2da79f95520fc0fc419a2373d464736f6c63430008110033",
  "devdoc": {
    "kind": "dev",
    "methods": {
      "owner()": {
        "details": "Returns the address of the current owner."
      },
      "paused()": {
        "details": "Returns true if the contract is paused, and false otherwise."
      },
      "renounceOwnership()": {
        "details": "Leaves the contract without owner. It will not be possible to call `onlyOwner` functions anymore. Can only be called by the current owner. NOTE: Renouncing ownership will leave the contract without an owner, thereby removing any functionality that is only available to the owner."
      },
      "transferOwnership(address)": {
        "details": "Transfers ownership of the contract to a new account (`newOwner`). Can only be called by the current owner."
      }
    },
    "version": 1
  },
  "userdoc": {
    "kind": "user",
    "methods": {},
    "version": 1
  },
  "storageLayout": {
    "storage": [
      {
        "astId": 138,
        "contract": "contracts/SLPCore.sol:SLPCore",
        "label": "_initialized",
        "offset": 0,
        "slot": "0",
        "type": "t_uint8"
      },
      {
        "astId": 141,
        "contract": "contracts/SLPCore.sol:SLPCore",
        "label": "_initializing",
        "offset": 1,
        "slot": "0",
        "type": "t_bool"
      },
      {
        "astId": 1220,
        "contract": "contracts/SLPCore.sol:SLPCore",
        "label": "__gap",
        "offset": 0,
        "slot": "1",
        "type": "t_array(t_uint256)50_storage"
      },
      {
        "astId": 10,
        "contract": "contracts/SLPCore.sol:SLPCore",
        "label": "_owner",
        "offset": 0,
        "slot": "51",
        "type": "t_address"
      },
      {
        "astId": 130,
        "contract": "contracts/SLPCore.sol:SLPCore",
        "label": "__gap",
        "offset": 0,
        "slot": "52",
        "type": "t_array(t_uint256)49_storage"
      },
      {
        "astId": 441,
        "contract": "contracts/SLPCore.sol:SLPCore",
        "label": "_status",
        "offset": 0,
        "slot": "101",
        "type": "t_uint256"
      },
      {
        "astId": 499,
        "contract": "contracts/SLPCore.sol:SLPCore",
        "label": "__gap",
        "offset": 0,
        "slot": "102",
        "type": "t_array(t_uint256)49_storage"
      },
      {
        "astId": 321,
        "contract": "contracts/SLPCore.sol:SLPCore",
        "label": "_paused",
        "offset": 0,
        "slot": "151",
        "type": "t_bool"
      },
      {
        "astId": 426,
        "contract": "contracts/SLPCore.sol:SLPCore",
        "label": "__gap",
        "offset": 0,
        "slot": "152",
        "type": "t_array(t_uint256)49_storage"
      },
      {
        "astId": 1300,
        "contract": "contracts/SLPCore.sol:SLPCore",
        "label": "vETH1",
        "offset": 0,
        "slot": "201",
        "type": "t_address"
      },
      {
        "astId": 1302,
        "contract": "contracts/SLPCore.sol:SLPCore",
        "label": "vETH2",
        "offset": 0,
        "slot": "202",
        "type": "t_address"
      },
      {
        "astId": 1304,
        "contract": "contracts/SLPCore.sol:SLPCore",
        "label": "slpDeposit",
        "offset": 0,
        "slot": "203",
        "type": "t_address"
      },
      {
        "astId": 1306,
        "contract": "contracts/SLPCore.sol:SLPCore",
        "label": "operator",
        "offset": 0,
        "slot": "204",
        "type": "t_address"
      },
      {
        "astId": 1308,
        "contract": "contracts/SLPCore.sol:SLPCore",
        "label": "feeReceiver",
        "offset": 0,
        "slot": "205",
        "type": "t_address"
      },
      {
        "astId": 1310,
        "contract": "contracts/SLPCore.sol:SLPCore",
        "label": "tokenPool",
        "offset": 0,
        "slot": "206",
        "type": "t_uint256"
      },
      {
        "astId": 1312,
        "contract": "contracts/SLPCore.sol:SLPCore",
        "label": "feeRate",
        "offset": 0,
        "slot": "207",
        "type": "t_uint256"
      },
      {
        "astId": 1316,
        "contract": "contracts/SLPCore.sol:SLPCore",
        "label": "rewardDays",
        "offset": 0,
        "slot": "208",
        "type": "t_mapping(t_uint256,t_bool)"
      },
      {
        "astId": 1318,
        "contract": "contracts/SLPCore.sol:SLPCore",
        "label": "queuedWithdrawal",
        "offset": 0,
        "slot": "209",
        "type": "t_uint256"
      },
      {
        "astId": 1320,
        "contract": "contracts/SLPCore.sol:SLPCore",
        "label": "completedWithdrawal",
        "offset": 0,
        "slot": "210",
        "type": "t_uint256"
      },
      {
        "astId": 1322,
        "contract": "contracts/SLPCore.sol:SLPCore",
        "label": "withdrawalNodeNumber",
        "offset": 0,
        "slot": "211",
        "type": "t_uint256"
      },
      {
        "astId": 1327,
        "contract": "contracts/SLPCore.sol:SLPCore",
        "label": "withdrawals",
        "offset": 0,
        "slot": "212",
        "type": "t_mapping(t_address,t_struct(Withdrawal)1245_storage)"
      }
    ],
    "types": {
      "t_address": {
        "encoding": "inplace",
        "label": "address",
        "numberOfBytes": "20"
      },
      "t_array(t_uint256)49_storage": {
        "base": "t_uint256",
        "encoding": "inplace",
        "label": "uint256[49]",
        "numberOfBytes": "1568"
      },
      "t_array(t_uint256)50_storage": {
        "base": "t_uint256",
        "encoding": "inplace",
        "label": "uint256[50]",
        "numberOfBytes": "1600"
      },
      "t_bool": {
        "encoding": "inplace",
        "label": "bool",
        "numberOfBytes": "1"
      },
      "t_mapping(t_address,t_struct(Withdrawal)1245_storage)": {
        "encoding": "mapping",
        "key": "t_address",
        "label": "mapping(address => struct SLPCore.Withdrawal)",
        "numberOfBytes": "32",
        "value": "t_struct(Withdrawal)1245_storage"
      },
      "t_mapping(t_uint256,t_bool)": {
        "encoding": "mapping",
        "key": "t_uint256",
        "label": "mapping(uint256 => bool)",
        "numberOfBytes": "32",
        "value": "t_bool"
      },
      "t_struct(Withdrawal)1245_storage": {
        "encoding": "inplace",
        "label": "struct SLPCore.Withdrawal",
        "members": [
          {
            "astId": 1242,
            "contract": "contracts/SLPCore.sol:SLPCore",
            "label": "queued",
            "offset": 0,
            "slot": "0",
            "type": "t_uint256"
          },
          {
            "astId": 1244,
            "contract": "contracts/SLPCore.sol:SLPCore",
            "label": "pending",
            "offset": 0,
            "slot": "1",
            "type": "t_uint256"
          }
        ],
        "numberOfBytes": "64"
      },
      "t_uint256": {
        "encoding": "inplace",
        "label": "uint256",
        "numberOfBytes": "32"
      },
      "t_uint8": {
        "encoding": "inplace",
        "label": "uint8",
        "numberOfBytes": "1"
      }
    }
  }
}