{
  "address": "0x27ec83d2aed2c47c6b138782186c992767e2e3E2",
  "abi": [
    {
      "anonymous": false,
      "inputs": [
        {
          "indexed": true,
          "internalType": "address",
          "name": "sender",
          "type": "address"
        },
        {
          "indexed": false,
          "internalType": "uint256",
          "name": "tokenAmount",
          "type": "uint256"
        },
        {
          "indexed": false,
          "internalType": "uint256",
          "name": "vTokenAmount",
          "type": "uint256"
        }
      ],
      "name": "Deposited",
      "type": "event"
    },
    {
      "anonymous": false,
      "inputs": [
        {
          "indexed": false,
          "internalType": "uint8",
          "name": "version",
          "type": "uint8"
        }
      ],
      "name": "Initialized",
      "type": "event"
    },
    {
      "anonymous": false,
      "inputs": [
        {
          "indexed": true,
          "internalType": "address",
          "name": "previousOwner",
          "type": "address"
        },
        {
          "indexed": true,
          "internalType": "address",
          "name": "newOwner",
          "type": "address"
        }
      ],
      "name": "OwnershipTransferred",
      "type": "event"
    },
    {
      "anonymous": false,
      "inputs": [
        {
          "indexed": false,
          "internalType": "address",
          "name": "account",
          "type": "address"
        }
      ],
      "name": "Paused",
      "type": "event"
    },
    {
      "anonymous": false,
      "inputs": [
        {
          "indexed": true,
          "internalType": "address",
          "name": "sender",
          "type": "address"
        },
        {
          "indexed": false,
          "internalType": "uint256",
          "name": "tokenAmount",
          "type": "uint256"
        },
        {
          "indexed": false,
          "internalType": "uint256",
          "name": "vTokenAmount",
          "type": "uint256"
        }
      ],
      "name": "Renewed",
      "type": "event"
    },
    {
      "anonymous": false,
      "inputs": [
        {
          "indexed": true,
          "internalType": "address",
          "name": "sender",
          "type": "address"
        },
        {
          "indexed": false,
          "internalType": "uint256",
          "name": "tokenAamount",
          "type": "uint256"
        },
        {
          "indexed": false,
          "internalType": "uint256",
          "name": "vTokenfee",
          "type": "uint256"
        }
      ],
      "name": "RewardAdded",
      "type": "event"
    },
    {
      "anonymous": false,
      "inputs": [
        {
          "indexed": true,
          "internalType": "address",
          "name": "sender",
          "type": "address"
        },
        {
          "indexed": false,
          "internalType": "uint256",
          "name": "tokenAmount",
          "type": "uint256"
        }
      ],
      "name": "RewardRemoved",
      "type": "event"
    },
    {
      "anonymous": false,
      "inputs": [
        {
          "indexed": false,
          "internalType": "address",
          "name": "account",
          "type": "address"
        }
      ],
      "name": "Unpaused",
      "type": "event"
    },
    {
      "anonymous": false,
      "inputs": [
        {
          "indexed": true,
          "internalType": "address",
          "name": "sender",
          "type": "address"
        },
        {
          "indexed": false,
          "internalType": "uint256",
          "name": "tokenAmount",
          "type": "uint256"
        }
      ],
      "name": "WithdrawalCompleted",
      "type": "event"
    },
    {
      "anonymous": false,
      "inputs": [
        {
          "indexed": true,
          "internalType": "address",
          "name": "sender",
          "type": "address"
        },
        {
          "indexed": false,
          "internalType": "uint256",
          "name": "tokenAmount",
          "type": "uint256"
        },
        {
          "indexed": false,
          "internalType": "uint256",
          "name": "vTokenAmount",
          "type": "uint256"
        }
      ],
      "name": "WithdrawalRequested",
      "type": "event"
    },
    {
      "inputs": [],
      "name": "DEAD_ADDRESS",
      "outputs": [
        {
          "internalType": "address",
          "name": "",
          "type": "address"
        }
      ],
      "stateMutability": "view",
      "type": "function"
    },
    {
      "inputs": [],
      "name": "DEPOSIT_ETH",
      "outputs": [
        {
          "internalType": "uint256",
          "name": "",
          "type": "uint256"
        }
      ],
      "stateMutability": "view",
      "type": "function"
    },
    {
      "inputs": [],
      "name": "FEE_RATE_DENOMINATOR",
      "outputs": [
        {
          "internalType": "uint256",
          "name": "",
          "type": "uint256"
        }
      ],
      "stateMutability": "view",
      "type": "function"
    },
    {
      "inputs": [
        {
          "internalType": "uint256",
          "name": "amount",
          "type": "uint256"
        }
      ],
      "name": "addReward",
      "outputs": [],
      "stateMutability": "nonpayable",
      "type": "function"
    },
    {
      "inputs": [
        {
          "internalType": "uint256",
          "name": "vTokenAmount",
          "type": "uint256"
        }
      ],
      "name": "calculateTokenAmount",
      "outputs": [
        {
          "internalType": "uint256",
          "name": "tokenAmount",
          "type": "uint256"
        }
      ],
      "stateMutability": "view",
      "type": "function"
    },
    {
      "inputs": [
        {
          "internalType": "uint256",
          "name": "tokenAmount",
          "type": "uint256"
        }
      ],
      "name": "calculateVTokenAmount",
      "outputs": [
        {
          "internalType": "uint256",
          "name": "vTokenAmount",
          "type": "uint256"
        }
      ],
      "stateMutability": "view",
      "type": "function"
    },
    {
      "inputs": [
        {
          "internalType": "address",
          "name": "target",
          "type": "address"
        }
      ],
      "name": "canWithdrawalAmount",
      "outputs": [
        {
          "internalType": "uint256",
          "name": "",
          "type": "uint256"
        }
      ],
      "stateMutability": "view",
      "type": "function"
    },
    {
      "inputs": [],
      "name": "completedWithdrawal",
      "outputs": [
        {
          "internalType": "uint256",
          "name": "",
          "type": "uint256"
        }
      ],
      "stateMutability": "view",
      "type": "function"
    },
    {
      "inputs": [],
      "name": "feeRate",
      "outputs": [
        {
          "internalType": "uint256",
          "name": "",
          "type": "uint256"
        }
      ],
      "stateMutability": "view",
      "type": "function"
    },
    {
      "inputs": [],
      "name": "feeReceiver",
      "outputs": [
        {
          "internalType": "address",
          "name": "",
          "type": "address"
        }
      ],
      "stateMutability": "view",
      "type": "function"
    },
    {
      "inputs": [],
      "name": "getHistoryETH",
      "outputs": [
        {
          "internalType": "uint256",
          "name": "",
          "type": "uint256"
        }
      ],
      "stateMutability": "view",
      "type": "function"
    },
    {
      "inputs": [],
      "name": "getTodayTimestamp",
      "outputs": [
        {
          "internalType": "uint256",
          "name": "",
          "type": "uint256"
        }
      ],
      "stateMutability": "view",
      "type": "function"
    },
    {
      "inputs": [
        {
          "internalType": "uint256",
          "name": "n",
          "type": "uint256"
        }
      ],
      "name": "increaseWithdrawalNodeNumber",
      "outputs": [],
      "stateMutability": "nonpayable",
      "type": "function"
    },
    {
      "inputs": [
        {
          "internalType": "address",
          "name": "_vETH1",
          "type": "address"
        },
        {
          "internalType": "address",
          "name": "_vETH2",
          "type": "address"
        },
        {
          "internalType": "address",
          "name": "_slpDeposit",
          "type": "address"
        },
        {
          "internalType": "address",
          "name": "_operator",
          "type": "address"
        },
        {
          "internalType": "address",
          "name": "_feeReceiver",
          "type": "address"
        },
        {
          "internalType": "uint256",
          "name": "_feeRate",
          "type": "uint256"
        }
      ],
      "name": "initialize",
      "outputs": [],
      "stateMutability": "nonpayable",
      "type": "function"
    },
    {
      "inputs": [],
      "name": "mint",
      "outputs": [],
      "stateMutability": "payable",
      "type": "function"
    },
    {
      "inputs": [],
      "name": "operator",
      "outputs": [
        {
          "internalType": "address",
          "name": "",
          "type": "address"
        }
      ],
      "stateMutability": "view",
      "type": "function"
    },
    {
      "inputs": [],
      "name": "owner",
      "outputs": [
        {
          "internalType": "address",
          "name": "",
          "type": "address"
        }
      ],
      "stateMutability": "view",
      "type": "function"
    },
    {
      "inputs": [],
      "name": "pause",
      "outputs": [],
      "stateMutability": "nonpayable",
      "type": "function"
    },
    {
      "inputs": [],
      "name": "paused",
      "outputs": [
        {
          "internalType": "bool",
          "name": "",
          "type": "bool"
        }
      ],
      "stateMutability": "view",
      "type": "function"
    },
    {
      "inputs": [],
      "name": "queuedWithdrawal",
      "outputs": [
        {
          "internalType": "uint256",
          "name": "",
          "type": "uint256"
        }
      ],
      "stateMutability": "view",
      "type": "function"
    },
    {
      "inputs": [
        {
          "internalType": "uint256",
          "name": "amount",
          "type": "uint256"
        }
      ],
      "name": "removeReward",
      "outputs": [],
      "stateMutability": "nonpayable",
      "type": "function"
    },
    {
      "inputs": [
        {
          "internalType": "uint256",
          "name": "vETH1Amount",
          "type": "uint256"
        }
      ],
      "name": "renew",
      "outputs": [],
      "stateMutability": "nonpayable",
      "type": "function"
    },
    {
      "inputs": [],
      "name": "renounceOwnership",
      "outputs": [],
      "stateMutability": "nonpayable",
      "type": "function"
    },
    {
      "inputs": [
        {
          "internalType": "uint256",
          "name": "",
          "type": "uint256"
        }
      ],
      "name": "rewardDays",
      "outputs": [
        {
          "internalType": "bool",
          "name": "",
          "type": "bool"
        }
      ],
      "stateMutability": "view",
      "type": "function"
    },
    {
      "inputs": [
        {
          "internalType": "uint256",
          "name": "_feeRate",
          "type": "uint256"
        }
      ],
      "name": "setFeeRate",
      "outputs": [],
      "stateMutability": "nonpayable",
      "type": "function"
    },
    {
      "inputs": [
        {
          "internalType": "address",
          "name": "_feeReceiver",
          "type": "address"
        }
      ],
      "name": "setFeeReceiver",
      "outputs": [],
      "stateMutability": "nonpayable",
      "type": "function"
    },
    {
      "inputs": [
        {
          "internalType": "address",
          "name": "newOperator",
          "type": "address"
        }
      ],
      "name": "setOperator",
      "outputs": [],
      "stateMutability": "nonpayable",
      "type": "function"
    },
    {
      "inputs": [],
      "name": "slpDeposit",
      "outputs": [
        {
          "internalType": "address",
          "name": "",
          "type": "address"
        }
      ],
      "stateMutability": "view",
      "type": "function"
    },
    {
      "inputs": [],
      "name": "tokenPool",
      "outputs": [
        {
          "internalType": "uint256",
          "name": "",
          "type": "uint256"
        }
      ],
      "stateMutability": "view",
      "type": "function"
    },
    {
      "inputs": [
        {
          "internalType": "address",
          "name": "newOwner",
          "type": "address"
        }
      ],
      "name": "transferOwnership",
      "outputs": [],
      "stateMutability": "nonpayable",
      "type": "function"
    },
    {
      "inputs": [],
      "name": "unpause",
      "outputs": [],
      "stateMutability": "nonpayable",
      "type": "function"
    },
    {
      "inputs": [],
      "name": "vETH1",
      "outputs": [
        {
          "internalType": "address",
          "name": "",
          "type": "address"
        }
      ],
      "stateMutability": "view",
      "type": "function"
    },
    {
      "inputs": [],
      "name": "vETH2",
      "outputs": [
        {
          "internalType": "address",
          "name": "",
          "type": "address"
        }
      ],
      "stateMutability": "view",
      "type": "function"
    },
    {
      "inputs": [
        {
          "internalType": "uint256",
          "name": "tokenAmount",
          "type": "uint256"
        }
      ],
      "name": "withdrawComplete",
      "outputs": [],
      "stateMutability": "nonpayable",
      "type": "function"
    },
    {
      "inputs": [
        {
          "internalType": "uint256",
          "name": "vTokenAmount",
          "type": "uint256"
        }
      ],
      "name": "withdrawRequest",
      "outputs": [],
      "stateMutability": "nonpayable",
      "type": "function"
    },
    {
      "inputs": [],
      "name": "withdrawReward",
      "outputs": [],
      "stateMutability": "nonpayable",
      "type": "function"
    },
    {
      "inputs": [],
      "name": "withdrawalNodeNumber",
      "outputs": [
        {
          "internalType": "uint256",
          "name": "",
          "type": "uint256"
        }
      ],
      "stateMutability": "view",
      "type": "function"
    },
    {
      "inputs": [
        {
          "internalType": "address",
          "name": "",
          "type": "address"
        }
      ],
      "name": "withdrawals",
      "outputs": [
        {
          "internalType": "uint256",
          "name": "queued",
          "type": "uint256"
        },
        {
          "internalType": "uint256",
          "name": "pending",
          "type": "uint256"
        }
      ],
      "stateMutability": "view",
      "type": "function"
    }
  ],
  "transactionHash": "0x74a50519b256350285bb130bda1b81198bddc122f025f402a9d7791d6a46e6aa",
  "args": [],
  "numDeployments": 1,
  "solcInputHash": "7b6cc7faa07f469e08cfb03f3d4cd13f",
  "bytecode": "0x608060405234801561001057600080fd5b50612144806100206000396000f3fe6080604052600436106102255760003560e01c806374899a7e11610123578063abc9653e116100ab578063c553173f1161006f578063c553173f14610621578063c885bc5814610641578063dcce58d014610656578063efdcd97414610673578063f2fde38b1461069357600080fd5b8063abc9653e14610581578063b179b465146105a1578063b3ab15fb146105c1578063b3f00674146105e1578063b8436e161461060157600080fd5b80638da5cb5b116100f25780638da5cb5b146104f757806395b6ef0c14610515578063978bbdb914610535578063996e5c061461054b578063a24bcf461461056157600080fd5b806374899a7e1461045957806374de4ec4146104795780637a9262a2146104995780638456cb59146104e257600080fd5b806345596e2e116101b15780635baa7509116101755780635baa7509146103e05780635c975abb1461040057806363ea1b92146104185780636b96bb871461042e578063715018a61461044457600080fd5b806345596e2e146103545780634e6fd6c41461037457806352a630b91461038a578063570ca735146103aa5780635a70ad28146103ca57600080fd5b80631ec01fcd116101f85780631ec01fcd146102d557806322f808d5146102f55780632a487ef3146103155780632ea5eadb1461032a5780633f4ba83a1461033f57600080fd5b8063033452031461022a578063104e99291461026f5780631249c58b14610293578063193a225c1461029d575b600080fd5b34801561023657600080fd5b5061025a610245366004611ead565b60d06020526000908152604090205460ff1681565b60405190151581526020015b60405180910390f35b34801561027b57600080fd5b5061028560ce5481565b604051908152602001610266565b61029b6106b3565b005b3480156102a957600080fd5b5060ca546102bd906001600160a01b031681565b6040516001600160a01b039091168152602001610266565b3480156102e157600080fd5b5060c9546102bd906001600160a01b031681565b34801561030157600080fd5b5060cb546102bd906001600160a01b031681565b34801561032157600080fd5b50610285610830565b34801561033657600080fd5b50610285610851565b34801561034b57600080fd5b5061029b610861565b34801561036057600080fd5b5061029b61036f366004611ead565b610871565b34801561038057600080fd5b506102bd61dead81565b34801561039657600080fd5b506102856103a5366004611ee2565b610885565b3480156103b657600080fd5b5060cc546102bd906001600160a01b031681565b3480156103d657600080fd5b5061028561271081565b3480156103ec57600080fd5b5061029b6103fb366004611ead565b610974565b34801561040c57600080fd5b5060975460ff1661025a565b34801561042457600080fd5b5061028560d25481565b34801561043a57600080fd5b5061028560d35481565b34801561045057600080fd5b5061029b610aa7565b34801561046557600080fd5b5061029b610474366004611ead565b610ab9565b34801561048557600080fd5b5061029b610494366004611ead565b610bba565b3480156104a557600080fd5b506104cd6104b4366004611ee2565b60d4602052600090815260409020805460019091015482565b60408051928352602083019190915201610266565b3480156104ee57600080fd5b5061029b610d41565b34801561050357600080fd5b506033546001600160a01b03166102bd565b34801561052157600080fd5b5061029b610530366004611efd565b610d51565b34801561054157600080fd5b5061028560cf5481565b34801561055757600080fd5b5061028560d15481565b34801561056d57600080fd5b5061028561057c366004611ead565b6110c7565b34801561058d57600080fd5b5061029b61059c366004611ead565b611163565b3480156105ad57600080fd5b506102856105bc366004611ead565b6112ae565b3480156105cd57600080fd5b5061029b6105dc366004611ee2565b611338565b3480156105ed57600080fd5b5060cd546102bd906001600160a01b031681565b34801561060d57600080fd5b5061029b61061c366004611ead565b611349565b34801561062d57600080fd5b5061029b61063c366004611ead565b6113f8565b34801561064d57600080fd5b5061029b6114e5565b34801561066257600080fd5b506102856801bc16d674ec80000081565b34801561067f57600080fd5b5061029b61068e366004611ee2565b6115fd565b34801561069f57600080fd5b5061029b6106ae366004611ee2565b61160e565b6106bb611684565b6106c36116dd565b34806107045760405162461bcd60e51b815260206004820152600b60248201526a16995c9bc8185b5bdd5b9d60aa1b60448201526064015b60405180910390fd5b600061070f826112ae565b90508160ce5461071f9190611f80565b60ce5560cb546040805163f6326fb360e01b815290516001600160a01b039092169163f6326fb3918591600480830192600092919082900301818588803b15801561076957600080fd5b505af115801561077d573d6000803e3d6000fd5b505060ca546040516340c10f1960e01b8152336004820152602481018690526001600160a01b0390911693506340c10f1992506044019050600060405180830381600087803b1580156107cf57600080fd5b505af11580156107e3573d6000803e3d6000fd5b505060408051858152602081018590523393507f73a19dd210f1a7f902193214c0ee91dd35ee5b4d920cba8d519eca65a7b488ca92500160405180910390a2505061082e6001606555565b565b600061083f6201518042611f99565b61084c9062015180611fbb565b905090565b600060d2544761084c9190611f80565b61086961172a565b61082e611784565b61087961172a565b610882816117d6565b50565b6001600160a01b038116600090815260d460209081526040808320815180830190925280548083526001909101549282019290925260d3549091906108d4906801bc16d674ec80000090611fbb565b116108e25750600092915050565b80516108ec610851565b116108fa5750600092915050565b600081600001516801bc16d674ec80000060d3546109189190611fbb565b6109229190611fd2565b905060008260000151610933610851565b61093d9190611fd2565b9050600081831061094e5781610950565b825b905080846020015111156109675795945050505050565b5050506020015192915050565b61097c611684565b6109846116dd565b600081116109c25760405162461bcd60e51b815260206004820152600b60248201526a16995c9bc8185b5bdd5b9d60aa1b60448201526064016106fb565b8060006109ce826112ae565b90508160ce546109de9190611f80565b60ce5560c9546109fb906001600160a01b03163361dead85611826565b60ca546040516340c10f1960e01b8152336004820152602481018390526001600160a01b03909116906340c10f1990604401600060405180830381600087803b158015610a4757600080fd5b505af1158015610a5b573d6000803e3d6000fd5b505060408051858152602081018590523393507f9f1eab6cdd1daff5126e5746868327717314baefd3abd72422a3064e1300279c9250015b60405180910390a250506108826001606555565b610aaf61172a565b61082e6000611886565b610ac1611684565b610ac96116dd565b33600090815260d46020526040812090610ae2836110c7565b9050808260010154610af49190611f80565b600183015560d154808355610b0a908290611f80565b60d15560ce54610b1b908290611fd2565b60ce5560ca54604051632770a7eb60e21b8152336004820152602481018390526001600160a01b0390911690639dc29fac90604401600060405180830381600087803b158015610b6a57600080fd5b505af1158015610b7e573d6000803e3d6000fd5b505060408051848152602081018790523393507f24b91f4f47caf44230a57777a9be744924e82bf666f2d5702faf97df35e60f9f925001610a93565b60cc546001600160a01b03163314610be45760405162461bcd60e51b81526004016106fb90611fe5565b6000610bee610830565b600081815260d0602052604090205490915060ff1615610c445760405162461bcd60e51b8152602060048201526011602482015270526577617264207061696420746f64617960781b60448201526064016106fb565b600081815260d060205260408120805460ff1916600117905560cf5461271090610c6e9085611fbb565b610c789190611f99565b90506000610c85826112ae565b90508360ce54610c959190611f80565b60ce5560ca5460cd546040516340c10f1960e01b81526001600160a01b039182166004820152602481018490529116906340c10f1990604401600060405180830381600087803b158015610ce857600080fd5b505af1158015610cfc573d6000803e3d6000fd5b505060408051878152602081018590523393507f6a6f77044107a33658235d41bedbbaf2fe9ccdceb313143c947a5e76e1ec847492500160405180910390a250505050565b610d4961172a565b61082e6118d8565b600054610100900460ff1615808015610d715750600054600160ff909116105b80610d8b5750303b158015610d8b575060005460ff166001145b610dee5760405162461bcd60e51b815260206004820152602e60248201527f496e697469616c697a61626c653a20636f6e747261637420697320616c72656160448201526d191e481a5b9a5d1a585b1a5e995960921b60648201526084016106fb565b6000805460ff191660011790558015610e11576000805461ff0019166101001790555b6001600160a01b038716610e575760405162461bcd60e51b815260206004820152600d60248201526c496e76616c696420764554483160981b60448201526064016106fb565b6001600160a01b038616610e9d5760405162461bcd60e51b815260206004820152600d60248201526c24b73b30b634b2103b22aa241960991b60448201526064016106fb565b6001600160a01b038516610ef35760405162461bcd60e51b815260206004820152601b60248201527f496e76616c696420534c50206465706f7369742061646472657373000000000060448201526064016106fb565b6000866001600160a01b03166318160ddd6040518163ffffffff1660e01b8152600401602060405180830381865afa158015610f33573d6000803e3d6000fd5b505050506040513d601f19601f82011682018060405250810190610f579190612015565b11610fa45760405162461bcd60e51b815260206004820152601c60248201527f496e76616c696420746f74616c537570706c79206f662076455448320000000060448201526064016106fb565b610fac611915565b610fb4611944565b610fbc611973565b610fc5826117d6565b610fce836119a2565b610fd784611a1a565b60c980546001600160a01b03808a166001600160a01b03199283161790925560ca8054898416908316811790915560cb805493891693909216929092179055604080516318160ddd60e01b815290516318160ddd916004808201926020929091908290030181865afa158015611051573d6000803e3d6000fd5b505050506040513d601f19601f820116820180604052508101906110759190612015565b60ce5580156110be576000805461ff0019169055604051600181527f7f26b83ff96e1f2b6a682f133852f6798a09c465da95921460cefb38474024989060200160405180910390a15b50505050505050565b60008060ca60009054906101000a90046001600160a01b03166001600160a01b03166318160ddd6040518163ffffffff1660e01b8152600401602060405180830381865afa15801561111d573d6000803e3d6000fd5b505050506040513d601f19601f820116820180604052508101906111419190612015565b90508060ce54846111529190611fbb565b61115c9190611f99565b9392505050565b61116b611684565b6111736116dd565b33600090815260d4602052604081209082900361119257806001015491505b80600101548211156111e65760405162461bcd60e51b815260206004820152601760248201527f457863656564207065726d697474656420616d6f756e7400000000000000000060448201526064016106fb565b6111ef33610885565b82111561123e5760405162461bcd60e51b815260206004820152601e60248201527f496e73756666696369656e74207769746864726177616c20616d6f756e74000060448201526064016106fb565b81816001015461124e9190611fd2565b600182015560d254611261908390611f80565b60d25561126e3383611a92565b60405182815233907f1a39b9c5044b9f0ff56c5951e30c1ebe24911353aafcceb9250e83a24fe158c49060200160405180910390a2506108826001606555565b60008060ca60009054906101000a90046001600160a01b03166001600160a01b03166318160ddd6040518163ffffffff1660e01b8152600401602060405180830381865afa158015611304573d6000803e3d6000fd5b505050506040513d601f19601f820116820180604052508101906113289190612015565b60ce549091506111528285611fbb565b61134061172a565b61088281611a1a565b60cc546001600160a01b031633146113735760405162461bcd60e51b81526004016106fb90611fe5565b61137b610851565b6801bc16d674ec8000008260d3546113939190611f80565b61139d9190611fbb565b11156113de5760405162461bcd60e51b815260206004820152601060248201526f08af0c6cacac840e8dee8c2d8408aa8960831b60448201526064016106fb565b8060d360008282546113f09190611f80565b909155505050565b60cc546001600160a01b031633146114225760405162461bcd60e51b81526004016106fb90611fe5565b600061142c610830565b600081815260d0602052604090205490915060ff16156114825760405162461bcd60e51b8152602060048201526011602482015270526577617264207061696420746f64617960781b60448201526064016106fb565b600081815260d060205260409020805460ff1916600117905560ce546114a9908390611fd2565b60ce5560405182815233907fccdd1b4597f1516187e25b38fbad3e75a428981d2a1d898667abb3cdd95a672f9060200160405180910390a25050565b60cc546001600160a01b0316331461150f5760405162461bcd60e51b81526004016106fb90611fe5565b6000611519610851565b9050806801bc16d674ec80000060d3546115339190611fbb565b11156115745760405162461bcd60e51b815260206004820152601060248201526f08af0c6cacac840e8dee8c2d8408aa8960831b60448201526064016106fb565b60006801bc16d674ec80000060d35461158d9190611fbb565b6115979083611fd2565b905060cb60009054906101000a90046001600160a01b03166001600160a01b031663f6326fb3826040518263ffffffff1660e01b81526004016000604051808303818588803b1580156115e957600080fd5b505af11580156110be573d6000803e3d6000fd5b61160561172a565b610882816119a2565b61161661172a565b6001600160a01b03811661167b5760405162461bcd60e51b815260206004820152602660248201527f4f776e61626c653a206e6577206f776e657220697320746865207a65726f206160448201526564647265737360d01b60648201526084016106fb565b61088281611886565b6002606554036116d65760405162461bcd60e51b815260206004820152601f60248201527f5265656e7472616e637947756172643a207265656e7472616e742063616c6c0060448201526064016106fb565b6002606555565b60975460ff161561082e5760405162461bcd60e51b815260206004820152601060248201526f14185d5cd8589b194e881c185d5cd95960821b60448201526064016106fb565b6001606555565b6033546001600160a01b0316331461082e5760405162461bcd60e51b815260206004820181905260248201527f4f776e61626c653a2063616c6c6572206973206e6f7420746865206f776e657260448201526064016106fb565b61178c611b78565b6097805460ff191690557f5db9ee0a495bf2e6ff9c91a7834c1ba4fdd244a5e8aa4e537bd38aeae4b073aa335b6040516001600160a01b03909116815260200160405180910390a1565b6127108111156118215760405162461bcd60e51b8152602060048201526016602482015275466565207261746520657863656564732072616e676560501b60448201526064016106fb565b60cf55565b604080516001600160a01b0385811660248301528416604482015260648082018490528251808303909101815260849091019091526020810180516001600160e01b03166323b872dd60e01b179052611880908590611bc1565b50505050565b603380546001600160a01b038381166001600160a01b0319831681179093556040519116919082907f8be0079c531659141344cd1fd0a4f28419497f9722a3daafe3b4186f6b6457e090600090a35050565b6118e06116dd565b6097805460ff191660011790557f62e78cea01bee320cd4e420270b5ea74000d11b0c9f74754ebdbfc544b05a2586117b93390565b600054610100900460ff1661193c5760405162461bcd60e51b81526004016106fb9061202e565b61082e611c93565b600054610100900460ff1661196b5760405162461bcd60e51b81526004016106fb9061202e565b61082e611cc3565b600054610100900460ff1661199a5760405162461bcd60e51b81526004016106fb9061202e565b61082e611cea565b6001600160a01b0381166119f85760405162461bcd60e51b815260206004820152601c60248201527f496e76616c69642066656520726563656976657220616464726573730000000060448201526064016106fb565b60cd80546001600160a01b0319166001600160a01b0392909216919091179055565b6001600160a01b038116611a705760405162461bcd60e51b815260206004820152601860248201527f496e76616c6964206f70657261746f722061646472657373000000000000000060448201526064016106fb565b60cc80546001600160a01b0319166001600160a01b0392909216919091179055565b80471015611ad95760405162461bcd60e51b8152602060048201526014602482015273496e73756666696369656e742062616c616e636560601b60448201526064016106fb565b6000826001600160a01b03168260405160006040518083038185875af1925050503d8060008114611b26576040519150601f19603f3d011682016040523d82523d6000602084013e611b2b565b606091505b5050905080611b735760405162461bcd60e51b8152602060048201526014602482015273556e61626c6520746f2073656e642076616c756560601b60448201526064016106fb565b505050565b60975460ff1661082e5760405162461bcd60e51b815260206004820152601460248201527314185d5cd8589b194e881b9bdd081c185d5cd95960621b60448201526064016106fb565b6000611c16826040518060400160405280602081526020017f5361666545524332303a206c6f772d6c6576656c2063616c6c206661696c6564815250856001600160a01b0316611d1d9092919063ffffffff16565b805190915015611b735780806020019051810190611c349190612079565b611b735760405162461bcd60e51b815260206004820152602a60248201527f5361666545524332303a204552433230206f7065726174696f6e20646964206e6044820152691bdd081cdd58d8d9595960b21b60648201526084016106fb565b600054610100900460ff16611cba5760405162461bcd60e51b81526004016106fb9061202e565b61082e33611886565b600054610100900460ff166117235760405162461bcd60e51b81526004016106fb9061202e565b600054610100900460ff16611d115760405162461bcd60e51b81526004016106fb9061202e565b6097805460ff19169055565b6060611d2c8484600085611d34565b949350505050565b606082471015611d955760405162461bcd60e51b815260206004820152602660248201527f416464726573733a20696e73756666696369656e742062616c616e636520666f6044820152651c8818d85b1b60d21b60648201526084016106fb565b600080866001600160a01b03168587604051611db191906120bf565b60006040518083038185875af1925050503d8060008114611dee576040519150601f19603f3d011682016040523d82523d6000602084013e611df3565b606091505b5091509150611e0487838387611e0f565b979650505050505050565b60608315611e7e578251600003611e77576001600160a01b0385163b611e775760405162461bcd60e51b815260206004820152601d60248201527f416464726573733a2063616c6c20746f206e6f6e2d636f6e747261637400000060448201526064016106fb565b5081611d2c565b611d2c8383815115611e935781518083602001fd5b8060405162461bcd60e51b81526004016106fb91906120db565b600060208284031215611ebf57600080fd5b5035919050565b80356001600160a01b0381168114611edd57600080fd5b919050565b600060208284031215611ef457600080fd5b61115c82611ec6565b60008060008060008060c08789031215611f1657600080fd5b611f1f87611ec6565b9550611f2d60208801611ec6565b9450611f3b60408801611ec6565b9350611f4960608801611ec6565b9250611f5760808801611ec6565b915060a087013590509295509295509295565b634e487b7160e01b600052601160045260246000fd5b80820180821115611f9357611f93611f6a565b92915050565b600082611fb657634e487b7160e01b600052601260045260246000fd5b500490565b8082028115828204841417611f9357611f93611f6a565b81810381811115611f9357611f93611f6a565b60208082526016908201527521b0b63632b91034b9903737ba1037b832b930ba37b960511b604082015260600190565b60006020828403121561202757600080fd5b5051919050565b6020808252602b908201527f496e697469616c697a61626c653a20636f6e7472616374206973206e6f74206960408201526a6e697469616c697a696e6760a81b606082015260800190565b60006020828403121561208b57600080fd5b8151801515811461115c57600080fd5b60005b838110156120b657818101518382015260200161209e565b50506000910152565b600082516120d181846020870161209b565b9190910192915050565b60208152600082518060208401526120fa81604085016020870161209b565b601f01601f1916919091016040019291505056fea2646970667358221220976f5131490a3939848fac111e532e787f8775c4e3f14cdc7d46b4b2f2bbe1ee64736f6c63430008110033",
  "devdoc": {
    "kind": "dev",
    "methods": {
      "owner()": {
        "details": "Returns the address of the current owner."
      },
      "paused()": {
        "details": "Returns true if the contract is paused, and false otherwise."
      },
      "renounceOwnership()": {
        "details": "Leaves the contract without owner. It will not be possible to call `onlyOwner` functions anymore. Can only be called by the current owner. NOTE: Renouncing ownership will leave the contract without an owner, thereby removing any functionality that is only available to the owner."
      },
      "transferOwnership(address)": {
        "details": "Transfers ownership of the contract to a new account (`newOwner`). Can only be called by the current owner."
      }
    },
    "version": 1
  },
  "userdoc": {
    "kind": "user",
    "methods": {},
    "version": 1
  },
  "storageLayout": {
    "storage": [
      {
        "astId": 138,
        "contract": "contracts/SLPCore.sol:SLPCore",
        "label": "_initialized",
        "offset": 0,
        "slot": "0",
        "type": "t_uint8"
      },
      {
        "astId": 141,
        "contract": "contracts/SLPCore.sol:SLPCore",
        "label": "_initializing",
        "offset": 1,
        "slot": "0",
        "type": "t_bool"
      },
      {
        "astId": 1220,
        "contract": "contracts/SLPCore.sol:SLPCore",
        "label": "__gap",
        "offset": 0,
        "slot": "1",
        "type": "t_array(t_uint256)50_storage"
      },
      {
        "astId": 10,
        "contract": "contracts/SLPCore.sol:SLPCore",
        "label": "_owner",
        "offset": 0,
        "slot": "51",
        "type": "t_address"
      },
      {
        "astId": 130,
        "contract": "contracts/SLPCore.sol:SLPCore",
        "label": "__gap",
        "offset": 0,
        "slot": "52",
        "type": "t_array(t_uint256)49_storage"
      },
      {
        "astId": 441,
        "contract": "contracts/SLPCore.sol:SLPCore",
        "label": "_status",
        "offset": 0,
        "slot": "101",
        "type": "t_uint256"
      },
      {
        "astId": 499,
        "contract": "contracts/SLPCore.sol:SLPCore",
        "label": "__gap",
        "offset": 0,
        "slot": "102",
        "type": "t_array(t_uint256)49_storage"
      },
      {
        "astId": 321,
        "contract": "contracts/SLPCore.sol:SLPCore",
        "label": "_paused",
        "offset": 0,
        "slot": "151",
        "type": "t_bool"
      },
      {
        "astId": 426,
        "contract": "contracts/SLPCore.sol:SLPCore",
        "label": "__gap",
        "offset": 0,
        "slot": "152",
        "type": "t_array(t_uint256)49_storage"
      },
      {
        "astId": 1307,
        "contract": "contracts/SLPCore.sol:SLPCore",
        "label": "vETH1",
        "offset": 0,
        "slot": "201",
        "type": "t_address"
      },
      {
        "astId": 1309,
        "contract": "contracts/SLPCore.sol:SLPCore",
        "label": "vETH2",
        "offset": 0,
        "slot": "202",
        "type": "t_address"
      },
      {
        "astId": 1311,
        "contract": "contracts/SLPCore.sol:SLPCore",
        "label": "slpDeposit",
        "offset": 0,
        "slot": "203",
        "type": "t_address"
      },
      {
        "astId": 1313,
        "contract": "contracts/SLPCore.sol:SLPCore",
        "label": "operator",
        "offset": 0,
        "slot": "204",
        "type": "t_address"
      },
      {
        "astId": 1315,
        "contract": "contracts/SLPCore.sol:SLPCore",
        "label": "feeReceiver",
        "offset": 0,
        "slot": "205",
        "type": "t_address"
      },
      {
        "astId": 1317,
        "contract": "contracts/SLPCore.sol:SLPCore",
        "label": "tokenPool",
        "offset": 0,
        "slot": "206",
        "type": "t_uint256"
      },
      {
        "astId": 1319,
        "contract": "contracts/SLPCore.sol:SLPCore",
        "label": "feeRate",
        "offset": 0,
        "slot": "207",
        "type": "t_uint256"
      },
      {
        "astId": 1323,
        "contract": "contracts/SLPCore.sol:SLPCore",
        "label": "rewardDays",
        "offset": 0,
        "slot": "208",
        "type": "t_mapping(t_uint256,t_bool)"
      },
      {
        "astId": 1325,
        "contract": "contracts/SLPCore.sol:SLPCore",
        "label": "queuedWithdrawal",
        "offset": 0,
        "slot": "209",
        "type": "t_uint256"
      },
      {
        "astId": 1327,
        "contract": "contracts/SLPCore.sol:SLPCore",
        "label": "completedWithdrawal",
        "offset": 0,
        "slot": "210",
        "type": "t_uint256"
      },
      {
        "astId": 1329,
        "contract": "contracts/SLPCore.sol:SLPCore",
        "label": "withdrawalNodeNumber",
        "offset": 0,
        "slot": "211",
        "type": "t_uint256"
      },
      {
        "astId": 1334,
        "contract": "contracts/SLPCore.sol:SLPCore",
        "label": "withdrawals",
        "offset": 0,
        "slot": "212",
        "type": "t_mapping(t_address,t_struct(Withdrawal)1252_storage)"
      }
    ],
    "types": {
      "t_address": {
        "encoding": "inplace",
        "label": "address",
        "numberOfBytes": "20"
      },
      "t_array(t_uint256)49_storage": {
        "base": "t_uint256",
        "encoding": "inplace",
        "label": "uint256[49]",
        "numberOfBytes": "1568"
      },
      "t_array(t_uint256)50_storage": {
        "base": "t_uint256",
        "encoding": "inplace",
        "label": "uint256[50]",
        "numberOfBytes": "1600"
      },
      "t_bool": {
        "encoding": "inplace",
        "label": "bool",
        "numberOfBytes": "1"
      },
      "t_mapping(t_address,t_struct(Withdrawal)1252_storage)": {
        "encoding": "mapping",
        "key": "t_address",
        "label": "mapping(address => struct SLPCore.Withdrawal)",
        "numberOfBytes": "32",
        "value": "t_struct(Withdrawal)1252_storage"
      },
      "t_mapping(t_uint256,t_bool)": {
        "encoding": "mapping",
        "key": "t_uint256",
        "label": "mapping(uint256 => bool)",
        "numberOfBytes": "32",
        "value": "t_bool"
      },
      "t_struct(Withdrawal)1252_storage": {
        "encoding": "inplace",
        "label": "struct SLPCore.Withdrawal",
        "members": [
          {
            "astId": 1249,
            "contract": "contracts/SLPCore.sol:SLPCore",
            "label": "queued",
            "offset": 0,
            "slot": "0",
            "type": "t_uint256"
          },
          {
            "astId": 1251,
            "contract": "contracts/SLPCore.sol:SLPCore",
            "label": "pending",
            "offset": 0,
            "slot": "1",
            "type": "t_uint256"
          }
        ],
        "numberOfBytes": "64"
      },
      "t_uint256": {
        "encoding": "inplace",
        "label": "uint256",
        "numberOfBytes": "32"
      },
      "t_uint8": {
        "encoding": "inplace",
        "label": "uint8",
        "numberOfBytes": "1"
      }
    }
  }
}