{
  "address": "0xcc8Ea2508749E0ad061fF9dfd2017E939E664b99",
  "abi": [
    {
      "anonymous": false,
      "inputs": [
        {
          "indexed": true,
          "internalType": "address",
          "name": "sender",
          "type": "address"
        },
        {
          "indexed": false,
          "internalType": "uint256",
          "name": "tokenAamount",
          "type": "uint256"
        }
      ],
      "name": "EthDeposited",
      "type": "event"
    },
    {
      "anonymous": false,
      "inputs": [
        {
          "indexed": false,
          "internalType": "uint8",
          "name": "version",
          "type": "uint8"
        }
      ],
      "name": "Initialized",
      "type": "event"
    },
    {
      "anonymous": false,
      "inputs": [
        {
          "indexed": true,
          "internalType": "address",
          "name": "previousOwner",
          "type": "address"
        },
        {
          "indexed": true,
          "internalType": "address",
          "name": "newOwner",
          "type": "address"
        }
      ],
      "name": "OwnershipTransferred",
      "type": "event"
    },
    {
      "inputs": [],
      "name": "DEPOSIT_ETH",
      "outputs": [
        {
          "internalType": "uint256",
          "name": "",
          "type": "uint256"
        }
      ],
      "stateMutability": "view",
      "type": "function"
    },
    {
      "inputs": [
        {
          "internalType": "uint256",
          "name": "batchId",
          "type": "uint256"
        },
        {
          "internalType": "bytes32[]",
          "name": "proof",
          "type": "bytes32[]"
        },
        {
          "internalType": "bool[]",
          "name": "proofFlags",
          "type": "bool[]"
        },
        {
          "components": [
            {
              "internalType": "bytes",
              "name": "pubkey",
              "type": "bytes"
            },
            {
              "internalType": "bytes",
              "name": "withdrawal_credentials",
              "type": "bytes"
            },
            {
              "internalType": "bytes",
              "name": "signature",
              "type": "bytes"
            },
            {
              "internalType": "bytes32",
              "name": "deposit_data_root",
              "type": "bytes32"
            }
          ],
          "internalType": "struct SLPDeposit.Validator[]",
          "name": "validators",
          "type": "tuple[]"
        }
      ],
      "name": "batchDeposit",
      "outputs": [],
      "stateMutability": "nonpayable",
      "type": "function"
    },
    {
      "inputs": [],
      "name": "depositContract",
      "outputs": [
        {
          "internalType": "contract IDepositContract",
          "name": "",
          "type": "address"
        }
      ],
      "stateMutability": "view",
      "type": "function"
    },
    {
      "inputs": [],
      "name": "depositETH",
      "outputs": [],
      "stateMutability": "payable",
      "type": "function"
    },
    {
      "inputs": [
        {
          "internalType": "address",
          "name": "_depositContract",
          "type": "address"
        }
      ],
      "name": "initialize",
      "outputs": [],
      "stateMutability": "nonpayable",
      "type": "function"
    },
    {
      "inputs": [
        {
          "internalType": "uint256",
          "name": "",
          "type": "uint256"
        }
      ],
      "name": "merkleRoots",
      "outputs": [
        {
          "internalType": "bytes32",
          "name": "",
          "type": "bytes32"
        }
      ],
      "stateMutability": "view",
      "type": "function"
    },
    {
      "inputs": [],
      "name": "owner",
      "outputs": [
        {
          "internalType": "address",
          "name": "",
          "type": "address"
        }
      ],
      "stateMutability": "view",
      "type": "function"
    },
    {
      "inputs": [],
      "name": "renounceOwnership",
      "outputs": [],
      "stateMutability": "nonpayable",
      "type": "function"
    },
    {
      "inputs": [
        {
          "internalType": "uint256",
          "name": "batchId",
          "type": "uint256"
        },
        {
          "internalType": "bytes32",
          "name": "merkleRoot",
          "type": "bytes32"
        }
      ],
      "name": "setMerkleRoot",
      "outputs": [],
      "stateMutability": "nonpayable",
      "type": "function"
    },
    {
      "inputs": [
        {
          "internalType": "address",
          "name": "_slpCore",
          "type": "address"
        }
      ],
      "name": "setSLPCore",
      "outputs": [],
      "stateMutability": "nonpayable",
      "type": "function"
    },
    {
      "inputs": [],
      "name": "slpCore",
      "outputs": [
        {
          "internalType": "address",
          "name": "",
          "type": "address"
        }
      ],
      "stateMutability": "view",
      "type": "function"
    },
    {
      "inputs": [
        {
          "internalType": "address",
          "name": "newOwner",
          "type": "address"
        }
      ],
      "name": "transferOwnership",
      "outputs": [],
      "stateMutability": "nonpayable",
      "type": "function"
    },
    {
      "inputs": [
        {
          "internalType": "address",
          "name": "recipient",
          "type": "address"
        },
        {
          "internalType": "uint256",
          "name": "amount",
          "type": "uint256"
        }
      ],
      "name": "withdrawETH",
      "outputs": [],
      "stateMutability": "nonpayable",
      "type": "function"
    }
  ],
  "transactionHash": "0x3ca6f2e045134c82a94d06d7972ca978acea43fdcd0749f1895d386bef4d6ad0",
  "args": [],
  "numDeployments": 1,
  "solcInputHash": "d415124640b2c90a000266c2958c19f9",
  "bytecode": "0x608060405234801561001057600080fd5b506112fb806100206000396000f3fe6080604052600436106100c25760003560e01c80638da5cb5b1161007f578063dcce58d011610059578063dcce58d014610210578063e94ad65b1461022d578063f2fde38b1461024d578063f6326fb31461026d57600080fd5b80638da5cb5b1461019e578063b431a501146101d0578063c4d66de8146101f057600080fd5b8063159de728146100c757806318712c21146100e95780634782f77914610109578063715018a61461012957806371c5ecb11461013e578063784784701461017e575b600080fd5b3480156100d357600080fd5b506100e76100e2366004610d82565b610275565b005b3480156100f557600080fd5b506100e7610104366004610d9d565b6102f5565b34801561011557600080fd5b506100e7610124366004610dbf565b6103a3565b34801561013557600080fd5b506100e7610406565b34801561014a57600080fd5b5061016b610159366004610de9565b60666020526000908152604090205481565b6040519081526020015b60405180910390f35b34801561018a57600080fd5b506100e7610199366004611095565b61041a565b3480156101aa57600080fd5b506033546001600160a01b03165b6040516001600160a01b039091168152602001610175565b3480156101dc57600080fd5b506067546101b8906001600160a01b031681565b3480156101fc57600080fd5b506100e761020b366004610d82565b6105c1565b34801561021c57600080fd5b5061016b6801bc16d674ec80000081565b34801561023957600080fd5b506065546101b8906001600160a01b031681565b34801561025957600080fd5b506100e7610268366004610d82565b610743565b6100e76107bc565b61027d6107f3565b6001600160a01b0381166102d35760405162461bcd60e51b8152602060048201526018602482015277496e76616c696420534c5020636f7265206164647265737360401b60448201526064015b60405180910390fd5b606780546001600160a01b0319166001600160a01b0392909216919091179055565b6102fd6107f3565b6000828152606660205260409020541561034e5760405162461bcd60e51b81526020600482015260126024820152714d65726b6c6520726f6f742065786973747360701b60448201526064016102ca565b806103915760405162461bcd60e51b8152602060048201526013602482015272125b9d985b1a59081b595c9adb19481c9bdbdd606a1b60448201526064016102ca565b60009182526066602052604090912055565b6067546001600160a01b031633146103f85760405162461bcd60e51b8152602060048201526018602482015277496e76616c696420534c5020636f7265206164647265737360401b60448201526064016102ca565b610402828261084d565b5050565b61040e6107f3565b6104186000610933565b565b6104226107f3565b600084815260666020526040902054806104775760405162461bcd60e51b81526020600482015260166024820152754d65726b6c6520726f6f74206e6f742065786973747360501b60448201526064016102ca565b6000825167ffffffffffffffff81111561049357610493610e02565b6040519080825280602002602001820160405280156104bc578160200160208202803683370190505b50905060005b835181101561051f578381815181106104dd576104dd61117e565b602002602001015160200151805190602001208282815181106105025761050261117e565b602090810291909101015280610517816111aa565b9150506104c2565b5061052c85858484610985565b6105785760405162461bcd60e51b815260206004820181905260248201527f4d65726b6c652070726f6f6620766572696669636174696f6e206661696c656460448201526064016102ca565b60005b83518110156105b8576105a68482815181106105995761059961117e565b602002602001015161099d565b806105b0816111aa565b91505061057b565b50505050505050565b600054610100900460ff16158080156105e15750600054600160ff909116105b806105fb5750303b1580156105fb575060005460ff166001145b61065e5760405162461bcd60e51b815260206004820152602e60248201527f496e697469616c697a61626c653a20636f6e747261637420697320616c72656160448201526d191e481a5b9a5d1a585b1a5e995960921b60648201526084016102ca565b6000805460ff191660011790558015610681576000805461ff0019166101001790555b6001600160a01b0382166106d75760405162461bcd60e51b815260206004820152601860248201527f496e76616c6964206465706f73697420636f6e7472616374000000000000000060448201526064016102ca565b6106df610a73565b606580546001600160a01b0319166001600160a01b0384161790558015610402576000805461ff0019169055604051600181527f7f26b83ff96e1f2b6a682f133852f6798a09c465da95921460cefb38474024989060200160405180910390a15050565b61074b6107f3565b6001600160a01b0381166107b05760405162461bcd60e51b815260206004820152602660248201527f4f776e61626c653a206e6577206f776e657220697320746865207a65726f206160448201526564647265737360d01b60648201526084016102ca565b6107b981610933565b50565b60405134815233907f66ff7c8f71ccc7c36152a41920d0d3b46ef3034359f76aa1498ed4478c204b5c9060200160405180910390a2565b6033546001600160a01b031633146104185760405162461bcd60e51b815260206004820181905260248201527f4f776e61626c653a2063616c6c6572206973206e6f7420746865206f776e657260448201526064016102ca565b804710156108945760405162461bcd60e51b8152602060048201526014602482015273496e73756666696369656e742062616c616e636560601b60448201526064016102ca565b6000826001600160a01b03168260405160006040518083038185875af1925050503d80600081146108e1576040519150601f19603f3d011682016040523d82523d6000602084013e6108e6565b606091505b505090508061092e5760405162461bcd60e51b8152602060048201526014602482015273556e61626c6520746f2073656e642076616c756560601b60448201526064016102ca565b505050565b603380546001600160a01b038381166001600160a01b0319831681179093556040519116919082907f8be0079c531659141344cd1fd0a4f28419497f9722a3daafe3b4186f6b6457e090600090a35050565b600082610993868685610aa2565b1495945050505050565b6801bc16d674ec8000004710156109ed5760405162461bcd60e51b8152602060048201526014602482015273496e73756666696369656e742062616c616e636560601b60448201526064016102ca565b60655481516020830151604080850151606086015191516304512a2360e31b81526001600160a01b03909516946322895118946801bc16d674ec80000094610a3e9491939092909190600401611209565b6000604051808303818588803b158015610a5757600080fd5b505af1158015610a6b573d6000803e3d6000fd5b505050505050565b600054610100900460ff16610a9a5760405162461bcd60e51b81526004016102ca90611254565b610418610d02565b80518251845160009291908190600190610abc908561129f565b610ac691906112b2565b14610b135760405162461bcd60e51b815260206004820152601f60248201527f4d65726b6c6550726f6f663a20696e76616c6964206d756c746970726f6f660060448201526064016102ca565b60008167ffffffffffffffff811115610b2e57610b2e610e02565b604051908082528060200260200182016040528015610b57578160200160208202803683370190505b5090506000806000805b85811015610c97576000878510610b9c578584610b7d816111aa565b955081518110610b8f57610b8f61117e565b6020026020010151610bc2565b8985610ba7816111aa565b965081518110610bb957610bb961117e565b60200260200101515b905060008b8381518110610bd857610bd861117e565b6020026020010151610c0e578c84610bef816111aa565b955081518110610c0157610c0161117e565b6020026020010151610c58565b888610610c32578685610c20816111aa565b965081518110610c0157610c0161117e565b8a86610c3d816111aa565b975081518110610c4f57610c4f61117e565b60200260200101515b9050610c648282610d32565b878481518110610c7657610c7661117e565b60200260200101818152505050508080610c8f906111aa565b915050610b61565b508415610ccf5783610caa6001876112b2565b81518110610cba57610cba61117e565b60200260200101519650505050505050610cfb565b8515610ce85787600081518110610cba57610cba61117e565b89600081518110610cba57610cba61117e565b9392505050565b600054610100900460ff16610d295760405162461bcd60e51b81526004016102ca90611254565b61041833610933565b6000818310610d4e576000828152602084905260409020610d5d565b60008381526020839052604090205b90505b92915050565b80356001600160a01b0381168114610d7d57600080fd5b919050565b600060208284031215610d9457600080fd5b610d5d82610d66565b60008060408385031215610db057600080fd5b50508035926020909101359150565b60008060408385031215610dd257600080fd5b610ddb83610d66565b946020939093013593505050565b600060208284031215610dfb57600080fd5b5035919050565b634e487b7160e01b600052604160045260246000fd5b6040516080810167ffffffffffffffff81118282101715610e3b57610e3b610e02565b60405290565b604051601f8201601f1916810167ffffffffffffffff81118282101715610e6a57610e6a610e02565b604052919050565b600067ffffffffffffffff821115610e8c57610e8c610e02565b5060051b60200190565b600082601f830112610ea757600080fd5b81356020610ebc610eb783610e72565b610e41565b82815260059290921b84018101918181019086841115610edb57600080fd5b8286015b84811015610f055780358015158114610ef85760008081fd5b8352918301918301610edf565b509695505050505050565b600082601f830112610f2157600080fd5b813567ffffffffffffffff811115610f3b57610f3b610e02565b610f4e601f8201601f1916602001610e41565b818152846020838601011115610f6357600080fd5b816020850160208301376000918101602001919091529392505050565b600082601f830112610f9157600080fd5b81356020610fa1610eb783610e72565b82815260059290921b84018101918181019086841115610fc057600080fd5b8286015b84811015610f0557803567ffffffffffffffff80821115610fe55760008081fd5b908801906080828b03601f1901811315610fff5760008081fd5b611007610e18565b87840135838111156110195760008081fd5b6110278d8a83880101610f10565b8252506040808501358481111561103e5760008081fd5b61104c8e8b83890101610f10565b8a84015250606080860135858111156110655760008081fd5b6110738f8c838a0101610f10565b9284019290925294909201359381019390935250508352918301918301610fc4565b600080600080608085870312156110ab57600080fd5b8435935060208086013567ffffffffffffffff808211156110cb57600080fd5b818801915088601f8301126110df57600080fd5b81356110ed610eb782610e72565b81815260059190911b8301840190848101908b83111561110c57600080fd5b938501935b8285101561112a57843582529385019390850190611111565b97505050604088013592508083111561114257600080fd5b61114e89848a01610e96565b9450606088013592508083111561116457600080fd5b505061117287828801610f80565b91505092959194509250565b634e487b7160e01b600052603260045260246000fd5b634e487b7160e01b600052601160045260246000fd5b6000600182016111bc576111bc611194565b5060010190565b6000815180845260005b818110156111e9576020818501810151868301820152016111cd565b506000602082860101526020601f19601f83011685010191505092915050565b60808152600061121c60808301876111c3565b828103602084015261122e81876111c3565b9050828103604084015261124281866111c3565b91505082606083015295945050505050565b6020808252602b908201527f496e697469616c697a61626c653a20636f6e7472616374206973206e6f74206960408201526a6e697469616c697a696e6760a81b606082015260800190565b80820180821115610d6057610d60611194565b81810381811115610d6057610d6061119456fea264697066735822122047a1a2dc5569ad91c4ff0ee79592123ae6dc5cee685cb9e2e9f622441f61fb0564736f6c63430008110033",
  "devdoc": {
    "kind": "dev",
    "methods": {
      "owner()": {
        "details": "Returns the address of the current owner."
      },
      "renounceOwnership()": {
        "details": "Leaves the contract without owner. It will not be possible to call `onlyOwner` functions anymore. Can only be called by the current owner. NOTE: Renouncing ownership will leave the contract without an owner, thereby removing any functionality that is only available to the owner."
      },
      "transferOwnership(address)": {
        "details": "Transfers ownership of the contract to a new account (`newOwner`). Can only be called by the current owner."
      }
    },
    "version": 1
  },
  "userdoc": {
    "kind": "user",
    "methods": {},
    "version": 1
  },
  "storageLayout": {
    "storage": [
      {
        "astId": 138,
        "contract": "contracts/SLPDeposit.sol:SLPDeposit",
        "label": "_initialized",
        "offset": 0,
        "slot": "0",
        "type": "t_uint8"
      },
      {
        "astId": 141,
        "contract": "contracts/SLPDeposit.sol:SLPDeposit",
        "label": "_initializing",
        "offset": 1,
        "slot": "0",
        "type": "t_bool"
      },
      {
        "astId": 625,
        "contract": "contracts/SLPDeposit.sol:SLPDeposit",
        "label": "__gap",
        "offset": 0,
        "slot": "1",
        "type": "t_array(t_uint256)50_storage"
      },
      {
        "astId": 10,
        "contract": "contracts/SLPDeposit.sol:SLPDeposit",
        "label": "_owner",
        "offset": 0,
        "slot": "51",
        "type": "t_address"
      },
      {
        "astId": 130,
        "contract": "contracts/SLPDeposit.sol:SLPDeposit",
        "label": "__gap",
        "offset": 0,
        "slot": "52",
        "type": "t_array(t_uint256)49_storage"
      },
      {
        "astId": 1170,
        "contract": "contracts/SLPDeposit.sol:SLPDeposit",
        "label": "depositContract",
        "offset": 0,
        "slot": "101",
        "type": "t_contract(IDepositContract)1147"
      },
      {
        "astId": 1174,
        "contract": "contracts/SLPDeposit.sol:SLPDeposit",
        "label": "merkleRoots",
        "offset": 0,
        "slot": "102",
        "type": "t_mapping(t_uint256,t_bytes32)"
      },
      {
        "astId": 1176,
        "contract": "contracts/SLPDeposit.sol:SLPDeposit",
        "label": "slpCore",
        "offset": 0,
        "slot": "103",
        "type": "t_address"
      }
    ],
    "types": {
      "t_address": {
        "encoding": "inplace",
        "label": "address",
        "numberOfBytes": "20"
      },
      "t_array(t_uint256)49_storage": {
        "base": "t_uint256",
        "encoding": "inplace",
        "label": "uint256[49]",
        "numberOfBytes": "1568"
      },
      "t_array(t_uint256)50_storage": {
        "base": "t_uint256",
        "encoding": "inplace",
        "label": "uint256[50]",
        "numberOfBytes": "1600"
      },
      "t_bool": {
        "encoding": "inplace",
        "label": "bool",
        "numberOfBytes": "1"
      },
      "t_bytes32": {
        "encoding": "inplace",
        "label": "bytes32",
        "numberOfBytes": "32"
      },
      "t_contract(IDepositContract)1147": {
        "encoding": "inplace",
        "label": "contract IDepositContract",
        "numberOfBytes": "20"
      },
      "t_mapping(t_uint256,t_bytes32)": {
        "encoding": "mapping",
        "key": "t_uint256",
        "label": "mapping(uint256 => bytes32)",
        "numberOfBytes": "32",
        "value": "t_bytes32"
      },
      "t_uint256": {
        "encoding": "inplace",
        "label": "uint256",
        "numberOfBytes": "32"
      },
      "t_uint8": {
        "encoding": "inplace",
        "label": "uint8",
        "numberOfBytes": "1"
      }
    }
  }
}