{
  "address": "0x7Ac05401b1A3Ab595A8D557b84d9cd852931Cb19",
  "abi": [
    {
      "anonymous": false,
      "inputs": [
        {
          "indexed": true,
          "internalType": "address",
          "name": "sender",
          "type": "address"
        },
        {
          "indexed": false,
          "internalType": "uint256",
          "name": "tokenAamount",
          "type": "uint256"
        }
      ],
      "name": "EthDeposited",
      "type": "event"
    },
    {
      "anonymous": false,
      "inputs": [
        {
          "indexed": false,
          "internalType": "uint8",
          "name": "version",
          "type": "uint8"
        }
      ],
      "name": "Initialized",
      "type": "event"
    },
    {
      "anonymous": false,
      "inputs": [
        {
          "indexed": true,
          "internalType": "address",
          "name": "previousOwner",
          "type": "address"
        },
        {
          "indexed": true,
          "internalType": "address",
          "name": "newOwner",
          "type": "address"
        }
      ],
      "name": "OwnershipTransferred",
      "type": "event"
    },
    {
      "inputs": [],
      "name": "DEPOSIT_SIZE",
      "outputs": [
        {
          "internalType": "uint256",
          "name": "",
          "type": "uint256"
        }
      ],
      "stateMutability": "view",
      "type": "function"
    },
    {
      "inputs": [],
      "name": "DEPOSIT_SIZE_IN_GWEI_LE64",
      "outputs": [
        {
          "internalType": "uint64",
          "name": "",
          "type": "uint64"
        }
      ],
      "stateMutability": "view",
      "type": "function"
    },
    {
      "inputs": [
        {
          "internalType": "bytes[]",
          "name": "pubkeys",
          "type": "bytes[]"
        },
        {
          "internalType": "bytes[]",
          "name": "signatures",
          "type": "bytes[]"
        }
      ],
      "name": "batchDeposit",
      "outputs": [],
      "stateMutability": "nonpayable",
      "type": "function"
    },
    {
      "inputs": [
        {
          "internalType": "uint256",
          "name": "batchId",
          "type": "uint256"
        },
        {
          "internalType": "bytes32[]",
          "name": "proof",
          "type": "bytes32[]"
        },
        {
          "internalType": "bool[]",
          "name": "proofFlags",
          "type": "bool[]"
        },
        {
          "components": [
            {
              "internalType": "bytes",
              "name": "pubkey",
              "type": "bytes"
            },
            {
              "internalType": "bytes",
              "name": "withdrawal_credentials",
              "type": "bytes"
            },
            {
              "internalType": "bytes",
              "name": "signature",
              "type": "bytes"
            },
            {
              "internalType": "bytes32",
              "name": "deposit_data_root",
              "type": "bytes32"
            }
          ],
          "internalType": "struct SLPDeposit.Validator[]",
          "name": "validators",
          "type": "tuple[]"
        }
      ],
      "name": "batchDepositWithProof",
      "outputs": [],
      "stateMutability": "nonpayable",
      "type": "function"
    },
    {
      "inputs": [
        {
          "components": [
            {
              "internalType": "bytes",
              "name": "pubkey",
              "type": "bytes"
            },
            {
              "internalType": "bytes",
              "name": "withdrawal_credentials",
              "type": "bytes"
            },
            {
              "internalType": "bytes",
              "name": "signature",
              "type": "bytes"
            },
            {
              "internalType": "bytes32",
              "name": "deposit_data_root",
              "type": "bytes32"
            }
          ],
          "internalType": "struct SLPDeposit.Validator",
          "name": "validator",
          "type": "tuple"
        }
      ],
      "name": "checkDepositDataRoot",
      "outputs": [
        {
          "internalType": "bool",
          "name": "",
          "type": "bool"
        }
      ],
      "stateMutability": "view",
      "type": "function"
    },
    {
      "inputs": [
        {
          "components": [
            {
              "internalType": "bytes",
              "name": "pubkey",
              "type": "bytes"
            },
            {
              "internalType": "bytes",
              "name": "withdrawal_credentials",
              "type": "bytes"
            },
            {
              "internalType": "bytes",
              "name": "signature",
              "type": "bytes"
            },
            {
              "internalType": "bytes32",
              "name": "deposit_data_root",
              "type": "bytes32"
            }
          ],
          "internalType": "struct SLPDeposit.Validator",
          "name": "validator",
          "type": "tuple"
        }
      ],
      "name": "deposit",
      "outputs": [],
      "stateMutability": "nonpayable",
      "type": "function"
    },
    {
      "inputs": [],
      "name": "depositContract",
      "outputs": [
        {
          "internalType": "contract IDepositContract",
          "name": "",
          "type": "address"
        }
      ],
      "stateMutability": "view",
      "type": "function"
    },
    {
      "inputs": [],
      "name": "depositETH",
      "outputs": [],
      "stateMutability": "payable",
      "type": "function"
    },
    {
      "inputs": [
        {
          "internalType": "bytes",
          "name": "pubkey",
          "type": "bytes"
        },
        {
          "internalType": "bytes",
          "name": "signature",
          "type": "bytes"
        }
      ],
      "name": "getValidatorData",
      "outputs": [
        {
          "components": [
            {
              "internalType": "bytes",
              "name": "pubkey",
              "type": "bytes"
            },
            {
              "internalType": "bytes",
              "name": "withdrawal_credentials",
              "type": "bytes"
            },
            {
              "internalType": "bytes",
              "name": "signature",
              "type": "bytes"
            },
            {
              "internalType": "bytes32",
              "name": "deposit_data_root",
              "type": "bytes32"
            }
          ],
          "internalType": "struct SLPDeposit.Validator",
          "name": "",
          "type": "tuple"
        }
      ],
      "stateMutability": "view",
      "type": "function"
    },
    {
      "inputs": [
        {
          "internalType": "address",
          "name": "_depositContract",
          "type": "address"
        }
      ],
      "name": "initialize",
      "outputs": [],
      "stateMutability": "nonpayable",
      "type": "function"
    },
    {
      "inputs": [
        {
          "internalType": "uint256",
          "name": "",
          "type": "uint256"
        }
      ],
      "name": "merkleRoots",
      "outputs": [
        {
          "internalType": "bytes32",
          "name": "",
          "type": "bytes32"
        }
      ],
      "stateMutability": "view",
      "type": "function"
    },
    {
      "inputs": [],
      "name": "owner",
      "outputs": [
        {
          "internalType": "address",
          "name": "",
          "type": "address"
        }
      ],
      "stateMutability": "view",
      "type": "function"
    },
    {
      "inputs": [],
      "name": "renounceOwnership",
      "outputs": [],
      "stateMutability": "nonpayable",
      "type": "function"
    },
    {
      "inputs": [
        {
          "internalType": "address",
          "name": "receiver",
          "type": "address"
        }
      ],
      "name": "setCredential",
      "outputs": [],
      "stateMutability": "nonpayable",
      "type": "function"
    },
    {
      "inputs": [
        {
          "internalType": "uint256",
          "name": "batchId",
          "type": "uint256"
        },
        {
          "internalType": "bytes32",
          "name": "merkleRoot",
          "type": "bytes32"
        }
      ],
      "name": "setMerkleRoot",
      "outputs": [],
      "stateMutability": "nonpayable",
      "type": "function"
    },
    {
      "inputs": [
        {
          "internalType": "address",
          "name": "_slpCore",
          "type": "address"
        }
      ],
      "name": "setSLPCore",
      "outputs": [],
      "stateMutability": "nonpayable",
      "type": "function"
    },
    {
      "inputs": [],
      "name": "slpCore",
      "outputs": [
        {
          "internalType": "address",
          "name": "",
          "type": "address"
        }
      ],
      "stateMutability": "view",
      "type": "function"
    },
    {
      "inputs": [
        {
          "internalType": "address",
          "name": "newOwner",
          "type": "address"
        }
      ],
      "name": "transferOwnership",
      "outputs": [],
      "stateMutability": "nonpayable",
      "type": "function"
    },
    {
      "inputs": [
        {
          "internalType": "address",
          "name": "recipient",
          "type": "address"
        },
        {
          "internalType": "uint256",
          "name": "amount",
          "type": "uint256"
        }
      ],
      "name": "withdrawETH",
      "outputs": [],
      "stateMutability": "nonpayable",
      "type": "function"
    },
    {
      "inputs": [],
      "name": "withdrawalCredentials",
      "outputs": [
        {
          "internalType": "bytes",
          "name": "",
          "type": "bytes"
        }
      ],
      "stateMutability": "view",
      "type": "function"
    }
  ],
  "transactionHash": "0x4d1cc71b0d129819eb4924cfe2622c51d0ce750bbce9cffd891a23cbc57703f9",
  "args": [],
  "numDeployments": 5,
  "solcInputHash": "3235fb3c27a55cbb926a7285d6702027",
  "bytecode": "0x608060405234801561001057600080fd5b506120bb806100206000396000f3fe60806040526004361061011e5760003560e01c80638da5cb5b116100a0578063e94ad65b11610064578063e94ad65b1461033c578063ea01363b1461035c578063f2fde38b1461038c578063f345e584146103ac578063f6326fb3146103df57600080fd5b80638da5cb5b1461028a5780639cc433fa146102bc578063a5971759146102dc578063b431a501146102fc578063c4d66de81461031c57600080fd5b80634782f779116100e75780634782f779146101e65780634cd79e0a146102065780636d91029514610228578063715018a61461024857806371c5ecb11461025d57600080fd5b806257d87714610123578063159de7281461015957806318712c211461017b57806336bf33251461019b57806345651f9a146101c6575b600080fd5b34801561012f57600080fd5b5061014361013e366004611671565b6103e7565b604051610150919061172c565b60405180910390f35b34801561016557600080fd5b506101796101743660046117b7565b610875565b005b34801561018757600080fd5b506101796101963660046117d2565b6108f5565b3480156101a757600080fd5b506101b86801bc16d674ec80000081565b604051908152602001610150565b3480156101d257600080fd5b506101796101e1366004611838565b6109a3565b3480156101f257600080fd5b50610179610201366004611897565b610b04565b34801561021257600080fd5b5061021b610b67565b60405161015091906118c1565b34801561023457600080fd5b506101796102433660046117b7565b610bf5565b34801561025457600080fd5b50610179610c8b565b34801561026957600080fd5b506101b86102783660046118d4565b60666020526000908152604090205481565b34801561029657600080fd5b506033546001600160a01b03165b6040516001600160a01b039091168152602001610150565b3480156102c857600080fd5b506101796102d7366004611a5a565b610c9f565b3480156102e857600080fd5b506101796102f7366004611bb2565b610cb3565b34801561030857600080fd5b506067546102a4906001600160a01b031681565b34801561032857600080fd5b506101796103373660046117b7565b610e59565b34801561034857600080fd5b506065546102a4906001600160a01b031681565b34801561036857600080fd5b5061037c610377366004611c9a565b610fdb565b6040519015158152602001610150565b34801561039857600080fd5b506101796103a73660046117b7565b61100a565b3480156103b857600080fd5b506103c7664059730700000081565b6040516001600160401b039091168152602001610150565b610179611080565b6104156040518060800160405280606081526020016060815260200160608152602001600080191681525090565b600060028686600060801b60405160200161043293929190611cd4565b60408051601f198184030181529082905261044c91611cfb565b602060405180830381855afa158015610469573d6000803e3d6000fd5b5050506040513d601f19601f8201168201806040525081019061048c9190611d17565b905060006002806104a0604084888a611d30565b6040516020016104b1929190611d5a565b60408051601f19818403018152908290526104cb91611cfb565b602060405180830381855afa1580156104e8573d6000803e3d6000fd5b5050506040513d601f19601f8201168201806040525081019061050b9190611d17565b600261051a876040818b611d30565b60405161052e929190600090602001611d6a565b60408051601f198184030181529082905261054891611cfb565b602060405180830381855afa158015610565573d6000803e3d6000fd5b5050506040513d601f19601f820116820180604052508101906105889190611d17565b60408051602081019390935282015260600160408051601f19818403018152908290526105b491611cfb565b602060405180830381855afa1580156105d1573d6000803e3d6000fd5b5050506040513d601f19601f820116820180604052508101906105f49190611d17565b9050600060028084606860405160200161060f929190611db6565b60408051601f198184030181529082905261062991611cfb565b602060405180830381855afa158015610646573d6000803e3d6000fd5b5050506040513d601f19601f820116820180604052508101906106699190611d17565b60408051634059730760d81b60208201526000602882015290810185905260029060600160408051601f19818403018152908290526106a791611cfb565b602060405180830381855afa1580156106c4573d6000803e3d6000fd5b5050506040513d601f19601f820116820180604052508101906106e79190611d17565b60408051602081019390935282015260600160408051601f198184030181529082905261071391611cfb565b602060405180830381855afa158015610730573d6000803e3d6000fd5b5050506040513d601f19601f820116820180604052508101906107539190611d17565b6040805160a06020601f8c018190040282018101909252608081018a81529293509182918b908b9081908501838280828437600092019190915250505090825250606880546020909201916107a790611d7c565b80601f01602080910402602001604051908101604052809291908181526020018280546107d390611d7c565b80156108205780601f106107f557610100808354040283529160200191610820565b820191906000526020600020905b81548152906001019060200180831161080357829003601f168201915b5050505050815260200187878080601f01602080910402602001604051908101604052809392919081815260200183838082843760009201919091525050509082525060200191909152979650505050505050565b61087d6110b7565b6001600160a01b0381166108d35760405162461bcd60e51b8152602060048201526018602482015277496e76616c696420534c5020636f7265206164647265737360401b60448201526064015b60405180910390fd5b606780546001600160a01b0319166001600160a01b0392909216919091179055565b6108fd6110b7565b6000828152606660205260409020541561094e5760405162461bcd60e51b81526020600482015260126024820152714d65726b6c6520726f6f742065786973747360701b60448201526064016108ca565b806109915760405162461bcd60e51b8152602060048201526013602482015272125b9d985b1a59081b595c9adb19481c9bdbdd606a1b60448201526064016108ca565b60009182526066602052604090912055565b6109ab6110b7565b6068600081546109ba90611d7c565b81106109c8576109c8611e39565b8154600116156109e75790600052602060002090602091828204019190065b9054901a600160f81b026001600160f81b031916600160f81b14610a4d5760405162461bcd60e51b815260206004820152601760248201527f57726f6e672063726564656e7469616c20666f726d617400000000000000000060448201526064016108ca565b828114610a8d5760405162461bcd60e51b815260206004820152600e60248201526d092dcecc2d8d2c840d8cadccee8d60931b60448201526064016108ca565b60005b83811015610afd57610aeb610ae6868684818110610ab057610ab0611e39565b9050602002810190610ac29190611e4f565b868686818110610ad457610ad4611e39565b905060200281019061013e9190611e4f565b611111565b80610af581611eab565b915050610a90565b5050505050565b6067546001600160a01b03163314610b595760405162461bcd60e51b8152602060048201526018602482015277496e76616c696420534c5020636f7265206164647265737360401b60448201526064016108ca565b610b6382826111e7565b5050565b60688054610b7490611d7c565b80601f0160208091040260200160405190810160405280929190818152602001828054610ba090611d7c565b8015610bed5780601f10610bc257610100808354040283529160200191610bed565b820191906000526020600020905b815481529060010190602001808311610bd057829003601f168201915b505050505081565b610bfd6110b7565b6001600160a01b038116610c465760405162461bcd60e51b815260206004820152601060248201526f24b73b30b634b2103932b1b2b4bb32b960811b60448201526064016108ca565b60408051600160f81b60208201526bffffffffffffffffffffffff19606084901b16602c8201520160405160208183030381529060405260689081610b639190611f0a565b610c936110b7565b610c9d60006112cd565b565b610ca76110b7565b610cb081611111565b50565b610cbb6110b7565b60008481526066602052604090205480610d105760405162461bcd60e51b81526020600482015260166024820152754d65726b6c6520726f6f74206e6f742065786973747360501b60448201526064016108ca565b600082516001600160401b03811115610d2b57610d2b6118ed565b604051908082528060200260200182016040528015610d54578160200160208202803683370190505b50905060005b8351811015610db757838181518110610d7557610d75611e39565b60200260200101516020015180519060200120828281518110610d9a57610d9a611e39565b602090810291909101015280610daf81611eab565b915050610d5a565b50610dc48585848461131f565b610e105760405162461bcd60e51b815260206004820181905260248201527f4d65726b6c652070726f6f6620766572696669636174696f6e206661696c656460448201526064016108ca565b60005b8351811015610e5057610e3e848281518110610e3157610e31611e39565b6020026020010151611111565b80610e4881611eab565b915050610e13565b50505050505050565b600054610100900460ff1615808015610e795750600054600160ff909116105b80610e935750303b158015610e93575060005460ff166001145b610ef65760405162461bcd60e51b815260206004820152602e60248201527f496e697469616c697a61626c653a20636f6e747261637420697320616c72656160448201526d191e481a5b9a5d1a585b1a5e995960921b60648201526084016108ca565b6000805460ff191660011790558015610f19576000805461ff0019166101001790555b6001600160a01b038216610f6f5760405162461bcd60e51b815260206004820152601860248201527f496e76616c6964206465706f73697420636f6e7472616374000000000000000060448201526064016108ca565b610f77611337565b606580546001600160a01b0319166001600160a01b0384161790558015610b63576000805461ff0019169055604051600181527f7f26b83ff96e1f2b6a682f133852f6798a09c465da95921460cefb38474024989060200160405180910390a15050565b600080610ff8610feb8480611e4f565b61013e6040870187611e4f565b60609081015193013590921492915050565b6110126110b7565b6001600160a01b0381166110775760405162461bcd60e51b815260206004820152602660248201527f4f776e61626c653a206e6577206f776e657220697320746865207a65726f206160448201526564647265737360d01b60648201526084016108ca565b610cb0816112cd565b60405134815233907f66ff7c8f71ccc7c36152a41920d0d3b46ef3034359f76aa1498ed4478c204b5c9060200160405180910390a2565b6033546001600160a01b03163314610c9d5760405162461bcd60e51b815260206004820181905260248201527f4f776e61626c653a2063616c6c6572206973206e6f7420746865206f776e657260448201526064016108ca565b6801bc16d674ec8000004710156111615760405162461bcd60e51b8152602060048201526014602482015273496e73756666696369656e742062616c616e636560601b60448201526064016108ca565b60655481516020830151604080850151606086015191516304512a2360e31b81526001600160a01b03909516946322895118946801bc16d674ec800000946111b29491939092909190600401611fc9565b6000604051808303818588803b1580156111cb57600080fd5b505af11580156111df573d6000803e3d6000fd5b505050505050565b8047101561122e5760405162461bcd60e51b8152602060048201526014602482015273496e73756666696369656e742062616c616e636560601b60448201526064016108ca565b6000826001600160a01b03168260405160006040518083038185875af1925050503d806000811461127b576040519150601f19603f3d011682016040523d82523d6000602084013e611280565b606091505b50509050806112c85760405162461bcd60e51b8152602060048201526014602482015273556e61626c6520746f2073656e642076616c756560601b60448201526064016108ca565b505050565b603380546001600160a01b038381166001600160a01b0319831681179093556040519116919082907f8be0079c531659141344cd1fd0a4f28419497f9722a3daafe3b4186f6b6457e090600090a35050565b60008261132d868685611366565b1495945050505050565b600054610100900460ff1661135e5760405162461bcd60e51b81526004016108ca90612014565b610c9d6115c5565b80518251845160009291908190600190611380908561205f565b61138a9190612072565b146113d75760405162461bcd60e51b815260206004820152601f60248201527f4d65726b6c6550726f6f663a20696e76616c6964206d756c746970726f6f660060448201526064016108ca565b6000816001600160401b038111156113f1576113f16118ed565b60405190808252806020026020018201604052801561141a578160200160208202803683370190505b5090506000806000805b8581101561155a57600087851061145f57858461144081611eab565b95508151811061145257611452611e39565b6020026020010151611485565b898561146a81611eab565b96508151811061147c5761147c611e39565b60200260200101515b905060008b838151811061149b5761149b611e39565b60200260200101516114d1578c846114b281611eab565b9550815181106114c4576114c4611e39565b602002602001015161151b565b8886106114f55786856114e381611eab565b9650815181106114c4576114c4611e39565b8a8661150081611eab565b97508151811061151257611512611e39565b60200260200101515b905061152782826115f5565b87848151811061153957611539611e39565b6020026020010181815250505050808061155290611eab565b915050611424565b508415611592578361156d600187612072565b8151811061157d5761157d611e39565b602002602001015196505050505050506115be565b85156115ab578760008151811061157d5761157d611e39565b8960008151811061157d5761157d611e39565b9392505050565b600054610100900460ff166115ec5760405162461bcd60e51b81526004016108ca90612014565b610c9d336112cd565b6000818310611611576000828152602084905260409020611620565b60008381526020839052604090205b90505b92915050565b60008083601f84011261163b57600080fd5b5081356001600160401b0381111561165257600080fd5b60208301915083602082850101111561166a57600080fd5b9250929050565b6000806000806040858703121561168757600080fd5b84356001600160401b038082111561169e57600080fd5b6116aa88838901611629565b909650945060208701359150808211156116c357600080fd5b506116d087828801611629565b95989497509550505050565b60005b838110156116f75781810151838201526020016116df565b50506000910152565b600081518084526117188160208601602086016116dc565b601f01601f19169290920160200192915050565b60208152600082516080602084015261174860a0840182611700565b90506020840151601f19808584030160408601526117668383611700565b92506040860151915080858403016060860152506117848282611700565b915050606084015160808401528091505092915050565b80356001600160a01b03811681146117b257600080fd5b919050565b6000602082840312156117c957600080fd5b6116208261179b565b600080604083850312156117e557600080fd5b50508035926020909101359150565b60008083601f84011261180657600080fd5b5081356001600160401b0381111561181d57600080fd5b6020830191508360208260051b850101111561166a57600080fd5b6000806000806040858703121561184e57600080fd5b84356001600160401b038082111561186557600080fd5b611871888389016117f4565b9096509450602087013591508082111561188a57600080fd5b506116d0878288016117f4565b600080604083850312156118aa57600080fd5b6118b38361179b565b946020939093013593505050565b6020815260006116206020830184611700565b6000602082840312156118e657600080fd5b5035919050565b634e487b7160e01b600052604160045260246000fd5b604051601f8201601f191681016001600160401b038111828210171561192b5761192b6118ed565b604052919050565b600082601f83011261194457600080fd5b81356001600160401b0381111561195d5761195d6118ed565b611970601f8201601f1916602001611903565b81815284602083860101111561198557600080fd5b816020850160208301376000918101602001919091529392505050565b6000608082840312156119b457600080fd5b604051608081016001600160401b0382821081831117156119d7576119d76118ed565b8160405282935084359150808211156119ef57600080fd5b6119fb86838701611933565b83526020850135915080821115611a1157600080fd5b611a1d86838701611933565b60208401526040850135915080821115611a3657600080fd5b50611a4385828601611933565b604083015250606083013560608201525092915050565b600060208284031215611a6c57600080fd5b81356001600160401b03811115611a8257600080fd5b611a8e848285016119a2565b949350505050565b60006001600160401b03821115611aaf57611aaf6118ed565b5060051b60200190565b600082601f830112611aca57600080fd5b81356020611adf611ada83611a96565b611903565b82815260059290921b84018101918181019086841115611afe57600080fd5b8286015b84811015611b285780358015158114611b1b5760008081fd5b8352918301918301611b02565b509695505050505050565b600082601f830112611b4457600080fd5b81356020611b54611ada83611a96565b82815260059290921b84018101918181019086841115611b7357600080fd5b8286015b84811015611b285780356001600160401b03811115611b965760008081fd5b611ba48986838b01016119a2565b845250918301918301611b77565b60008060008060808587031215611bc857600080fd5b843593506020808601356001600160401b0380821115611be757600080fd5b818801915088601f830112611bfb57600080fd5b8135611c09611ada82611a96565b81815260059190911b8301840190848101908b831115611c2857600080fd5b938501935b82851015611c4657843582529385019390850190611c2d565b975050506040880135925080831115611c5e57600080fd5b611c6a89848a01611ab9565b94506060880135925080831115611c8057600080fd5b5050611c8e87828801611b33565b91505092959194509250565b600060208284031215611cac57600080fd5b81356001600160401b03811115611cc257600080fd5b8201608081850312156115be57600080fd5b828482376fffffffffffffffffffffffffffffffff19919091169101908152601001919050565b60008251611d0d8184602087016116dc565b9190910192915050565b600060208284031215611d2957600080fd5b5051919050565b60008085851115611d4057600080fd5b83861115611d4d57600080fd5b5050820193919092039150565b8183823760009101908152919050565b82848237909101908152602001919050565b600181811c90821680611d9057607f821691505b602082108103611db057634e487b7160e01b600052602260045260246000fd5b50919050565b8281526000602060008454611dca81611d7c565b60018281168015611de25760018114611dfb57611e2b565b60ff198416888701528215158302880186019450611e2b565b886000528560002060005b84811015611e215781548a8201890152908301908701611e06565b5050858389010194505b509298975050505050505050565b634e487b7160e01b600052603260045260246000fd5b6000808335601e19843603018112611e6657600080fd5b8301803591506001600160401b03821115611e8057600080fd5b60200191503681900382131561166a57600080fd5b634e487b7160e01b600052601160045260246000fd5b600060018201611ebd57611ebd611e95565b5060010190565b601f8211156112c857600081815260208120601f850160051c81016020861015611eeb5750805b601f850160051c820191505b818110156111df57828155600101611ef7565b81516001600160401b03811115611f2357611f236118ed565b611f3781611f318454611d7c565b84611ec4565b602080601f831160018114611f6c5760008415611f545750858301515b600019600386901b1c1916600185901b1785556111df565b600085815260208120601f198616915b82811015611f9b57888601518255948401946001909101908401611f7c565b5085821015611fb95787850151600019600388901b60f8161c191681555b5050505050600190811b01905550565b608081526000611fdc6080830187611700565b8281036020840152611fee8187611700565b905082810360408401526120028186611700565b91505082606083015295945050505050565b6020808252602b908201527f496e697469616c697a61626c653a20636f6e7472616374206973206e6f74206960408201526a6e697469616c697a696e6760a81b606082015260800190565b8082018082111561162357611623611e95565b8181038181111561162357611623611e9556fea26469706673582212202449b9c4a5b075f8277dad288e2b0936962981575fa6c1f536150af527bc73fe64736f6c63430008110033",
  "devdoc": {
    "kind": "dev",
    "methods": {
      "owner()": {
        "details": "Returns the address of the current owner."
      },
      "renounceOwnership()": {
        "details": "Leaves the contract without owner. It will not be possible to call `onlyOwner` functions anymore. Can only be called by the current owner. NOTE: Renouncing ownership will leave the contract without an owner, thereby removing any functionality that is only available to the owner."
      },
      "transferOwnership(address)": {
        "details": "Transfers ownership of the contract to a new account (`newOwner`). Can only be called by the current owner."
      }
    },
    "version": 1
  },
  "userdoc": {
    "kind": "user",
    "methods": {},
    "version": 1
  },
  "storageLayout": {
    "storage": [
      {
        "astId": 138,
        "contract": "contracts/SLPDeposit.sol:SLPDeposit",
        "label": "_initialized",
        "offset": 0,
        "slot": "0",
        "type": "t_uint8"
      },
      {
        "astId": 141,
        "contract": "contracts/SLPDeposit.sol:SLPDeposit",
        "label": "_initializing",
        "offset": 1,
        "slot": "0",
        "type": "t_bool"
      },
      {
        "astId": 625,
        "contract": "contracts/SLPDeposit.sol:SLPDeposit",
        "label": "__gap",
        "offset": 0,
        "slot": "1",
        "type": "t_array(t_uint256)50_storage"
      },
      {
        "astId": 10,
        "contract": "contracts/SLPDeposit.sol:SLPDeposit",
        "label": "_owner",
        "offset": 0,
        "slot": "51",
        "type": "t_address"
      },
      {
        "astId": 130,
        "contract": "contracts/SLPDeposit.sol:SLPDeposit",
        "label": "__gap",
        "offset": 0,
        "slot": "52",
        "type": "t_array(t_uint256)49_storage"
      },
      {
        "astId": 1173,
        "contract": "contracts/SLPDeposit.sol:SLPDeposit",
        "label": "depositContract",
        "offset": 0,
        "slot": "101",
        "type": "t_contract(IDepositContract)1147"
      },
      {
        "astId": 1177,
        "contract": "contracts/SLPDeposit.sol:SLPDeposit",
        "label": "merkleRoots",
        "offset": 0,
        "slot": "102",
        "type": "t_mapping(t_uint256,t_bytes32)"
      },
      {
        "astId": 1179,
        "contract": "contracts/SLPDeposit.sol:SLPDeposit",
        "label": "slpCore",
        "offset": 0,
        "slot": "103",
        "type": "t_address"
      },
      {
        "astId": 1181,
        "contract": "contracts/SLPDeposit.sol:SLPDeposit",
        "label": "withdrawalCredentials",
        "offset": 0,
        "slot": "104",
        "type": "t_bytes_storage"
      }
    ],
    "types": {
      "t_address": {
        "encoding": "inplace",
        "label": "address",
        "numberOfBytes": "20"
      },
      "t_array(t_uint256)49_storage": {
        "base": "t_uint256",
        "encoding": "inplace",
        "label": "uint256[49]",
        "numberOfBytes": "1568"
      },
      "t_array(t_uint256)50_storage": {
        "base": "t_uint256",
        "encoding": "inplace",
        "label": "uint256[50]",
        "numberOfBytes": "1600"
      },
      "t_bool": {
        "encoding": "inplace",
        "label": "bool",
        "numberOfBytes": "1"
      },
      "t_bytes32": {
        "encoding": "inplace",
        "label": "bytes32",
        "numberOfBytes": "32"
      },
      "t_bytes_storage": {
        "encoding": "bytes",
        "label": "bytes",
        "numberOfBytes": "32"
      },
      "t_contract(IDepositContract)1147": {
        "encoding": "inplace",
        "label": "contract IDepositContract",
        "numberOfBytes": "20"
      },
      "t_mapping(t_uint256,t_bytes32)": {
        "encoding": "mapping",
        "key": "t_uint256",
        "label": "mapping(uint256 => bytes32)",
        "numberOfBytes": "32",
        "value": "t_bytes32"
      },
      "t_uint256": {
        "encoding": "inplace",
        "label": "uint256",
        "numberOfBytes": "32"
      },
      "t_uint8": {
        "encoding": "inplace",
        "label": "uint8",
        "numberOfBytes": "1"
      }
    }
  }
}