{
  "address": "0xB4DD2A3dd542001b74ee4D28C0dC053ABf86A377",
  "abi": [
    {
      "anonymous": false,
      "inputs": [
        {
          "indexed": true,
          "internalType": "address",
          "name": "sender",
          "type": "address"
        },
        {
          "indexed": false,
          "internalType": "uint256",
          "name": "tokenAmount",
          "type": "uint256"
        }
      ],
      "name": "EthDeposited",
      "type": "event"
    },
    {
      "anonymous": false,
      "inputs": [
        {
          "indexed": false,
          "internalType": "uint8",
          "name": "version",
          "type": "uint8"
        }
      ],
      "name": "Initialized",
      "type": "event"
    },
    {
      "anonymous": false,
      "inputs": [
        {
          "indexed": true,
          "internalType": "address",
          "name": "previousOwner",
          "type": "address"
        },
        {
          "indexed": true,
          "internalType": "address",
          "name": "newOwner",
          "type": "address"
        }
      ],
      "name": "OwnershipTransferred",
      "type": "event"
    },
    {
      "inputs": [],
      "name": "DEPOSIT_SIZE",
      "outputs": [
        {
          "internalType": "uint256",
          "name": "",
          "type": "uint256"
        }
      ],
      "stateMutability": "view",
      "type": "function"
    },
    {
      "inputs": [],
      "name": "DEPOSIT_SIZE_IN_GWEI_LE64",
      "outputs": [
        {
          "internalType": "uint64",
          "name": "",
          "type": "uint64"
        }
      ],
      "stateMutability": "view",
      "type": "function"
    },
    {
      "inputs": [
        {
          "components": [
            {
              "internalType": "bytes",
              "name": "pubkey",
              "type": "bytes"
            },
            {
              "internalType": "bytes",
              "name": "withdrawal_credentials",
              "type": "bytes"
            },
            {
              "internalType": "bytes",
              "name": "signature",
              "type": "bytes"
            },
            {
              "internalType": "bytes32",
              "name": "deposit_data_root",
              "type": "bytes32"
            }
          ],
          "internalType": "struct SLPDeposit.Validator[]",
          "name": "validators",
          "type": "tuple[]"
        }
      ],
      "name": "batchDeposit",
      "outputs": [],
      "stateMutability": "nonpayable",
      "type": "function"
    },
    {
      "inputs": [
        {
          "internalType": "uint256",
          "name": "batchId",
          "type": "uint256"
        },
        {
          "internalType": "bytes32[]",
          "name": "proof",
          "type": "bytes32[]"
        },
        {
          "internalType": "bool[]",
          "name": "proofFlags",
          "type": "bool[]"
        },
        {
          "components": [
            {
              "internalType": "bytes",
              "name": "pubkey",
              "type": "bytes"
            },
            {
              "internalType": "bytes",
              "name": "withdrawal_credentials",
              "type": "bytes"
            },
            {
              "internalType": "bytes",
              "name": "signature",
              "type": "bytes"
            },
            {
              "internalType": "bytes32",
              "name": "deposit_data_root",
              "type": "bytes32"
            }
          ],
          "internalType": "struct SLPDeposit.Validator[]",
          "name": "validators",
          "type": "tuple[]"
        }
      ],
      "name": "batchDepositWithProof",
      "outputs": [],
      "stateMutability": "nonpayable",
      "type": "function"
    },
    {
      "inputs": [
        {
          "components": [
            {
              "internalType": "bytes",
              "name": "pubkey",
              "type": "bytes"
            },
            {
              "internalType": "bytes",
              "name": "withdrawal_credentials",
              "type": "bytes"
            },
            {
              "internalType": "bytes",
              "name": "signature",
              "type": "bytes"
            },
            {
              "internalType": "bytes32",
              "name": "deposit_data_root",
              "type": "bytes32"
            }
          ],
          "internalType": "struct SLPDeposit.Validator",
          "name": "validator",
          "type": "tuple"
        }
      ],
      "name": "checkDepositDataRoot",
      "outputs": [
        {
          "internalType": "bool",
          "name": "",
          "type": "bool"
        }
      ],
      "stateMutability": "view",
      "type": "function"
    },
    {
      "inputs": [],
      "name": "depositContract",
      "outputs": [
        {
          "internalType": "contract IDepositContract",
          "name": "",
          "type": "address"
        }
      ],
      "stateMutability": "view",
      "type": "function"
    },
    {
      "inputs": [],
      "name": "depositETH",
      "outputs": [],
      "stateMutability": "payable",
      "type": "function"
    },
    {
      "inputs": [
        {
          "internalType": "bytes",
          "name": "pubkey",
          "type": "bytes"
        },
        {
          "internalType": "bytes",
          "name": "signature",
          "type": "bytes"
        }
      ],
      "name": "getValidatorData",
      "outputs": [
        {
          "components": [
            {
              "internalType": "bytes",
              "name": "pubkey",
              "type": "bytes"
            },
            {
              "internalType": "bytes",
              "name": "withdrawal_credentials",
              "type": "bytes"
            },
            {
              "internalType": "bytes",
              "name": "signature",
              "type": "bytes"
            },
            {
              "internalType": "bytes32",
              "name": "deposit_data_root",
              "type": "bytes32"
            }
          ],
          "internalType": "struct SLPDeposit.Validator",
          "name": "",
          "type": "tuple"
        }
      ],
      "stateMutability": "view",
      "type": "function"
    },
    {
      "inputs": [
        {
          "internalType": "address",
          "name": "_depositContract",
          "type": "address"
        }
      ],
      "name": "initialize",
      "outputs": [],
      "stateMutability": "nonpayable",
      "type": "function"
    },
    {
      "inputs": [
        {
          "internalType": "uint256",
          "name": "",
          "type": "uint256"
        }
      ],
      "name": "merkleRoots",
      "outputs": [
        {
          "internalType": "bytes32",
          "name": "",
          "type": "bytes32"
        }
      ],
      "stateMutability": "view",
      "type": "function"
    },
    {
      "inputs": [],
      "name": "owner",
      "outputs": [
        {
          "internalType": "address",
          "name": "",
          "type": "address"
        }
      ],
      "stateMutability": "view",
      "type": "function"
    },
    {
      "inputs": [],
      "name": "renounceOwnership",
      "outputs": [],
      "stateMutability": "nonpayable",
      "type": "function"
    },
    {
      "inputs": [
        {
          "internalType": "address",
          "name": "receiver",
          "type": "address"
        }
      ],
      "name": "setCredential",
      "outputs": [],
      "stateMutability": "nonpayable",
      "type": "function"
    },
    {
      "inputs": [
        {
          "internalType": "uint256",
          "name": "batchId",
          "type": "uint256"
        },
        {
          "internalType": "bytes32",
          "name": "merkleRoot",
          "type": "bytes32"
        }
      ],
      "name": "setMerkleRoot",
      "outputs": [],
      "stateMutability": "nonpayable",
      "type": "function"
    },
    {
      "inputs": [
        {
          "internalType": "address",
          "name": "_slpCore",
          "type": "address"
        }
      ],
      "name": "setSLPCore",
      "outputs": [],
      "stateMutability": "nonpayable",
      "type": "function"
    },
    {
      "inputs": [],
      "name": "slpCore",
      "outputs": [
        {
          "internalType": "address",
          "name": "",
          "type": "address"
        }
      ],
      "stateMutability": "view",
      "type": "function"
    },
    {
      "inputs": [
        {
          "internalType": "address",
          "name": "newOwner",
          "type": "address"
        }
      ],
      "name": "transferOwnership",
      "outputs": [],
      "stateMutability": "nonpayable",
      "type": "function"
    },
    {
      "inputs": [
        {
          "internalType": "address",
          "name": "recipient",
          "type": "address"
        },
        {
          "internalType": "uint256",
          "name": "amount",
          "type": "uint256"
        }
      ],
      "name": "withdrawETH",
      "outputs": [],
      "stateMutability": "nonpayable",
      "type": "function"
    },
    {
      "inputs": [],
      "name": "withdrawalCredentials",
      "outputs": [
        {
          "internalType": "bytes",
          "name": "",
          "type": "bytes"
        }
      ],
      "stateMutability": "view",
      "type": "function"
    }
  ],
  "transactionHash": "0xc66734bc0f9c9fa1ccaecb4e6c8dc8aedca5f2aa62406f0bf50b344086e27da6",
  "args": [],
  "numDeployments": 1,
  "solcInputHash": "6a1f33d807bcf8f5cfbe71e36e28f733",
  "bytecode": "0x608060405234801561001057600080fd5b5061203b806100206000396000f3fe6080604052600436106101135760003560e01c806371c5ecb1116100a0578063e94ad65b11610064578063e94ad65b14610311578063ea01363b14610331578063f2fde38b14610361578063f345e58414610381578063f6326fb3146103b457600080fd5b806371c5ecb1146102525780638da5cb5b1461027f578063a5971759146102b1578063b431a501146102d1578063c4d66de8146102f157600080fd5b80633851daf3116100e75780633851daf3146101bb5780634782f779146101db5780634cd79e0a146101fb5780636d9102951461021d578063715018a61461023d57600080fd5b806257d87714610118578063159de7281461014e57806318712c211461017057806336bf332514610190575b600080fd5b34801561012457600080fd5b5061013861013336600461163a565b6103bc565b60405161014591906116f5565b60405180910390f35b34801561015a57600080fd5b5061016e610169366004611780565b61084a565b005b34801561017c57600080fd5b5061016e61018b36600461179b565b6108ca565b34801561019c57600080fd5b506101ad6801bc16d674ec80000081565b604051908152602001610145565b3480156101c757600080fd5b5061016e6101d63660046117bd565b610978565b3480156101e757600080fd5b5061016e6101f6366004611831565b610ae3565b34801561020757600080fd5b50610210610b46565b604051610145919061185b565b34801561022957600080fd5b5061016e610238366004611780565b610bd4565b34801561024957600080fd5b5061016e610c6a565b34801561025e57600080fd5b506101ad61026d36600461186e565b60666020526000908152604090205481565b34801561028b57600080fd5b506033546001600160a01b03165b6040516001600160a01b039091168152602001610145565b3480156102bd57600080fd5b5061016e6102cc366004611b10565b610c7e565b3480156102dd57600080fd5b50606754610299906001600160a01b031681565b3480156102fd57600080fd5b5061016e61030c366004611780565b610e24565b34801561031d57600080fd5b50606554610299906001600160a01b031681565b34801561033d57600080fd5b5061035161034c366004611bf8565b610fa6565b6040519015158152602001610145565b34801561036d57600080fd5b5061016e61037c366004611780565b610fd5565b34801561038d57600080fd5b5061039c664059730700000081565b6040516001600160401b039091168152602001610145565b61016e61104e565b6103ea6040518060800160405280606081526020016060815260200160608152602001600080191681525090565b600060028686600060801b60405160200161040793929190611c32565b60408051601f198184030181529082905261042191611c59565b602060405180830381855afa15801561043e573d6000803e3d6000fd5b5050506040513d601f19601f820116820180604052508101906104619190611c75565b90506000600280610475604084888a611c8e565b604051602001610486929190611cb8565b60408051601f19818403018152908290526104a091611c59565b602060405180830381855afa1580156104bd573d6000803e3d6000fd5b5050506040513d601f19601f820116820180604052508101906104e09190611c75565b60026104ef876040818b611c8e565b604051610503929190600090602001611cc8565b60408051601f198184030181529082905261051d91611c59565b602060405180830381855afa15801561053a573d6000803e3d6000fd5b5050506040513d601f19601f8201168201806040525081019061055d9190611c75565b60408051602081019390935282015260600160408051601f198184030181529082905261058991611c59565b602060405180830381855afa1580156105a6573d6000803e3d6000fd5b5050506040513d601f19601f820116820180604052508101906105c99190611c75565b905060006002808460686040516020016105e4929190611d14565b60408051601f19818403018152908290526105fe91611c59565b602060405180830381855afa15801561061b573d6000803e3d6000fd5b5050506040513d601f19601f8201168201806040525081019061063e9190611c75565b60408051634059730760d81b60208201526000602882015290810185905260029060600160408051601f198184030181529082905261067c91611c59565b602060405180830381855afa158015610699573d6000803e3d6000fd5b5050506040513d601f19601f820116820180604052508101906106bc9190611c75565b60408051602081019390935282015260600160408051601f19818403018152908290526106e891611c59565b602060405180830381855afa158015610705573d6000803e3d6000fd5b5050506040513d601f19601f820116820180604052508101906107289190611c75565b6040805160a06020601f8c018190040282018101909252608081018a81529293509182918b908b90819085018382808284376000920191909152505050908252506068805460209092019161077c90611cda565b80601f01602080910402602001604051908101604052809291908181526020018280546107a890611cda565b80156107f55780601f106107ca576101008083540402835291602001916107f5565b820191906000526020600020905b8154815290600101906020018083116107d857829003601f168201915b5050505050815260200187878080601f01602080910402602001604051908101604052809392919081815260200183838082843760009201919091525050509082525060200191909152979650505050505050565b610852611085565b6001600160a01b0381166108a85760405162461bcd60e51b8152602060048201526018602482015277496e76616c696420534c5020636f7265206164647265737360401b60448201526064015b60405180910390fd5b606780546001600160a01b0319166001600160a01b0392909216919091179055565b6108d2611085565b600082815260666020526040902054156109235760405162461bcd60e51b81526020600482015260126024820152714d65726b6c6520726f6f742065786973747360701b604482015260640161089f565b806109665760405162461bcd60e51b8152602060048201526013602482015272125b9d985b1a59081b595c9adb19481c9bdbdd606a1b604482015260640161089f565b60009182526066602052604090912055565b610980611085565b60686000815461098f90611cda565b811061099d5761099d611d97565b8154600116156109bc5790600052602060002090602091828204019190065b9054901a600160f81b026001600160f81b031916600160f81b14610a225760405162461bcd60e51b815260206004820152601760248201527f57726f6e672063726564656e7469616c20707265666978000000000000000000604482015260640161089f565b60005b81811015610ade57610a54838383818110610a4257610a42611d97565b905060200281019061034c9190611dad565b610a975760405162461bcd60e51b8152602060048201526014602482015273496e76616c6964206465706f736974206461746160601b604482015260640161089f565b610acc838383818110610aac57610aac611d97565b9050602002810190610abe9190611dad565b610ac790611dc3565b6110df565b80610ad681611de5565b915050610a25565b505050565b6067546001600160a01b03163314610b385760405162461bcd60e51b8152602060048201526018602482015277496e76616c696420534c5020636f7265206164647265737360401b604482015260640161089f565b610b4282826111b5565b5050565b60688054610b5390611cda565b80601f0160208091040260200160405190810160405280929190818152602001828054610b7f90611cda565b8015610bcc5780601f10610ba157610100808354040283529160200191610bcc565b820191906000526020600020905b815481529060010190602001808311610baf57829003601f168201915b505050505081565b610bdc611085565b6001600160a01b038116610c255760405162461bcd60e51b815260206004820152601060248201526f24b73b30b634b2103932b1b2b4bb32b960811b604482015260640161089f565b60408051600160f81b60208201526bffffffffffffffffffffffff19606084901b16602c8201520160405160208183030381529060405260689081610b429190611e44565b610c72611085565b610c7c6000611296565b565b610c86611085565b60008481526066602052604090205480610cdb5760405162461bcd60e51b81526020600482015260166024820152754d65726b6c6520726f6f74206e6f742065786973747360501b604482015260640161089f565b600082516001600160401b03811115610cf657610cf6611887565b604051908082528060200260200182016040528015610d1f578160200160208202803683370190505b50905060005b8351811015610d8257838181518110610d4057610d40611d97565b60200260200101516020015180519060200120828281518110610d6557610d65611d97565b602090810291909101015280610d7a81611de5565b915050610d25565b50610d8f858584846112e8565b610ddb5760405162461bcd60e51b815260206004820181905260248201527f4d65726b6c652070726f6f6620766572696669636174696f6e206661696c6564604482015260640161089f565b60005b8351811015610e1b57610e09848281518110610dfc57610dfc611d97565b60200260200101516110df565b80610e1381611de5565b915050610dde565b50505050505050565b600054610100900460ff1615808015610e445750600054600160ff909116105b80610e5e5750303b158015610e5e575060005460ff166001145b610ec15760405162461bcd60e51b815260206004820152602e60248201527f496e697469616c697a61626c653a20636f6e747261637420697320616c72656160448201526d191e481a5b9a5d1a585b1a5e995960921b606482015260840161089f565b6000805460ff191660011790558015610ee4576000805461ff0019166101001790555b6001600160a01b038216610f3a5760405162461bcd60e51b815260206004820152601860248201527f496e76616c6964206465706f73697420636f6e74726163740000000000000000604482015260640161089f565b610f42611300565b606580546001600160a01b0319166001600160a01b0384161790558015610b42576000805461ff0019169055604051600181527f7f26b83ff96e1f2b6a682f133852f6798a09c465da95921460cefb38474024989060200160405180910390a15050565b600080610fc3610fb68480611f03565b6101336040870187611f03565b60609081015193013590921492915050565b610fdd611085565b6001600160a01b0381166110425760405162461bcd60e51b815260206004820152602660248201527f4f776e61626c653a206e6577206f776e657220697320746865207a65726f206160448201526564647265737360d01b606482015260840161089f565b61104b81611296565b50565b60405134815233907f66ff7c8f71ccc7c36152a41920d0d3b46ef3034359f76aa1498ed4478c204b5c9060200160405180910390a2565b6033546001600160a01b03163314610c7c5760405162461bcd60e51b815260206004820181905260248201527f4f776e61626c653a2063616c6c6572206973206e6f7420746865206f776e6572604482015260640161089f565b6801bc16d674ec80000047101561112f5760405162461bcd60e51b8152602060048201526014602482015273496e73756666696369656e742062616c616e636560601b604482015260640161089f565b60655481516020830151604080850151606086015191516304512a2360e31b81526001600160a01b03909516946322895118946801bc16d674ec800000946111809491939092909190600401611f49565b6000604051808303818588803b15801561119957600080fd5b505af11580156111ad573d6000803e3d6000fd5b505050505050565b804710156111fc5760405162461bcd60e51b8152602060048201526014602482015273496e73756666696369656e742062616c616e636560601b604482015260640161089f565b6000826001600160a01b03168260405160006040518083038185875af1925050503d8060008114611249576040519150601f19603f3d011682016040523d82523d6000602084013e61124e565b606091505b5050905080610ade5760405162461bcd60e51b8152602060048201526014602482015273556e61626c6520746f2073656e642076616c756560601b604482015260640161089f565b603380546001600160a01b038381166001600160a01b0319831681179093556040519116919082907f8be0079c531659141344cd1fd0a4f28419497f9722a3daafe3b4186f6b6457e090600090a35050565b6000826112f686868561132f565b1495945050505050565b600054610100900460ff166113275760405162461bcd60e51b815260040161089f90611f94565b610c7c61158e565b805182518451600092919081906001906113499085611fdf565b6113539190611ff2565b146113a05760405162461bcd60e51b815260206004820152601f60248201527f4d65726b6c6550726f6f663a20696e76616c6964206d756c746970726f6f6600604482015260640161089f565b6000816001600160401b038111156113ba576113ba611887565b6040519080825280602002602001820160405280156113e3578160200160208202803683370190505b5090506000806000805b8581101561152357600087851061142857858461140981611de5565b95508151811061141b5761141b611d97565b602002602001015161144e565b898561143381611de5565b96508151811061144557611445611d97565b60200260200101515b905060008b838151811061146457611464611d97565b602002602001015161149a578c8461147b81611de5565b95508151811061148d5761148d611d97565b60200260200101516114e4565b8886106114be5786856114ac81611de5565b96508151811061148d5761148d611d97565b8a866114c981611de5565b9750815181106114db576114db611d97565b60200260200101515b90506114f082826115be565b87848151811061150257611502611d97565b6020026020010181815250505050808061151b90611de5565b9150506113ed565b50841561155b5783611536600187611ff2565b8151811061154657611546611d97565b60200260200101519650505050505050611587565b8515611574578760008151811061154657611546611d97565b8960008151811061154657611546611d97565b9392505050565b600054610100900460ff166115b55760405162461bcd60e51b815260040161089f90611f94565b610c7c33611296565b60008183106115da5760008281526020849052604090206115e9565b60008381526020839052604090205b90505b92915050565b60008083601f84011261160457600080fd5b5081356001600160401b0381111561161b57600080fd5b60208301915083602082850101111561163357600080fd5b9250929050565b6000806000806040858703121561165057600080fd5b84356001600160401b038082111561166757600080fd5b611673888389016115f2565b9096509450602087013591508082111561168c57600080fd5b50611699878288016115f2565b95989497509550505050565b60005b838110156116c05781810151838201526020016116a8565b50506000910152565b600081518084526116e18160208601602086016116a5565b601f01601f19169290920160200192915050565b60208152600082516080602084015261171160a08401826116c9565b90506020840151601f198085840301604086015261172f83836116c9565b925060408601519150808584030160608601525061174d82826116c9565b915050606084015160808401528091505092915050565b80356001600160a01b038116811461177b57600080fd5b919050565b60006020828403121561179257600080fd5b6115e982611764565b600080604083850312156117ae57600080fd5b50508035926020909101359150565b600080602083850312156117d057600080fd5b82356001600160401b03808211156117e757600080fd5b818501915085601f8301126117fb57600080fd5b81358181111561180a57600080fd5b8660208260051b850101111561181f57600080fd5b60209290920196919550909350505050565b6000806040838503121561184457600080fd5b61184d83611764565b946020939093013593505050565b6020815260006115e960208301846116c9565b60006020828403121561188057600080fd5b5035919050565b634e487b7160e01b600052604160045260246000fd5b604051601f8201601f191681016001600160401b03811182821017156118c5576118c5611887565b604052919050565b60006001600160401b038211156118e6576118e6611887565b5060051b60200190565b600082601f83011261190157600080fd5b81356020611916611911836118cd565b61189d565b82815260059290921b8401810191818101908684111561193557600080fd5b8286015b8481101561195f57803580151581146119525760008081fd5b8352918301918301611939565b509695505050505050565b600082601f83011261197b57600080fd5b81356001600160401b0381111561199457611994611887565b6119a7601f8201601f191660200161189d565b8181528460208386010111156119bc57600080fd5b816020850160208301376000918101602001919091529392505050565b6000608082840312156119eb57600080fd5b604051608081016001600160401b038282108183111715611a0e57611a0e611887565b816040528293508435915080821115611a2657600080fd5b611a328683870161196a565b83526020850135915080821115611a4857600080fd5b611a548683870161196a565b60208401526040850135915080821115611a6d57600080fd5b50611a7a8582860161196a565b604083015250606083013560608201525092915050565b600082601f830112611aa257600080fd5b81356020611ab2611911836118cd565b82815260059290921b84018101918181019086841115611ad157600080fd5b8286015b8481101561195f5780356001600160401b03811115611af45760008081fd5b611b028986838b01016119d9565b845250918301918301611ad5565b60008060008060808587031215611b2657600080fd5b843593506020808601356001600160401b0380821115611b4557600080fd5b818801915088601f830112611b5957600080fd5b8135611b67611911826118cd565b81815260059190911b8301840190848101908b831115611b8657600080fd5b938501935b82851015611ba457843582529385019390850190611b8b565b975050506040880135925080831115611bbc57600080fd5b611bc889848a016118f0565b94506060880135925080831115611bde57600080fd5b5050611bec87828801611a91565b91505092959194509250565b600060208284031215611c0a57600080fd5b81356001600160401b03811115611c2057600080fd5b82016080818503121561158757600080fd5b828482376fffffffffffffffffffffffffffffffff19919091169101908152601001919050565b60008251611c6b8184602087016116a5565b9190910192915050565b600060208284031215611c8757600080fd5b5051919050565b60008085851115611c9e57600080fd5b83861115611cab57600080fd5b5050820193919092039150565b8183823760009101908152919050565b82848237909101908152602001919050565b600181811c90821680611cee57607f821691505b602082108103611d0e57634e487b7160e01b600052602260045260246000fd5b50919050565b8281526000602060008454611d2881611cda565b60018281168015611d405760018114611d5957611d89565b60ff198416888701528215158302880186019450611d89565b886000528560002060005b84811015611d7f5781548a8201890152908301908701611d64565b5050858389010194505b509298975050505050505050565b634e487b7160e01b600052603260045260246000fd5b60008235607e19833603018112611c6b57600080fd5b60006115ec36836119d9565b634e487b7160e01b600052601160045260246000fd5b600060018201611df757611df7611dcf565b5060010190565b601f821115610ade57600081815260208120601f850160051c81016020861015611e255750805b601f850160051c820191505b818110156111ad57828155600101611e31565b81516001600160401b03811115611e5d57611e5d611887565b611e7181611e6b8454611cda565b84611dfe565b602080601f831160018114611ea65760008415611e8e5750858301515b600019600386901b1c1916600185901b1785556111ad565b600085815260208120601f198616915b82811015611ed557888601518255948401946001909101908401611eb6565b5085821015611ef35787850151600019600388901b60f8161c191681555b5050505050600190811b01905550565b6000808335601e19843603018112611f1a57600080fd5b8301803591506001600160401b03821115611f3457600080fd5b60200191503681900382131561163357600080fd5b608081526000611f5c60808301876116c9565b8281036020840152611f6e81876116c9565b90508281036040840152611f8281866116c9565b91505082606083015295945050505050565b6020808252602b908201527f496e697469616c697a61626c653a20636f6e7472616374206973206e6f74206960408201526a6e697469616c697a696e6760a81b606082015260800190565b808201808211156115ec576115ec611dcf565b818103818111156115ec576115ec611dcf56fea26469706673582212205081a9ce5a1811347ab46faf04e34ddf8548688094887c7488ee7207da41db3064736f6c63430008110033",
  "devdoc": {
    "kind": "dev",
    "methods": {
      "owner()": {
        "details": "Returns the address of the current owner."
      },
      "renounceOwnership()": {
        "details": "Leaves the contract without owner. It will not be possible to call `onlyOwner` functions anymore. Can only be called by the current owner. NOTE: Renouncing ownership will leave the contract without an owner, thereby removing any functionality that is only available to the owner."
      },
      "transferOwnership(address)": {
        "details": "Transfers ownership of the contract to a new account (`newOwner`). Can only be called by the current owner."
      }
    },
    "version": 1
  },
  "userdoc": {
    "kind": "user",
    "methods": {},
    "version": 1
  },
  "storageLayout": {
    "storage": [
      {
        "astId": 138,
        "contract": "contracts/SLPDeposit.sol:SLPDeposit",
        "label": "_initialized",
        "offset": 0,
        "slot": "0",
        "type": "t_uint8"
      },
      {
        "astId": 141,
        "contract": "contracts/SLPDeposit.sol:SLPDeposit",
        "label": "_initializing",
        "offset": 1,
        "slot": "0",
        "type": "t_bool"
      },
      {
        "astId": 1220,
        "contract": "contracts/SLPDeposit.sol:SLPDeposit",
        "label": "__gap",
        "offset": 0,
        "slot": "1",
        "type": "t_array(t_uint256)50_storage"
      },
      {
        "astId": 10,
        "contract": "contracts/SLPDeposit.sol:SLPDeposit",
        "label": "_owner",
        "offset": 0,
        "slot": "51",
        "type": "t_address"
      },
      {
        "astId": 130,
        "contract": "contracts/SLPDeposit.sol:SLPDeposit",
        "label": "__gap",
        "offset": 0,
        "slot": "52",
        "type": "t_array(t_uint256)49_storage"
      },
      {
        "astId": 4047,
        "contract": "contracts/SLPDeposit.sol:SLPDeposit",
        "label": "depositContract",
        "offset": 0,
        "slot": "101",
        "type": "t_contract(IDepositContract)4021"
      },
      {
        "astId": 4051,
        "contract": "contracts/SLPDeposit.sol:SLPDeposit",
        "label": "merkleRoots",
        "offset": 0,
        "slot": "102",
        "type": "t_mapping(t_uint256,t_bytes32)"
      },
      {
        "astId": 4053,
        "contract": "contracts/SLPDeposit.sol:SLPDeposit",
        "label": "slpCore",
        "offset": 0,
        "slot": "103",
        "type": "t_address"
      },
      {
        "astId": 4055,
        "contract": "contracts/SLPDeposit.sol:SLPDeposit",
        "label": "withdrawalCredentials",
        "offset": 0,
        "slot": "104",
        "type": "t_bytes_storage"
      }
    ],
    "types": {
      "t_address": {
        "encoding": "inplace",
        "label": "address",
        "numberOfBytes": "20"
      },
      "t_array(t_uint256)49_storage": {
        "base": "t_uint256",
        "encoding": "inplace",
        "label": "uint256[49]",
        "numberOfBytes": "1568"
      },
      "t_array(t_uint256)50_storage": {
        "base": "t_uint256",
        "encoding": "inplace",
        "label": "uint256[50]",
        "numberOfBytes": "1600"
      },
      "t_bool": {
        "encoding": "inplace",
        "label": "bool",
        "numberOfBytes": "1"
      },
      "t_bytes32": {
        "encoding": "inplace",
        "label": "bytes32",
        "numberOfBytes": "32"
      },
      "t_bytes_storage": {
        "encoding": "bytes",
        "label": "bytes",
        "numberOfBytes": "32"
      },
      "t_contract(IDepositContract)4021": {
        "encoding": "inplace",
        "label": "contract IDepositContract",
        "numberOfBytes": "20"
      },
      "t_mapping(t_uint256,t_bytes32)": {
        "encoding": "mapping",
        "key": "t_uint256",
        "label": "mapping(uint256 => bytes32)",
        "numberOfBytes": "32",
        "value": "t_bytes32"
      },
      "t_uint256": {
        "encoding": "inplace",
        "label": "uint256",
        "numberOfBytes": "32"
      },
      "t_uint8": {
        "encoding": "inplace",
        "label": "uint8",
        "numberOfBytes": "1"
      }
    }
  }
}