{
  "address": "0x541a685cdacde91b82593fab8ba1ce3de22ef2f6",
  "abi": [
    {
      "anonymous": false,
      "inputs": [
        {
          "indexed": true,
          "internalType": "address",
          "name": "sender",
          "type": "address"
        },
        {
          "indexed": false,
          "internalType": "uint256",
          "name": "tokenAamount",
          "type": "uint256"
        }
      ],
      "name": "EthDeposited",
      "type": "event"
    },
    {
      "anonymous": false,
      "inputs": [
        {
          "indexed": false,
          "internalType": "uint8",
          "name": "version",
          "type": "uint8"
        }
      ],
      "name": "Initialized",
      "type": "event"
    },
    {
      "anonymous": false,
      "inputs": [
        {
          "indexed": true,
          "internalType": "address",
          "name": "previousOwner",
          "type": "address"
        },
        {
          "indexed": true,
          "internalType": "address",
          "name": "newOwner",
          "type": "address"
        }
      ],
      "name": "OwnershipTransferred",
      "type": "event"
    },
    {
      "inputs": [
        {
          "internalType": "uint256",
          "name": "batchId",
          "type": "uint256"
        },
        {
          "internalType": "bytes32[]",
          "name": "proof",
          "type": "bytes32[]"
        },
        {
          "internalType": "bool[]",
          "name": "proofFlags",
          "type": "bool[]"
        },
        {
          "components": [
            {
              "internalType": "bytes",
              "name": "pubkey",
              "type": "bytes"
            },
            {
              "internalType": "bytes",
              "name": "withdrawal_credentials",
              "type": "bytes"
            },
            {
              "internalType": "bytes",
              "name": "signature",
              "type": "bytes"
            },
            {
              "internalType": "bytes32",
              "name": "deposit_data_root",
              "type": "bytes32"
            }
          ],
          "internalType": "struct SLPDeposit.Validator[]",
          "name": "validators",
          "type": "tuple[]"
        }
      ],
      "name": "batchDeposit",
      "outputs": [],
      "stateMutability": "nonpayable",
      "type": "function"
    },
    {
      "inputs": [],
      "name": "depositContract",
      "outputs": [
        {
          "internalType": "contract IDepositContract",
          "name": "",
          "type": "address"
        }
      ],
      "stateMutability": "view",
      "type": "function"
    },
    {
      "inputs": [],
      "name": "depositETH",
      "outputs": [],
      "stateMutability": "payable",
      "type": "function"
    },
    {
      "inputs": [
        {
          "internalType": "address",
          "name": "_depositContract",
          "type": "address"
        }
      ],
      "name": "initialize",
      "outputs": [],
      "stateMutability": "nonpayable",
      "type": "function"
    },
    {
      "inputs": [
        {
          "internalType": "uint256",
          "name": "",
          "type": "uint256"
        }
      ],
      "name": "merkleRoots",
      "outputs": [
        {
          "internalType": "bytes32",
          "name": "",
          "type": "bytes32"
        }
      ],
      "stateMutability": "view",
      "type": "function"
    },
    {
      "inputs": [],
      "name": "owner",
      "outputs": [
        {
          "internalType": "address",
          "name": "",
          "type": "address"
        }
      ],
      "stateMutability": "view",
      "type": "function"
    },
    {
      "inputs": [],
      "name": "renounceOwnership",
      "outputs": [],
      "stateMutability": "nonpayable",
      "type": "function"
    },
    {
      "inputs": [
        {
          "internalType": "uint256",
          "name": "batchId",
          "type": "uint256"
        },
        {
          "internalType": "bytes32",
          "name": "merkleRoot",
          "type": "bytes32"
        }
      ],
      "name": "setMerkleRoot",
      "outputs": [],
      "stateMutability": "nonpayable",
      "type": "function"
    },
    {
      "inputs": [
        {
          "internalType": "address",
          "name": "_slpCore",
          "type": "address"
        }
      ],
      "name": "setSLPCore",
      "outputs": [],
      "stateMutability": "nonpayable",
      "type": "function"
    },
    {
      "inputs": [],
      "name": "slpCore",
      "outputs": [
        {
          "internalType": "address",
          "name": "",
          "type": "address"
        }
      ],
      "stateMutability": "view",
      "type": "function"
    },
    {
      "inputs": [
        {
          "internalType": "address",
          "name": "newOwner",
          "type": "address"
        }
      ],
      "name": "transferOwnership",
      "outputs": [],
      "stateMutability": "nonpayable",
      "type": "function"
    },
    {
      "inputs": [
        {
          "internalType": "address",
          "name": "recipient",
          "type": "address"
        },
        {
          "internalType": "uint256",
          "name": "amount",
          "type": "uint256"
        }
      ],
      "name": "withdrawETH",
      "outputs": [],
      "stateMutability": "nonpayable",
      "type": "function"
    }
  ],
  "transactionHash": "0xe2ddae751edeb8a6e2811047359c185192363ef1d23f65bbb14a29719bd18e9a",
  "args": [],
  "numDeployments": 1,
  "solcInputHash": "755c9fafe2db5817841fe148ec051f2f",
  "bytecode": "0x608060405234801561001057600080fd5b506112b3806100206000396000f3fe6080604052600436106100a75760003560e01c80638da5cb5b116100645780638da5cb5b14610183578063b431a501146101b5578063c4d66de8146101d5578063e94ad65b146101f5578063f2fde38b14610215578063f6326fb31461023557600080fd5b8063159de728146100ac57806318712c21146100ce5780634782f779146100ee578063715018a61461010e57806371c5ecb1146101235780637847847014610163575b600080fd5b3480156100b857600080fd5b506100cc6100c7366004610d3a565b61023d565b005b3480156100da57600080fd5b506100cc6100e9366004610d55565b6102bd565b3480156100fa57600080fd5b506100cc610109366004610d77565b61036b565b34801561011a57600080fd5b506100cc6103ce565b34801561012f57600080fd5b5061015061013e366004610da1565b60666020526000908152604090205481565b6040519081526020015b60405180910390f35b34801561016f57600080fd5b506100cc61017e36600461104d565b6103e2565b34801561018f57600080fd5b506033546001600160a01b03165b6040516001600160a01b03909116815260200161015a565b3480156101c157600080fd5b5060675461019d906001600160a01b031681565b3480156101e157600080fd5b506100cc6101f0366004610d3a565b610589565b34801561020157600080fd5b5060655461019d906001600160a01b031681565b34801561022157600080fd5b506100cc610230366004610d3a565b61070b565b6100cc610784565b6102456107bb565b6001600160a01b03811661029b5760405162461bcd60e51b8152602060048201526018602482015277496e76616c696420534c5020636f7265206164647265737360401b60448201526064015b60405180910390fd5b606780546001600160a01b0319166001600160a01b0392909216919091179055565b6102c56107bb565b600082815260666020526040902054156103165760405162461bcd60e51b81526020600482015260126024820152714d65726b6c6520726f6f742065786973747360701b6044820152606401610292565b806103595760405162461bcd60e51b8152602060048201526013602482015272125b9d985b1a59081b595c9adb19481c9bdbdd606a1b6044820152606401610292565b60009182526066602052604090912055565b6067546001600160a01b031633146103c05760405162461bcd60e51b8152602060048201526018602482015277496e76616c696420534c5020636f7265206164647265737360401b6044820152606401610292565b6103ca8282610815565b5050565b6103d66107bb565b6103e060006108fb565b565b6103ea6107bb565b6000848152606660205260409020548061043f5760405162461bcd60e51b81526020600482015260166024820152754d65726b6c6520726f6f74206e6f742065786973747360501b6044820152606401610292565b6000825167ffffffffffffffff81111561045b5761045b610dba565b604051908082528060200260200182016040528015610484578160200160208202803683370190505b50905060005b83518110156104e7578381815181106104a5576104a5611136565b602002602001015160200151805190602001208282815181106104ca576104ca611136565b6020908102919091010152806104df81611162565b91505061048a565b506104f48585848461094d565b6105405760405162461bcd60e51b815260206004820181905260248201527f4d65726b6c652070726f6f6620766572696669636174696f6e206661696c65646044820152606401610292565b60005b83518110156105805761056e84828151811061056157610561611136565b6020026020010151610965565b8061057881611162565b915050610543565b50505050505050565b600054610100900460ff16158080156105a95750600054600160ff909116105b806105c35750303b1580156105c3575060005460ff166001145b6106265760405162461bcd60e51b815260206004820152602e60248201527f496e697469616c697a61626c653a20636f6e747261637420697320616c72656160448201526d191e481a5b9a5d1a585b1a5e995960921b6064820152608401610292565b6000805460ff191660011790558015610649576000805461ff0019166101001790555b6001600160a01b03821661069f5760405162461bcd60e51b815260206004820152601860248201527f496e76616c6964206465706f73697420636f6e747261637400000000000000006044820152606401610292565b6106a7610a2b565b606580546001600160a01b0319166001600160a01b03841617905580156103ca576000805461ff0019169055604051600181527f7f26b83ff96e1f2b6a682f133852f6798a09c465da95921460cefb38474024989060200160405180910390a15050565b6107136107bb565b6001600160a01b0381166107785760405162461bcd60e51b815260206004820152602660248201527f4f776e61626c653a206e6577206f776e657220697320746865207a65726f206160448201526564647265737360d01b6064820152608401610292565b610781816108fb565b50565b60405134815233907f66ff7c8f71ccc7c36152a41920d0d3b46ef3034359f76aa1498ed4478c204b5c9060200160405180910390a2565b6033546001600160a01b031633146103e05760405162461bcd60e51b815260206004820181905260248201527f4f776e61626c653a2063616c6c6572206973206e6f7420746865206f776e65726044820152606401610292565b8047101561085c5760405162461bcd60e51b8152602060048201526014602482015273496e73756666696369656e742062616c616e636560601b6044820152606401610292565b6000826001600160a01b03168260405160006040518083038185875af1925050503d80600081146108a9576040519150601f19603f3d011682016040523d82523d6000602084013e6108ae565b606091505b50509050806108f65760405162461bcd60e51b8152602060048201526014602482015273556e61626c6520746f2073656e642076616c756560601b6044820152606401610292565b505050565b603380546001600160a01b038381166001600160a01b0319831681179093556040519116919082907f8be0079c531659141344cd1fd0a4f28419497f9722a3daafe3b4186f6b6457e090600090a35050565b60008261095b868685610a5a565b1495945050505050565b6801bc16d674ec800000478111156109b65760405162461bcd60e51b8152602060048201526014602482015273496e73756666696369656e742062616c616e636560601b6044820152606401610292565b60655482516020840151604080860151606087015191516304512a2360e31b81526001600160a01b039095169463228951189487946109fe94919390929091906004016111c1565b6000604051808303818588803b158015610a1757600080fd5b505af1158015610580573d6000803e3d6000fd5b600054610100900460ff16610a525760405162461bcd60e51b81526004016102929061120c565b6103e0610cba565b80518251845160009291908190600190610a749085611257565b610a7e919061126a565b14610acb5760405162461bcd60e51b815260206004820152601f60248201527f4d65726b6c6550726f6f663a20696e76616c6964206d756c746970726f6f66006044820152606401610292565b60008167ffffffffffffffff811115610ae657610ae6610dba565b604051908082528060200260200182016040528015610b0f578160200160208202803683370190505b5090506000806000805b85811015610c4f576000878510610b54578584610b3581611162565b955081518110610b4757610b47611136565b6020026020010151610b7a565b8985610b5f81611162565b965081518110610b7157610b71611136565b60200260200101515b905060008b8381518110610b9057610b90611136565b6020026020010151610bc6578c84610ba781611162565b955081518110610bb957610bb9611136565b6020026020010151610c10565b888610610bea578685610bd881611162565b965081518110610bb957610bb9611136565b8a86610bf581611162565b975081518110610c0757610c07611136565b60200260200101515b9050610c1c8282610cea565b878481518110610c2e57610c2e611136565b60200260200101818152505050508080610c4790611162565b915050610b19565b508415610c875783610c6260018761126a565b81518110610c7257610c72611136565b60200260200101519650505050505050610cb3565b8515610ca05787600081518110610c7257610c72611136565b89600081518110610c7257610c72611136565b9392505050565b600054610100900460ff16610ce15760405162461bcd60e51b81526004016102929061120c565b6103e0336108fb565b6000818310610d06576000828152602084905260409020610d15565b60008381526020839052604090205b90505b92915050565b80356001600160a01b0381168114610d3557600080fd5b919050565b600060208284031215610d4c57600080fd5b610d1582610d1e565b60008060408385031215610d6857600080fd5b50508035926020909101359150565b60008060408385031215610d8a57600080fd5b610d9383610d1e565b946020939093013593505050565b600060208284031215610db357600080fd5b5035919050565b634e487b7160e01b600052604160045260246000fd5b6040516080810167ffffffffffffffff81118282101715610df357610df3610dba565b60405290565b604051601f8201601f1916810167ffffffffffffffff81118282101715610e2257610e22610dba565b604052919050565b600067ffffffffffffffff821115610e4457610e44610dba565b5060051b60200190565b600082601f830112610e5f57600080fd5b81356020610e74610e6f83610e2a565b610df9565b82815260059290921b84018101918181019086841115610e9357600080fd5b8286015b84811015610ebd5780358015158114610eb05760008081fd5b8352918301918301610e97565b509695505050505050565b600082601f830112610ed957600080fd5b813567ffffffffffffffff811115610ef357610ef3610dba565b610f06601f8201601f1916602001610df9565b818152846020838601011115610f1b57600080fd5b816020850160208301376000918101602001919091529392505050565b600082601f830112610f4957600080fd5b81356020610f59610e6f83610e2a565b82815260059290921b84018101918181019086841115610f7857600080fd5b8286015b84811015610ebd57803567ffffffffffffffff80821115610f9d5760008081fd5b908801906080828b03601f1901811315610fb75760008081fd5b610fbf610dd0565b8784013583811115610fd15760008081fd5b610fdf8d8a83880101610ec8565b82525060408085013584811115610ff65760008081fd5b6110048e8b83890101610ec8565b8a840152506060808601358581111561101d5760008081fd5b61102b8f8c838a0101610ec8565b9284019290925294909201359381019390935250508352918301918301610f7c565b6000806000806080858703121561106357600080fd5b8435935060208086013567ffffffffffffffff8082111561108357600080fd5b818801915088601f83011261109757600080fd5b81356110a5610e6f82610e2a565b81815260059190911b8301840190848101908b8311156110c457600080fd5b938501935b828510156110e2578435825293850193908501906110c9565b9750505060408801359250808311156110fa57600080fd5b61110689848a01610e4e565b9450606088013592508083111561111c57600080fd5b505061112a87828801610f38565b91505092959194509250565b634e487b7160e01b600052603260045260246000fd5b634e487b7160e01b600052601160045260246000fd5b6000600182016111745761117461114c565b5060010190565b6000815180845260005b818110156111a157602081850181015186830182015201611185565b506000602082860101526020601f19601f83011685010191505092915050565b6080815260006111d4608083018761117b565b82810360208401526111e6818761117b565b905082810360408401526111fa818661117b565b91505082606083015295945050505050565b6020808252602b908201527f496e697469616c697a61626c653a20636f6e7472616374206973206e6f74206960408201526a6e697469616c697a696e6760a81b606082015260800190565b80820180821115610d1857610d1861114c565b81810381811115610d1857610d1861114c56fea2646970667358221220283d534e9fa47ab22bab16f11b263827a94dc8faf7afba508f78f09da30f793f64736f6c63430008110033",
  "devdoc": {
    "kind": "dev",
    "methods": {
      "owner()": {
        "details": "Returns the address of the current owner."
      },
      "renounceOwnership()": {
        "details": "Leaves the contract without owner. It will not be possible to call `onlyOwner` functions anymore. Can only be called by the current owner. NOTE: Renouncing ownership will leave the contract without an owner, thereby removing any functionality that is only available to the owner."
      },
      "transferOwnership(address)": {
        "details": "Transfers ownership of the contract to a new account (`newOwner`). Can only be called by the current owner."
      }
    },
    "version": 1
  },
  "userdoc": {
    "kind": "user",
    "methods": {},
    "version": 1
  },
  "storageLayout": {
    "storage": [
      {
        "astId": 138,
        "contract": "contracts/SLPDeposit.sol:SLPDeposit",
        "label": "_initialized",
        "offset": 0,
        "slot": "0",
        "type": "t_uint8"
      },
      {
        "astId": 141,
        "contract": "contracts/SLPDeposit.sol:SLPDeposit",
        "label": "_initializing",
        "offset": 1,
        "slot": "0",
        "type": "t_bool"
      },
      {
        "astId": 625,
        "contract": "contracts/SLPDeposit.sol:SLPDeposit",
        "label": "__gap",
        "offset": 0,
        "slot": "1",
        "type": "t_array(t_uint256)50_storage"
      },
      {
        "astId": 10,
        "contract": "contracts/SLPDeposit.sol:SLPDeposit",
        "label": "_owner",
        "offset": 0,
        "slot": "51",
        "type": "t_address"
      },
      {
        "astId": 130,
        "contract": "contracts/SLPDeposit.sol:SLPDeposit",
        "label": "__gap",
        "offset": 0,
        "slot": "52",
        "type": "t_array(t_uint256)49_storage"
      },
      {
        "astId": 1167,
        "contract": "contracts/SLPDeposit.sol:SLPDeposit",
        "label": "depositContract",
        "offset": 0,
        "slot": "101",
        "type": "t_contract(IDepositContract)1147"
      },
      {
        "astId": 1171,
        "contract": "contracts/SLPDeposit.sol:SLPDeposit",
        "label": "merkleRoots",
        "offset": 0,
        "slot": "102",
        "type": "t_mapping(t_uint256,t_bytes32)"
      },
      {
        "astId": 1173,
        "contract": "contracts/SLPDeposit.sol:SLPDeposit",
        "label": "slpCore",
        "offset": 0,
        "slot": "103",
        "type": "t_address"
      }
    ],
    "types": {
      "t_address": {
        "encoding": "inplace",
        "label": "address",
        "numberOfBytes": "20"
      },
      "t_array(t_uint256)49_storage": {
        "base": "t_uint256",
        "encoding": "inplace",
        "label": "uint256[49]",
        "numberOfBytes": "1568"
      },
      "t_array(t_uint256)50_storage": {
        "base": "t_uint256",
        "encoding": "inplace",
        "label": "uint256[50]",
        "numberOfBytes": "1600"
      },
      "t_bool": {
        "encoding": "inplace",
        "label": "bool",
        "numberOfBytes": "1"
      },
      "t_bytes32": {
        "encoding": "inplace",
        "label": "bytes32",
        "numberOfBytes": "32"
      },
      "t_contract(IDepositContract)1147": {
        "encoding": "inplace",
        "label": "contract IDepositContract",
        "numberOfBytes": "20"
      },
      "t_mapping(t_uint256,t_bytes32)": {
        "encoding": "mapping",
        "key": "t_uint256",
        "label": "mapping(uint256 => bytes32)",
        "numberOfBytes": "32",
        "value": "t_bytes32"
      },
      "t_uint256": {
        "encoding": "inplace",
        "label": "uint256",
        "numberOfBytes": "32"
      },
      "t_uint8": {
        "encoding": "inplace",
        "label": "uint8",
        "numberOfBytes": "1"
      }
    }
  }
}