{
  "address": "0x8803Be17eDD6925911390164d1d9620bb096D3e1",
  "abi": [
    {
      "anonymous": false,
      "inputs": [
        {
          "indexed": true,
          "internalType": "address",
          "name": "sender",
          "type": "address"
        },
        {
          "indexed": false,
          "internalType": "address",
          "name": "target",
          "type": "address"
        },
        {
          "indexed": false,
          "internalType": "uint256",
          "name": "amount",
          "type": "uint256"
        }
      ],
      "name": "Claimed",
      "type": "event"
    },
    {
      "anonymous": false,
      "inputs": [
        {
          "indexed": false,
          "internalType": "uint8",
          "name": "version",
          "type": "uint8"
        }
      ],
      "name": "Initialized",
      "type": "event"
    },
    {
      "anonymous": false,
      "inputs": [
        {
          "indexed": true,
          "internalType": "address",
          "name": "previousOwner",
          "type": "address"
        },
        {
          "indexed": true,
          "internalType": "address",
          "name": "newOwner",
          "type": "address"
        }
      ],
      "name": "OwnershipTransferred",
      "type": "event"
    },
    {
      "inputs": [
        {
          "internalType": "address",
          "name": "target",
          "type": "address"
        },
        {
          "internalType": "uint256",
          "name": "amount",
          "type": "uint256"
        },
        {
          "internalType": "bytes32[]",
          "name": "proof",
          "type": "bytes32[]"
        }
      ],
      "name": "claim",
      "outputs": [],
      "stateMutability": "nonpayable",
      "type": "function"
    },
    {
      "inputs": [
        {
          "internalType": "address",
          "name": "",
          "type": "address"
        }
      ],
      "name": "claimed",
      "outputs": [
        {
          "internalType": "bool",
          "name": "",
          "type": "bool"
        }
      ],
      "stateMutability": "view",
      "type": "function"
    },
    {
      "inputs": [
        {
          "internalType": "address",
          "name": "_vETH2",
          "type": "address"
        },
        {
          "internalType": "bytes32",
          "name": "_merkleRoot",
          "type": "bytes32"
        }
      ],
      "name": "initialize",
      "outputs": [],
      "stateMutability": "nonpayable",
      "type": "function"
    },
    {
      "inputs": [],
      "name": "merkleRoot",
      "outputs": [
        {
          "internalType": "bytes32",
          "name": "",
          "type": "bytes32"
        }
      ],
      "stateMutability": "view",
      "type": "function"
    },
    {
      "inputs": [],
      "name": "owner",
      "outputs": [
        {
          "internalType": "address",
          "name": "",
          "type": "address"
        }
      ],
      "stateMutability": "view",
      "type": "function"
    },
    {
      "inputs": [],
      "name": "renounceOwnership",
      "outputs": [],
      "stateMutability": "nonpayable",
      "type": "function"
    },
    {
      "inputs": [
        {
          "internalType": "address",
          "name": "newOwner",
          "type": "address"
        }
      ],
      "name": "transferOwnership",
      "outputs": [],
      "stateMutability": "nonpayable",
      "type": "function"
    },
    {
      "inputs": [],
      "name": "vETH2",
      "outputs": [
        {
          "internalType": "address",
          "name": "",
          "type": "address"
        }
      ],
      "stateMutability": "view",
      "type": "function"
    }
  ],
  "transactionHash": "0xdac3c8c29ed2caf09965e61d6cbdb92a89727a957d29b3e8356927a255ae4a5b",
  "args": [],
  "numDeployments": 1,
  "solcInputHash": "382b507af0654c9a65c84e4614d0ccfe",
  "bytecode": "0x608060405234801561001057600080fd5b50610a08806100206000396000f3fe608060405234801561001057600080fd5b50600436106100885760003560e01c80638da5cb5b1161005b5780638da5cb5b146100f1578063be13f47c14610102578063c884ef8314610115578063f2fde38b1461014857600080fd5b8063193a225c1461008d5780632eb4a7ab146100bd5780633d13f874146100d4578063715018a6146100e9575b600080fd5b6097546100a0906001600160a01b031681565b6040516001600160a01b0390911681526020015b60405180910390f35b6100c660985481565b6040519081526020016100b4565b6100e76100e2366004610809565b61015b565b005b6100e7610331565b6033546001600160a01b03166100a0565b6100e76101103660046108e3565b610345565b61013861012336600461090d565b60996020526000908152604090205460ff1681565b60405190151581526020016100b4565b6100e761015636600461090d565b610508565b610163610581565b6001600160a01b03831660009081526099602052604090205460ff16156101bb5760405162461bcd60e51b815260206004820152600760248201526610db185a5b595960ca1b60448201526064015b60405180910390fd5b6001600160a01b0383166000818152609960209081526040808320805460ff191660011790558051918201939093529182018490529060600160405160208183030381529060405280519060200120905061021982609854836105da565b6102655760405162461bcd60e51b815260206004820181905260248201527f4d65726b6c652070726f6f6620766572696669636174696f6e206661696c656460448201526064016101b2565b60975460405163a9059cbb60e01b81526001600160a01b038681166004830152602482018690529091169063a9059cbb906044016020604051808303816000875af11580156102b8573d6000803e3d6000fd5b505050506040513d601f19601f820116820180604052508101906102dc9190610928565b50604080516001600160a01b03861681526020810185905233917ff7a40077ff7a04c7e61f6f26fb13774259ddf1b6bce9ecf26a8276cdd3992683910160405180910390a25061032c6001606555565b505050565b6103396105f7565b6103436000610651565b565b600054610100900460ff16158080156103655750600054600160ff909116105b8061037f5750303b15801561037f575060005460ff166001145b6103e25760405162461bcd60e51b815260206004820152602e60248201527f496e697469616c697a61626c653a20636f6e747261637420697320616c72656160448201526d191e481a5b9a5d1a585b1a5e995960921b60648201526084016101b2565b6000805460ff191660011790558015610405576000805461ff0019166101001790555b6001600160a01b03831661044b5760405162461bcd60e51b815260206004820152600d60248201526c24b73b30b634b2103b22aa241960991b60448201526064016101b2565b8161048e5760405162461bcd60e51b8152602060048201526013602482015272125b9d985b1a59081b595c9adb19481c9bdbdd606a1b60448201526064016101b2565b6104966106a3565b61049e6106d2565b609780546001600160a01b0319166001600160a01b0385161790556098829055801561032c576000805461ff0019169055604051600181527f7f26b83ff96e1f2b6a682f133852f6798a09c465da95921460cefb38474024989060200160405180910390a1505050565b6105106105f7565b6001600160a01b0381166105755760405162461bcd60e51b815260206004820152602660248201527f4f776e61626c653a206e6577206f776e657220697320746865207a65726f206160448201526564647265737360d01b60648201526084016101b2565b61057e81610651565b50565b6002606554036105d35760405162461bcd60e51b815260206004820152601f60248201527f5265656e7472616e637947756172643a207265656e7472616e742063616c6c0060448201526064016101b2565b6002606555565b6000826105e78584610701565b14949350505050565b6001606555565b6033546001600160a01b031633146103435760405162461bcd60e51b815260206004820181905260248201527f4f776e61626c653a2063616c6c6572206973206e6f7420746865206f776e657260448201526064016101b2565b603380546001600160a01b038381166001600160a01b0319831681179093556040519116919082907f8be0079c531659141344cd1fd0a4f28419497f9722a3daafe3b4186f6b6457e090600090a35050565b600054610100900460ff166106ca5760405162461bcd60e51b81526004016101b29061094a565b61034361074e565b600054610100900460ff166106f95760405162461bcd60e51b81526004016101b29061094a565b61034361077e565b600081815b8451811015610746576107328286838151811061072557610725610995565b60200260200101516107a5565b91508061073e816109ab565b915050610706565b509392505050565b600054610100900460ff166107755760405162461bcd60e51b81526004016101b29061094a565b61034333610651565b600054610100900460ff166105f05760405162461bcd60e51b81526004016101b29061094a565b60008183106107c15760008281526020849052604090206107d0565b60008381526020839052604090205b9392505050565b80356001600160a01b03811681146107ee57600080fd5b919050565b634e487b7160e01b600052604160045260246000fd5b60008060006060848603121561081e57600080fd5b610827846107d7565b92506020808501359250604085013567ffffffffffffffff8082111561084c57600080fd5b818701915087601f83011261086057600080fd5b813581811115610872576108726107f3565b8060051b604051601f19603f83011681018181108582111715610897576108976107f3565b60405291825284820192508381018501918a8311156108b557600080fd5b938501935b828510156108d3578435845293850193928501926108ba565b8096505050505050509250925092565b600080604083850312156108f657600080fd5b6108ff836107d7565b946020939093013593505050565b60006020828403121561091f57600080fd5b6107d0826107d7565b60006020828403121561093a57600080fd5b815180151581146107d057600080fd5b6020808252602b908201527f496e697469616c697a61626c653a20636f6e7472616374206973206e6f74206960408201526a6e697469616c697a696e6760a81b606082015260800190565b634e487b7160e01b600052603260045260246000fd5b6000600182016109cb57634e487b7160e01b600052601160045260246000fd5b506001019056fea2646970667358221220663d0a525f991463486a00663bb800e06b8e1d2a6e8d5f81982798f1d8042b7e64736f6c63430008110033",
  "devdoc": {
    "kind": "dev",
    "methods": {
      "owner()": {
        "details": "Returns the address of the current owner."
      },
      "renounceOwnership()": {
        "details": "Leaves the contract without owner. It will not be possible to call `onlyOwner` functions anymore. Can only be called by the current owner. NOTE: Renouncing ownership will leave the contract without an owner, thereby removing any functionality that is only available to the owner."
      },
      "transferOwnership(address)": {
        "details": "Transfers ownership of the contract to a new account (`newOwner`). Can only be called by the current owner."
      }
    },
    "version": 1
  },
  "userdoc": {
    "kind": "user",
    "methods": {},
    "version": 1
  },
  "storageLayout": {
    "storage": [
      {
        "astId": 138,
        "contract": "contracts/vETH2Claim.sol:vETH2Claim",
        "label": "_initialized",
        "offset": 0,
        "slot": "0",
        "type": "t_uint8"
      },
      {
        "astId": 141,
        "contract": "contracts/vETH2Claim.sol:vETH2Claim",
        "label": "_initializing",
        "offset": 1,
        "slot": "0",
        "type": "t_bool"
      },
      {
        "astId": 776,
        "contract": "contracts/vETH2Claim.sol:vETH2Claim",
        "label": "__gap",
        "offset": 0,
        "slot": "1",
        "type": "t_array(t_uint256)50_storage"
      },
      {
        "astId": 10,
        "contract": "contracts/vETH2Claim.sol:vETH2Claim",
        "label": "_owner",
        "offset": 0,
        "slot": "51",
        "type": "t_address"
      },
      {
        "astId": 130,
        "contract": "contracts/vETH2Claim.sol:vETH2Claim",
        "label": "__gap",
        "offset": 0,
        "slot": "52",
        "type": "t_array(t_uint256)49_storage"
      },
      {
        "astId": 314,
        "contract": "contracts/vETH2Claim.sol:vETH2Claim",
        "label": "_status",
        "offset": 0,
        "slot": "101",
        "type": "t_uint256"
      },
      {
        "astId": 372,
        "contract": "contracts/vETH2Claim.sol:vETH2Claim",
        "label": "__gap",
        "offset": 0,
        "slot": "102",
        "type": "t_array(t_uint256)49_storage"
      },
      {
        "astId": 1801,
        "contract": "contracts/vETH2Claim.sol:vETH2Claim",
        "label": "vETH2",
        "offset": 0,
        "slot": "151",
        "type": "t_address"
      },
      {
        "astId": 1803,
        "contract": "contracts/vETH2Claim.sol:vETH2Claim",
        "label": "merkleRoot",
        "offset": 0,
        "slot": "152",
        "type": "t_bytes32"
      },
      {
        "astId": 1807,
        "contract": "contracts/vETH2Claim.sol:vETH2Claim",
        "label": "claimed",
        "offset": 0,
        "slot": "153",
        "type": "t_mapping(t_address,t_bool)"
      }
    ],
    "types": {
      "t_address": {
        "encoding": "inplace",
        "label": "address",
        "numberOfBytes": "20"
      },
      "t_array(t_uint256)49_storage": {
        "base": "t_uint256",
        "encoding": "inplace",
        "label": "uint256[49]",
        "numberOfBytes": "1568"
      },
      "t_array(t_uint256)50_storage": {
        "base": "t_uint256",
        "encoding": "inplace",
        "label": "uint256[50]",
        "numberOfBytes": "1600"
      },
      "t_bool": {
        "encoding": "inplace",
        "label": "bool",
        "numberOfBytes": "1"
      },
      "t_bytes32": {
        "encoding": "inplace",
        "label": "bytes32",
        "numberOfBytes": "32"
      },
      "t_mapping(t_address,t_bool)": {
        "encoding": "mapping",
        "key": "t_address",
        "label": "mapping(address => bool)",
        "numberOfBytes": "32",
        "value": "t_bool"
      },
      "t_uint256": {
        "encoding": "inplace",
        "label": "uint256",
        "numberOfBytes": "32"
      },
      "t_uint8": {
        "encoding": "inplace",
        "label": "uint8",
        "numberOfBytes": "1"
      }
    }
  }
}