{
  "address": "0x78BD58EcEF16502bdCD534151F8E00a47094b7D9",
  "abi": [
    {
      "anonymous": false,
      "inputs": [
        {
          "indexed": false,
          "internalType": "uint8",
          "name": "version",
          "type": "uint8"
        }
      ],
      "name": "Initialized",
      "type": "event"
    },
    {
      "anonymous": false,
      "inputs": [
        {
          "indexed": true,
          "internalType": "address",
          "name": "previousOwner",
          "type": "address"
        },
        {
          "indexed": true,
          "internalType": "address",
          "name": "newOwner",
          "type": "address"
        }
      ],
      "name": "OwnershipTransferred",
      "type": "event"
    },
    {
      "inputs": [],
      "name": "DEPOSIT_ETH",
      "outputs": [
        {
          "internalType": "uint256",
          "name": "",
          "type": "uint256"
        }
      ],
      "stateMutability": "view",
      "type": "function"
    },
    {
      "inputs": [
        {
          "internalType": "uint256",
          "name": "_rewardAmount",
          "type": "uint256"
        }
      ],
      "name": "addReward",
      "outputs": [],
      "stateMutability": "nonpayable",
      "type": "function"
    },
    {
      "inputs": [],
      "name": "getTodayTimestamp",
      "outputs": [
        {
          "internalType": "uint256",
          "name": "",
          "type": "uint256"
        }
      ],
      "stateMutability": "view",
      "type": "function"
    },
    {
      "inputs": [
        {
          "internalType": "uint256",
          "name": "n",
          "type": "uint256"
        }
      ],
      "name": "increaseWithdrawalNode",
      "outputs": [],
      "stateMutability": "nonpayable",
      "type": "function"
    },
    {
      "inputs": [
        {
          "internalType": "address",
          "name": "_slpDeposit",
          "type": "address"
        }
      ],
      "name": "initialize",
      "outputs": [],
      "stateMutability": "nonpayable",
      "type": "function"
    },
    {
      "inputs": [],
      "name": "owner",
      "outputs": [
        {
          "internalType": "address",
          "name": "",
          "type": "address"
        }
      ],
      "stateMutability": "view",
      "type": "function"
    },
    {
      "inputs": [
        {
          "internalType": "uint256",
          "name": "_rewardAmount",
          "type": "uint256"
        }
      ],
      "name": "removeReward",
      "outputs": [],
      "stateMutability": "nonpayable",
      "type": "function"
    },
    {
      "inputs": [],
      "name": "renounceOwnership",
      "outputs": [],
      "stateMutability": "nonpayable",
      "type": "function"
    },
    {
      "inputs": [
        {
          "internalType": "uint256",
          "name": "",
          "type": "uint256"
        }
      ],
      "name": "rewardDays",
      "outputs": [
        {
          "internalType": "bool",
          "name": "",
          "type": "bool"
        }
      ],
      "stateMutability": "view",
      "type": "function"
    },
    {
      "inputs": [
        {
          "internalType": "address",
          "name": "_slpCore",
          "type": "address"
        }
      ],
      "name": "setSLPCore",
      "outputs": [],
      "stateMutability": "nonpayable",
      "type": "function"
    },
    {
      "inputs": [],
      "name": "slpCore",
      "outputs": [
        {
          "internalType": "contract ISLPCore",
          "name": "",
          "type": "address"
        }
      ],
      "stateMutability": "view",
      "type": "function"
    },
    {
      "inputs": [],
      "name": "slpDeposit",
      "outputs": [
        {
          "internalType": "contract ISLPDeposit",
          "name": "",
          "type": "address"
        }
      ],
      "stateMutability": "view",
      "type": "function"
    },
    {
      "inputs": [],
      "name": "totalWithdrawalAmount",
      "outputs": [
        {
          "internalType": "uint256",
          "name": "",
          "type": "uint256"
        }
      ],
      "stateMutability": "view",
      "type": "function"
    },
    {
      "inputs": [
        {
          "internalType": "address",
          "name": "newOwner",
          "type": "address"
        }
      ],
      "name": "transferOwnership",
      "outputs": [],
      "stateMutability": "nonpayable",
      "type": "function"
    },
    {
      "inputs": [
        {
          "internalType": "uint256",
          "name": "_amount",
          "type": "uint256"
        }
      ],
      "name": "withdrawWithdrawals",
      "outputs": [],
      "stateMutability": "nonpayable",
      "type": "function"
    },
    {
      "inputs": [],
      "name": "withdrawalNodeNumber",
      "outputs": [
        {
          "internalType": "uint256",
          "name": "",
          "type": "uint256"
        }
      ],
      "stateMutability": "view",
      "type": "function"
    }
  ],
  "transactionHash": "0x7a72e894a61cff6391dacf5f52a830320919006790726009f4c9551ec52c4406",
  "args": [],
  "numDeployments": 1,
  "solcInputHash": "f53728fc1926c9a9e11c63731b96f453",
  "bytecode": "0x608060405234801561001057600080fd5b50610bc5806100206000396000f3fe608060405234801561001057600080fd5b50600436106101005760003560e01c80638da5cb5b11610097578063dcce58d011610066578063dcce58d014610214578063e23e0e0814610224578063f2fde38b1461022d578063fe9a3e2b1461024057600080fd5b80638da5cb5b146101ca578063b431a501146101db578063c4d66de8146101ee578063c553173f1461020157600080fd5b80633194528a116100d35780633194528a146101935780636b96bb87146101a6578063715018a6146101af57806374de4ec4146101b757600080fd5b80630334520314610105578063159de7281461013d57806322f808d5146101525780632a487ef31461017d575b600080fd5b610128610113366004610a56565b60696020526000908152604090205460ff1681565b60405190151581526020015b60405180910390f35b61015061014b366004610a6f565b610253565b005b606654610165906001600160a01b031681565b6040516001600160a01b039091168152602001610134565b6101856102d8565b604051908152602001610134565b6101506101a1366004610a56565b6102f9565b61018560675481565b61015061043b565b6101506101c5366004610a56565b61044f565b6033546001600160a01b0316610165565b606554610165906001600160a01b031681565b6101506101fc366004610a6f565b610623565b61015061020f366004610a56565b6107a6565b6101856801bc16d674ec80000081565b61018560685481565b61015061023b366004610a6f565b610867565b61015061024e366004610a56565b6108e0565b61025b610950565b6001600160a01b0381166102b65760405162461bcd60e51b815260206004820152601860248201527f496e76616c696420534c5020636f72652061646472657373000000000000000060448201526064015b60405180910390fd5b606580546001600160a01b0319166001600160a01b0392909216919091179055565b60006102e76201518042610ab5565b6102f49062015180610ad7565b905090565b610301610950565b6000811161033f5760405162461bcd60e51b815260206004820152600b60248201526a16995c9bc8185b5bdd5b9d60aa1b60448201526064016102ad565b478111156103845760405162461bcd60e51b81526020600482015260126024820152714e6f7420656e6f7567682062616c616e636560701b60448201526064016102ad565b6801bc16d674ec80000060675461039b9190610ad7565b816068546103a99190610af4565b11156103c75760405162461bcd60e51b81526004016102ad90610b07565b806068546103d59190610af4565b60685560655460408051631a6a493960e31b815290516001600160a01b039092169163d35249c8918491600480830192600092919082900301818588803b15801561041f57600080fd5b505af1158015610433573d6000803e3d6000fd5b505050505050565b610443610950565b61044d60006109aa565b565b610457610950565b60006104616102d8565b60008181526069602052604090205490915060ff16156104b05760405162461bcd60e51b815260206004820152600a6024820152695061696420746f64617960b01b60448201526064016102ad565b6000818152606960205260409020805460ff191660011790556067546104e0906801bc16d674ec80000090610ad7565b476068546104ee9190610af4565b6104f89190610b31565b8211156105175760405162461bcd60e51b81526004016102ad90610b07565b478211156105585760405162461bcd60e51b815260206004820152600e60248201526d09cdee840cadcdeeaced0408aa8960931b60448201526064016102ad565b606554604051631d3793b160e21b8152600481018490526001600160a01b03909116906374de4ec490602401600060405180830381600087803b15801561059e57600080fd5b505af11580156105b2573d6000803e3d6000fd5b50505050606660009054906101000a90046001600160a01b03166001600160a01b031663f6326fb3836040518263ffffffff1660e01b81526004016000604051808303818588803b15801561060657600080fd5b505af115801561061a573d6000803e3d6000fd5b50505050505050565b600054610100900460ff16158080156106435750600054600160ff909116105b8061065d5750303b15801561065d575060005460ff166001145b6106c05760405162461bcd60e51b815260206004820152602e60248201527f496e697469616c697a61626c653a20636f6e747261637420697320616c72656160448201526d191e481a5b9a5d1a585b1a5e995960921b60648201526084016102ad565b6000805460ff1916600117905580156106e3576000805461ff0019166101001790555b6001600160a01b0382166107395760405162461bcd60e51b815260206004820152601b60248201527f496e76616c696420534c50206465706f7369742061646472657373000000000060448201526064016102ad565b6107416109fc565b606680546001600160a01b0319166001600160a01b03841617905580156107a2576000805461ff0019169055604051600181527f7f26b83ff96e1f2b6a682f133852f6798a09c465da95921460cefb38474024989060200160405180910390a15b5050565b6107ae610950565b60006107b86102d8565b60008181526069602052604090205490915060ff16156108075760405162461bcd60e51b815260206004820152600a6024820152695061696420746f64617960b01b60448201526064016102ad565b60008181526069602052604090819020805460ff19166001179055606554905163c553173f60e01b8152600481018490526001600160a01b039091169063c553173f90602401600060405180830381600087803b15801561041f57600080fd5b61086f610950565b6001600160a01b0381166108d45760405162461bcd60e51b815260206004820152602660248201527f4f776e61626c653a206e6577206f776e657220697320746865207a65726f206160448201526564647265737360d01b60648201526084016102ad565b6108dd816109aa565b50565b6108e8610950565b476068546108f69190610af4565b6801bc16d674ec8000008260675461090e9190610af4565b6109189190610ad7565b11156109365760405162461bcd60e51b81526004016102ad90610b07565b80606760008282546109489190610af4565b909155505050565b6033546001600160a01b0316331461044d5760405162461bcd60e51b815260206004820181905260248201527f4f776e61626c653a2063616c6c6572206973206e6f7420746865206f776e657260448201526064016102ad565b603380546001600160a01b038381166001600160a01b0319831681179093556040519116919082907f8be0079c531659141344cd1fd0a4f28419497f9722a3daafe3b4186f6b6457e090600090a35050565b600054610100900460ff16610a235760405162461bcd60e51b81526004016102ad90610b44565b61044d600054610100900460ff16610a4d5760405162461bcd60e51b81526004016102ad90610b44565b61044d336109aa565b600060208284031215610a6857600080fd5b5035919050565b600060208284031215610a8157600080fd5b81356001600160a01b0381168114610a9857600080fd5b9392505050565b634e487b7160e01b600052601160045260246000fd5b600082610ad257634e487b7160e01b600052601260045260246000fd5b500490565b8082028115828204841417610aee57610aee610a9f565b92915050565b80820180821115610aee57610aee610a9f565b60208082526010908201526f08af0c6cacac840e8dee8c2d8408aa8960831b604082015260600190565b81810381811115610aee57610aee610a9f565b6020808252602b908201527f496e697469616c697a61626c653a20636f6e7472616374206973206e6f74206960408201526a6e697469616c697a696e6760a81b60608201526080019056fea2646970667358221220e11090460cf056ff9c39da3741ae5def75ae913c81de8f99b32df2bb3c642ad864736f6c63430008110033",
  "devdoc": {
    "kind": "dev",
    "methods": {
      "owner()": {
        "details": "Returns the address of the current owner."
      },
      "renounceOwnership()": {
        "details": "Leaves the contract without owner. It will not be possible to call `onlyOwner` functions anymore. Can only be called by the current owner. NOTE: Renouncing ownership will leave the contract without an owner, thereby removing any functionality that is only available to the owner."
      },
      "transferOwnership(address)": {
        "details": "Transfers ownership of the contract to a new account (`newOwner`). Can only be called by the current owner."
      }
    },
    "version": 1
  },
  "userdoc": {
    "kind": "user",
    "methods": {},
    "version": 1
  },
  "storageLayout": {
    "storage": [
      {
        "astId": 138,
        "contract": "contracts/WithdrawalVault.sol:WithdrawalVault",
        "label": "_initialized",
        "offset": 0,
        "slot": "0",
        "type": "t_uint8"
      },
      {
        "astId": 141,
        "contract": "contracts/WithdrawalVault.sol:WithdrawalVault",
        "label": "_initializing",
        "offset": 1,
        "slot": "0",
        "type": "t_bool"
      },
      {
        "astId": 625,
        "contract": "contracts/WithdrawalVault.sol:WithdrawalVault",
        "label": "__gap",
        "offset": 0,
        "slot": "1",
        "type": "t_array(t_uint256)50_storage"
      },
      {
        "astId": 10,
        "contract": "contracts/WithdrawalVault.sol:WithdrawalVault",
        "label": "_owner",
        "offset": 0,
        "slot": "51",
        "type": "t_address"
      },
      {
        "astId": 130,
        "contract": "contracts/WithdrawalVault.sol:WithdrawalVault",
        "label": "__gap",
        "offset": 0,
        "slot": "52",
        "type": "t_array(t_uint256)49_storage"
      },
      {
        "astId": 656,
        "contract": "contracts/WithdrawalVault.sol:WithdrawalVault",
        "label": "slpCore",
        "offset": 0,
        "slot": "101",
        "type": "t_contract(ISLPCore)644"
      },
      {
        "astId": 659,
        "contract": "contracts/WithdrawalVault.sol:WithdrawalVault",
        "label": "slpDeposit",
        "offset": 0,
        "slot": "102",
        "type": "t_contract(ISLPDeposit)648"
      },
      {
        "astId": 661,
        "contract": "contracts/WithdrawalVault.sol:WithdrawalVault",
        "label": "withdrawalNodeNumber",
        "offset": 0,
        "slot": "103",
        "type": "t_uint256"
      },
      {
        "astId": 663,
        "contract": "contracts/WithdrawalVault.sol:WithdrawalVault",
        "label": "totalWithdrawalAmount",
        "offset": 0,
        "slot": "104",
        "type": "t_uint256"
      },
      {
        "astId": 667,
        "contract": "contracts/WithdrawalVault.sol:WithdrawalVault",
        "label": "rewardDays",
        "offset": 0,
        "slot": "105",
        "type": "t_mapping(t_uint256,t_bool)"
      }
    ],
    "types": {
      "t_address": {
        "encoding": "inplace",
        "label": "address",
        "numberOfBytes": "20"
      },
      "t_array(t_uint256)49_storage": {
        "base": "t_uint256",
        "encoding": "inplace",
        "label": "uint256[49]",
        "numberOfBytes": "1568"
      },
      "t_array(t_uint256)50_storage": {
        "base": "t_uint256",
        "encoding": "inplace",
        "label": "uint256[50]",
        "numberOfBytes": "1600"
      },
      "t_bool": {
        "encoding": "inplace",
        "label": "bool",
        "numberOfBytes": "1"
      },
      "t_contract(ISLPCore)644": {
        "encoding": "inplace",
        "label": "contract ISLPCore",
        "numberOfBytes": "20"
      },
      "t_contract(ISLPDeposit)648": {
        "encoding": "inplace",
        "label": "contract ISLPDeposit",
        "numberOfBytes": "20"
      },
      "t_mapping(t_uint256,t_bool)": {
        "encoding": "mapping",
        "key": "t_uint256",
        "label": "mapping(uint256 => bool)",
        "numberOfBytes": "32",
        "value": "t_bool"
      },
      "t_uint256": {
        "encoding": "inplace",
        "label": "uint256",
        "numberOfBytes": "32"
      },
      "t_uint8": {
        "encoding": "inplace",
        "label": "uint8",
        "numberOfBytes": "1"
      }
    }
  }
}