{
  "address": "0xfC66A310BAe6Fa382Aa48a2e82299CE0dc98D14F",
  "abi": [
    {
      "anonymous": false,
      "inputs": [
        {
          "indexed": false,
          "internalType": "uint8",
          "name": "version",
          "type": "uint8"
        }
      ],
      "name": "Initialized",
      "type": "event"
    },
    {
      "anonymous": false,
      "inputs": [
        {
          "indexed": true,
          "internalType": "address",
          "name": "previousOwner",
          "type": "address"
        },
        {
          "indexed": true,
          "internalType": "address",
          "name": "newOwner",
          "type": "address"
        }
      ],
      "name": "OwnershipTransferred",
      "type": "event"
    },
    {
      "anonymous": false,
      "inputs": [
        {
          "indexed": true,
          "internalType": "address",
          "name": "sender",
          "type": "address"
        },
        {
          "indexed": false,
          "internalType": "uint256",
          "name": "amount",
          "type": "uint256"
        }
      ],
      "name": "RewardAdded",
      "type": "event"
    },
    {
      "anonymous": false,
      "inputs": [
        {
          "indexed": true,
          "internalType": "address",
          "name": "sender",
          "type": "address"
        },
        {
          "indexed": false,
          "internalType": "uint256",
          "name": "amount",
          "type": "uint256"
        }
      ],
      "name": "RewardRemoved",
      "type": "event"
    },
    {
      "anonymous": false,
      "inputs": [
        {
          "indexed": true,
          "internalType": "address",
          "name": "sender",
          "type": "address"
        },
        {
          "indexed": false,
          "internalType": "uint256",
          "name": "number",
          "type": "uint256"
        }
      ],
      "name": "WithdrawalNodeIncreased",
      "type": "event"
    },
    {
      "anonymous": false,
      "inputs": [
        {
          "indexed": true,
          "internalType": "address",
          "name": "sender",
          "type": "address"
        },
        {
          "indexed": false,
          "internalType": "uint256",
          "name": "amount",
          "type": "uint256"
        }
      ],
      "name": "Withdrawn",
      "type": "event"
    },
    {
      "inputs": [],
      "name": "DEPOSIT_ETH",
      "outputs": [
        {
          "internalType": "uint256",
          "name": "",
          "type": "uint256"
        }
      ],
      "stateMutability": "view",
      "type": "function"
    },
    {
      "inputs": [
        {
          "internalType": "uint256",
          "name": "_rewardAmount",
          "type": "uint256"
        }
      ],
      "name": "addReward",
      "outputs": [],
      "stateMutability": "nonpayable",
      "type": "function"
    },
    {
      "inputs": [],
      "name": "getTodayTimestamp",
      "outputs": [
        {
          "internalType": "uint256",
          "name": "",
          "type": "uint256"
        }
      ],
      "stateMutability": "view",
      "type": "function"
    },
    {
      "inputs": [
        {
          "internalType": "uint256",
          "name": "n",
          "type": "uint256"
        }
      ],
      "name": "increaseWithdrawalNode",
      "outputs": [],
      "stateMutability": "nonpayable",
      "type": "function"
    },
    {
      "inputs": [
        {
          "internalType": "address",
          "name": "_slpDeposit",
          "type": "address"
        },
        {
          "internalType": "address",
          "name": "_operator",
          "type": "address"
        }
      ],
      "name": "initialize",
      "outputs": [],
      "stateMutability": "nonpayable",
      "type": "function"
    },
    {
      "inputs": [],
      "name": "operator",
      "outputs": [
        {
          "internalType": "address",
          "name": "",
          "type": "address"
        }
      ],
      "stateMutability": "view",
      "type": "function"
    },
    {
      "inputs": [],
      "name": "owner",
      "outputs": [
        {
          "internalType": "address",
          "name": "",
          "type": "address"
        }
      ],
      "stateMutability": "view",
      "type": "function"
    },
    {
      "inputs": [
        {
          "internalType": "uint256",
          "name": "_rewardAmount",
          "type": "uint256"
        }
      ],
      "name": "removeReward",
      "outputs": [],
      "stateMutability": "nonpayable",
      "type": "function"
    },
    {
      "inputs": [],
      "name": "renounceOwnership",
      "outputs": [],
      "stateMutability": "nonpayable",
      "type": "function"
    },
    {
      "inputs": [
        {
          "internalType": "uint256",
          "name": "",
          "type": "uint256"
        }
      ],
      "name": "rewardDays",
      "outputs": [
        {
          "internalType": "bool",
          "name": "",
          "type": "bool"
        }
      ],
      "stateMutability": "view",
      "type": "function"
    },
    {
      "inputs": [
        {
          "internalType": "address",
          "name": "_operator",
          "type": "address"
        }
      ],
      "name": "setOperator",
      "outputs": [],
      "stateMutability": "nonpayable",
      "type": "function"
    },
    {
      "inputs": [
        {
          "internalType": "address",
          "name": "_slpCore",
          "type": "address"
        }
      ],
      "name": "setSLPCore",
      "outputs": [],
      "stateMutability": "nonpayable",
      "type": "function"
    },
    {
      "inputs": [],
      "name": "slpCore",
      "outputs": [
        {
          "internalType": "contract ISLPCore",
          "name": "",
          "type": "address"
        }
      ],
      "stateMutability": "view",
      "type": "function"
    },
    {
      "inputs": [],
      "name": "slpDeposit",
      "outputs": [
        {
          "internalType": "contract ISLPDeposit",
          "name": "",
          "type": "address"
        }
      ],
      "stateMutability": "view",
      "type": "function"
    },
    {
      "inputs": [],
      "name": "totalWithdrawalAmount",
      "outputs": [
        {
          "internalType": "uint256",
          "name": "",
          "type": "uint256"
        }
      ],
      "stateMutability": "view",
      "type": "function"
    },
    {
      "inputs": [
        {
          "internalType": "address",
          "name": "newOwner",
          "type": "address"
        }
      ],
      "name": "transferOwnership",
      "outputs": [],
      "stateMutability": "nonpayable",
      "type": "function"
    },
    {
      "inputs": [
        {
          "internalType": "uint256",
          "name": "_amount",
          "type": "uint256"
        }
      ],
      "name": "withdrawWithdrawals",
      "outputs": [],
      "stateMutability": "nonpayable",
      "type": "function"
    },
    {
      "inputs": [],
      "name": "withdrawalNodeNumber",
      "outputs": [
        {
          "internalType": "uint256",
          "name": "",
          "type": "uint256"
        }
      ],
      "stateMutability": "view",
      "type": "function"
    }
  ],
  "transactionHash": "0xe8162562f8a7ee433895d3e849e452e0c95d29aa972651b336c49c4f8b5d1738",
  "args": [],
  "numDeployments": 1,
  "solcInputHash": "7fd75da55e9b0bff59571cd6804c95d9",
  "bytecode": "0x608060405234801561001057600080fd5b50610ec8806100206000396000f3fe608060405234801561001057600080fd5b50600436106101165760003560e01c806374de4ec4116100a2578063c553173f11610071578063c553173f1461023d578063dcce58d014610250578063e23e0e0814610260578063f2fde38b14610269578063fe9a3e2b1461027c57600080fd5b806374de4ec4146101f35780638da5cb5b14610206578063b3ab15fb14610217578063b431a5011461022a57600080fd5b80633194528a116100e95780633194528a146101a9578063485cc955146101bc578063570ca735146101cf5780636b96bb87146101e2578063715018a6146101eb57600080fd5b8063033452031461011b578063159de7281461015357806322f808d5146101685780632a487ef314610193575b600080fd5b61013e610129366004610ce8565b606a6020526000908152604090205460ff1681565b60405190151581526020015b60405180910390f35b610166610161366004610d1d565b61028f565b005b60665461017b906001600160a01b031681565b6040516001600160a01b03909116815260200161014a565b61019b610314565b60405190815260200161014a565b6101666101b7366004610ce8565b610335565b6101666101ca366004610d3f565b6104d0565b60675461017b906001600160a01b031681565b61019b60685481565b6101666106ba565b610166610201366004610ce8565b6106ce565b6033546001600160a01b031661017b565b610166610225366004610d1d565b6108fb565b60655461017b906001600160a01b031681565b61016661024b366004610ce8565b610976565b61019b6801bc16d674ec80000081565b61019b60695481565b610166610277366004610d1d565b610aa3565b61016661028a366004610ce8565b610b1c565b610297610bdd565b6001600160a01b0381166102f25760405162461bcd60e51b815260206004820152601860248201527f496e76616c696420534c5020636f72652061646472657373000000000000000060448201526064015b60405180910390fd5b606580546001600160a01b0319166001600160a01b0392909216919091179055565b60006103236201518042610d88565b6103309062015180610daa565b905090565b6067546001600160a01b0316331461035f5760405162461bcd60e51b81526004016102e990610dc7565b6000811161039d5760405162461bcd60e51b815260206004820152600b60248201526a16995c9bc8185b5bdd5b9d60aa1b60448201526064016102e9565b478111156103e25760405162461bcd60e51b81526020600482015260126024820152714e6f7420656e6f7567682062616c616e636560701b60448201526064016102e9565b6801bc16d674ec8000006068546103f99190610daa565b816069546104079190610df7565b11156104255760405162461bcd60e51b81526004016102e990610e0a565b806069546104339190610df7565b60695560655460408051631a6a493960e31b815290516001600160a01b039092169163d35249c8918491600480830192600092919082900301818588803b15801561047d57600080fd5b505af1158015610491573d6000803e3d6000fd5b50506040518481523393507f7084f5476618d8e60b11ef0d7d3f06914655adb8793e28ff7f018d4c76d505d5925060200190505b60405180910390a250565b600054610100900460ff16158080156104f05750600054600160ff909116105b8061050a5750303b15801561050a575060005460ff166001145b61056d5760405162461bcd60e51b815260206004820152602e60248201527f496e697469616c697a61626c653a20636f6e747261637420697320616c72656160448201526d191e481a5b9a5d1a585b1a5e995960921b60648201526084016102e9565b6000805460ff191660011790558015610590576000805461ff0019166101001790555b6001600160a01b0383166105e65760405162461bcd60e51b815260206004820152601b60248201527f496e76616c696420534c50206465706f7369742061646472657373000000000060448201526064016102e9565b6001600160a01b0382166106375760405162461bcd60e51b8152602060048201526018602482015277496e76616c6964206f70657261746f72206164647265737360401b60448201526064016102e9565b61063f610c37565b606680546001600160a01b038086166001600160a01b031992831617909255606780549285169290911691909117905580156106b5576000805461ff0019169055604051600181527f7f26b83ff96e1f2b6a682f133852f6798a09c465da95921460cefb38474024989060200160405180910390a15b505050565b6106c2610bdd565b6106cc6000610c66565b565b6067546001600160a01b031633146106f85760405162461bcd60e51b81526004016102e990610dc7565b6000610702610314565b6000818152606a602052604090205490915060ff16156107515760405162461bcd60e51b815260206004820152600a6024820152695061696420746f64617960b01b60448201526064016102e9565b6000818152606a60205260409020805460ff19166001179055606854610781906801bc16d674ec80000090610daa565b4760695461078f9190610df7565b6107999190610e34565b8211156107b85760405162461bcd60e51b81526004016102e990610e0a565b478211156107f95760405162461bcd60e51b815260206004820152600e60248201526d09cdee840cadcdeeaced0408aa8960931b60448201526064016102e9565b606554604051631d3793b160e21b8152600481018490526001600160a01b03909116906374de4ec490602401600060405180830381600087803b15801561083f57600080fd5b505af1158015610853573d6000803e3d6000fd5b50505050606660009054906101000a90046001600160a01b03166001600160a01b031663f6326fb3836040518263ffffffff1660e01b81526004016000604051808303818588803b1580156108a757600080fd5b505af11580156108bb573d6000803e3d6000fd5b50506040518581523393507fac24935fd910bc682b5ccb1a07b718cadf8cf2f6d1404c4f3ddc3662dae40e29925060200190505b60405180910390a25050565b610903610bdd565b6001600160a01b0381166109545760405162461bcd60e51b8152602060048201526018602482015277496e76616c6964206f70657261746f72206164647265737360401b60448201526064016102e9565b606780546001600160a01b0319166001600160a01b0392909216919091179055565b6067546001600160a01b031633146109a05760405162461bcd60e51b81526004016102e990610dc7565b60006109aa610314565b6000818152606a602052604090205490915060ff16156109f95760405162461bcd60e51b815260206004820152600a6024820152695061696420746f64617960b01b60448201526064016102e9565b6000818152606a602052604090819020805460ff19166001179055606554905163c553173f60e01b8152600481018490526001600160a01b039091169063c553173f90602401600060405180830381600087803b158015610a5957600080fd5b505af1158015610a6d573d6000803e3d6000fd5b50506040518481523392507fccdd1b4597f1516187e25b38fbad3e75a428981d2a1d898667abb3cdd95a672f91506020016108ef565b610aab610bdd565b6001600160a01b038116610b105760405162461bcd60e51b815260206004820152602660248201527f4f776e61626c653a206e6577206f776e657220697320746865207a65726f206160448201526564647265737360d01b60648201526084016102e9565b610b1981610c66565b50565b6067546001600160a01b03163314610b465760405162461bcd60e51b81526004016102e990610dc7565b47606954610b549190610df7565b6801bc16d674ec80000082606854610b6c9190610df7565b610b769190610daa565b1115610b945760405162461bcd60e51b81526004016102e990610e0a565b8060686000828254610ba69190610df7565b909155505060405181815233907f050608bb8214ae2070d31e9333905ec0a77ab57398ce3cf62e78bc733a26f17f906020016104c5565b6033546001600160a01b031633146106cc5760405162461bcd60e51b815260206004820181905260248201527f4f776e61626c653a2063616c6c6572206973206e6f7420746865206f776e657260448201526064016102e9565b600054610100900460ff16610c5e5760405162461bcd60e51b81526004016102e990610e47565b6106cc610cb8565b603380546001600160a01b038381166001600160a01b0319831681179093556040519116919082907f8be0079c531659141344cd1fd0a4f28419497f9722a3daafe3b4186f6b6457e090600090a35050565b600054610100900460ff16610cdf5760405162461bcd60e51b81526004016102e990610e47565b6106cc33610c66565b600060208284031215610cfa57600080fd5b5035919050565b80356001600160a01b0381168114610d1857600080fd5b919050565b600060208284031215610d2f57600080fd5b610d3882610d01565b9392505050565b60008060408385031215610d5257600080fd5b610d5b83610d01565b9150610d6960208401610d01565b90509250929050565b634e487b7160e01b600052601160045260246000fd5b600082610da557634e487b7160e01b600052601260045260246000fd5b500490565b8082028115828204841417610dc157610dc1610d72565b92915050565b60208082526016908201527521b0b63632b91034b9903737ba1037b832b930ba37b960511b604082015260600190565b80820180821115610dc157610dc1610d72565b60208082526010908201526f08af0c6cacac840e8dee8c2d8408aa8960831b604082015260600190565b81810381811115610dc157610dc1610d72565b6020808252602b908201527f496e697469616c697a61626c653a20636f6e7472616374206973206e6f74206960408201526a6e697469616c697a696e6760a81b60608201526080019056fea2646970667358221220aca4ff1273f67c722e1b21128577b29c79fb1d1c108b0c5b7ccd76932f0b09b564736f6c63430008110033",
  "devdoc": {
    "kind": "dev",
    "methods": {
      "owner()": {
        "details": "Returns the address of the current owner."
      },
      "renounceOwnership()": {
        "details": "Leaves the contract without owner. It will not be possible to call `onlyOwner` functions anymore. Can only be called by the current owner. NOTE: Renouncing ownership will leave the contract without an owner, thereby removing any functionality that is only available to the owner."
      },
      "transferOwnership(address)": {
        "details": "Transfers ownership of the contract to a new account (`newOwner`). Can only be called by the current owner."
      }
    },
    "version": 1
  },
  "userdoc": {
    "kind": "user",
    "methods": {},
    "version": 1
  },
  "storageLayout": {
    "storage": [
      {
        "astId": 138,
        "contract": "contracts/WithdrawalVault.sol:WithdrawalVault",
        "label": "_initialized",
        "offset": 0,
        "slot": "0",
        "type": "t_uint8"
      },
      {
        "astId": 141,
        "contract": "contracts/WithdrawalVault.sol:WithdrawalVault",
        "label": "_initializing",
        "offset": 1,
        "slot": "0",
        "type": "t_bool"
      },
      {
        "astId": 625,
        "contract": "contracts/WithdrawalVault.sol:WithdrawalVault",
        "label": "__gap",
        "offset": 0,
        "slot": "1",
        "type": "t_array(t_uint256)50_storage"
      },
      {
        "astId": 10,
        "contract": "contracts/WithdrawalVault.sol:WithdrawalVault",
        "label": "_owner",
        "offset": 0,
        "slot": "51",
        "type": "t_address"
      },
      {
        "astId": 130,
        "contract": "contracts/WithdrawalVault.sol:WithdrawalVault",
        "label": "__gap",
        "offset": 0,
        "slot": "52",
        "type": "t_array(t_uint256)49_storage"
      },
      {
        "astId": 680,
        "contract": "contracts/WithdrawalVault.sol:WithdrawalVault",
        "label": "slpCore",
        "offset": 0,
        "slot": "101",
        "type": "t_contract(ISLPCore)644"
      },
      {
        "astId": 683,
        "contract": "contracts/WithdrawalVault.sol:WithdrawalVault",
        "label": "slpDeposit",
        "offset": 0,
        "slot": "102",
        "type": "t_contract(ISLPDeposit)648"
      },
      {
        "astId": 685,
        "contract": "contracts/WithdrawalVault.sol:WithdrawalVault",
        "label": "operator",
        "offset": 0,
        "slot": "103",
        "type": "t_address"
      },
      {
        "astId": 687,
        "contract": "contracts/WithdrawalVault.sol:WithdrawalVault",
        "label": "withdrawalNodeNumber",
        "offset": 0,
        "slot": "104",
        "type": "t_uint256"
      },
      {
        "astId": 689,
        "contract": "contracts/WithdrawalVault.sol:WithdrawalVault",
        "label": "totalWithdrawalAmount",
        "offset": 0,
        "slot": "105",
        "type": "t_uint256"
      },
      {
        "astId": 693,
        "contract": "contracts/WithdrawalVault.sol:WithdrawalVault",
        "label": "rewardDays",
        "offset": 0,
        "slot": "106",
        "type": "t_mapping(t_uint256,t_bool)"
      }
    ],
    "types": {
      "t_address": {
        "encoding": "inplace",
        "label": "address",
        "numberOfBytes": "20"
      },
      "t_array(t_uint256)49_storage": {
        "base": "t_uint256",
        "encoding": "inplace",
        "label": "uint256[49]",
        "numberOfBytes": "1568"
      },
      "t_array(t_uint256)50_storage": {
        "base": "t_uint256",
        "encoding": "inplace",
        "label": "uint256[50]",
        "numberOfBytes": "1600"
      },
      "t_bool": {
        "encoding": "inplace",
        "label": "bool",
        "numberOfBytes": "1"
      },
      "t_contract(ISLPCore)644": {
        "encoding": "inplace",
        "label": "contract ISLPCore",
        "numberOfBytes": "20"
      },
      "t_contract(ISLPDeposit)648": {
        "encoding": "inplace",
        "label": "contract ISLPDeposit",
        "numberOfBytes": "20"
      },
      "t_mapping(t_uint256,t_bool)": {
        "encoding": "mapping",
        "key": "t_uint256",
        "label": "mapping(uint256 => bool)",
        "numberOfBytes": "32",
        "value": "t_bool"
      },
      "t_uint256": {
        "encoding": "inplace",
        "label": "uint256",
        "numberOfBytes": "32"
      },
      "t_uint8": {
        "encoding": "inplace",
        "label": "uint8",
        "numberOfBytes": "1"
      }
    }
  }
}