{
  "address": "0xAF693Ab39839c09EB98c06155491b02a2F78d7dB",
  "abi": [
    {
      "anonymous": false,
      "inputs": [
        {
          "indexed": true,
          "internalType": "address",
          "name": "sender",
          "type": "address"
        },
        {
          "indexed": false,
          "internalType": "uint256",
          "name": "tokenAmount",
          "type": "uint256"
        },
        {
          "indexed": false,
          "internalType": "uint256",
          "name": "vTokenAmount",
          "type": "uint256"
        }
      ],
      "name": "Deposited",
      "type": "event"
    },
    {
      "anonymous": false,
      "inputs": [
        {
          "indexed": true,
          "internalType": "address",
          "name": "sender",
          "type": "address"
        },
        {
          "indexed": false,
          "internalType": "uint256",
          "name": "feeRate",
          "type": "uint256"
        }
      ],
      "name": "FeeRateSet",
      "type": "event"
    },
    {
      "anonymous": false,
      "inputs": [
        {
          "indexed": true,
          "internalType": "address",
          "name": "sender",
          "type": "address"
        },
        {
          "indexed": false,
          "internalType": "address",
          "name": "feeReceiver",
          "type": "address"
        }
      ],
      "name": "FeeReceiverSet",
      "type": "event"
    },
    {
      "anonymous": false,
      "inputs": [
        {
          "indexed": false,
          "internalType": "uint8",
          "name": "version",
          "type": "uint8"
        }
      ],
      "name": "Initialized",
      "type": "event"
    },
    {
      "anonymous": false,
      "inputs": [
        {
          "indexed": true,
          "internalType": "address",
          "name": "previousOwner",
          "type": "address"
        },
        {
          "indexed": true,
          "internalType": "address",
          "name": "newOwner",
          "type": "address"
        }
      ],
      "name": "OwnershipTransferred",
      "type": "event"
    },
    {
      "anonymous": false,
      "inputs": [
        {
          "indexed": false,
          "internalType": "address",
          "name": "account",
          "type": "address"
        }
      ],
      "name": "Paused",
      "type": "event"
    },
    {
      "anonymous": false,
      "inputs": [
        {
          "indexed": true,
          "internalType": "address",
          "name": "sender",
          "type": "address"
        },
        {
          "indexed": false,
          "internalType": "uint256",
          "name": "tokenAmount",
          "type": "uint256"
        },
        {
          "indexed": false,
          "internalType": "uint256",
          "name": "vTokenAmount",
          "type": "uint256"
        }
      ],
      "name": "Renewed",
      "type": "event"
    },
    {
      "anonymous": false,
      "inputs": [
        {
          "indexed": true,
          "internalType": "address",
          "name": "sender",
          "type": "address"
        },
        {
          "indexed": false,
          "internalType": "uint256",
          "name": "tokenAmount",
          "type": "uint256"
        },
        {
          "indexed": false,
          "internalType": "uint256",
          "name": "vTokenfee",
          "type": "uint256"
        }
      ],
      "name": "RewardAdded",
      "type": "event"
    },
    {
      "anonymous": false,
      "inputs": [
        {
          "indexed": true,
          "internalType": "address",
          "name": "sender",
          "type": "address"
        },
        {
          "indexed": false,
          "internalType": "uint256",
          "name": "tokenAmount",
          "type": "uint256"
        }
      ],
      "name": "RewardRemoved",
      "type": "event"
    },
    {
      "anonymous": false,
      "inputs": [
        {
          "indexed": false,
          "internalType": "address",
          "name": "account",
          "type": "address"
        }
      ],
      "name": "Unpaused",
      "type": "event"
    },
    {
      "anonymous": false,
      "inputs": [
        {
          "indexed": true,
          "internalType": "address",
          "name": "sender",
          "type": "address"
        },
        {
          "indexed": false,
          "internalType": "uint256",
          "name": "tokenAmount",
          "type": "uint256"
        }
      ],
      "name": "WithdrawalCompleted",
      "type": "event"
    },
    {
      "anonymous": false,
      "inputs": [
        {
          "indexed": true,
          "internalType": "address",
          "name": "sender",
          "type": "address"
        },
        {
          "indexed": false,
          "internalType": "uint256",
          "name": "tokenAmount",
          "type": "uint256"
        }
      ],
      "name": "WithdrawalDeposited",
      "type": "event"
    },
    {
      "anonymous": false,
      "inputs": [
        {
          "indexed": true,
          "internalType": "address",
          "name": "sender",
          "type": "address"
        },
        {
          "indexed": false,
          "internalType": "uint256",
          "name": "tokenAmount",
          "type": "uint256"
        },
        {
          "indexed": false,
          "internalType": "uint256",
          "name": "vTokenAmount",
          "type": "uint256"
        }
      ],
      "name": "WithdrawalRequested",
      "type": "event"
    },
    {
      "inputs": [],
      "name": "DEAD_ADDRESS",
      "outputs": [
        {
          "internalType": "address",
          "name": "",
          "type": "address"
        }
      ],
      "stateMutability": "view",
      "type": "function"
    },
    {
      "inputs": [],
      "name": "FEE_RATE_DENOMINATOR",
      "outputs": [
        {
          "internalType": "uint256",
          "name": "",
          "type": "uint256"
        }
      ],
      "stateMutability": "view",
      "type": "function"
    },
    {
      "inputs": [
        {
          "internalType": "uint256",
          "name": "amount",
          "type": "uint256"
        }
      ],
      "name": "addReward",
      "outputs": [],
      "stateMutability": "nonpayable",
      "type": "function"
    },
    {
      "inputs": [
        {
          "internalType": "uint256",
          "name": "vTokenAmount",
          "type": "uint256"
        }
      ],
      "name": "calculateTokenAmount",
      "outputs": [
        {
          "internalType": "uint256",
          "name": "tokenAmount",
          "type": "uint256"
        }
      ],
      "stateMutability": "view",
      "type": "function"
    },
    {
      "inputs": [
        {
          "internalType": "uint256",
          "name": "tokenAmount",
          "type": "uint256"
        }
      ],
      "name": "calculateVTokenAmount",
      "outputs": [
        {
          "internalType": "uint256",
          "name": "vTokenAmount",
          "type": "uint256"
        }
      ],
      "stateMutability": "view",
      "type": "function"
    },
    {
      "inputs": [
        {
          "internalType": "address",
          "name": "target",
          "type": "address"
        }
      ],
      "name": "canWithdrawalAmount",
      "outputs": [
        {
          "internalType": "uint256",
          "name": "",
          "type": "uint256"
        }
      ],
      "stateMutability": "view",
      "type": "function"
    },
    {
      "inputs": [],
      "name": "completedWithdrawal",
      "outputs": [
        {
          "internalType": "uint256",
          "name": "",
          "type": "uint256"
        }
      ],
      "stateMutability": "view",
      "type": "function"
    },
    {
      "inputs": [],
      "name": "depositWithdrawal",
      "outputs": [],
      "stateMutability": "payable",
      "type": "function"
    },
    {
      "inputs": [
        {
          "internalType": "address",
          "name": "recipient",
          "type": "address"
        },
        {
          "internalType": "uint256",
          "name": "amount",
          "type": "uint256"
        }
      ],
      "name": "emergencyWithdrawETH",
      "outputs": [],
      "stateMutability": "nonpayable",
      "type": "function"
    },
    {
      "inputs": [],
      "name": "feeRate",
      "outputs": [
        {
          "internalType": "uint256",
          "name": "",
          "type": "uint256"
        }
      ],
      "stateMutability": "view",
      "type": "function"
    },
    {
      "inputs": [],
      "name": "feeReceiver",
      "outputs": [
        {
          "internalType": "address",
          "name": "",
          "type": "address"
        }
      ],
      "stateMutability": "view",
      "type": "function"
    },
    {
      "inputs": [],
      "name": "getTotalETH",
      "outputs": [
        {
          "internalType": "uint256",
          "name": "",
          "type": "uint256"
        }
      ],
      "stateMutability": "view",
      "type": "function"
    },
    {
      "inputs": [
        {
          "internalType": "address",
          "name": "_vETH1",
          "type": "address"
        },
        {
          "internalType": "address",
          "name": "_vETH2",
          "type": "address"
        },
        {
          "internalType": "address",
          "name": "_slpDeposit",
          "type": "address"
        },
        {
          "internalType": "address",
          "name": "_mevVault",
          "type": "address"
        },
        {
          "internalType": "address",
          "name": "_withdrawalVault",
          "type": "address"
        },
        {
          "internalType": "address",
          "name": "_feeReceiver",
          "type": "address"
        },
        {
          "internalType": "uint256",
          "name": "_feeRate",
          "type": "uint256"
        }
      ],
      "name": "initialize",
      "outputs": [],
      "stateMutability": "nonpayable",
      "type": "function"
    },
    {
      "inputs": [],
      "name": "mevVault",
      "outputs": [
        {
          "internalType": "address",
          "name": "",
          "type": "address"
        }
      ],
      "stateMutability": "view",
      "type": "function"
    },
    {
      "inputs": [],
      "name": "mint",
      "outputs": [],
      "stateMutability": "payable",
      "type": "function"
    },
    {
      "inputs": [],
      "name": "owner",
      "outputs": [
        {
          "internalType": "address",
          "name": "",
          "type": "address"
        }
      ],
      "stateMutability": "view",
      "type": "function"
    },
    {
      "inputs": [],
      "name": "pause",
      "outputs": [],
      "stateMutability": "nonpayable",
      "type": "function"
    },
    {
      "inputs": [],
      "name": "paused",
      "outputs": [
        {
          "internalType": "bool",
          "name": "",
          "type": "bool"
        }
      ],
      "stateMutability": "view",
      "type": "function"
    },
    {
      "inputs": [],
      "name": "queuedWithdrawal",
      "outputs": [
        {
          "internalType": "uint256",
          "name": "",
          "type": "uint256"
        }
      ],
      "stateMutability": "view",
      "type": "function"
    },
    {
      "inputs": [
        {
          "internalType": "uint256",
          "name": "amount",
          "type": "uint256"
        }
      ],
      "name": "removeReward",
      "outputs": [],
      "stateMutability": "nonpayable",
      "type": "function"
    },
    {
      "inputs": [
        {
          "internalType": "uint256",
          "name": "vETH1Amount",
          "type": "uint256"
        }
      ],
      "name": "renew",
      "outputs": [],
      "stateMutability": "nonpayable",
      "type": "function"
    },
    {
      "inputs": [],
      "name": "renounceOwnership",
      "outputs": [],
      "stateMutability": "nonpayable",
      "type": "function"
    },
    {
      "inputs": [
        {
          "internalType": "uint256",
          "name": "_feeRate",
          "type": "uint256"
        }
      ],
      "name": "setFeeRate",
      "outputs": [],
      "stateMutability": "nonpayable",
      "type": "function"
    },
    {
      "inputs": [
        {
          "internalType": "address",
          "name": "_feeReceiver",
          "type": "address"
        }
      ],
      "name": "setFeeReceiver",
      "outputs": [],
      "stateMutability": "nonpayable",
      "type": "function"
    },
    {
      "inputs": [],
      "name": "slpDeposit",
      "outputs": [
        {
          "internalType": "address",
          "name": "",
          "type": "address"
        }
      ],
      "stateMutability": "view",
      "type": "function"
    },
    {
      "inputs": [],
      "name": "tokenPool",
      "outputs": [
        {
          "internalType": "uint256",
          "name": "",
          "type": "uint256"
        }
      ],
      "stateMutability": "view",
      "type": "function"
    },
    {
      "inputs": [
        {
          "internalType": "address",
          "name": "newOwner",
          "type": "address"
        }
      ],
      "name": "transferOwnership",
      "outputs": [],
      "stateMutability": "nonpayable",
      "type": "function"
    },
    {
      "inputs": [],
      "name": "unpause",
      "outputs": [],
      "stateMutability": "nonpayable",
      "type": "function"
    },
    {
      "inputs": [],
      "name": "vETH1",
      "outputs": [
        {
          "internalType": "address",
          "name": "",
          "type": "address"
        }
      ],
      "stateMutability": "view",
      "type": "function"
    },
    {
      "inputs": [],
      "name": "vETH2",
      "outputs": [
        {
          "internalType": "address",
          "name": "",
          "type": "address"
        }
      ],
      "stateMutability": "view",
      "type": "function"
    },
    {
      "inputs": [
        {
          "internalType": "uint256",
          "name": "tokenAmount",
          "type": "uint256"
        }
      ],
      "name": "withdrawComplete",
      "outputs": [],
      "stateMutability": "nonpayable",
      "type": "function"
    },
    {
      "inputs": [
        {
          "internalType": "uint256",
          "name": "vTokenAmount",
          "type": "uint256"
        }
      ],
      "name": "withdrawRequest",
      "outputs": [],
      "stateMutability": "nonpayable",
      "type": "function"
    },
    {
      "inputs": [],
      "name": "withdrawalVault",
      "outputs": [
        {
          "internalType": "address",
          "name": "",
          "type": "address"
        }
      ],
      "stateMutability": "view",
      "type": "function"
    },
    {
      "inputs": [
        {
          "internalType": "address",
          "name": "",
          "type": "address"
        }
      ],
      "name": "withdrawals",
      "outputs": [
        {
          "internalType": "uint256",
          "name": "queued",
          "type": "uint256"
        },
        {
          "internalType": "uint256",
          "name": "pending",
          "type": "uint256"
        }
      ],
      "stateMutability": "view",
      "type": "function"
    }
  ],
  "transactionHash": "0xaf56f152b25512b482e99a0100bbab914f34802056db0d1b2ce6d3c9c9122019",
  "args": [],
  "numDeployments": 3,
  "solcInputHash": "d4dad65a9a3607e7631aceb42d6cb9b8",
  "bytecode": "0x608060405234801561001057600080fd5b506120ec806100206000396000f3fe6080604052600436106101f95760003560e01c806374899a7e1161010d578063abc9653e116100a0578063d35249c81161006f578063d35249c81461057b578063d79e856714610583578063efdcd974146105a3578063f2fde38b146105c3578063f922c0d0146105e357600080fd5b8063abc9653e146104fb578063b179b4651461051b578063b3f006741461053b578063c553173f1461055b57600080fd5b80638da5cb5b116100dc5780638da5cb5b14610491578063978bbdb9146104af578063996e5c06146104c5578063a24bcf46146104db57600080fd5b806374899a7e146103f357806374de4ec4146104135780637a9262a2146104335780638456cb591461047c57600080fd5b80634e6fd6c4116101905780635c975abb1161015f5780635c975abb146103705780635f4c71f11461039357806363ea1b92146103a857806369d42148146103be578063715018a6146103de57600080fd5b80634e6fd6c4146102fe57806352a630b9146103145780635a70ad28146103345780635baa75091461035057600080fd5b80631ec01fcd116101cc5780631ec01fcd1461028957806322f808d5146102a95780633f4ba83a146102c957806345596e2e146102de57600080fd5b8063104e9929146101fe5780631249c58b146102275780631460e39014610231578063193a225c14610251575b600080fd5b34801561020a57600080fd5b5061021460cf5481565b6040519081526020015b60405180910390f35b61022f610603565b005b34801561023d57600080fd5b5061022f61024c366004611e39565b610786565b34801561025d57600080fd5b5060ca54610271906001600160a01b031681565b6040516001600160a01b03909116815260200161021e565b34801561029557600080fd5b5060c954610271906001600160a01b031681565b3480156102b557600080fd5b5060cb54610271906001600160a01b031681565b3480156102d557600080fd5b5061022f610bba565b3480156102ea57600080fd5b5061022f6102f9366004611eb8565b610bca565b34801561030a57600080fd5b5061027161dead81565b34801561032057600080fd5b5061021461032f366004611ed1565b610bde565b34801561034057600080fd5b50610214670de0b6b3a764000081565b34801561035c57600080fd5b5061022f61036b366004611eb8565b610c73565b34801561037c57600080fd5b5060975460ff16604051901515815260200161021e565b34801561039f57600080fd5b50610214610d80565b3480156103b457600080fd5b5061021460d25481565b3480156103ca57600080fd5b5060cd54610271906001600160a01b031681565b3480156103ea57600080fd5b5061022f610d95565b3480156103ff57600080fd5b5061022f61040e366004611eb8565b610da7565b34801561041f57600080fd5b5061022f61042e366004611eb8565b610ef9565b34801561043f57600080fd5b5061046761044e366004611ed1565b60d3602052600090815260409020805460019091015482565b6040805192835260208301919091520161021e565b34801561048857600080fd5b5061022f61105b565b34801561049d57600080fd5b506033546001600160a01b0316610271565b3480156104bb57600080fd5b5061021460d05481565b3480156104d157600080fd5b5061021460d15481565b3480156104e757600080fd5b506102146104f6366004611eb8565b61106b565b34801561050757600080fd5b5061022f610516366004611eb8565b611124565b34801561052757600080fd5b50610214610536366004611eb8565b611276565b34801561054757600080fd5b5060ce54610271906001600160a01b031681565b34801561056757600080fd5b5061022f610576366004611eb8565b61131a565b61022f61142c565b34801561058f57600080fd5b5061022f61059e366004611ef3565b6114bd565b3480156105af57600080fd5b5061022f6105be366004611ed1565b6114d3565b3480156105cf57600080fd5b5061022f6105de366004611ed1565b6114e4565b3480156105ef57600080fd5b5060cc54610271906001600160a01b031681565b61060b61155a565b6106136115b3565b348061063a5760405162461bcd60e51b815260040161063190611f1d565b60405180910390fd5b600061064582611276565b9050600081116106675760405162461bcd60e51b815260040161063190611f1d565b8160cf546106759190611f58565b60cf5560cb546040805163f6326fb360e01b815290516001600160a01b039092169163f6326fb3918591600480830192600092919082900301818588803b1580156106bf57600080fd5b505af11580156106d3573d6000803e3d6000fd5b505060ca546040516340c10f1960e01b8152336004820152602481018690526001600160a01b0390911693506340c10f1992506044019050600060405180830381600087803b15801561072557600080fd5b505af1158015610739573d6000803e3d6000fd5b505060408051858152602081018590523393507f73a19dd210f1a7f902193214c0ee91dd35ee5b4d920cba8d519eca65a7b488ca92500160405180910390a250506107846001606555565b565b600054610100900460ff16158080156107a65750600054600160ff909116105b806107c05750303b1580156107c0575060005460ff166001145b6108235760405162461bcd60e51b815260206004820152602e60248201527f496e697469616c697a61626c653a20636f6e747261637420697320616c72656160448201526d191e481a5b9a5d1a585b1a5e995960921b6064820152608401610631565b6000805460ff191660011790558015610846576000805461ff0019166101001790555b6001600160a01b03881661088c5760405162461bcd60e51b815260206004820152600d60248201526c496e76616c696420764554483160981b6044820152606401610631565b6001600160a01b0387166108d25760405162461bcd60e51b815260206004820152600d60248201526c24b73b30b634b2103b22aa241960991b6044820152606401610631565b6001600160a01b0386166109285760405162461bcd60e51b815260206004820152601b60248201527f496e76616c696420534c50206465706f736974206164647265737300000000006044820152606401610631565b6001600160a01b03851661097e5760405162461bcd60e51b815260206004820152601960248201527f496e76616c6964204d4556207661756c742061646472657373000000000000006044820152606401610631565b6001600160a01b0384166109d45760405162461bcd60e51b815260206004820181905260248201527f496e76616c6964207769746864726177616c207661756c7420616464726573736044820152606401610631565b6000876001600160a01b03166318160ddd6040518163ffffffff1660e01b8152600401602060405180830381865afa158015610a14573d6000803e3d6000fd5b505050506040513d601f19601f82011682018060405250810190610a389190611f71565b11610a855760405162461bcd60e51b815260206004820152601c60248201527f496e76616c696420746f74616c537570706c79206f66207645544832000000006044820152606401610631565b610a8d611600565b610a9561162f565b610a9d61165e565b610aa68261168d565b610aaf83611715565b60c980546001600160a01b03808b166001600160a01b03199283161790925560ca80548a8416908316811790915560cb80548a851690841617905560cc805489851690841617905560cd805493881693909216929092179055604080516318160ddd60e01b815290516318160ddd916004808201926020929091908290030181865afa158015610b43573d6000803e3d6000fd5b505050506040513d601f19601f82011682018060405250810190610b679190611f71565b60cf558015610bb0576000805461ff0019169055604051600181527f7f26b83ff96e1f2b6a682f133852f6798a09c465da95921460cefb38474024989060200160405180910390a15b5050505050505050565b610bc26117bb565b610784611815565b610bd26117bb565b610bdb8161168d565b50565b6001600160a01b038116600090815260d360209081526040808320815180830190925280548083526001909101549282019290925290610c1c610d80565b11610c2a5750600092915050565b8051600090610c37610d80565b610c419190611f8a565b9050804710610c505780610c52565b475b905080826020015110610c655780610c6b565b81602001515b949350505050565b610c7b61155a565b60008111610c9b5760405162461bcd60e51b815260040161063190611f1d565b806000610ca782611276565b90508160cf54610cb79190611f58565b60cf5560c954610cd4906001600160a01b03163361dead85611867565b60ca546040516340c10f1960e01b8152336004820152602481018390526001600160a01b03909116906340c10f1990604401600060405180830381600087803b158015610d2057600080fd5b505af1158015610d34573d6000803e3d6000fd5b505060408051858152602081018590523393507f9f1eab6cdd1daff5126e5746868327717314baefd3abd72422a3064e1300279c9250015b60405180910390a25050610bdb6001606555565b600060d25447610d909190611f58565b905090565b610d9d6117bb565b61078460006118c7565b610daf61155a565b610db76115b3565b60008111610dd75760405162461bcd60e51b815260040161063190611f1d565b33600090815260d36020526040812090610df08361106b565b905060008111610e125760405162461bcd60e51b815260040161063190611f1d565b816001015460d154610e249190611f8a565b82556001820154610e36908290611f58565b600183015560d154610e49908290611f58565b60d15560cf54610e5a908290611f8a565b60cf5560ca54604051632770a7eb60e21b8152336004820152602481018590526001600160a01b0390911690639dc29fac90604401600060405180830381600087803b158015610ea957600080fd5b505af1158015610ebd573d6000803e3d6000fd5b505060408051848152602081018790523393507f24b91f4f47caf44230a57777a9be744924e82bf666f2d5702faf97df35e60f9f925001610d6c565b60cc546001600160a01b0316331480610f1c575060cd546001600160a01b031633145b610f685760405162461bcd60e51b815260206004820152601c60248201527f43616c6c6572206973206e6f74207661756c7420636f6e7472616374000000006044820152606401610631565b610f706115b3565b6000670de0b6b3a764000060d05483610f899190611f9d565b610f939190611fb4565b90506000610fa082611276565b90508260cf54610fb09190611f58565b60cf5560ca5460ce546040516340c10f1960e01b81526001600160a01b039182166004820152602481018490529116906340c10f1990604401600060405180830381600087803b15801561100357600080fd5b505af1158015611017573d6000803e3d6000fd5b505060408051868152602081018590523393507f6a6f77044107a33658235d41bedbbaf2fe9ccdceb313143c947a5e76e1ec847492500160405180910390a2505050565b6110636117bb565b610784611919565b60008060ca60009054906101000a90046001600160a01b03166001600160a01b03166318160ddd6040518163ffffffff1660e01b8152600401602060405180830381865afa1580156110c1573d6000803e3d6000fd5b505050506040513d601f19601f820116820180604052508101906110e59190611f71565b9050801580156110f5575060cf54155b156111025782915061111e565b8060cf54846111119190611f9d565b61111b9190611fb4565b91505b50919050565b61112c61155a565b33600090815260d3602052604081209082900361114b57806001015491505b806001015482111561119f5760405162461bcd60e51b815260206004820152601760248201527f457863656564207065726d697474656420616d6f756e740000000000000000006044820152606401610631565b6111a833610bde565b8211156111f75760405162461bcd60e51b815260206004820152601e60248201527f496e73756666696369656e74207769746864726177616c20616d6f756e7400006044820152606401610631565b8181600101546112079190611f8a565b60018201558054611219908390611f58565b815560d254611229908390611f58565b60d2556112363383611956565b60405182815233907f1a39b9c5044b9f0ff56c5951e30c1ebe24911353aafcceb9250e83a24fe158c49060200160405180910390a250610bdb6001606555565b60008060ca60009054906101000a90046001600160a01b03166001600160a01b03166318160ddd6040518163ffffffff1660e01b8152600401602060405180830381865afa1580156112cc573d6000803e3d6000fd5b505050506040513d601f19601f820116820180604052508101906112f09190611f71565b905080158015611300575060cf54155b1561130d5782915061111e565b60cf546111118285611f9d565b60cc546001600160a01b031633148061133d575060cd546001600160a01b031633145b6113895760405162461bcd60e51b815260206004820152601c60248201527f43616c6c6572206973206e6f74207661756c7420636f6e7472616374000000006044820152606401610631565b6113916115b3565b8060cf54116113e25760405162461bcd60e51b815260206004820152601860248201527f496e73756666696369656e7420706f6f6c20616d6f756e7400000000000000006044820152606401610631565b8060cf546113f09190611f8a565b60cf5560405181815233907fccdd1b4597f1516187e25b38fbad3e75a428981d2a1d898667abb3cdd95a672f906020015b60405180910390a250565b60cd546001600160a01b031633146114865760405162461bcd60e51b815260206004820181905260248201527f496e76616c6964207769746864726177616c207661756c7420616464726573736044820152606401610631565b60405134815233907f0a89b53a0597c8291bcd6a87acb5dc18d0123915629a55c470bfbfd4680f591e9060200160405180910390a2565b6114c56117bb565b6114cf8282611a3c565b5050565b6114db6117bb565b610bdb81611715565b6114ec6117bb565b6001600160a01b0381166115515760405162461bcd60e51b815260206004820152602660248201527f4f776e61626c653a206e6577206f776e657220697320746865207a65726f206160448201526564647265737360d01b6064820152608401610631565b610bdb816118c7565b6002606554036115ac5760405162461bcd60e51b815260206004820152601f60248201527f5265656e7472616e637947756172643a207265656e7472616e742063616c6c006044820152606401610631565b6002606555565b60975460ff16156107845760405162461bcd60e51b815260206004820152601060248201526f14185d5cd8589b194e881c185d5cd95960821b6044820152606401610631565b6001606555565b600054610100900460ff166116275760405162461bcd60e51b815260040161063190611fd6565b610784611b55565b600054610100900460ff166116565760405162461bcd60e51b815260040161063190611fd6565b610784611b85565b600054610100900460ff166116855760405162461bcd60e51b815260040161063190611fd6565b610784611bac565b670de0b6b3a76400008111156116de5760405162461bcd60e51b8152602060048201526016602482015275466565207261746520657863656564732072616e676560501b6044820152606401610631565b60d081905560405181815233907f021ec04e349d47f898250a9525e5ab79abae4d9a0a3f0e6c5a5d61f3a8b8737890602001611421565b6001600160a01b03811661176b5760405162461bcd60e51b815260206004820152601c60248201527f496e76616c6964206665652072656365697665722061646472657373000000006044820152606401610631565b60ce80546001600160a01b0319166001600160a01b03831690811790915560405190815233907f49bc8f1c292131e71bfca22660d0716072ff2442b58d72840474dd83a390411c90602001611421565b6033546001600160a01b031633146107845760405162461bcd60e51b815260206004820181905260248201527f4f776e61626c653a2063616c6c6572206973206e6f7420746865206f776e65726044820152606401610631565b61181d611bdf565b6097805460ff191690557f5db9ee0a495bf2e6ff9c91a7834c1ba4fdd244a5e8aa4e537bd38aeae4b073aa335b6040516001600160a01b03909116815260200160405180910390a1565b604080516001600160a01b0385811660248301528416604482015260648082018490528251808303909101815260849091019091526020810180516001600160e01b03166323b872dd60e01b1790526118c1908590611c28565b50505050565b603380546001600160a01b038381166001600160a01b0319831681179093556040519116919082907f8be0079c531659141344cd1fd0a4f28419497f9722a3daafe3b4186f6b6457e090600090a35050565b6119216115b3565b6097805460ff191660011790557f62e78cea01bee320cd4e420270b5ea74000d11b0c9f74754ebdbfc544b05a25861184a3390565b8047101561199d5760405162461bcd60e51b8152602060048201526014602482015273496e73756666696369656e742062616c616e636560601b6044820152606401610631565b6000826001600160a01b03168260405160006040518083038185875af1925050503d80600081146119ea576040519150601f19603f3d011682016040523d82523d6000602084013e6119ef565b606091505b5050905080611a375760405162461bcd60e51b8152602060048201526014602482015273556e61626c6520746f2073656e642076616c756560601b6044820152606401610631565b505050565b80471015611a8c5760405162461bcd60e51b815260206004820152601d60248201527f416464726573733a20696e73756666696369656e742062616c616e63650000006044820152606401610631565b6000826001600160a01b03168260405160006040518083038185875af1925050503d8060008114611ad9576040519150601f19603f3d011682016040523d82523d6000602084013e611ade565b606091505b5050905080611a375760405162461bcd60e51b815260206004820152603a60248201527f416464726573733a20756e61626c6520746f2073656e642076616c75652c207260448201527f6563697069656e74206d617920686176652072657665727465640000000000006064820152608401610631565b600054610100900460ff16611b7c5760405162461bcd60e51b815260040161063190611fd6565b610784336118c7565b600054610100900460ff166115f95760405162461bcd60e51b815260040161063190611fd6565b600054610100900460ff16611bd35760405162461bcd60e51b815260040161063190611fd6565b6097805460ff19169055565b60975460ff166107845760405162461bcd60e51b815260206004820152601460248201527314185d5cd8589b194e881b9bdd081c185d5cd95960621b6044820152606401610631565b6000611c7d826040518060400160405280602081526020017f5361666545524332303a206c6f772d6c6576656c2063616c6c206661696c6564815250856001600160a01b0316611cfa9092919063ffffffff16565b805190915015611a375780806020019051810190611c9b9190612021565b611a375760405162461bcd60e51b815260206004820152602a60248201527f5361666545524332303a204552433230206f7065726174696f6e20646964206e6044820152691bdd081cdd58d8d9595960b21b6064820152608401610631565b6060610c6b848460008585600080866001600160a01b03168587604051611d219190612067565b60006040518083038185875af1925050503d8060008114611d5e576040519150601f19603f3d011682016040523d82523d6000602084013e611d63565b606091505b5091509150611d7487838387611d7f565b979650505050505050565b60608315611dee578251600003611de7576001600160a01b0385163b611de75760405162461bcd60e51b815260206004820152601d60248201527f416464726573733a2063616c6c20746f206e6f6e2d636f6e74726163740000006044820152606401610631565b5081610c6b565b610c6b8383815115611e035781518083602001fd5b8060405162461bcd60e51b81526004016106319190612083565b80356001600160a01b0381168114611e3457600080fd5b919050565b600080600080600080600060e0888a031215611e5457600080fd5b611e5d88611e1d565b9650611e6b60208901611e1d565b9550611e7960408901611e1d565b9450611e8760608901611e1d565b9350611e9560808901611e1d565b9250611ea360a08901611e1d565b915060c0880135905092959891949750929550565b600060208284031215611eca57600080fd5b5035919050565b600060208284031215611ee357600080fd5b611eec82611e1d565b9392505050565b60008060408385031215611f0657600080fd5b611f0f83611e1d565b946020939093013593505050565b6020808252600b908201526a16995c9bc8185b5bdd5b9d60aa1b604082015260600190565b634e487b7160e01b600052601160045260246000fd5b80820180821115611f6b57611f6b611f42565b92915050565b600060208284031215611f8357600080fd5b5051919050565b81810381811115611f6b57611f6b611f42565b8082028115828204841417611f6b57611f6b611f42565b600082611fd157634e487b7160e01b600052601260045260246000fd5b500490565b6020808252602b908201527f496e697469616c697a61626c653a20636f6e7472616374206973206e6f74206960408201526a6e697469616c697a696e6760a81b606082015260800190565b60006020828403121561203357600080fd5b81518015158114611eec57600080fd5b60005b8381101561205e578181015183820152602001612046565b50506000910152565b60008251612079818460208701612043565b9190910192915050565b60208152600082518060208401526120a2816040850160208701612043565b601f01601f1916919091016040019291505056fea26469706673582212207d01ec5180546795b1edbce7b95d2d40e43e0f277e000ecb344c4c3bb666587f64736f6c63430008110033",
  "devdoc": {
    "kind": "dev",
    "methods": {
      "owner()": {
        "details": "Returns the address of the current owner."
      },
      "paused()": {
        "details": "Returns true if the contract is paused, and false otherwise."
      },
      "renounceOwnership()": {
        "details": "Leaves the contract without owner. It will not be possible to call `onlyOwner` functions anymore. Can only be called by the current owner. NOTE: Renouncing ownership will leave the contract without an owner, thereby removing any functionality that is only available to the owner."
      },
      "transferOwnership(address)": {
        "details": "Transfers ownership of the contract to a new account (`newOwner`). Can only be called by the current owner."
      }
    },
    "version": 1
  },
  "userdoc": {
    "kind": "user",
    "methods": {},
    "version": 1
  },
  "storageLayout": {
    "storage": [
      {
        "astId": 138,
        "contract": "contracts/SLPCore.sol:SLPCore",
        "label": "_initialized",
        "offset": 0,
        "slot": "0",
        "type": "t_uint8"
      },
      {
        "astId": 141,
        "contract": "contracts/SLPCore.sol:SLPCore",
        "label": "_initializing",
        "offset": 1,
        "slot": "0",
        "type": "t_bool"
      },
      {
        "astId": 1220,
        "contract": "contracts/SLPCore.sol:SLPCore",
        "label": "__gap",
        "offset": 0,
        "slot": "1",
        "type": "t_array(t_uint256)50_storage"
      },
      {
        "astId": 10,
        "contract": "contracts/SLPCore.sol:SLPCore",
        "label": "_owner",
        "offset": 0,
        "slot": "51",
        "type": "t_address"
      },
      {
        "astId": 130,
        "contract": "contracts/SLPCore.sol:SLPCore",
        "label": "__gap",
        "offset": 0,
        "slot": "52",
        "type": "t_array(t_uint256)49_storage"
      },
      {
        "astId": 441,
        "contract": "contracts/SLPCore.sol:SLPCore",
        "label": "_status",
        "offset": 0,
        "slot": "101",
        "type": "t_uint256"
      },
      {
        "astId": 499,
        "contract": "contracts/SLPCore.sol:SLPCore",
        "label": "__gap",
        "offset": 0,
        "slot": "102",
        "type": "t_array(t_uint256)49_storage"
      },
      {
        "astId": 321,
        "contract": "contracts/SLPCore.sol:SLPCore",
        "label": "_paused",
        "offset": 0,
        "slot": "151",
        "type": "t_bool"
      },
      {
        "astId": 426,
        "contract": "contracts/SLPCore.sol:SLPCore",
        "label": "__gap",
        "offset": 0,
        "slot": "152",
        "type": "t_array(t_uint256)49_storage"
      },
      {
        "astId": 2178,
        "contract": "contracts/SLPCore.sol:SLPCore",
        "label": "vETH1",
        "offset": 0,
        "slot": "201",
        "type": "t_address"
      },
      {
        "astId": 2180,
        "contract": "contracts/SLPCore.sol:SLPCore",
        "label": "vETH2",
        "offset": 0,
        "slot": "202",
        "type": "t_address"
      },
      {
        "astId": 2182,
        "contract": "contracts/SLPCore.sol:SLPCore",
        "label": "slpDeposit",
        "offset": 0,
        "slot": "203",
        "type": "t_address"
      },
      {
        "astId": 2184,
        "contract": "contracts/SLPCore.sol:SLPCore",
        "label": "mevVault",
        "offset": 0,
        "slot": "204",
        "type": "t_address"
      },
      {
        "astId": 2186,
        "contract": "contracts/SLPCore.sol:SLPCore",
        "label": "withdrawalVault",
        "offset": 0,
        "slot": "205",
        "type": "t_address"
      },
      {
        "astId": 2188,
        "contract": "contracts/SLPCore.sol:SLPCore",
        "label": "feeReceiver",
        "offset": 0,
        "slot": "206",
        "type": "t_address"
      },
      {
        "astId": 2190,
        "contract": "contracts/SLPCore.sol:SLPCore",
        "label": "tokenPool",
        "offset": 0,
        "slot": "207",
        "type": "t_uint256"
      },
      {
        "astId": 2192,
        "contract": "contracts/SLPCore.sol:SLPCore",
        "label": "feeRate",
        "offset": 0,
        "slot": "208",
        "type": "t_uint256"
      },
      {
        "astId": 2194,
        "contract": "contracts/SLPCore.sol:SLPCore",
        "label": "queuedWithdrawal",
        "offset": 0,
        "slot": "209",
        "type": "t_uint256"
      },
      {
        "astId": 2196,
        "contract": "contracts/SLPCore.sol:SLPCore",
        "label": "completedWithdrawal",
        "offset": 0,
        "slot": "210",
        "type": "t_uint256"
      },
      {
        "astId": 2201,
        "contract": "contracts/SLPCore.sol:SLPCore",
        "label": "withdrawals",
        "offset": 0,
        "slot": "211",
        "type": "t_mapping(t_address,t_struct(Withdrawal)2108_storage)"
      }
    ],
    "types": {
      "t_address": {
        "encoding": "inplace",
        "label": "address",
        "numberOfBytes": "20"
      },
      "t_array(t_uint256)49_storage": {
        "base": "t_uint256",
        "encoding": "inplace",
        "label": "uint256[49]",
        "numberOfBytes": "1568"
      },
      "t_array(t_uint256)50_storage": {
        "base": "t_uint256",
        "encoding": "inplace",
        "label": "uint256[50]",
        "numberOfBytes": "1600"
      },
      "t_bool": {
        "encoding": "inplace",
        "label": "bool",
        "numberOfBytes": "1"
      },
      "t_mapping(t_address,t_struct(Withdrawal)2108_storage)": {
        "encoding": "mapping",
        "key": "t_address",
        "label": "mapping(address => struct SLPCore.Withdrawal)",
        "numberOfBytes": "32",
        "value": "t_struct(Withdrawal)2108_storage"
      },
      "t_struct(Withdrawal)2108_storage": {
        "encoding": "inplace",
        "label": "struct SLPCore.Withdrawal",
        "members": [
          {
            "astId": 2105,
            "contract": "contracts/SLPCore.sol:SLPCore",
            "label": "queued",
            "offset": 0,
            "slot": "0",
            "type": "t_uint256"
          },
          {
            "astId": 2107,
            "contract": "contracts/SLPCore.sol:SLPCore",
            "label": "pending",
            "offset": 0,
            "slot": "1",
            "type": "t_uint256"
          }
        ],
        "numberOfBytes": "64"
      },
      "t_uint256": {
        "encoding": "inplace",
        "label": "uint256",
        "numberOfBytes": "32"
      },
      "t_uint8": {
        "encoding": "inplace",
        "label": "uint8",
        "numberOfBytes": "1"
      }
    }
  }
}