{
  "address": "0x4aa232b5cA046b2d6D94Cf004d2EbeD40a075054",
  "abi": [
    {
      "anonymous": false,
      "inputs": [
        {
          "indexed": true,
          "internalType": "address",
          "name": "sender",
          "type": "address"
        },
        {
          "indexed": false,
          "internalType": "uint256",
          "name": "tokenAmount",
          "type": "uint256"
        },
        {
          "indexed": false,
          "internalType": "uint256",
          "name": "vTokenAmount",
          "type": "uint256"
        }
      ],
      "name": "Deposited",
      "type": "event"
    },
    {
      "anonymous": false,
      "inputs": [
        {
          "indexed": true,
          "internalType": "address",
          "name": "sender",
          "type": "address"
        },
        {
          "indexed": false,
          "internalType": "uint256",
          "name": "feeRate",
          "type": "uint256"
        }
      ],
      "name": "FeeRateSet",
      "type": "event"
    },
    {
      "anonymous": false,
      "inputs": [
        {
          "indexed": true,
          "internalType": "address",
          "name": "sender",
          "type": "address"
        },
        {
          "indexed": false,
          "internalType": "address",
          "name": "feeReceiver",
          "type": "address"
        }
      ],
      "name": "FeeReceiverSet",
      "type": "event"
    },
    {
      "anonymous": false,
      "inputs": [
        {
          "indexed": false,
          "internalType": "uint8",
          "name": "version",
          "type": "uint8"
        }
      ],
      "name": "Initialized",
      "type": "event"
    },
    {
      "anonymous": false,
      "inputs": [
        {
          "indexed": true,
          "internalType": "address",
          "name": "previousOwner",
          "type": "address"
        },
        {
          "indexed": true,
          "internalType": "address",
          "name": "newOwner",
          "type": "address"
        }
      ],
      "name": "OwnershipTransferred",
      "type": "event"
    },
    {
      "anonymous": false,
      "inputs": [
        {
          "indexed": false,
          "internalType": "address",
          "name": "account",
          "type": "address"
        }
      ],
      "name": "Paused",
      "type": "event"
    },
    {
      "anonymous": false,
      "inputs": [
        {
          "indexed": true,
          "internalType": "address",
          "name": "sender",
          "type": "address"
        },
        {
          "indexed": false,
          "internalType": "uint256",
          "name": "tokenAmount",
          "type": "uint256"
        },
        {
          "indexed": false,
          "internalType": "uint256",
          "name": "vTokenAmount",
          "type": "uint256"
        }
      ],
      "name": "Renewed",
      "type": "event"
    },
    {
      "anonymous": false,
      "inputs": [
        {
          "indexed": true,
          "internalType": "address",
          "name": "sender",
          "type": "address"
        },
        {
          "indexed": false,
          "internalType": "uint256",
          "name": "tokenAmount",
          "type": "uint256"
        },
        {
          "indexed": false,
          "internalType": "uint256",
          "name": "vTokenfee",
          "type": "uint256"
        }
      ],
      "name": "RewardAdded",
      "type": "event"
    },
    {
      "anonymous": false,
      "inputs": [
        {
          "indexed": true,
          "internalType": "address",
          "name": "sender",
          "type": "address"
        },
        {
          "indexed": false,
          "internalType": "uint256",
          "name": "tokenAmount",
          "type": "uint256"
        }
      ],
      "name": "RewardRemoved",
      "type": "event"
    },
    {
      "anonymous": false,
      "inputs": [
        {
          "indexed": false,
          "internalType": "address",
          "name": "account",
          "type": "address"
        }
      ],
      "name": "Unpaused",
      "type": "event"
    },
    {
      "anonymous": false,
      "inputs": [
        {
          "indexed": true,
          "internalType": "address",
          "name": "sender",
          "type": "address"
        },
        {
          "indexed": false,
          "internalType": "uint256",
          "name": "tokenAmount",
          "type": "uint256"
        }
      ],
      "name": "WithdrawalCompleted",
      "type": "event"
    },
    {
      "anonymous": false,
      "inputs": [
        {
          "indexed": true,
          "internalType": "address",
          "name": "sender",
          "type": "address"
        },
        {
          "indexed": false,
          "internalType": "uint256",
          "name": "tokenAmount",
          "type": "uint256"
        }
      ],
      "name": "WithdrawalDeposited",
      "type": "event"
    },
    {
      "anonymous": false,
      "inputs": [
        {
          "indexed": true,
          "internalType": "address",
          "name": "sender",
          "type": "address"
        },
        {
          "indexed": false,
          "internalType": "uint256",
          "name": "tokenAmount",
          "type": "uint256"
        },
        {
          "indexed": false,
          "internalType": "uint256",
          "name": "vTokenAmount",
          "type": "uint256"
        }
      ],
      "name": "WithdrawalRequested",
      "type": "event"
    },
    {
      "inputs": [],
      "name": "DEAD_ADDRESS",
      "outputs": [
        {
          "internalType": "address",
          "name": "",
          "type": "address"
        }
      ],
      "stateMutability": "view",
      "type": "function"
    },
    {
      "inputs": [],
      "name": "FEE_RATE_DENOMINATOR",
      "outputs": [
        {
          "internalType": "uint256",
          "name": "",
          "type": "uint256"
        }
      ],
      "stateMutability": "view",
      "type": "function"
    },
    {
      "inputs": [
        {
          "internalType": "uint256",
          "name": "amount",
          "type": "uint256"
        }
      ],
      "name": "addReward",
      "outputs": [],
      "stateMutability": "nonpayable",
      "type": "function"
    },
    {
      "inputs": [
        {
          "internalType": "uint256",
          "name": "vTokenAmount",
          "type": "uint256"
        }
      ],
      "name": "calculateTokenAmount",
      "outputs": [
        {
          "internalType": "uint256",
          "name": "tokenAmount",
          "type": "uint256"
        }
      ],
      "stateMutability": "view",
      "type": "function"
    },
    {
      "inputs": [
        {
          "internalType": "uint256",
          "name": "tokenAmount",
          "type": "uint256"
        }
      ],
      "name": "calculateVTokenAmount",
      "outputs": [
        {
          "internalType": "uint256",
          "name": "vTokenAmount",
          "type": "uint256"
        }
      ],
      "stateMutability": "view",
      "type": "function"
    },
    {
      "inputs": [
        {
          "internalType": "address",
          "name": "target",
          "type": "address"
        }
      ],
      "name": "canWithdrawalAmount",
      "outputs": [
        {
          "internalType": "uint256",
          "name": "",
          "type": "uint256"
        }
      ],
      "stateMutability": "view",
      "type": "function"
    },
    {
      "inputs": [],
      "name": "completedWithdrawal",
      "outputs": [
        {
          "internalType": "uint256",
          "name": "",
          "type": "uint256"
        }
      ],
      "stateMutability": "view",
      "type": "function"
    },
    {
      "inputs": [],
      "name": "depositWithdrawal",
      "outputs": [],
      "stateMutability": "payable",
      "type": "function"
    },
    {
      "inputs": [],
      "name": "feeRate",
      "outputs": [
        {
          "internalType": "uint256",
          "name": "",
          "type": "uint256"
        }
      ],
      "stateMutability": "view",
      "type": "function"
    },
    {
      "inputs": [],
      "name": "feeReceiver",
      "outputs": [
        {
          "internalType": "address",
          "name": "",
          "type": "address"
        }
      ],
      "stateMutability": "view",
      "type": "function"
    },
    {
      "inputs": [],
      "name": "getTotalETH",
      "outputs": [
        {
          "internalType": "uint256",
          "name": "",
          "type": "uint256"
        }
      ],
      "stateMutability": "view",
      "type": "function"
    },
    {
      "inputs": [
        {
          "internalType": "address",
          "name": "_vETH1",
          "type": "address"
        },
        {
          "internalType": "address",
          "name": "_vETH2",
          "type": "address"
        },
        {
          "internalType": "address",
          "name": "_slpDeposit",
          "type": "address"
        },
        {
          "internalType": "address",
          "name": "_mevVault",
          "type": "address"
        },
        {
          "internalType": "address",
          "name": "_withdrawalVault",
          "type": "address"
        },
        {
          "internalType": "address",
          "name": "_feeReceiver",
          "type": "address"
        },
        {
          "internalType": "uint256",
          "name": "_feeRate",
          "type": "uint256"
        }
      ],
      "name": "initialize",
      "outputs": [],
      "stateMutability": "nonpayable",
      "type": "function"
    },
    {
      "inputs": [],
      "name": "mevVault",
      "outputs": [
        {
          "internalType": "address",
          "name": "",
          "type": "address"
        }
      ],
      "stateMutability": "view",
      "type": "function"
    },
    {
      "inputs": [],
      "name": "mint",
      "outputs": [],
      "stateMutability": "payable",
      "type": "function"
    },
    {
      "inputs": [],
      "name": "owner",
      "outputs": [
        {
          "internalType": "address",
          "name": "",
          "type": "address"
        }
      ],
      "stateMutability": "view",
      "type": "function"
    },
    {
      "inputs": [],
      "name": "pause",
      "outputs": [],
      "stateMutability": "nonpayable",
      "type": "function"
    },
    {
      "inputs": [],
      "name": "paused",
      "outputs": [
        {
          "internalType": "bool",
          "name": "",
          "type": "bool"
        }
      ],
      "stateMutability": "view",
      "type": "function"
    },
    {
      "inputs": [],
      "name": "queuedWithdrawal",
      "outputs": [
        {
          "internalType": "uint256",
          "name": "",
          "type": "uint256"
        }
      ],
      "stateMutability": "view",
      "type": "function"
    },
    {
      "inputs": [
        {
          "internalType": "uint256",
          "name": "amount",
          "type": "uint256"
        }
      ],
      "name": "removeReward",
      "outputs": [],
      "stateMutability": "nonpayable",
      "type": "function"
    },
    {
      "inputs": [
        {
          "internalType": "uint256",
          "name": "vETH1Amount",
          "type": "uint256"
        }
      ],
      "name": "renew",
      "outputs": [],
      "stateMutability": "nonpayable",
      "type": "function"
    },
    {
      "inputs": [],
      "name": "renounceOwnership",
      "outputs": [],
      "stateMutability": "nonpayable",
      "type": "function"
    },
    {
      "inputs": [
        {
          "internalType": "uint256",
          "name": "_feeRate",
          "type": "uint256"
        }
      ],
      "name": "setFeeRate",
      "outputs": [],
      "stateMutability": "nonpayable",
      "type": "function"
    },
    {
      "inputs": [
        {
          "internalType": "address",
          "name": "_feeReceiver",
          "type": "address"
        }
      ],
      "name": "setFeeReceiver",
      "outputs": [],
      "stateMutability": "nonpayable",
      "type": "function"
    },
    {
      "inputs": [],
      "name": "slpDeposit",
      "outputs": [
        {
          "internalType": "address",
          "name": "",
          "type": "address"
        }
      ],
      "stateMutability": "view",
      "type": "function"
    },
    {
      "inputs": [],
      "name": "tokenPool",
      "outputs": [
        {
          "internalType": "uint256",
          "name": "",
          "type": "uint256"
        }
      ],
      "stateMutability": "view",
      "type": "function"
    },
    {
      "inputs": [
        {
          "internalType": "address",
          "name": "newOwner",
          "type": "address"
        }
      ],
      "name": "transferOwnership",
      "outputs": [],
      "stateMutability": "nonpayable",
      "type": "function"
    },
    {
      "inputs": [],
      "name": "unpause",
      "outputs": [],
      "stateMutability": "nonpayable",
      "type": "function"
    },
    {
      "inputs": [],
      "name": "vETH1",
      "outputs": [
        {
          "internalType": "address",
          "name": "",
          "type": "address"
        }
      ],
      "stateMutability": "view",
      "type": "function"
    },
    {
      "inputs": [],
      "name": "vETH2",
      "outputs": [
        {
          "internalType": "address",
          "name": "",
          "type": "address"
        }
      ],
      "stateMutability": "view",
      "type": "function"
    },
    {
      "inputs": [
        {
          "internalType": "uint256",
          "name": "tokenAmount",
          "type": "uint256"
        }
      ],
      "name": "withdrawComplete",
      "outputs": [],
      "stateMutability": "nonpayable",
      "type": "function"
    },
    {
      "inputs": [
        {
          "internalType": "uint256",
          "name": "vTokenAmount",
          "type": "uint256"
        }
      ],
      "name": "withdrawRequest",
      "outputs": [],
      "stateMutability": "nonpayable",
      "type": "function"
    },
    {
      "inputs": [],
      "name": "withdrawalVault",
      "outputs": [
        {
          "internalType": "address",
          "name": "",
          "type": "address"
        }
      ],
      "stateMutability": "view",
      "type": "function"
    },
    {
      "inputs": [
        {
          "internalType": "address",
          "name": "",
          "type": "address"
        }
      ],
      "name": "withdrawals",
      "outputs": [
        {
          "internalType": "uint256",
          "name": "queued",
          "type": "uint256"
        },
        {
          "internalType": "uint256",
          "name": "pending",
          "type": "uint256"
        }
      ],
      "stateMutability": "view",
      "type": "function"
    }
  ],
  "transactionHash": "0x87a064564eb11ba2a13cb439d073e273048c1349bccd8427d76629a5f8ef2108",
  "args": [],
  "numDeployments": 2,
  "solcInputHash": "aa6f10f0b3776f088be7afec7dd2c52a",
  "bytecode": "0x608060405234801561001057600080fd5b50611f68806100206000396000f3fe6080604052600436106101ee5760003560e01c8063715018a61161010d578063a24bcf46116100a0578063c553173f1161006f578063c553173f14610550578063d35249c814610570578063efdcd97414610578578063f2fde38b14610598578063f922c0d0146105b857600080fd5b8063a24bcf46146104d0578063abc9653e146104f0578063b179b46514610510578063b3f006741461053057600080fd5b80638456cb59116100dc5780638456cb59146104715780638da5cb5b14610486578063978bbdb9146104a4578063996e5c06146104ba57600080fd5b8063715018a6146103d357806374899a7e146103e857806374de4ec4146104085780637a9262a21461042857600080fd5b80634e6fd6c4116101855780635c975abb116101545780635c975abb146103655780635f4c71f11461038857806363ea1b921461039d57806369d42148146103b357600080fd5b80634e6fd6c4146102f357806352a630b9146103095780635a70ad28146103295780635baa75091461034557600080fd5b80631ec01fcd116101c15780631ec01fcd1461027e57806322f808d51461029e5780633f4ba83a146102be57806345596e2e146102d357600080fd5b8063104e9929146101f35780631249c58b1461021c5780631460e39014610226578063193a225c14610246575b600080fd5b3480156101ff57600080fd5b5061020960cf5481565b6040519081526020015b60405180910390f35b6102246105d8565b005b34801561023257600080fd5b50610224610241366004611cdf565b61075b565b34801561025257600080fd5b5060ca54610266906001600160a01b031681565b6040516001600160a01b039091168152602001610213565b34801561028a57600080fd5b5060c954610266906001600160a01b031681565b3480156102aa57600080fd5b5060cb54610266906001600160a01b031681565b3480156102ca57600080fd5b50610224610b8f565b3480156102df57600080fd5b506102246102ee366004611d5e565b610b9f565b3480156102ff57600080fd5b5061026661dead81565b34801561031557600080fd5b50610209610324366004611d77565b610bb3565b34801561033557600080fd5b50610209670de0b6b3a764000081565b34801561035157600080fd5b50610224610360366004611d5e565b610c48565b34801561037157600080fd5b5060975460ff166040519015158152602001610213565b34801561039457600080fd5b50610209610d55565b3480156103a957600080fd5b5061020960d25481565b3480156103bf57600080fd5b5060cd54610266906001600160a01b031681565b3480156103df57600080fd5b50610224610d6a565b3480156103f457600080fd5b50610224610403366004611d5e565b610d7c565b34801561041457600080fd5b50610224610423366004611d5e565b610ece565b34801561043457600080fd5b5061045c610443366004611d77565b60d3602052600090815260409020805460019091015482565b60408051928352602083019190915201610213565b34801561047d57600080fd5b50610224611030565b34801561049257600080fd5b506033546001600160a01b0316610266565b3480156104b057600080fd5b5061020960d05481565b3480156104c657600080fd5b5061020960d15481565b3480156104dc57600080fd5b506102096104eb366004611d5e565b611040565b3480156104fc57600080fd5b5061022461050b366004611d5e565b6110f9565b34801561051c57600080fd5b5061020961052b366004611d5e565b61124b565b34801561053c57600080fd5b5060ce54610266906001600160a01b031681565b34801561055c57600080fd5b5061022461056b366004611d5e565b6112ef565b610224611401565b34801561058457600080fd5b50610224610593366004611d77565b611492565b3480156105a457600080fd5b506102246105b3366004611d77565b6114a3565b3480156105c457600080fd5b5060cc54610266906001600160a01b031681565b6105e0611519565b6105e8611572565b348061060f5760405162461bcd60e51b815260040161060690611d99565b60405180910390fd5b600061061a8261124b565b90506000811161063c5760405162461bcd60e51b815260040161060690611d99565b8160cf5461064a9190611dd4565b60cf5560cb546040805163f6326fb360e01b815290516001600160a01b039092169163f6326fb3918591600480830192600092919082900301818588803b15801561069457600080fd5b505af11580156106a8573d6000803e3d6000fd5b505060ca546040516340c10f1960e01b8152336004820152602481018690526001600160a01b0390911693506340c10f1992506044019050600060405180830381600087803b1580156106fa57600080fd5b505af115801561070e573d6000803e3d6000fd5b505060408051858152602081018590523393507f73a19dd210f1a7f902193214c0ee91dd35ee5b4d920cba8d519eca65a7b488ca92500160405180910390a250506107596001606555565b565b600054610100900460ff161580801561077b5750600054600160ff909116105b806107955750303b158015610795575060005460ff166001145b6107f85760405162461bcd60e51b815260206004820152602e60248201527f496e697469616c697a61626c653a20636f6e747261637420697320616c72656160448201526d191e481a5b9a5d1a585b1a5e995960921b6064820152608401610606565b6000805460ff19166001179055801561081b576000805461ff0019166101001790555b6001600160a01b0388166108615760405162461bcd60e51b815260206004820152600d60248201526c496e76616c696420764554483160981b6044820152606401610606565b6001600160a01b0387166108a75760405162461bcd60e51b815260206004820152600d60248201526c24b73b30b634b2103b22aa241960991b6044820152606401610606565b6001600160a01b0386166108fd5760405162461bcd60e51b815260206004820152601b60248201527f496e76616c696420534c50206465706f736974206164647265737300000000006044820152606401610606565b6001600160a01b0385166109535760405162461bcd60e51b815260206004820152601960248201527f496e76616c6964204d4556207661756c742061646472657373000000000000006044820152606401610606565b6001600160a01b0384166109a95760405162461bcd60e51b815260206004820181905260248201527f496e76616c6964207769746864726177616c207661756c7420616464726573736044820152606401610606565b6000876001600160a01b03166318160ddd6040518163ffffffff1660e01b8152600401602060405180830381865afa1580156109e9573d6000803e3d6000fd5b505050506040513d601f19601f82011682018060405250810190610a0d9190611ded565b11610a5a5760405162461bcd60e51b815260206004820152601c60248201527f496e76616c696420746f74616c537570706c79206f66207645544832000000006044820152606401610606565b610a626115bf565b610a6a6115ee565b610a7261161d565b610a7b8261164c565b610a84836116d4565b60c980546001600160a01b03808b166001600160a01b03199283161790925560ca80548a8416908316811790915560cb80548a851690841617905560cc805489851690841617905560cd805493881693909216929092179055604080516318160ddd60e01b815290516318160ddd916004808201926020929091908290030181865afa158015610b18573d6000803e3d6000fd5b505050506040513d601f19601f82011682018060405250810190610b3c9190611ded565b60cf558015610b85576000805461ff0019169055604051600181527f7f26b83ff96e1f2b6a682f133852f6798a09c465da95921460cefb38474024989060200160405180910390a15b5050505050505050565b610b9761177a565b6107596117d4565b610ba761177a565b610bb08161164c565b50565b6001600160a01b038116600090815260d360209081526040808320815180830190925280548083526001909101549282019290925290610bf1610d55565b11610bff5750600092915050565b8051600090610c0c610d55565b610c169190611e06565b9050804710610c255780610c27565b475b905080826020015110610c3a5780610c40565b81602001515b949350505050565b610c50611519565b60008111610c705760405162461bcd60e51b815260040161060690611d99565b806000610c7c8261124b565b90508160cf54610c8c9190611dd4565b60cf5560c954610ca9906001600160a01b03163361dead85611826565b60ca546040516340c10f1960e01b8152336004820152602481018390526001600160a01b03909116906340c10f1990604401600060405180830381600087803b158015610cf557600080fd5b505af1158015610d09573d6000803e3d6000fd5b505060408051858152602081018590523393507f9f1eab6cdd1daff5126e5746868327717314baefd3abd72422a3064e1300279c9250015b60405180910390a25050610bb06001606555565b600060d25447610d659190611dd4565b905090565b610d7261177a565b6107596000611886565b610d84611519565b610d8c611572565b60008111610dac5760405162461bcd60e51b815260040161060690611d99565b33600090815260d36020526040812090610dc583611040565b905060008111610de75760405162461bcd60e51b815260040161060690611d99565b816001015460d154610df99190611e06565b82556001820154610e0b908290611dd4565b600183015560d154610e1e908290611dd4565b60d15560cf54610e2f908290611e06565b60cf5560ca54604051632770a7eb60e21b8152336004820152602481018590526001600160a01b0390911690639dc29fac90604401600060405180830381600087803b158015610e7e57600080fd5b505af1158015610e92573d6000803e3d6000fd5b505060408051848152602081018790523393507f24b91f4f47caf44230a57777a9be744924e82bf666f2d5702faf97df35e60f9f925001610d41565b60cc546001600160a01b0316331480610ef1575060cd546001600160a01b031633145b610f3d5760405162461bcd60e51b815260206004820152601c60248201527f43616c6c6572206973206e6f74207661756c7420636f6e7472616374000000006044820152606401610606565b610f45611572565b6000670de0b6b3a764000060d05483610f5e9190611e19565b610f689190611e30565b90506000610f758261124b565b90508260cf54610f859190611dd4565b60cf5560ca5460ce546040516340c10f1960e01b81526001600160a01b039182166004820152602481018490529116906340c10f1990604401600060405180830381600087803b158015610fd857600080fd5b505af1158015610fec573d6000803e3d6000fd5b505060408051868152602081018590523393507f6a6f77044107a33658235d41bedbbaf2fe9ccdceb313143c947a5e76e1ec847492500160405180910390a2505050565b61103861177a565b6107596118d8565b60008060ca60009054906101000a90046001600160a01b03166001600160a01b03166318160ddd6040518163ffffffff1660e01b8152600401602060405180830381865afa158015611096573d6000803e3d6000fd5b505050506040513d601f19601f820116820180604052508101906110ba9190611ded565b9050801580156110ca575060cf54155b156110d7578291506110f3565b8060cf54846110e69190611e19565b6110f09190611e30565b91505b50919050565b611101611519565b33600090815260d3602052604081209082900361112057806001015491505b80600101548211156111745760405162461bcd60e51b815260206004820152601760248201527f457863656564207065726d697474656420616d6f756e740000000000000000006044820152606401610606565b61117d33610bb3565b8211156111cc5760405162461bcd60e51b815260206004820152601e60248201527f496e73756666696369656e74207769746864726177616c20616d6f756e7400006044820152606401610606565b8181600101546111dc9190611e06565b600182015580546111ee908390611dd4565b815560d2546111fe908390611dd4565b60d25561120b3383611915565b60405182815233907f1a39b9c5044b9f0ff56c5951e30c1ebe24911353aafcceb9250e83a24fe158c49060200160405180910390a250610bb06001606555565b60008060ca60009054906101000a90046001600160a01b03166001600160a01b03166318160ddd6040518163ffffffff1660e01b8152600401602060405180830381865afa1580156112a1573d6000803e3d6000fd5b505050506040513d601f19601f820116820180604052508101906112c59190611ded565b9050801580156112d5575060cf54155b156112e2578291506110f3565b60cf546110e68285611e19565b60cc546001600160a01b0316331480611312575060cd546001600160a01b031633145b61135e5760405162461bcd60e51b815260206004820152601c60248201527f43616c6c6572206973206e6f74207661756c7420636f6e7472616374000000006044820152606401610606565b611366611572565b8060cf54116113b75760405162461bcd60e51b815260206004820152601860248201527f496e73756666696369656e7420706f6f6c20616d6f756e7400000000000000006044820152606401610606565b8060cf546113c59190611e06565b60cf5560405181815233907fccdd1b4597f1516187e25b38fbad3e75a428981d2a1d898667abb3cdd95a672f906020015b60405180910390a250565b60cd546001600160a01b0316331461145b5760405162461bcd60e51b815260206004820181905260248201527f496e76616c6964207769746864726177616c207661756c7420616464726573736044820152606401610606565b60405134815233907f0a89b53a0597c8291bcd6a87acb5dc18d0123915629a55c470bfbfd4680f591e9060200160405180910390a2565b61149a61177a565b610bb0816116d4565b6114ab61177a565b6001600160a01b0381166115105760405162461bcd60e51b815260206004820152602660248201527f4f776e61626c653a206e6577206f776e657220697320746865207a65726f206160448201526564647265737360d01b6064820152608401610606565b610bb081611886565b60026065540361156b5760405162461bcd60e51b815260206004820152601f60248201527f5265656e7472616e637947756172643a207265656e7472616e742063616c6c006044820152606401610606565b6002606555565b60975460ff16156107595760405162461bcd60e51b815260206004820152601060248201526f14185d5cd8589b194e881c185d5cd95960821b6044820152606401610606565b6001606555565b600054610100900460ff166115e65760405162461bcd60e51b815260040161060690611e52565b6107596119fb565b600054610100900460ff166116155760405162461bcd60e51b815260040161060690611e52565b610759611a2b565b600054610100900460ff166116445760405162461bcd60e51b815260040161060690611e52565b610759611a52565b670de0b6b3a764000081111561169d5760405162461bcd60e51b8152602060048201526016602482015275466565207261746520657863656564732072616e676560501b6044820152606401610606565b60d081905560405181815233907f021ec04e349d47f898250a9525e5ab79abae4d9a0a3f0e6c5a5d61f3a8b87378906020016113f6565b6001600160a01b03811661172a5760405162461bcd60e51b815260206004820152601c60248201527f496e76616c6964206665652072656365697665722061646472657373000000006044820152606401610606565b60ce80546001600160a01b0319166001600160a01b03831690811790915560405190815233907f49bc8f1c292131e71bfca22660d0716072ff2442b58d72840474dd83a390411c906020016113f6565b6033546001600160a01b031633146107595760405162461bcd60e51b815260206004820181905260248201527f4f776e61626c653a2063616c6c6572206973206e6f7420746865206f776e65726044820152606401610606565b6117dc611a85565b6097805460ff191690557f5db9ee0a495bf2e6ff9c91a7834c1ba4fdd244a5e8aa4e537bd38aeae4b073aa335b6040516001600160a01b03909116815260200160405180910390a1565b604080516001600160a01b0385811660248301528416604482015260648082018490528251808303909101815260849091019091526020810180516001600160e01b03166323b872dd60e01b179052611880908590611ace565b50505050565b603380546001600160a01b038381166001600160a01b0319831681179093556040519116919082907f8be0079c531659141344cd1fd0a4f28419497f9722a3daafe3b4186f6b6457e090600090a35050565b6118e0611572565b6097805460ff191660011790557f62e78cea01bee320cd4e420270b5ea74000d11b0c9f74754ebdbfc544b05a2586118093390565b8047101561195c5760405162461bcd60e51b8152602060048201526014602482015273496e73756666696369656e742062616c616e636560601b6044820152606401610606565b6000826001600160a01b03168260405160006040518083038185875af1925050503d80600081146119a9576040519150601f19603f3d011682016040523d82523d6000602084013e6119ae565b606091505b50509050806119f65760405162461bcd60e51b8152602060048201526014602482015273556e61626c6520746f2073656e642076616c756560601b6044820152606401610606565b505050565b600054610100900460ff16611a225760405162461bcd60e51b815260040161060690611e52565b61075933611886565b600054610100900460ff166115b85760405162461bcd60e51b815260040161060690611e52565b600054610100900460ff16611a795760405162461bcd60e51b815260040161060690611e52565b6097805460ff19169055565b60975460ff166107595760405162461bcd60e51b815260206004820152601460248201527314185d5cd8589b194e881b9bdd081c185d5cd95960621b6044820152606401610606565b6000611b23826040518060400160405280602081526020017f5361666545524332303a206c6f772d6c6576656c2063616c6c206661696c6564815250856001600160a01b0316611ba09092919063ffffffff16565b8051909150156119f65780806020019051810190611b419190611e9d565b6119f65760405162461bcd60e51b815260206004820152602a60248201527f5361666545524332303a204552433230206f7065726174696f6e20646964206e6044820152691bdd081cdd58d8d9595960b21b6064820152608401610606565b6060610c40848460008585600080866001600160a01b03168587604051611bc79190611ee3565b60006040518083038185875af1925050503d8060008114611c04576040519150601f19603f3d011682016040523d82523d6000602084013e611c09565b606091505b5091509150611c1a87838387611c25565b979650505050505050565b60608315611c94578251600003611c8d576001600160a01b0385163b611c8d5760405162461bcd60e51b815260206004820152601d60248201527f416464726573733a2063616c6c20746f206e6f6e2d636f6e74726163740000006044820152606401610606565b5081610c40565b610c408383815115611ca95781518083602001fd5b8060405162461bcd60e51b81526004016106069190611eff565b80356001600160a01b0381168114611cda57600080fd5b919050565b600080600080600080600060e0888a031215611cfa57600080fd5b611d0388611cc3565b9650611d1160208901611cc3565b9550611d1f60408901611cc3565b9450611d2d60608901611cc3565b9350611d3b60808901611cc3565b9250611d4960a08901611cc3565b915060c0880135905092959891949750929550565b600060208284031215611d7057600080fd5b5035919050565b600060208284031215611d8957600080fd5b611d9282611cc3565b9392505050565b6020808252600b908201526a16995c9bc8185b5bdd5b9d60aa1b604082015260600190565b634e487b7160e01b600052601160045260246000fd5b80820180821115611de757611de7611dbe565b92915050565b600060208284031215611dff57600080fd5b5051919050565b81810381811115611de757611de7611dbe565b8082028115828204841417611de757611de7611dbe565b600082611e4d57634e487b7160e01b600052601260045260246000fd5b500490565b6020808252602b908201527f496e697469616c697a61626c653a20636f6e7472616374206973206e6f74206960408201526a6e697469616c697a696e6760a81b606082015260800190565b600060208284031215611eaf57600080fd5b81518015158114611d9257600080fd5b60005b83811015611eda578181015183820152602001611ec2565b50506000910152565b60008251611ef5818460208701611ebf565b9190910192915050565b6020815260008251806020840152611f1e816040850160208701611ebf565b601f01601f1916919091016040019291505056fea2646970667358221220526f6518a1b03e011da73a9628a2e609fd0fcfebde247a1a0048f4e18486b4be64736f6c63430008110033",
  "devdoc": {
    "kind": "dev",
    "methods": {
      "owner()": {
        "details": "Returns the address of the current owner."
      },
      "paused()": {
        "details": "Returns true if the contract is paused, and false otherwise."
      },
      "renounceOwnership()": {
        "details": "Leaves the contract without owner. It will not be possible to call `onlyOwner` functions anymore. Can only be called by the current owner. NOTE: Renouncing ownership will leave the contract without an owner, thereby removing any functionality that is only available to the owner."
      },
      "transferOwnership(address)": {
        "details": "Transfers ownership of the contract to a new account (`newOwner`). Can only be called by the current owner."
      }
    },
    "version": 1
  },
  "userdoc": {
    "kind": "user",
    "methods": {},
    "version": 1
  },
  "storageLayout": {
    "storage": [
      {
        "astId": 138,
        "contract": "contracts/SLPCore.sol:SLPCore",
        "label": "_initialized",
        "offset": 0,
        "slot": "0",
        "type": "t_uint8"
      },
      {
        "astId": 141,
        "contract": "contracts/SLPCore.sol:SLPCore",
        "label": "_initializing",
        "offset": 1,
        "slot": "0",
        "type": "t_bool"
      },
      {
        "astId": 1220,
        "contract": "contracts/SLPCore.sol:SLPCore",
        "label": "__gap",
        "offset": 0,
        "slot": "1",
        "type": "t_array(t_uint256)50_storage"
      },
      {
        "astId": 10,
        "contract": "contracts/SLPCore.sol:SLPCore",
        "label": "_owner",
        "offset": 0,
        "slot": "51",
        "type": "t_address"
      },
      {
        "astId": 130,
        "contract": "contracts/SLPCore.sol:SLPCore",
        "label": "__gap",
        "offset": 0,
        "slot": "52",
        "type": "t_array(t_uint256)49_storage"
      },
      {
        "astId": 441,
        "contract": "contracts/SLPCore.sol:SLPCore",
        "label": "_status",
        "offset": 0,
        "slot": "101",
        "type": "t_uint256"
      },
      {
        "astId": 499,
        "contract": "contracts/SLPCore.sol:SLPCore",
        "label": "__gap",
        "offset": 0,
        "slot": "102",
        "type": "t_array(t_uint256)49_storage"
      },
      {
        "astId": 321,
        "contract": "contracts/SLPCore.sol:SLPCore",
        "label": "_paused",
        "offset": 0,
        "slot": "151",
        "type": "t_bool"
      },
      {
        "astId": 426,
        "contract": "contracts/SLPCore.sol:SLPCore",
        "label": "__gap",
        "offset": 0,
        "slot": "152",
        "type": "t_array(t_uint256)49_storage"
      },
      {
        "astId": 1846,
        "contract": "contracts/SLPCore.sol:SLPCore",
        "label": "vETH1",
        "offset": 0,
        "slot": "201",
        "type": "t_address"
      },
      {
        "astId": 1848,
        "contract": "contracts/SLPCore.sol:SLPCore",
        "label": "vETH2",
        "offset": 0,
        "slot": "202",
        "type": "t_address"
      },
      {
        "astId": 1850,
        "contract": "contracts/SLPCore.sol:SLPCore",
        "label": "slpDeposit",
        "offset": 0,
        "slot": "203",
        "type": "t_address"
      },
      {
        "astId": 1852,
        "contract": "contracts/SLPCore.sol:SLPCore",
        "label": "mevVault",
        "offset": 0,
        "slot": "204",
        "type": "t_address"
      },
      {
        "astId": 1854,
        "contract": "contracts/SLPCore.sol:SLPCore",
        "label": "withdrawalVault",
        "offset": 0,
        "slot": "205",
        "type": "t_address"
      },
      {
        "astId": 1856,
        "contract": "contracts/SLPCore.sol:SLPCore",
        "label": "feeReceiver",
        "offset": 0,
        "slot": "206",
        "type": "t_address"
      },
      {
        "astId": 1858,
        "contract": "contracts/SLPCore.sol:SLPCore",
        "label": "tokenPool",
        "offset": 0,
        "slot": "207",
        "type": "t_uint256"
      },
      {
        "astId": 1860,
        "contract": "contracts/SLPCore.sol:SLPCore",
        "label": "feeRate",
        "offset": 0,
        "slot": "208",
        "type": "t_uint256"
      },
      {
        "astId": 1862,
        "contract": "contracts/SLPCore.sol:SLPCore",
        "label": "queuedWithdrawal",
        "offset": 0,
        "slot": "209",
        "type": "t_uint256"
      },
      {
        "astId": 1864,
        "contract": "contracts/SLPCore.sol:SLPCore",
        "label": "completedWithdrawal",
        "offset": 0,
        "slot": "210",
        "type": "t_uint256"
      },
      {
        "astId": 1869,
        "contract": "contracts/SLPCore.sol:SLPCore",
        "label": "withdrawals",
        "offset": 0,
        "slot": "211",
        "type": "t_mapping(t_address,t_struct(Withdrawal)1776_storage)"
      }
    ],
    "types": {
      "t_address": {
        "encoding": "inplace",
        "label": "address",
        "numberOfBytes": "20"
      },
      "t_array(t_uint256)49_storage": {
        "base": "t_uint256",
        "encoding": "inplace",
        "label": "uint256[49]",
        "numberOfBytes": "1568"
      },
      "t_array(t_uint256)50_storage": {
        "base": "t_uint256",
        "encoding": "inplace",
        "label": "uint256[50]",
        "numberOfBytes": "1600"
      },
      "t_bool": {
        "encoding": "inplace",
        "label": "bool",
        "numberOfBytes": "1"
      },
      "t_mapping(t_address,t_struct(Withdrawal)1776_storage)": {
        "encoding": "mapping",
        "key": "t_address",
        "label": "mapping(address => struct SLPCore.Withdrawal)",
        "numberOfBytes": "32",
        "value": "t_struct(Withdrawal)1776_storage"
      },
      "t_struct(Withdrawal)1776_storage": {
        "encoding": "inplace",
        "label": "struct SLPCore.Withdrawal",
        "members": [
          {
            "astId": 1773,
            "contract": "contracts/SLPCore.sol:SLPCore",
            "label": "queued",
            "offset": 0,
            "slot": "0",
            "type": "t_uint256"
          },
          {
            "astId": 1775,
            "contract": "contracts/SLPCore.sol:SLPCore",
            "label": "pending",
            "offset": 0,
            "slot": "1",
            "type": "t_uint256"
          }
        ],
        "numberOfBytes": "64"
      },
      "t_uint256": {
        "encoding": "inplace",
        "label": "uint256",
        "numberOfBytes": "32"
      },
      "t_uint8": {
        "encoding": "inplace",
        "label": "uint8",
        "numberOfBytes": "1"
      }
    }
  }
}