{
  "address": "0xcc8Ea2508749E0ad061fF9dfd2017E939E664b99",
  "abi": [
    {
      "anonymous": false,
      "inputs": [
        {
          "indexed": true,
          "internalType": "address",
          "name": "sender",
          "type": "address"
        },
        {
          "indexed": false,
          "internalType": "uint256",
          "name": "tokenAmount",
          "type": "uint256"
        }
      ],
      "name": "EthDeposited",
      "type": "event"
    },
    {
      "anonymous": false,
      "inputs": [
        {
          "indexed": false,
          "internalType": "uint8",
          "name": "version",
          "type": "uint8"
        }
      ],
      "name": "Initialized",
      "type": "event"
    },
    {
      "anonymous": false,
      "inputs": [
        {
          "indexed": true,
          "internalType": "address",
          "name": "sender",
          "type": "address"
        },
        {
          "indexed": true,
          "internalType": "uint256",
          "name": "batchId",
          "type": "uint256"
        },
        {
          "indexed": false,
          "internalType": "bytes32",
          "name": "merkleRoot",
          "type": "bytes32"
        }
      ],
      "name": "MerkleRootSet",
      "type": "event"
    },
    {
      "anonymous": false,
      "inputs": [
        {
          "indexed": true,
          "internalType": "address",
          "name": "previousOwner",
          "type": "address"
        },
        {
          "indexed": true,
          "internalType": "address",
          "name": "newOwner",
          "type": "address"
        }
      ],
      "name": "OwnershipTransferred",
      "type": "event"
    },
    {
      "anonymous": false,
      "inputs": [
        {
          "indexed": true,
          "internalType": "address",
          "name": "sender",
          "type": "address"
        },
        {
          "indexed": false,
          "internalType": "address",
          "name": "slpCore",
          "type": "address"
        }
      ],
      "name": "SLPCoreSet",
      "type": "event"
    },
    {
      "anonymous": false,
      "inputs": [
        {
          "indexed": true,
          "internalType": "address",
          "name": "sender",
          "type": "address"
        },
        {
          "indexed": false,
          "internalType": "bytes",
          "name": "withdrawalCredentials",
          "type": "bytes"
        }
      ],
      "name": "WithdrawalCredentialsSet",
      "type": "event"
    },
    {
      "inputs": [],
      "name": "DEPOSIT_SIZE",
      "outputs": [
        {
          "internalType": "uint256",
          "name": "",
          "type": "uint256"
        }
      ],
      "stateMutability": "view",
      "type": "function"
    },
    {
      "inputs": [],
      "name": "DEPOSIT_SIZE_IN_GWEI_LE64",
      "outputs": [
        {
          "internalType": "uint64",
          "name": "",
          "type": "uint64"
        }
      ],
      "stateMutability": "view",
      "type": "function"
    },
    {
      "inputs": [],
      "name": "MAX_VALIDATORS_PER_DEPOSIT",
      "outputs": [
        {
          "internalType": "uint256",
          "name": "",
          "type": "uint256"
        }
      ],
      "stateMutability": "view",
      "type": "function"
    },
    {
      "inputs": [
        {
          "components": [
            {
              "internalType": "bytes",
              "name": "pubkey",
              "type": "bytes"
            },
            {
              "internalType": "bytes",
              "name": "withdrawal_credentials",
              "type": "bytes"
            },
            {
              "internalType": "bytes",
              "name": "signature",
              "type": "bytes"
            },
            {
              "internalType": "bytes32",
              "name": "deposit_data_root",
              "type": "bytes32"
            }
          ],
          "internalType": "struct SLPDeposit.Validator[]",
          "name": "validators",
          "type": "tuple[]"
        }
      ],
      "name": "batchDeposit",
      "outputs": [],
      "stateMutability": "nonpayable",
      "type": "function"
    },
    {
      "inputs": [
        {
          "internalType": "uint256",
          "name": "batchId",
          "type": "uint256"
        },
        {
          "internalType": "bytes32[]",
          "name": "proof",
          "type": "bytes32[]"
        },
        {
          "internalType": "bool[]",
          "name": "proofFlags",
          "type": "bool[]"
        },
        {
          "components": [
            {
              "internalType": "bytes",
              "name": "pubkey",
              "type": "bytes"
            },
            {
              "internalType": "bytes",
              "name": "withdrawal_credentials",
              "type": "bytes"
            },
            {
              "internalType": "bytes",
              "name": "signature",
              "type": "bytes"
            },
            {
              "internalType": "bytes32",
              "name": "deposit_data_root",
              "type": "bytes32"
            }
          ],
          "internalType": "struct SLPDeposit.Validator[]",
          "name": "validators",
          "type": "tuple[]"
        }
      ],
      "name": "batchDepositWithProof",
      "outputs": [],
      "stateMutability": "nonpayable",
      "type": "function"
    },
    {
      "inputs": [
        {
          "components": [
            {
              "internalType": "bytes",
              "name": "pubkey",
              "type": "bytes"
            },
            {
              "internalType": "bytes",
              "name": "withdrawal_credentials",
              "type": "bytes"
            },
            {
              "internalType": "bytes",
              "name": "signature",
              "type": "bytes"
            },
            {
              "internalType": "bytes32",
              "name": "deposit_data_root",
              "type": "bytes32"
            }
          ],
          "internalType": "struct SLPDeposit.Validator",
          "name": "validator",
          "type": "tuple"
        }
      ],
      "name": "checkDepositDataRoot",
      "outputs": [
        {
          "internalType": "bool",
          "name": "",
          "type": "bool"
        }
      ],
      "stateMutability": "view",
      "type": "function"
    },
    {
      "inputs": [],
      "name": "depositContract",
      "outputs": [
        {
          "internalType": "contract IDepositContract",
          "name": "",
          "type": "address"
        }
      ],
      "stateMutability": "view",
      "type": "function"
    },
    {
      "inputs": [],
      "name": "depositETH",
      "outputs": [],
      "stateMutability": "payable",
      "type": "function"
    },
    {
      "inputs": [
        {
          "internalType": "bytes",
          "name": "pubkey",
          "type": "bytes"
        },
        {
          "internalType": "bytes",
          "name": "signature",
          "type": "bytes"
        }
      ],
      "name": "getValidatorData",
      "outputs": [
        {
          "components": [
            {
              "internalType": "bytes",
              "name": "pubkey",
              "type": "bytes"
            },
            {
              "internalType": "bytes",
              "name": "withdrawal_credentials",
              "type": "bytes"
            },
            {
              "internalType": "bytes",
              "name": "signature",
              "type": "bytes"
            },
            {
              "internalType": "bytes32",
              "name": "deposit_data_root",
              "type": "bytes32"
            }
          ],
          "internalType": "struct SLPDeposit.Validator",
          "name": "",
          "type": "tuple"
        }
      ],
      "stateMutability": "view",
      "type": "function"
    },
    {
      "inputs": [
        {
          "internalType": "address",
          "name": "_depositContract",
          "type": "address"
        }
      ],
      "name": "initialize",
      "outputs": [],
      "stateMutability": "nonpayable",
      "type": "function"
    },
    {
      "inputs": [
        {
          "internalType": "uint256",
          "name": "",
          "type": "uint256"
        }
      ],
      "name": "merkleRoots",
      "outputs": [
        {
          "internalType": "bytes32",
          "name": "",
          "type": "bytes32"
        }
      ],
      "stateMutability": "view",
      "type": "function"
    },
    {
      "inputs": [],
      "name": "owner",
      "outputs": [
        {
          "internalType": "address",
          "name": "",
          "type": "address"
        }
      ],
      "stateMutability": "view",
      "type": "function"
    },
    {
      "inputs": [],
      "name": "renounceOwnership",
      "outputs": [],
      "stateMutability": "nonpayable",
      "type": "function"
    },
    {
      "inputs": [
        {
          "internalType": "address",
          "name": "receiver",
          "type": "address"
        }
      ],
      "name": "setCredential",
      "outputs": [],
      "stateMutability": "nonpayable",
      "type": "function"
    },
    {
      "inputs": [
        {
          "internalType": "uint256",
          "name": "batchId",
          "type": "uint256"
        },
        {
          "internalType": "bytes32",
          "name": "merkleRoot",
          "type": "bytes32"
        }
      ],
      "name": "setMerkleRoot",
      "outputs": [],
      "stateMutability": "nonpayable",
      "type": "function"
    },
    {
      "inputs": [
        {
          "internalType": "address",
          "name": "_slpCore",
          "type": "address"
        }
      ],
      "name": "setSLPCore",
      "outputs": [],
      "stateMutability": "nonpayable",
      "type": "function"
    },
    {
      "inputs": [
        {
          "internalType": "address",
          "name": "_withdrawVault",
          "type": "address"
        }
      ],
      "name": "setWithdrawVault",
      "outputs": [],
      "stateMutability": "nonpayable",
      "type": "function"
    },
    {
      "inputs": [],
      "name": "slpCore",
      "outputs": [
        {
          "internalType": "address",
          "name": "",
          "type": "address"
        }
      ],
      "stateMutability": "view",
      "type": "function"
    },
    {
      "inputs": [
        {
          "internalType": "address",
          "name": "newOwner",
          "type": "address"
        }
      ],
      "name": "transferOwnership",
      "outputs": [],
      "stateMutability": "nonpayable",
      "type": "function"
    },
    {
      "inputs": [
        {
          "internalType": "address",
          "name": "recipient",
          "type": "address"
        },
        {
          "internalType": "uint256",
          "name": "amount",
          "type": "uint256"
        }
      ],
      "name": "withdrawETH",
      "outputs": [],
      "stateMutability": "nonpayable",
      "type": "function"
    },
    {
      "inputs": [],
      "name": "withdrawVault",
      "outputs": [
        {
          "internalType": "address",
          "name": "",
          "type": "address"
        }
      ],
      "stateMutability": "view",
      "type": "function"
    },
    {
      "inputs": [],
      "name": "withdrawalCredentials",
      "outputs": [
        {
          "internalType": "bytes",
          "name": "",
          "type": "bytes"
        }
      ],
      "stateMutability": "view",
      "type": "function"
    }
  ],
  "transactionHash": "0x709b9fcfd7522e012ee1c246381dce0aba041a0fdb11d3b96a6a10c868dcdf57",
  "args": [],
  "numDeployments": 1,
  "solcInputHash": "0e30b9399d3231b0e50e4e475b9b95be",
  "bytecode": "0x608060405234801561001057600080fd5b50612226806100206000396000f3fe60806040526004361061011e5760003560e01c806371c5ecb1116100a0578063e94ad65b11610064578063e94ad65b14610331578063ea01363b14610351578063f2fde38b14610381578063f345e584146103a1578063f6326fb3146103d457600080fd5b806371c5ecb1146102725780638da5cb5b1461029f578063a5971759146102d1578063b431a501146102f1578063c4d66de81461031157600080fd5b80634782f779116100e75780634782f779146101e65780634cd79e0a14610206578063620f4e45146102285780636d9102951461023d578063715018a61461025d57600080fd5b806257d87714610123578063159de7281461015957806318712c211461017b57806336bf33251461019b5780633851daf3146101c6575b600080fd5b34801561012f57600080fd5b5061014361013e36600461179a565b6103dc565b6040516101509190611855565b60405180910390f35b34801561016557600080fd5b506101796101743660046118e0565b61086a565b005b34801561018757600080fd5b506101796101963660046118fb565b61091f565b3480156101a757600080fd5b506101b86801bc16d674ec80000081565b604051908152602001610150565b3480156101d257600080fd5b506101796101e136600461191d565b610a0e565b3480156101f257600080fd5b50610179610201366004611991565b610bc0565b34801561021257600080fd5b5061021b610c23565b60405161015091906119bb565b34801561023457600080fd5b506101b8603281565b34801561024957600080fd5b506101796102583660046118e0565b610cb1565b34801561026957600080fd5b50610179610d82565b34801561027e57600080fd5b506101b861028d3660046119ce565b60666020526000908152604090205481565b3480156102ab57600080fd5b506033546001600160a01b03165b6040516001600160a01b039091168152602001610150565b3480156102dd57600080fd5b506101796102ec366004611c70565b610d96565b3480156102fd57600080fd5b506067546102b9906001600160a01b031681565b34801561031d57600080fd5b5061017961032c3660046118e0565b610f84565b34801561033d57600080fd5b506065546102b9906001600160a01b031681565b34801561035d57600080fd5b5061037161036c366004611d58565b611106565b6040519015158152602001610150565b34801561038d57600080fd5b5061017961039c3660046118e0565b611135565b3480156103ad57600080fd5b506103bc664059730700000081565b6040516001600160401b039091168152602001610150565b6101796111ae565b61040a6040518060800160405280606081526020016060815260200160608152602001600080191681525090565b600060028686600060801b60405160200161042793929190611d92565b60408051601f198184030181529082905261044191611db9565b602060405180830381855afa15801561045e573d6000803e3d6000fd5b5050506040513d601f19601f820116820180604052508101906104819190611dd5565b90506000600280610495604084888a611dee565b6040516020016104a6929190611e18565b60408051601f19818403018152908290526104c091611db9565b602060405180830381855afa1580156104dd573d6000803e3d6000fd5b5050506040513d601f19601f820116820180604052508101906105009190611dd5565b600261050f876040818b611dee565b604051610523929190600090602001611e28565b60408051601f198184030181529082905261053d91611db9565b602060405180830381855afa15801561055a573d6000803e3d6000fd5b5050506040513d601f19601f8201168201806040525081019061057d9190611dd5565b60408051602081019390935282015260600160408051601f19818403018152908290526105a991611db9565b602060405180830381855afa1580156105c6573d6000803e3d6000fd5b5050506040513d601f19601f820116820180604052508101906105e99190611dd5565b90506000600280846068604051602001610604929190611e74565b60408051601f198184030181529082905261061e91611db9565b602060405180830381855afa15801561063b573d6000803e3d6000fd5b5050506040513d601f19601f8201168201806040525081019061065e9190611dd5565b60408051634059730760d81b60208201526000602882015290810185905260029060600160408051601f198184030181529082905261069c91611db9565b602060405180830381855afa1580156106b9573d6000803e3d6000fd5b5050506040513d601f19601f820116820180604052508101906106dc9190611dd5565b60408051602081019390935282015260600160408051601f198184030181529082905261070891611db9565b602060405180830381855afa158015610725573d6000803e3d6000fd5b5050506040513d601f19601f820116820180604052508101906107489190611dd5565b6040805160a06020601f8c018190040282018101909252608081018a81529293509182918b908b90819085018382808284376000920191909152505050908252506068805460209092019161079c90611e3a565b80601f01602080910402602001604051908101604052809291908181526020018280546107c890611e3a565b80156108155780601f106107ea57610100808354040283529160200191610815565b820191906000526020600020905b8154815290600101906020018083116107f857829003601f168201915b5050505050815260200187878080601f01602080910402602001604051908101604052809392919081815260200183838082843760009201919091525050509082525060200191909152979650505050505050565b6108726111e5565b6001600160a01b0381166108c85760405162461bcd60e51b8152602060048201526018602482015277496e76616c696420534c5020636f7265206164647265737360401b60448201526064015b60405180910390fd5b606780546001600160a01b0319166001600160a01b03831690811790915560405190815233907fa5d340708c2045ce2d4e31ab8dec9915a3d8293f35b5d94f424166483d1cba54906020015b60405180910390a250565b6109276111e5565b600082815260666020526040902054156109785760405162461bcd60e51b81526020600482015260126024820152714d65726b6c6520726f6f742065786973747360701b60448201526064016108bf565b806109bb5760405162461bcd60e51b8152602060048201526013602482015272125b9d985b1a59081b595c9adb19481c9bdbdd606a1b60448201526064016108bf565b6000828152606660205260409081902082905551829033907f65dd2f7d58c69c8d59ad3ac133a4bb9421b89fa8b769eb3aee74999c2db8bf4590610a029085815260200190565b60405180910390a35050565b610a166111e5565b6032811115610a5d5760405162461bcd60e51b8152602060048201526013602482015272546f6f206d616e792076616c696461746f727360681b60448201526064016108bf565b606860008154610a6c90611e3a565b8110610a7a57610a7a611ef7565b815460011615610a995790600052602060002090602091828204019190065b9054901a600160f81b026001600160f81b031916600160f81b14610aff5760405162461bcd60e51b815260206004820152601760248201527f57726f6e672063726564656e7469616c2070726566697800000000000000000060448201526064016108bf565b60005b81811015610bbb57610b31838383818110610b1f57610b1f611ef7565b905060200281019061036c9190611f0d565b610b745760405162461bcd60e51b8152602060048201526014602482015273496e76616c6964206465706f736974206461746160601b60448201526064016108bf565b610ba9838383818110610b8957610b89611ef7565b9050602002810190610b9b9190611f0d565b610ba490611f23565b61123f565b80610bb381611f45565b915050610b02565b505050565b6067546001600160a01b03163314610c155760405162461bcd60e51b8152602060048201526018602482015277496e76616c696420534c5020636f7265206164647265737360401b60448201526064016108bf565b610c1f8282611315565b5050565b60688054610c3090611e3a565b80601f0160208091040260200160405190810160405280929190818152602001828054610c5c90611e3a565b8015610ca95780601f10610c7e57610100808354040283529160200191610ca9565b820191906000526020600020905b815481529060010190602001808311610c8c57829003601f168201915b505050505081565b610cb96111e5565b6001600160a01b038116610d025760405162461bcd60e51b815260206004820152601060248201526f24b73b30b634b2103932b1b2b4bb32b960811b60448201526064016108bf565b60408051600160f81b60208201526bffffffffffffffffffffffff19606084901b16602c8201520160405160208183030381529060405260689081610d479190611fa4565b50336001600160a01b03167fe9e279ef3cf5ce2e10345d8f261f07bff3a6867406e29b321faa977ba783840060686040516109149190612063565b610d8a6111e5565b610d9460006113f6565b565b610d9e6111e5565b603281511115610de65760405162461bcd60e51b8152602060048201526013602482015272546f6f206d616e792076616c696461746f727360681b60448201526064016108bf565b60008481526066602052604090205480610e3b5760405162461bcd60e51b81526020600482015260166024820152754d65726b6c6520726f6f74206e6f742065786973747360501b60448201526064016108bf565b600082516001600160401b03811115610e5657610e566119e7565b604051908082528060200260200182016040528015610e7f578160200160208202803683370190505b50905060005b8351811015610ee257838181518110610ea057610ea0611ef7565b60200260200101516020015180519060200120828281518110610ec557610ec5611ef7565b602090810291909101015280610eda81611f45565b915050610e85565b50610eef85858484611448565b610f3b5760405162461bcd60e51b815260206004820181905260248201527f4d65726b6c652070726f6f6620766572696669636174696f6e206661696c656460448201526064016108bf565b60005b8351811015610f7b57610f69848281518110610f5c57610f5c611ef7565b602002602001015161123f565b80610f7381611f45565b915050610f3e565b50505050505050565b600054610100900460ff1615808015610fa45750600054600160ff909116105b80610fbe5750303b158015610fbe575060005460ff166001145b6110215760405162461bcd60e51b815260206004820152602e60248201527f496e697469616c697a61626c653a20636f6e747261637420697320616c72656160448201526d191e481a5b9a5d1a585b1a5e995960921b60648201526084016108bf565b6000805460ff191660011790558015611044576000805461ff0019166101001790555b6001600160a01b03821661109a5760405162461bcd60e51b815260206004820152601860248201527f496e76616c6964206465706f73697420636f6e7472616374000000000000000060448201526064016108bf565b6110a2611460565b606580546001600160a01b0319166001600160a01b0384161790558015610c1f576000805461ff0019169055604051600181527f7f26b83ff96e1f2b6a682f133852f6798a09c465da95921460cefb38474024989060200160405180910390a15050565b60008061112361111684806120ee565b61013e60408701876120ee565b60609081015193013590921492915050565b61113d6111e5565b6001600160a01b0381166111a25760405162461bcd60e51b815260206004820152602660248201527f4f776e61626c653a206e6577206f776e657220697320746865207a65726f206160448201526564647265737360d01b60648201526084016108bf565b6111ab816113f6565b50565b60405134815233907f66ff7c8f71ccc7c36152a41920d0d3b46ef3034359f76aa1498ed4478c204b5c9060200160405180910390a2565b6033546001600160a01b03163314610d945760405162461bcd60e51b815260206004820181905260248201527f4f776e61626c653a2063616c6c6572206973206e6f7420746865206f776e657260448201526064016108bf565b6801bc16d674ec80000047101561128f5760405162461bcd60e51b8152602060048201526014602482015273496e73756666696369656e742062616c616e636560601b60448201526064016108bf565b60655481516020830151604080850151606086015191516304512a2360e31b81526001600160a01b03909516946322895118946801bc16d674ec800000946112e09491939092909190600401612134565b6000604051808303818588803b1580156112f957600080fd5b505af115801561130d573d6000803e3d6000fd5b505050505050565b8047101561135c5760405162461bcd60e51b8152602060048201526014602482015273496e73756666696369656e742062616c616e636560601b60448201526064016108bf565b6000826001600160a01b03168260405160006040518083038185875af1925050503d80600081146113a9576040519150601f19603f3d011682016040523d82523d6000602084013e6113ae565b606091505b5050905080610bbb5760405162461bcd60e51b8152602060048201526014602482015273556e61626c6520746f2073656e642076616c756560601b60448201526064016108bf565b603380546001600160a01b038381166001600160a01b0319831681179093556040519116919082907f8be0079c531659141344cd1fd0a4f28419497f9722a3daafe3b4186f6b6457e090600090a35050565b60008261145686868561148f565b1495945050505050565b600054610100900460ff166114875760405162461bcd60e51b81526004016108bf9061217f565b610d946116ee565b805182518451600092919081906001906114a990856121ca565b6114b391906121dd565b146115005760405162461bcd60e51b815260206004820152601f60248201527f4d65726b6c6550726f6f663a20696e76616c6964206d756c746970726f6f660060448201526064016108bf565b6000816001600160401b0381111561151a5761151a6119e7565b604051908082528060200260200182016040528015611543578160200160208202803683370190505b5090506000806000805b8581101561168357600087851061158857858461156981611f45565b95508151811061157b5761157b611ef7565b60200260200101516115ae565b898561159381611f45565b9650815181106115a5576115a5611ef7565b60200260200101515b905060008b83815181106115c4576115c4611ef7565b60200260200101516115fa578c846115db81611f45565b9550815181106115ed576115ed611ef7565b6020026020010151611644565b88861061161e57868561160c81611f45565b9650815181106115ed576115ed611ef7565b8a8661162981611f45565b97508151811061163b5761163b611ef7565b60200260200101515b9050611650828261171e565b87848151811061166257611662611ef7565b6020026020010181815250505050808061167b90611f45565b91505061154d565b5084156116bb57836116966001876121dd565b815181106116a6576116a6611ef7565b602002602001015196505050505050506116e7565b85156116d457876000815181106116a6576116a6611ef7565b896000815181106116a6576116a6611ef7565b9392505050565b600054610100900460ff166117155760405162461bcd60e51b81526004016108bf9061217f565b610d94336113f6565b600081831061173a576000828152602084905260409020611749565b60008381526020839052604090205b90505b92915050565b60008083601f84011261176457600080fd5b5081356001600160401b0381111561177b57600080fd5b60208301915083602082850101111561179357600080fd5b9250929050565b600080600080604085870312156117b057600080fd5b84356001600160401b03808211156117c757600080fd5b6117d388838901611752565b909650945060208701359150808211156117ec57600080fd5b506117f987828801611752565b95989497509550505050565b60005b83811015611820578181015183820152602001611808565b50506000910152565b60008151808452611841816020860160208601611805565b601f01601f19169290920160200192915050565b60208152600082516080602084015261187160a0840182611829565b90506020840151601f198085840301604086015261188f8383611829565b92506040860151915080858403016060860152506118ad8282611829565b915050606084015160808401528091505092915050565b80356001600160a01b03811681146118db57600080fd5b919050565b6000602082840312156118f257600080fd5b611749826118c4565b6000806040838503121561190e57600080fd5b50508035926020909101359150565b6000806020838503121561193057600080fd5b82356001600160401b038082111561194757600080fd5b818501915085601f83011261195b57600080fd5b81358181111561196a57600080fd5b8660208260051b850101111561197f57600080fd5b60209290920196919550909350505050565b600080604083850312156119a457600080fd5b6119ad836118c4565b946020939093013593505050565b6020815260006117496020830184611829565b6000602082840312156119e057600080fd5b5035919050565b634e487b7160e01b600052604160045260246000fd5b604051601f8201601f191681016001600160401b0381118282101715611a2557611a256119e7565b604052919050565b60006001600160401b03821115611a4657611a466119e7565b5060051b60200190565b600082601f830112611a6157600080fd5b81356020611a76611a7183611a2d565b6119fd565b82815260059290921b84018101918181019086841115611a9557600080fd5b8286015b84811015611abf5780358015158114611ab25760008081fd5b8352918301918301611a99565b509695505050505050565b600082601f830112611adb57600080fd5b81356001600160401b03811115611af457611af46119e7565b611b07601f8201601f19166020016119fd565b818152846020838601011115611b1c57600080fd5b816020850160208301376000918101602001919091529392505050565b600060808284031215611b4b57600080fd5b604051608081016001600160401b038282108183111715611b6e57611b6e6119e7565b816040528293508435915080821115611b8657600080fd5b611b9286838701611aca565b83526020850135915080821115611ba857600080fd5b611bb486838701611aca565b60208401526040850135915080821115611bcd57600080fd5b50611bda85828601611aca565b604083015250606083013560608201525092915050565b600082601f830112611c0257600080fd5b81356020611c12611a7183611a2d565b82815260059290921b84018101918181019086841115611c3157600080fd5b8286015b84811015611abf5780356001600160401b03811115611c545760008081fd5b611c628986838b0101611b39565b845250918301918301611c35565b60008060008060808587031215611c8657600080fd5b843593506020808601356001600160401b0380821115611ca557600080fd5b818801915088601f830112611cb957600080fd5b8135611cc7611a7182611a2d565b81815260059190911b8301840190848101908b831115611ce657600080fd5b938501935b82851015611d0457843582529385019390850190611ceb565b975050506040880135925080831115611d1c57600080fd5b611d2889848a01611a50565b94506060880135925080831115611d3e57600080fd5b5050611d4c87828801611bf1565b91505092959194509250565b600060208284031215611d6a57600080fd5b81356001600160401b03811115611d8057600080fd5b8201608081850312156116e757600080fd5b828482376fffffffffffffffffffffffffffffffff19919091169101908152601001919050565b60008251611dcb818460208701611805565b9190910192915050565b600060208284031215611de757600080fd5b5051919050565b60008085851115611dfe57600080fd5b83861115611e0b57600080fd5b5050820193919092039150565b8183823760009101908152919050565b82848237909101908152602001919050565b600181811c90821680611e4e57607f821691505b602082108103611e6e57634e487b7160e01b600052602260045260246000fd5b50919050565b8281526000602060008454611e8881611e3a565b60018281168015611ea05760018114611eb957611ee9565b60ff198416888701528215158302880186019450611ee9565b886000528560002060005b84811015611edf5781548a8201890152908301908701611ec4565b5050858389010194505b509298975050505050505050565b634e487b7160e01b600052603260045260246000fd5b60008235607e19833603018112611dcb57600080fd5b600061174c3683611b39565b634e487b7160e01b600052601160045260246000fd5b600060018201611f5757611f57611f2f565b5060010190565b601f821115610bbb57600081815260208120601f850160051c81016020861015611f855750805b601f850160051c820191505b8181101561130d57828155600101611f91565b81516001600160401b03811115611fbd57611fbd6119e7565b611fd181611fcb8454611e3a565b84611f5e565b602080601f8311600181146120065760008415611fee5750858301515b600019600386901b1c1916600185901b17855561130d565b600085815260208120601f198616915b8281101561203557888601518255948401946001909101908401612016565b50858210156120535787850151600019600388901b60f8161c191681555b5050505050600190811b01905550565b600060208083526000845461207781611e3a565b8084870152604060018084166000811461209857600181146120b2576120e0565b60ff1985168984015283151560051b8901830195506120e0565b896000528660002060005b858110156120d85781548b82018601529083019088016120bd565b8a0184019650505b509398975050505050505050565b6000808335601e1984360301811261210557600080fd5b8301803591506001600160401b0382111561211f57600080fd5b60200191503681900382131561179357600080fd5b6080815260006121476080830187611829565b82810360208401526121598187611829565b9050828103604084015261216d8186611829565b91505082606083015295945050505050565b6020808252602b908201527f496e697469616c697a61626c653a20636f6e7472616374206973206e6f74206960408201526a6e697469616c697a696e6760a81b606082015260800190565b8082018082111561174c5761174c611f2f565b8181038181111561174c5761174c611f2f56fea26469706673582212204e39c72c128684af2dfd312421b98cbe420eddc89557853556ffe38e00edd7a964736f6c63430008110033",
  "devdoc": {
    "kind": "dev",
    "methods": {
      "owner()": {
        "details": "Returns the address of the current owner."
      },
      "renounceOwnership()": {
        "details": "Leaves the contract without owner. It will not be possible to call `onlyOwner` functions anymore. Can only be called by the current owner. NOTE: Renouncing ownership will leave the contract without an owner, thereby removing any functionality that is only available to the owner."
      },
      "transferOwnership(address)": {
        "details": "Transfers ownership of the contract to a new account (`newOwner`). Can only be called by the current owner."
      }
    },
    "version": 1
  },
  "userdoc": {
    "kind": "user",
    "methods": {},
    "version": 1
  },
  "storageLayout": {
    "storage": [
      {
        "astId": 138,
        "contract": "contracts/SLPDeposit.sol:SLPDeposit",
        "label": "_initialized",
        "offset": 0,
        "slot": "0",
        "type": "t_uint8"
      },
      {
        "astId": 141,
        "contract": "contracts/SLPDeposit.sol:SLPDeposit",
        "label": "_initializing",
        "offset": 1,
        "slot": "0",
        "type": "t_bool"
      },
      {
        "astId": 1220,
        "contract": "contracts/SLPDeposit.sol:SLPDeposit",
        "label": "__gap",
        "offset": 0,
        "slot": "1",
        "type": "t_array(t_uint256)50_storage"
      },
      {
        "astId": 10,
        "contract": "contracts/SLPDeposit.sol:SLPDeposit",
        "label": "_owner",
        "offset": 0,
        "slot": "51",
        "type": "t_address"
      },
      {
        "astId": 130,
        "contract": "contracts/SLPDeposit.sol:SLPDeposit",
        "label": "__gap",
        "offset": 0,
        "slot": "52",
        "type": "t_array(t_uint256)49_storage"
      },
      {
        "astId": 2726,
        "contract": "contracts/SLPDeposit.sol:SLPDeposit",
        "label": "depositContract",
        "offset": 0,
        "slot": "101",
        "type": "t_contract(IDepositContract)2697"
      },
      {
        "astId": 2730,
        "contract": "contracts/SLPDeposit.sol:SLPDeposit",
        "label": "merkleRoots",
        "offset": 0,
        "slot": "102",
        "type": "t_mapping(t_uint256,t_bytes32)"
      },
      {
        "astId": 2732,
        "contract": "contracts/SLPDeposit.sol:SLPDeposit",
        "label": "slpCore",
        "offset": 0,
        "slot": "103",
        "type": "t_address"
      },
      {
        "astId": 2734,
        "contract": "contracts/SLPDeposit.sol:SLPDeposit",
        "label": "withdrawalCredentials",
        "offset": 0,
        "slot": "104",
        "type": "t_bytes_storage"
      }
    ],
    "types": {
      "t_address": {
        "encoding": "inplace",
        "label": "address",
        "numberOfBytes": "20"
      },
      "t_array(t_uint256)49_storage": {
        "base": "t_uint256",
        "encoding": "inplace",
        "label": "uint256[49]",
        "numberOfBytes": "1568"
      },
      "t_array(t_uint256)50_storage": {
        "base": "t_uint256",
        "encoding": "inplace",
        "label": "uint256[50]",
        "numberOfBytes": "1600"
      },
      "t_bool": {
        "encoding": "inplace",
        "label": "bool",
        "numberOfBytes": "1"
      },
      "t_bytes32": {
        "encoding": "inplace",
        "label": "bytes32",
        "numberOfBytes": "32"
      },
      "t_bytes_storage": {
        "encoding": "bytes",
        "label": "bytes",
        "numberOfBytes": "32"
      },
      "t_contract(IDepositContract)2697": {
        "encoding": "inplace",
        "label": "contract IDepositContract",
        "numberOfBytes": "20"
      },
      "t_mapping(t_uint256,t_bytes32)": {
        "encoding": "mapping",
        "key": "t_uint256",
        "label": "mapping(uint256 => bytes32)",
        "numberOfBytes": "32",
        "value": "t_bytes32"
      },
      "t_uint256": {
        "encoding": "inplace",
        "label": "uint256",
        "numberOfBytes": "32"
      },
      "t_uint8": {
        "encoding": "inplace",
        "label": "uint8",
        "numberOfBytes": "1"
      }
    }
  }
}