{
  "address": "0x32A0A4DaF99D9856637bD5671662f19eA73A0443",
  "abi": [
    {
      "anonymous": false,
      "inputs": [
        {
          "indexed": true,
          "internalType": "address",
          "name": "sender",
          "type": "address"
        },
        {
          "indexed": false,
          "internalType": "uint256",
          "name": "tokenAmount",
          "type": "uint256"
        }
      ],
      "name": "EthDeposited",
      "type": "event"
    },
    {
      "anonymous": false,
      "inputs": [
        {
          "indexed": false,
          "internalType": "uint8",
          "name": "version",
          "type": "uint8"
        }
      ],
      "name": "Initialized",
      "type": "event"
    },
    {
      "anonymous": false,
      "inputs": [
        {
          "indexed": true,
          "internalType": "address",
          "name": "sender",
          "type": "address"
        },
        {
          "indexed": true,
          "internalType": "uint256",
          "name": "batchId",
          "type": "uint256"
        },
        {
          "indexed": false,
          "internalType": "bytes32",
          "name": "merkleRoot",
          "type": "bytes32"
        }
      ],
      "name": "MerkleRootSet",
      "type": "event"
    },
    {
      "anonymous": false,
      "inputs": [
        {
          "indexed": true,
          "internalType": "address",
          "name": "previousOwner",
          "type": "address"
        },
        {
          "indexed": true,
          "internalType": "address",
          "name": "newOwner",
          "type": "address"
        }
      ],
      "name": "OwnershipTransferred",
      "type": "event"
    },
    {
      "anonymous": false,
      "inputs": [
        {
          "indexed": true,
          "internalType": "address",
          "name": "sender",
          "type": "address"
        },
        {
          "indexed": false,
          "internalType": "address",
          "name": "slpCore",
          "type": "address"
        }
      ],
      "name": "SLPCoreSet",
      "type": "event"
    },
    {
      "anonymous": false,
      "inputs": [
        {
          "indexed": true,
          "internalType": "address",
          "name": "sender",
          "type": "address"
        },
        {
          "indexed": false,
          "internalType": "bytes",
          "name": "withdrawalCredentials",
          "type": "bytes"
        }
      ],
      "name": "WithdrawalCredentialsSet",
      "type": "event"
    },
    {
      "inputs": [],
      "name": "DEPOSIT_SIZE",
      "outputs": [
        {
          "internalType": "uint256",
          "name": "",
          "type": "uint256"
        }
      ],
      "stateMutability": "view",
      "type": "function"
    },
    {
      "inputs": [],
      "name": "DEPOSIT_SIZE_IN_GWEI_LE64",
      "outputs": [
        {
          "internalType": "uint64",
          "name": "",
          "type": "uint64"
        }
      ],
      "stateMutability": "view",
      "type": "function"
    },
    {
      "inputs": [],
      "name": "MAX_VALIDATORS_PER_DEPOSIT",
      "outputs": [
        {
          "internalType": "uint256",
          "name": "",
          "type": "uint256"
        }
      ],
      "stateMutability": "view",
      "type": "function"
    },
    {
      "inputs": [
        {
          "components": [
            {
              "internalType": "bytes",
              "name": "pubkey",
              "type": "bytes"
            },
            {
              "internalType": "bytes",
              "name": "withdrawal_credentials",
              "type": "bytes"
            },
            {
              "internalType": "bytes",
              "name": "signature",
              "type": "bytes"
            },
            {
              "internalType": "bytes32",
              "name": "deposit_data_root",
              "type": "bytes32"
            }
          ],
          "internalType": "struct SLPDeposit.Validator[]",
          "name": "validators",
          "type": "tuple[]"
        }
      ],
      "name": "batchDeposit",
      "outputs": [],
      "stateMutability": "nonpayable",
      "type": "function"
    },
    {
      "inputs": [
        {
          "internalType": "uint256",
          "name": "batchId",
          "type": "uint256"
        },
        {
          "internalType": "bytes32[]",
          "name": "proof",
          "type": "bytes32[]"
        },
        {
          "internalType": "bool[]",
          "name": "proofFlags",
          "type": "bool[]"
        },
        {
          "components": [
            {
              "internalType": "bytes",
              "name": "pubkey",
              "type": "bytes"
            },
            {
              "internalType": "bytes",
              "name": "withdrawal_credentials",
              "type": "bytes"
            },
            {
              "internalType": "bytes",
              "name": "signature",
              "type": "bytes"
            },
            {
              "internalType": "bytes32",
              "name": "deposit_data_root",
              "type": "bytes32"
            }
          ],
          "internalType": "struct SLPDeposit.Validator[]",
          "name": "validators",
          "type": "tuple[]"
        }
      ],
      "name": "batchDepositWithProof",
      "outputs": [],
      "stateMutability": "nonpayable",
      "type": "function"
    },
    {
      "inputs": [
        {
          "components": [
            {
              "internalType": "bytes",
              "name": "pubkey",
              "type": "bytes"
            },
            {
              "internalType": "bytes",
              "name": "withdrawal_credentials",
              "type": "bytes"
            },
            {
              "internalType": "bytes",
              "name": "signature",
              "type": "bytes"
            },
            {
              "internalType": "bytes32",
              "name": "deposit_data_root",
              "type": "bytes32"
            }
          ],
          "internalType": "struct SLPDeposit.Validator",
          "name": "validator",
          "type": "tuple"
        }
      ],
      "name": "checkDepositDataRoot",
      "outputs": [
        {
          "internalType": "bool",
          "name": "",
          "type": "bool"
        }
      ],
      "stateMutability": "view",
      "type": "function"
    },
    {
      "inputs": [],
      "name": "depositContract",
      "outputs": [
        {
          "internalType": "contract IDepositContract",
          "name": "",
          "type": "address"
        }
      ],
      "stateMutability": "view",
      "type": "function"
    },
    {
      "inputs": [],
      "name": "depositETH",
      "outputs": [],
      "stateMutability": "payable",
      "type": "function"
    },
    {
      "inputs": [
        {
          "internalType": "address",
          "name": "recipient",
          "type": "address"
        },
        {
          "internalType": "uint256",
          "name": "amount",
          "type": "uint256"
        }
      ],
      "name": "emergencyWithdrawETH",
      "outputs": [],
      "stateMutability": "nonpayable",
      "type": "function"
    },
    {
      "inputs": [
        {
          "internalType": "bytes",
          "name": "pubkey",
          "type": "bytes"
        },
        {
          "internalType": "bytes",
          "name": "signature",
          "type": "bytes"
        }
      ],
      "name": "getValidatorData",
      "outputs": [
        {
          "components": [
            {
              "internalType": "bytes",
              "name": "pubkey",
              "type": "bytes"
            },
            {
              "internalType": "bytes",
              "name": "withdrawal_credentials",
              "type": "bytes"
            },
            {
              "internalType": "bytes",
              "name": "signature",
              "type": "bytes"
            },
            {
              "internalType": "bytes32",
              "name": "deposit_data_root",
              "type": "bytes32"
            }
          ],
          "internalType": "struct SLPDeposit.Validator",
          "name": "",
          "type": "tuple"
        }
      ],
      "stateMutability": "view",
      "type": "function"
    },
    {
      "inputs": [
        {
          "internalType": "address",
          "name": "_depositContract",
          "type": "address"
        }
      ],
      "name": "initialize",
      "outputs": [],
      "stateMutability": "nonpayable",
      "type": "function"
    },
    {
      "inputs": [
        {
          "internalType": "uint256",
          "name": "",
          "type": "uint256"
        }
      ],
      "name": "merkleRoots",
      "outputs": [
        {
          "internalType": "bytes32",
          "name": "",
          "type": "bytes32"
        }
      ],
      "stateMutability": "view",
      "type": "function"
    },
    {
      "inputs": [],
      "name": "owner",
      "outputs": [
        {
          "internalType": "address",
          "name": "",
          "type": "address"
        }
      ],
      "stateMutability": "view",
      "type": "function"
    },
    {
      "inputs": [],
      "name": "renounceOwnership",
      "outputs": [],
      "stateMutability": "nonpayable",
      "type": "function"
    },
    {
      "inputs": [
        {
          "internalType": "address",
          "name": "receiver",
          "type": "address"
        }
      ],
      "name": "setCredential",
      "outputs": [],
      "stateMutability": "nonpayable",
      "type": "function"
    },
    {
      "inputs": [
        {
          "internalType": "uint256",
          "name": "batchId",
          "type": "uint256"
        },
        {
          "internalType": "bytes32",
          "name": "merkleRoot",
          "type": "bytes32"
        }
      ],
      "name": "setMerkleRoot",
      "outputs": [],
      "stateMutability": "nonpayable",
      "type": "function"
    },
    {
      "inputs": [
        {
          "internalType": "address",
          "name": "_slpCore",
          "type": "address"
        }
      ],
      "name": "setSLPCore",
      "outputs": [],
      "stateMutability": "nonpayable",
      "type": "function"
    },
    {
      "inputs": [
        {
          "internalType": "address",
          "name": "_withdrawVault",
          "type": "address"
        }
      ],
      "name": "setWithdrawVault",
      "outputs": [],
      "stateMutability": "nonpayable",
      "type": "function"
    },
    {
      "inputs": [],
      "name": "slpCore",
      "outputs": [
        {
          "internalType": "address",
          "name": "",
          "type": "address"
        }
      ],
      "stateMutability": "view",
      "type": "function"
    },
    {
      "inputs": [
        {
          "internalType": "address",
          "name": "newOwner",
          "type": "address"
        }
      ],
      "name": "transferOwnership",
      "outputs": [],
      "stateMutability": "nonpayable",
      "type": "function"
    },
    {
      "inputs": [
        {
          "internalType": "address",
          "name": "recipient",
          "type": "address"
        },
        {
          "internalType": "uint256",
          "name": "amount",
          "type": "uint256"
        }
      ],
      "name": "withdrawETH",
      "outputs": [],
      "stateMutability": "nonpayable",
      "type": "function"
    },
    {
      "inputs": [],
      "name": "withdrawVault",
      "outputs": [
        {
          "internalType": "address",
          "name": "",
          "type": "address"
        }
      ],
      "stateMutability": "view",
      "type": "function"
    },
    {
      "inputs": [],
      "name": "withdrawalCredentials",
      "outputs": [
        {
          "internalType": "bytes",
          "name": "",
          "type": "bytes"
        }
      ],
      "stateMutability": "view",
      "type": "function"
    }
  ],
  "transactionHash": "0x253f79077aa3f92ab94f22b8d3d6ac2703eed72f4c331af9be11d2f91c881b68",
  "args": [],
  "numDeployments": 2,
  "solcInputHash": "d4dad65a9a3607e7631aceb42d6cb9b8",
  "bytecode": "0x608060405234801561001057600080fd5b506123c3806100206000396000f3fe60806040526004361061013f5760003560e01c80638da5cb5b116100b6578063d79e85671161006f578063d79e856714610392578063e94ad65b146103b2578063ea01363b146103d2578063f2fde38b14610402578063f345e58414610422578063f6326fb31461045557600080fd5b80638da5cb5b146102c0578063a5971759146102f2578063b431a50114610312578063c4d66de814610332578063cd866f9414610352578063d0d0ed051461037257600080fd5b80634782f779116101085780634782f779146102075780634cd79e0a14610227578063620f4e45146102495780636d9102951461025e578063715018a61461027e57806371c5ecb11461029357600080fd5b806257d87714610144578063159de7281461017a57806318712c211461019c57806336bf3325146101bc5780633851daf3146101e7575b600080fd5b34801561015057600080fd5b5061016461015f366004611937565b61045d565b60405161017191906119f2565b60405180910390f35b34801561018657600080fd5b5061019a610195366004611a7d565b6108eb565b005b3480156101a857600080fd5b5061019a6101b7366004611a98565b6109a5565b3480156101c857600080fd5b506101d96801bc16d674ec80000081565b604051908152602001610171565b3480156101f357600080fd5b5061019a610202366004611aba565b610a94565b34801561021357600080fd5b5061019a610222366004611b2e565b610c46565b34801561023357600080fd5b5061023c610cfe565b6040516101719190611b58565b34801561025557600080fd5b506101d9603281565b34801561026a57600080fd5b5061019a610279366004611a7d565b610d8c565b34801561028a57600080fd5b5061019a610e5d565b34801561029f57600080fd5b506101d96102ae366004611b6b565b60666020526000908152604090205481565b3480156102cc57600080fd5b506033546001600160a01b03165b6040516001600160a01b039091168152602001610171565b3480156102fe57600080fd5b5061019a61030d366004611e0d565b610e71565b34801561031e57600080fd5b506067546102da906001600160a01b031681565b34801561033e57600080fd5b5061019a61034d366004611a7d565b611056565b34801561035e57600080fd5b5061019a61036d366004611a7d565b6111d9565b34801561037e57600080fd5b506069546102da906001600160a01b031681565b34801561039e57600080fd5b5061019a6103ad366004611b2e565b611259565b3480156103be57600080fd5b506065546102da906001600160a01b031681565b3480156103de57600080fd5b506103f26103ed366004611ef5565b61126b565b6040519015158152602001610171565b34801561040e57600080fd5b5061019a61041d366004611a7d565b61129a565b34801561042e57600080fd5b5061043d664059730700000081565b6040516001600160401b039091168152602001610171565b61019a611313565b61048b6040518060800160405280606081526020016060815260200160608152602001600080191681525090565b600060028686600060801b6040516020016104a893929190611f2f565b60408051601f19818403018152908290526104c291611f56565b602060405180830381855afa1580156104df573d6000803e3d6000fd5b5050506040513d601f19601f820116820180604052508101906105029190611f72565b90506000600280610516604084888a611f8b565b604051602001610527929190611fb5565b60408051601f198184030181529082905261054191611f56565b602060405180830381855afa15801561055e573d6000803e3d6000fd5b5050506040513d601f19601f820116820180604052508101906105819190611f72565b6002610590876040818b611f8b565b6040516105a4929190600090602001611fc5565b60408051601f19818403018152908290526105be91611f56565b602060405180830381855afa1580156105db573d6000803e3d6000fd5b5050506040513d601f19601f820116820180604052508101906105fe9190611f72565b60408051602081019390935282015260600160408051601f198184030181529082905261062a91611f56565b602060405180830381855afa158015610647573d6000803e3d6000fd5b5050506040513d601f19601f8201168201806040525081019061066a9190611f72565b90506000600280846068604051602001610685929190612011565b60408051601f198184030181529082905261069f91611f56565b602060405180830381855afa1580156106bc573d6000803e3d6000fd5b5050506040513d601f19601f820116820180604052508101906106df9190611f72565b60408051634059730760d81b60208201526000602882015290810185905260029060600160408051601f198184030181529082905261071d91611f56565b602060405180830381855afa15801561073a573d6000803e3d6000fd5b5050506040513d601f19601f8201168201806040525081019061075d9190611f72565b60408051602081019390935282015260600160408051601f198184030181529082905261078991611f56565b602060405180830381855afa1580156107a6573d6000803e3d6000fd5b5050506040513d601f19601f820116820180604052508101906107c99190611f72565b6040805160a06020601f8c018190040282018101909252608081018a81529293509182918b908b90819085018382808284376000920191909152505050908252506068805460209092019161081d90611fd7565b80601f016020809104026020016040519081016040528092919081815260200182805461084990611fd7565b80156108965780601f1061086b57610100808354040283529160200191610896565b820191906000526020600020905b81548152906001019060200180831161087957829003601f168201915b5050505050815260200187878080601f01602080910402602001604051908101604052809392919081815260200183838082843760009201919091525050509082525060200191909152979650505050505050565b6108f361134a565b6001600160a01b03811661094e5760405162461bcd60e51b815260206004820152601860248201527f496e76616c696420534c5020636f72652061646472657373000000000000000060448201526064015b60405180910390fd5b606780546001600160a01b0319166001600160a01b03831690811790915560405190815233907fa5d340708c2045ce2d4e31ab8dec9915a3d8293f35b5d94f424166483d1cba54906020015b60405180910390a250565b6109ad61134a565b600082815260666020526040902054156109fe5760405162461bcd60e51b81526020600482015260126024820152714d65726b6c6520726f6f742065786973747360701b6044820152606401610945565b80610a415760405162461bcd60e51b8152602060048201526013602482015272125b9d985b1a59081b595c9adb19481c9bdbdd606a1b6044820152606401610945565b6000828152606660205260409081902082905551829033907f65dd2f7d58c69c8d59ad3ac133a4bb9421b89fa8b769eb3aee74999c2db8bf4590610a889085815260200190565b60405180910390a35050565b610a9c61134a565b6032811115610ae35760405162461bcd60e51b8152602060048201526013602482015272546f6f206d616e792076616c696461746f727360681b6044820152606401610945565b606860008154610af290611fd7565b8110610b0057610b00612094565b815460011615610b1f5790600052602060002090602091828204019190065b9054901a600160f81b026001600160f81b031916600160f81b14610b855760405162461bcd60e51b815260206004820152601760248201527f57726f6e672063726564656e7469616c207072656669780000000000000000006044820152606401610945565b60005b81811015610c4157610bb7838383818110610ba557610ba5612094565b90506020028101906103ed91906120aa565b610bfa5760405162461bcd60e51b8152602060048201526014602482015273496e76616c6964206465706f736974206461746160601b6044820152606401610945565b610c2f838383818110610c0f57610c0f612094565b9050602002810190610c2191906120aa565b610c2a906120c0565b6113a4565b80610c39816120e2565b915050610b88565b505050565b6067546001600160a01b0316331480610c6957506069546001600160a01b031633145b610ca65760405162461bcd60e51b815260206004820152600e60248201526d24b73b30b634b21039b2b73232b960911b6044820152606401610945565b816001600160a01b031663f6326fb3826040518263ffffffff1660e01b81526004016000604051808303818588803b158015610ce157600080fd5b505af1158015610cf5573d6000803e3d6000fd5b50505050505050565b60688054610d0b90611fd7565b80601f0160208091040260200160405190810160405280929190818152602001828054610d3790611fd7565b8015610d845780601f10610d5957610100808354040283529160200191610d84565b820191906000526020600020905b815481529060010190602001808311610d6757829003601f168201915b505050505081565b610d9461134a565b6001600160a01b038116610ddd5760405162461bcd60e51b815260206004820152601060248201526f24b73b30b634b2103932b1b2b4bb32b960811b6044820152606401610945565b60408051600160f81b60208201526bffffffffffffffffffffffff19606084901b16602c8201520160405160208183030381529060405260689081610e229190612141565b50336001600160a01b03167fe9e279ef3cf5ce2e10345d8f261f07bff3a6867406e29b321faa977ba7838400606860405161099a9190612200565b610e6561134a565b610e6f600061147a565b565b610e7961134a565b603281511115610ec15760405162461bcd60e51b8152602060048201526013602482015272546f6f206d616e792076616c696461746f727360681b6044820152606401610945565b60008481526066602052604090205480610f165760405162461bcd60e51b81526020600482015260166024820152754d65726b6c6520726f6f74206e6f742065786973747360501b6044820152606401610945565b600082516001600160401b03811115610f3157610f31611b84565b604051908082528060200260200182016040528015610f5a578160200160208202803683370190505b50905060005b8351811015610fbd57838181518110610f7b57610f7b612094565b60200260200101516020015180519060200120828281518110610fa057610fa0612094565b602090810291909101015280610fb5816120e2565b915050610f60565b50610fca858584846114cc565b6110165760405162461bcd60e51b815260206004820181905260248201527f4d65726b6c652070726f6f6620766572696669636174696f6e206661696c65646044820152606401610945565b60005b8351811015610cf55761104484828151811061103757611037612094565b60200260200101516113a4565b8061104e816120e2565b915050611019565b600054610100900460ff16158080156110765750600054600160ff909116105b806110905750303b158015611090575060005460ff166001145b6110f35760405162461bcd60e51b815260206004820152602e60248201527f496e697469616c697a61626c653a20636f6e747261637420697320616c72656160448201526d191e481a5b9a5d1a585b1a5e995960921b6064820152608401610945565b6000805460ff191660011790558015611116576000805461ff0019166101001790555b6001600160a01b03821661116c5760405162461bcd60e51b815260206004820152601860248201527f496e76616c6964206465706f73697420636f6e747261637400000000000000006044820152606401610945565b6111746114e4565b606580546001600160a01b0319166001600160a01b03841617905580156111d5576000805461ff0019169055604051600181527f7f26b83ff96e1f2b6a682f133852f6798a09c465da95921460cefb38474024989060200160405180910390a15b5050565b6111e161134a565b6001600160a01b0381166112375760405162461bcd60e51b815260206004820152601e60248201527f496e76616c6964207769746864726177207661756c74206164647265737300006044820152606401610945565b606980546001600160a01b0319166001600160a01b0392909216919091179055565b61126161134a565b6111d58282611513565b60008061128861127b848061228b565b61015f604087018761228b565b60609081015193013590921492915050565b6112a261134a565b6001600160a01b0381166113075760405162461bcd60e51b815260206004820152602660248201527f4f776e61626c653a206e6577206f776e657220697320746865207a65726f206160448201526564647265737360d01b6064820152608401610945565b6113108161147a565b50565b60405134815233907f66ff7c8f71ccc7c36152a41920d0d3b46ef3034359f76aa1498ed4478c204b5c9060200160405180910390a2565b6033546001600160a01b03163314610e6f5760405162461bcd60e51b815260206004820181905260248201527f4f776e61626c653a2063616c6c6572206973206e6f7420746865206f776e65726044820152606401610945565b6801bc16d674ec8000004710156113f45760405162461bcd60e51b8152602060048201526014602482015273496e73756666696369656e742062616c616e636560601b6044820152606401610945565b60655481516020830151604080850151606086015191516304512a2360e31b81526001600160a01b03909516946322895118946801bc16d674ec8000009461144594919390929091906004016122d1565b6000604051808303818588803b15801561145e57600080fd5b505af1158015611472573d6000803e3d6000fd5b505050505050565b603380546001600160a01b038381166001600160a01b0319831681179093556040519116919082907f8be0079c531659141344cd1fd0a4f28419497f9722a3daafe3b4186f6b6457e090600090a35050565b6000826114da86868561162c565b1495945050505050565b600054610100900460ff1661150b5760405162461bcd60e51b81526004016109459061231c565b610e6f61188b565b804710156115635760405162461bcd60e51b815260206004820152601d60248201527f416464726573733a20696e73756666696369656e742062616c616e63650000006044820152606401610945565b6000826001600160a01b03168260405160006040518083038185875af1925050503d80600081146115b0576040519150601f19603f3d011682016040523d82523d6000602084013e6115b5565b606091505b5050905080610c415760405162461bcd60e51b815260206004820152603a60248201527f416464726573733a20756e61626c6520746f2073656e642076616c75652c207260448201527f6563697069656e74206d617920686176652072657665727465640000000000006064820152608401610945565b805182518451600092919081906001906116469085612367565b611650919061237a565b1461169d5760405162461bcd60e51b815260206004820152601f60248201527f4d65726b6c6550726f6f663a20696e76616c6964206d756c746970726f6f66006044820152606401610945565b6000816001600160401b038111156116b7576116b7611b84565b6040519080825280602002602001820160405280156116e0578160200160208202803683370190505b5090506000806000805b85811015611820576000878510611725578584611706816120e2565b95508151811061171857611718612094565b602002602001015161174b565b8985611730816120e2565b96508151811061174257611742612094565b60200260200101515b905060008b838151811061176157611761612094565b6020026020010151611797578c84611778816120e2565b95508151811061178a5761178a612094565b60200260200101516117e1565b8886106117bb5786856117a9816120e2565b96508151811061178a5761178a612094565b8a866117c6816120e2565b9750815181106117d8576117d8612094565b60200260200101515b90506117ed82826118bb565b8784815181106117ff576117ff612094565b60200260200101818152505050508080611818906120e2565b9150506116ea565b508415611858578361183360018761237a565b8151811061184357611843612094565b60200260200101519650505050505050611884565b8515611871578760008151811061184357611843612094565b8960008151811061184357611843612094565b9392505050565b600054610100900460ff166118b25760405162461bcd60e51b81526004016109459061231c565b610e6f3361147a565b60008183106118d75760008281526020849052604090206118e6565b60008381526020839052604090205b90505b92915050565b60008083601f84011261190157600080fd5b5081356001600160401b0381111561191857600080fd5b60208301915083602082850101111561193057600080fd5b9250929050565b6000806000806040858703121561194d57600080fd5b84356001600160401b038082111561196457600080fd5b611970888389016118ef565b9096509450602087013591508082111561198957600080fd5b50611996878288016118ef565b95989497509550505050565b60005b838110156119bd5781810151838201526020016119a5565b50506000910152565b600081518084526119de8160208601602086016119a2565b601f01601f19169290920160200192915050565b602081526000825160806020840152611a0e60a08401826119c6565b90506020840151601f1980858403016040860152611a2c83836119c6565b9250604086015191508085840301606086015250611a4a82826119c6565b915050606084015160808401528091505092915050565b80356001600160a01b0381168114611a7857600080fd5b919050565b600060208284031215611a8f57600080fd5b6118e682611a61565b60008060408385031215611aab57600080fd5b50508035926020909101359150565b60008060208385031215611acd57600080fd5b82356001600160401b0380821115611ae457600080fd5b818501915085601f830112611af857600080fd5b813581811115611b0757600080fd5b8660208260051b8501011115611b1c57600080fd5b60209290920196919550909350505050565b60008060408385031215611b4157600080fd5b611b4a83611a61565b946020939093013593505050565b6020815260006118e660208301846119c6565b600060208284031215611b7d57600080fd5b5035919050565b634e487b7160e01b600052604160045260246000fd5b604051601f8201601f191681016001600160401b0381118282101715611bc257611bc2611b84565b604052919050565b60006001600160401b03821115611be357611be3611b84565b5060051b60200190565b600082601f830112611bfe57600080fd5b81356020611c13611c0e83611bca565b611b9a565b82815260059290921b84018101918181019086841115611c3257600080fd5b8286015b84811015611c5c5780358015158114611c4f5760008081fd5b8352918301918301611c36565b509695505050505050565b600082601f830112611c7857600080fd5b81356001600160401b03811115611c9157611c91611b84565b611ca4601f8201601f1916602001611b9a565b818152846020838601011115611cb957600080fd5b816020850160208301376000918101602001919091529392505050565b600060808284031215611ce857600080fd5b604051608081016001600160401b038282108183111715611d0b57611d0b611b84565b816040528293508435915080821115611d2357600080fd5b611d2f86838701611c67565b83526020850135915080821115611d4557600080fd5b611d5186838701611c67565b60208401526040850135915080821115611d6a57600080fd5b50611d7785828601611c67565b604083015250606083013560608201525092915050565b600082601f830112611d9f57600080fd5b81356020611daf611c0e83611bca565b82815260059290921b84018101918181019086841115611dce57600080fd5b8286015b84811015611c5c5780356001600160401b03811115611df15760008081fd5b611dff8986838b0101611cd6565b845250918301918301611dd2565b60008060008060808587031215611e2357600080fd5b843593506020808601356001600160401b0380821115611e4257600080fd5b818801915088601f830112611e5657600080fd5b8135611e64611c0e82611bca565b81815260059190911b8301840190848101908b831115611e8357600080fd5b938501935b82851015611ea157843582529385019390850190611e88565b975050506040880135925080831115611eb957600080fd5b611ec589848a01611bed565b94506060880135925080831115611edb57600080fd5b5050611ee987828801611d8e565b91505092959194509250565b600060208284031215611f0757600080fd5b81356001600160401b03811115611f1d57600080fd5b82016080818503121561188457600080fd5b828482376fffffffffffffffffffffffffffffffff19919091169101908152601001919050565b60008251611f688184602087016119a2565b9190910192915050565b600060208284031215611f8457600080fd5b5051919050565b60008085851115611f9b57600080fd5b83861115611fa857600080fd5b5050820193919092039150565b8183823760009101908152919050565b82848237909101908152602001919050565b600181811c90821680611feb57607f821691505b60208210810361200b57634e487b7160e01b600052602260045260246000fd5b50919050565b828152600060206000845461202581611fd7565b6001828116801561203d576001811461205657612086565b60ff198416888701528215158302880186019450612086565b886000528560002060005b8481101561207c5781548a8201890152908301908701612061565b5050858389010194505b509298975050505050505050565b634e487b7160e01b600052603260045260246000fd5b60008235607e19833603018112611f6857600080fd5b60006118e93683611cd6565b634e487b7160e01b600052601160045260246000fd5b6000600182016120f4576120f46120cc565b5060010190565b601f821115610c4157600081815260208120601f850160051c810160208610156121225750805b601f850160051c820191505b818110156114725782815560010161212e565b81516001600160401b0381111561215a5761215a611b84565b61216e816121688454611fd7565b846120fb565b602080601f8311600181146121a3576000841561218b5750858301515b600019600386901b1c1916600185901b178555611472565b600085815260208120601f198616915b828110156121d2578886015182559484019460019091019084016121b3565b50858210156121f05787850151600019600388901b60f8161c191681555b5050505050600190811b01905550565b600060208083526000845461221481611fd7565b80848701526040600180841660008114612235576001811461224f5761227d565b60ff1985168984015283151560051b89018301955061227d565b896000528660002060005b858110156122755781548b820186015290830190880161225a565b8a0184019650505b509398975050505050505050565b6000808335601e198436030181126122a257600080fd5b8301803591506001600160401b038211156122bc57600080fd5b60200191503681900382131561193057600080fd5b6080815260006122e460808301876119c6565b82810360208401526122f681876119c6565b9050828103604084015261230a81866119c6565b91505082606083015295945050505050565b6020808252602b908201527f496e697469616c697a61626c653a20636f6e7472616374206973206e6f74206960408201526a6e697469616c697a696e6760a81b606082015260800190565b808201808211156118e9576118e96120cc565b818103818111156118e9576118e96120cc56fea26469706673582212209a479a3b26896c92e540df805f5a6946162c4678d577cb410748a85470d9382064736f6c63430008110033",
  "devdoc": {
    "kind": "dev",
    "methods": {
      "owner()": {
        "details": "Returns the address of the current owner."
      },
      "renounceOwnership()": {
        "details": "Leaves the contract without owner. It will not be possible to call `onlyOwner` functions anymore. Can only be called by the current owner. NOTE: Renouncing ownership will leave the contract without an owner, thereby removing any functionality that is only available to the owner."
      },
      "transferOwnership(address)": {
        "details": "Transfers ownership of the contract to a new account (`newOwner`). Can only be called by the current owner."
      }
    },
    "version": 1
  },
  "userdoc": {
    "kind": "user",
    "methods": {},
    "version": 1
  },
  "storageLayout": {
    "storage": [
      {
        "astId": 138,
        "contract": "contracts/SLPDeposit.sol:SLPDeposit",
        "label": "_initialized",
        "offset": 0,
        "slot": "0",
        "type": "t_uint8"
      },
      {
        "astId": 141,
        "contract": "contracts/SLPDeposit.sol:SLPDeposit",
        "label": "_initializing",
        "offset": 1,
        "slot": "0",
        "type": "t_bool"
      },
      {
        "astId": 1220,
        "contract": "contracts/SLPDeposit.sol:SLPDeposit",
        "label": "__gap",
        "offset": 0,
        "slot": "1",
        "type": "t_array(t_uint256)50_storage"
      },
      {
        "astId": 10,
        "contract": "contracts/SLPDeposit.sol:SLPDeposit",
        "label": "_owner",
        "offset": 0,
        "slot": "51",
        "type": "t_address"
      },
      {
        "astId": 130,
        "contract": "contracts/SLPDeposit.sol:SLPDeposit",
        "label": "__gap",
        "offset": 0,
        "slot": "52",
        "type": "t_array(t_uint256)49_storage"
      },
      {
        "astId": 3084,
        "contract": "contracts/SLPDeposit.sol:SLPDeposit",
        "label": "depositContract",
        "offset": 0,
        "slot": "101",
        "type": "t_contract(IDepositContract)3051"
      },
      {
        "astId": 3088,
        "contract": "contracts/SLPDeposit.sol:SLPDeposit",
        "label": "merkleRoots",
        "offset": 0,
        "slot": "102",
        "type": "t_mapping(t_uint256,t_bytes32)"
      },
      {
        "astId": 3090,
        "contract": "contracts/SLPDeposit.sol:SLPDeposit",
        "label": "slpCore",
        "offset": 0,
        "slot": "103",
        "type": "t_address"
      },
      {
        "astId": 3092,
        "contract": "contracts/SLPDeposit.sol:SLPDeposit",
        "label": "withdrawalCredentials",
        "offset": 0,
        "slot": "104",
        "type": "t_bytes_storage"
      },
      {
        "astId": 3094,
        "contract": "contracts/SLPDeposit.sol:SLPDeposit",
        "label": "withdrawVault",
        "offset": 0,
        "slot": "105",
        "type": "t_address"
      }
    ],
    "types": {
      "t_address": {
        "encoding": "inplace",
        "label": "address",
        "numberOfBytes": "20"
      },
      "t_array(t_uint256)49_storage": {
        "base": "t_uint256",
        "encoding": "inplace",
        "label": "uint256[49]",
        "numberOfBytes": "1568"
      },
      "t_array(t_uint256)50_storage": {
        "base": "t_uint256",
        "encoding": "inplace",
        "label": "uint256[50]",
        "numberOfBytes": "1600"
      },
      "t_bool": {
        "encoding": "inplace",
        "label": "bool",
        "numberOfBytes": "1"
      },
      "t_bytes32": {
        "encoding": "inplace",
        "label": "bytes32",
        "numberOfBytes": "32"
      },
      "t_bytes_storage": {
        "encoding": "bytes",
        "label": "bytes",
        "numberOfBytes": "32"
      },
      "t_contract(IDepositContract)3051": {
        "encoding": "inplace",
        "label": "contract IDepositContract",
        "numberOfBytes": "20"
      },
      "t_mapping(t_uint256,t_bytes32)": {
        "encoding": "mapping",
        "key": "t_uint256",
        "label": "mapping(uint256 => bytes32)",
        "numberOfBytes": "32",
        "value": "t_bytes32"
      },
      "t_uint256": {
        "encoding": "inplace",
        "label": "uint256",
        "numberOfBytes": "32"
      },
      "t_uint8": {
        "encoding": "inplace",
        "label": "uint8",
        "numberOfBytes": "1"
      }
    }
  }
}