{
  "address": "0xb268366b049170709E6ae77df6396b66712A55A9",
  "abi": [
    {
      "anonymous": false,
      "inputs": [
        {
          "indexed": true,
          "internalType": "address",
          "name": "sender",
          "type": "address"
        },
        {
          "indexed": false,
          "internalType": "uint256",
          "name": "tokenAmount",
          "type": "uint256"
        }
      ],
      "name": "EthDeposited",
      "type": "event"
    },
    {
      "anonymous": false,
      "inputs": [
        {
          "indexed": true,
          "internalType": "address",
          "name": "sender",
          "type": "address"
        },
        {
          "indexed": false,
          "internalType": "uint256",
          "name": "number",
          "type": "uint256"
        }
      ],
      "name": "FlashWithdrawalNodeIncreased",
      "type": "event"
    },
    {
      "anonymous": false,
      "inputs": [
        {
          "indexed": false,
          "internalType": "uint8",
          "name": "version",
          "type": "uint8"
        }
      ],
      "name": "Initialized",
      "type": "event"
    },
    {
      "anonymous": false,
      "inputs": [
        {
          "indexed": true,
          "internalType": "address",
          "name": "sender",
          "type": "address"
        },
        {
          "indexed": false,
          "internalType": "address",
          "name": "operator",
          "type": "address"
        }
      ],
      "name": "OperatorSet",
      "type": "event"
    },
    {
      "anonymous": false,
      "inputs": [
        {
          "indexed": true,
          "internalType": "address",
          "name": "previousOwner",
          "type": "address"
        },
        {
          "indexed": true,
          "internalType": "address",
          "name": "newOwner",
          "type": "address"
        }
      ],
      "name": "OwnershipTransferred",
      "type": "event"
    },
    {
      "anonymous": false,
      "inputs": [
        {
          "indexed": true,
          "internalType": "address",
          "name": "sender",
          "type": "address"
        },
        {
          "indexed": false,
          "internalType": "uint256",
          "name": "amount",
          "type": "uint256"
        }
      ],
      "name": "RewardAdded",
      "type": "event"
    },
    {
      "anonymous": false,
      "inputs": [
        {
          "indexed": true,
          "internalType": "address",
          "name": "sender",
          "type": "address"
        },
        {
          "indexed": false,
          "internalType": "uint256",
          "name": "rewardNumerator",
          "type": "uint256"
        }
      ],
      "name": "RewardNumeratorSet",
      "type": "event"
    },
    {
      "anonymous": false,
      "inputs": [
        {
          "indexed": true,
          "internalType": "address",
          "name": "sender",
          "type": "address"
        },
        {
          "indexed": false,
          "internalType": "uint256",
          "name": "amount",
          "type": "uint256"
        }
      ],
      "name": "RewardRemoved",
      "type": "event"
    },
    {
      "anonymous": false,
      "inputs": [
        {
          "indexed": true,
          "internalType": "address",
          "name": "sender",
          "type": "address"
        },
        {
          "indexed": false,
          "internalType": "address",
          "name": "slpCore",
          "type": "address"
        }
      ],
      "name": "SLPCoreSet",
      "type": "event"
    },
    {
      "anonymous": false,
      "inputs": [
        {
          "indexed": true,
          "internalType": "address",
          "name": "sender",
          "type": "address"
        },
        {
          "indexed": false,
          "internalType": "uint256",
          "name": "number",
          "type": "uint256"
        }
      ],
      "name": "WithdrawalNodeIncreased",
      "type": "event"
    },
    {
      "inputs": [],
      "name": "DEPOSIT_SIZE",
      "outputs": [
        {
          "internalType": "uint256",
          "name": "",
          "type": "uint256"
        }
      ],
      "stateMutability": "view",
      "type": "function"
    },
    {
      "inputs": [],
      "name": "REWARD_DENOMINATOR",
      "outputs": [
        {
          "internalType": "uint256",
          "name": "",
          "type": "uint256"
        }
      ],
      "stateMutability": "view",
      "type": "function"
    },
    {
      "inputs": [
        {
          "internalType": "uint256",
          "name": "_rewardAmount",
          "type": "uint256"
        }
      ],
      "name": "addReward",
      "outputs": [],
      "stateMutability": "nonpayable",
      "type": "function"
    },
    {
      "inputs": [],
      "name": "depositETH",
      "outputs": [],
      "stateMutability": "payable",
      "type": "function"
    },
    {
      "inputs": [
        {
          "internalType": "uint256",
          "name": "n",
          "type": "uint256"
        }
      ],
      "name": "flashWithdrawalNode",
      "outputs": [],
      "stateMutability": "nonpayable",
      "type": "function"
    },
    {
      "inputs": [],
      "name": "flashWithdrawalNodeNumber",
      "outputs": [
        {
          "internalType": "uint256",
          "name": "",
          "type": "uint256"
        }
      ],
      "stateMutability": "view",
      "type": "function"
    },
    {
      "inputs": [],
      "name": "getTodayTimestamp",
      "outputs": [
        {
          "internalType": "uint256",
          "name": "",
          "type": "uint256"
        }
      ],
      "stateMutability": "view",
      "type": "function"
    },
    {
      "inputs": [
        {
          "internalType": "uint256",
          "name": "n",
          "type": "uint256"
        }
      ],
      "name": "increaseWithdrawalNode",
      "outputs": [],
      "stateMutability": "nonpayable",
      "type": "function"
    },
    {
      "inputs": [
        {
          "internalType": "address",
          "name": "_slpDeposit",
          "type": "address"
        },
        {
          "internalType": "address",
          "name": "_operator",
          "type": "address"
        },
        {
          "internalType": "uint256",
          "name": "_rewardNumerator",
          "type": "uint256"
        }
      ],
      "name": "initialize",
      "outputs": [],
      "stateMutability": "nonpayable",
      "type": "function"
    },
    {
      "inputs": [],
      "name": "operator",
      "outputs": [
        {
          "internalType": "address",
          "name": "",
          "type": "address"
        }
      ],
      "stateMutability": "view",
      "type": "function"
    },
    {
      "inputs": [],
      "name": "owner",
      "outputs": [
        {
          "internalType": "address",
          "name": "",
          "type": "address"
        }
      ],
      "stateMutability": "view",
      "type": "function"
    },
    {
      "inputs": [
        {
          "internalType": "uint256",
          "name": "_rewardAmount",
          "type": "uint256"
        }
      ],
      "name": "removeReward",
      "outputs": [],
      "stateMutability": "nonpayable",
      "type": "function"
    },
    {
      "inputs": [],
      "name": "renounceOwnership",
      "outputs": [],
      "stateMutability": "nonpayable",
      "type": "function"
    },
    {
      "inputs": [
        {
          "internalType": "uint256",
          "name": "",
          "type": "uint256"
        }
      ],
      "name": "rewardDays",
      "outputs": [
        {
          "internalType": "bool",
          "name": "",
          "type": "bool"
        }
      ],
      "stateMutability": "view",
      "type": "function"
    },
    {
      "inputs": [],
      "name": "rewardNumerator",
      "outputs": [
        {
          "internalType": "uint256",
          "name": "",
          "type": "uint256"
        }
      ],
      "stateMutability": "view",
      "type": "function"
    },
    {
      "inputs": [
        {
          "internalType": "address",
          "name": "_operator",
          "type": "address"
        }
      ],
      "name": "setOperator",
      "outputs": [],
      "stateMutability": "nonpayable",
      "type": "function"
    },
    {
      "inputs": [
        {
          "internalType": "uint256",
          "name": "_rewardNumerator",
          "type": "uint256"
        }
      ],
      "name": "setRewardNumerator",
      "outputs": [],
      "stateMutability": "nonpayable",
      "type": "function"
    },
    {
      "inputs": [
        {
          "internalType": "address",
          "name": "_slpCore",
          "type": "address"
        }
      ],
      "name": "setSLPCore",
      "outputs": [],
      "stateMutability": "nonpayable",
      "type": "function"
    },
    {
      "inputs": [],
      "name": "slpCore",
      "outputs": [
        {
          "internalType": "contract ISLPCore",
          "name": "",
          "type": "address"
        }
      ],
      "stateMutability": "view",
      "type": "function"
    },
    {
      "inputs": [],
      "name": "slpDeposit",
      "outputs": [
        {
          "internalType": "contract ISLPDeposit",
          "name": "",
          "type": "address"
        }
      ],
      "stateMutability": "view",
      "type": "function"
    },
    {
      "inputs": [
        {
          "internalType": "address",
          "name": "newOwner",
          "type": "address"
        }
      ],
      "name": "transferOwnership",
      "outputs": [],
      "stateMutability": "nonpayable",
      "type": "function"
    },
    {
      "inputs": [],
      "name": "withdrawalNodeNumber",
      "outputs": [
        {
          "internalType": "uint256",
          "name": "",
          "type": "uint256"
        }
      ],
      "stateMutability": "view",
      "type": "function"
    }
  ],
  "transactionHash": "0xecc3fbced4aef3c5adf90879eff26c187697788373a86877ef8b6cc8f4a4ad9e",
  "args": [],
  "numDeployments": 1,
  "solcInputHash": "0e30b9399d3231b0e50e4e475b9b95be",
  "bytecode": "0x608060405234801561001057600080fd5b50611077806100206000396000f3fe608060405234801561001057600080fd5b50600436106101215760003560e01c806374de4ec4116100ad578063c553173f11610071578063c553173f14610254578063cdd432d014610267578063f2fde38b14610270578063f96eda4c14610283578063fe9a3e2b1461029657600080fd5b806374de4ec4146101fb578063819a93981461020e5780638da5cb5b1461021d578063b3ab15fb1461022e578063b431a5011461024157600080fd5b80632a487ef3116100f45780632a487ef3146101b157806336bf3325146101c7578063570ca735146101d75780636b96bb87146101ea578063715018a6146101f357600080fd5b80630334520314610126578063159de7281461015e5780631794bb3c1461017357806322f808d514610186575b600080fd5b610149610134366004610eb2565b606a6020526000908152604090205460ff1681565b60405190151581526020015b60405180910390f35b61017161016c366004610ee7565b6102a9565b005b610171610181366004610f09565b610363565b606654610199906001600160a01b031681565b6040516001600160a01b039091168152602001610155565b6101b96105ab565b604051908152602001610155565b6101b96801bc16d674ec80000081565b606754610199906001600160a01b031681565b6101b960685481565b6101716105cc565b610171610209366004610eb2565b6105e0565b6101b9670de0b6b3a764000081565b6033546001600160a01b0316610199565b61017161023c366004610ee7565b6108a7565b606554610199906001600160a01b031681565b610171610262366004610eb2565b610950565b6101b960695481565b61017161027e366004610ee7565b610b64565b610171610291366004610eb2565b610bdd565b6101716102a4366004610eb2565b610c74565b6102b1610da7565b6001600160a01b03811661030c5760405162461bcd60e51b815260206004820152601860248201527f496e76616c696420534c5020636f72652061646472657373000000000000000060448201526064015b60405180910390fd5b606580546001600160a01b0319166001600160a01b03831690811790915560405190815233907fa5d340708c2045ce2d4e31ab8dec9915a3d8293f35b5d94f424166483d1cba54906020015b60405180910390a250565b600054610100900460ff16158080156103835750600054600160ff909116105b8061039d5750303b15801561039d575060005460ff166001145b6104005760405162461bcd60e51b815260206004820152602e60248201527f496e697469616c697a61626c653a20636f6e747261637420697320616c72656160448201526d191e481a5b9a5d1a585b1a5e995960921b6064820152608401610303565b6000805460ff191660011790558015610423576000805461ff0019166101001790555b6001600160a01b0384166104795760405162461bcd60e51b815260206004820152601b60248201527f496e76616c696420534c50206465706f736974206164647265737300000000006044820152606401610303565b6001600160a01b0383166104ca5760405162461bcd60e51b8152602060048201526018602482015277496e76616c6964206f70657261746f72206164647265737360401b6044820152606401610303565b670de0b6b3a76400008211156105225760405162461bcd60e51b815260206004820152601a60248201527f526577617264206e756d657261746f7220746f6f206c617267650000000000006044820152606401610303565b61052a610e01565b606680546001600160a01b038087166001600160a01b0319928316179092556067805492861692909116919091179055606982905580156105a5576000805461ff0019169055604051600181527f7f26b83ff96e1f2b6a682f133852f6798a09c465da95921460cefb38474024989060200160405180910390a15b50505050565b60006105ba6201518042610f5b565b6105c79062015180610f7d565b905090565b6105d4610da7565b6105de6000610e30565b565b6067546001600160a01b0316331461060a5760405162461bcd60e51b815260040161030390610f9a565b80670de0b6b3a7640000606954606560009054906101000a90046001600160a01b03166001600160a01b031663104e99296040518163ffffffff1660e01b8152600401602060405180830381865afa15801561066a573d6000803e3d6000fd5b505050506040513d601f19601f8201168201806040525081019061068e9190610fca565b6106989190610f7d565b6106a29190610f5b565b8111156106f15760405162461bcd60e51b815260206004820152601a60248201527f52657761726420766172696174696f6e20746f6f206c617267650000000000006044820152606401610303565b60006106fb6105ab565b6000818152606a602052604090205490915060ff161561074a5760405162461bcd60e51b815260206004820152600a6024820152695061696420746f64617960b01b6044820152606401610303565b6000818152606a60205260409020805460ff19166001179055478311156107a45760405162461bcd60e51b815260206004820152600e60248201526d09cdee840cadcdeeaced0408aa8960931b6044820152606401610303565b606554604051631d3793b160e21b8152600481018590526001600160a01b03909116906374de4ec490602401600060405180830381600087803b1580156107ea57600080fd5b505af11580156107fe573d6000803e3d6000fd5b50505050606660009054906101000a90046001600160a01b03166001600160a01b031663f6326fb3846040518263ffffffff1660e01b81526004016000604051808303818588803b15801561085257600080fd5b505af1158015610866573d6000803e3d6000fd5b50506040518681523393507fac24935fd910bc682b5ccb1a07b718cadf8cf2f6d1404c4f3ddc3662dae40e29925060200190505b60405180910390a2505050565b6108af610da7565b6001600160a01b0381166109005760405162461bcd60e51b8152602060048201526018602482015277496e76616c6964206f70657261746f72206164647265737360401b6044820152606401610303565b606780546001600160a01b0319166001600160a01b03831690811790915560405190815233907ffd489696792cc4c5d5b226c46f008e459c8ec9b746c49191d74bb92c19fd186790602001610358565b6067546001600160a01b0316331461097a5760405162461bcd60e51b815260040161030390610f9a565b80670de0b6b3a7640000606954606560009054906101000a90046001600160a01b03166001600160a01b031663104e99296040518163ffffffff1660e01b8152600401602060405180830381865afa1580156109da573d6000803e3d6000fd5b505050506040513d601f19601f820116820180604052508101906109fe9190610fca565b610a089190610f7d565b610a129190610f5b565b811115610a615760405162461bcd60e51b815260206004820152601a60248201527f52657761726420766172696174696f6e20746f6f206c617267650000000000006044820152606401610303565b6000610a6b6105ab565b6000818152606a602052604090205490915060ff1615610aba5760405162461bcd60e51b815260206004820152600a6024820152695061696420746f64617960b01b6044820152606401610303565b6000818152606a602052604090819020805460ff19166001179055606554905163c553173f60e01b8152600481018590526001600160a01b039091169063c553173f90602401600060405180830381600087803b158015610b1a57600080fd5b505af1158015610b2e573d6000803e3d6000fd5b50506040518581523392507fccdd1b4597f1516187e25b38fbad3e75a428981d2a1d898667abb3cdd95a672f915060200161089a565b610b6c610da7565b6001600160a01b038116610bd15760405162461bcd60e51b815260206004820152602660248201527f4f776e61626c653a206e6577206f776e657220697320746865207a65726f206160448201526564647265737360d01b6064820152608401610303565b610bda81610e30565b50565b610be5610da7565b670de0b6b3a7640000811115610c3d5760405162461bcd60e51b815260206004820152601a60248201527f526577617264206e756d657261746f7220746f6f206c617267650000000000006044820152606401610303565b606981905560405181815233907fd72b2a4d376d2c1c21410f7e7f0331ad771641b67d7a43c00883bf880872b01990602001610358565b6067546001600160a01b03163314610c9e5760405162461bcd60e51b815260040161030390610f9a565b6000610cb36801bc16d674ec80000083610f7d565b905047811115610cf65760405162461bcd60e51b815260206004820152600e60248201526d09cdee840cadcdeeaced0408aa8960931b6044820152606401610303565b8160686000828254610d089190610fe3565b909155505060655460408051631a6a493960e31b815290516001600160a01b039092169163d35249c8918491600480830192600092919082900301818588803b158015610d5457600080fd5b505af1158015610d68573d6000803e3d6000fd5b50506040518581523393507f050608bb8214ae2070d31e9333905ec0a77ab57398ce3cf62e78bc733a26f17f9250602001905060405180910390a25050565b6033546001600160a01b031633146105de5760405162461bcd60e51b815260206004820181905260248201527f4f776e61626c653a2063616c6c6572206973206e6f7420746865206f776e65726044820152606401610303565b600054610100900460ff16610e285760405162461bcd60e51b815260040161030390610ff6565b6105de610e82565b603380546001600160a01b038381166001600160a01b0319831681179093556040519116919082907f8be0079c531659141344cd1fd0a4f28419497f9722a3daafe3b4186f6b6457e090600090a35050565b600054610100900460ff16610ea95760405162461bcd60e51b815260040161030390610ff6565b6105de33610e30565b600060208284031215610ec457600080fd5b5035919050565b80356001600160a01b0381168114610ee257600080fd5b919050565b600060208284031215610ef957600080fd5b610f0282610ecb565b9392505050565b600080600060608486031215610f1e57600080fd5b610f2784610ecb565b9250610f3560208501610ecb565b9150604084013590509250925092565b634e487b7160e01b600052601160045260246000fd5b600082610f7857634e487b7160e01b600052601260045260246000fd5b500490565b8082028115828204841417610f9457610f94610f45565b92915050565b60208082526016908201527521b0b63632b91034b9903737ba1037b832b930ba37b960511b604082015260600190565b600060208284031215610fdc57600080fd5b5051919050565b80820180821115610f9457610f94610f45565b6020808252602b908201527f496e697469616c697a61626c653a20636f6e7472616374206973206e6f74206960408201526a6e697469616c697a696e6760a81b60608201526080019056fea26469706673582212206fb995a613c7878855246b092bc311d18905192d2ee29135a1f253dff004d64064736f6c63430008110033",
  "devdoc": {
    "kind": "dev",
    "methods": {
      "owner()": {
        "details": "Returns the address of the current owner."
      },
      "renounceOwnership()": {
        "details": "Leaves the contract without owner. It will not be possible to call `onlyOwner` functions anymore. Can only be called by the current owner. NOTE: Renouncing ownership will leave the contract without an owner, thereby removing any functionality that is only available to the owner."
      },
      "transferOwnership(address)": {
        "details": "Transfers ownership of the contract to a new account (`newOwner`). Can only be called by the current owner."
      }
    },
    "version": 1
  },
  "userdoc": {
    "kind": "user",
    "methods": {},
    "version": 1
  },
  "storageLayout": {
    "storage": [
      {
        "astId": 138,
        "contract": "contracts/WithdrawalVault.sol:WithdrawalVault",
        "label": "_initialized",
        "offset": 0,
        "slot": "0",
        "type": "t_uint8"
      },
      {
        "astId": 141,
        "contract": "contracts/WithdrawalVault.sol:WithdrawalVault",
        "label": "_initializing",
        "offset": 1,
        "slot": "0",
        "type": "t_bool"
      },
      {
        "astId": 1220,
        "contract": "contracts/WithdrawalVault.sol:WithdrawalVault",
        "label": "__gap",
        "offset": 0,
        "slot": "1",
        "type": "t_array(t_uint256)50_storage"
      },
      {
        "astId": 10,
        "contract": "contracts/WithdrawalVault.sol:WithdrawalVault",
        "label": "_owner",
        "offset": 0,
        "slot": "51",
        "type": "t_address"
      },
      {
        "astId": 130,
        "contract": "contracts/WithdrawalVault.sol:WithdrawalVault",
        "label": "__gap",
        "offset": 0,
        "slot": "52",
        "type": "t_array(t_uint256)49_storage"
      },
      {
        "astId": 3346,
        "contract": "contracts/WithdrawalVault.sol:WithdrawalVault",
        "label": "slpCore",
        "offset": 0,
        "slot": "101",
        "type": "t_contract(ISLPCore)3295"
      },
      {
        "astId": 3349,
        "contract": "contracts/WithdrawalVault.sol:WithdrawalVault",
        "label": "slpDeposit",
        "offset": 0,
        "slot": "102",
        "type": "t_contract(ISLPDeposit)3299"
      },
      {
        "astId": 3351,
        "contract": "contracts/WithdrawalVault.sol:WithdrawalVault",
        "label": "operator",
        "offset": 0,
        "slot": "103",
        "type": "t_address"
      },
      {
        "astId": 3353,
        "contract": "contracts/WithdrawalVault.sol:WithdrawalVault",
        "label": "withdrawalNodeNumber",
        "offset": 0,
        "slot": "104",
        "type": "t_uint256"
      },
      {
        "astId": 3355,
        "contract": "contracts/WithdrawalVault.sol:WithdrawalVault",
        "label": "rewardNumerator",
        "offset": 0,
        "slot": "105",
        "type": "t_uint256"
      },
      {
        "astId": 3359,
        "contract": "contracts/WithdrawalVault.sol:WithdrawalVault",
        "label": "rewardDays",
        "offset": 0,
        "slot": "106",
        "type": "t_mapping(t_uint256,t_bool)"
      }
    ],
    "types": {
      "t_address": {
        "encoding": "inplace",
        "label": "address",
        "numberOfBytes": "20"
      },
      "t_array(t_uint256)49_storage": {
        "base": "t_uint256",
        "encoding": "inplace",
        "label": "uint256[49]",
        "numberOfBytes": "1568"
      },
      "t_array(t_uint256)50_storage": {
        "base": "t_uint256",
        "encoding": "inplace",
        "label": "uint256[50]",
        "numberOfBytes": "1600"
      },
      "t_bool": {
        "encoding": "inplace",
        "label": "bool",
        "numberOfBytes": "1"
      },
      "t_contract(ISLPCore)3295": {
        "encoding": "inplace",
        "label": "contract ISLPCore",
        "numberOfBytes": "20"
      },
      "t_contract(ISLPDeposit)3299": {
        "encoding": "inplace",
        "label": "contract ISLPDeposit",
        "numberOfBytes": "20"
      },
      "t_mapping(t_uint256,t_bool)": {
        "encoding": "mapping",
        "key": "t_uint256",
        "label": "mapping(uint256 => bool)",
        "numberOfBytes": "32",
        "value": "t_bool"
      },
      "t_uint256": {
        "encoding": "inplace",
        "label": "uint256",
        "numberOfBytes": "32"
      },
      "t_uint8": {
        "encoding": "inplace",
        "label": "uint8",
        "numberOfBytes": "1"
      }
    }
  }
}