{
  "address": "0x6316725D2c57816B624B061Ab3E5AdC0a47882D4",
  "abi": [
    {
      "anonymous": false,
      "inputs": [
        {
          "indexed": true,
          "internalType": "address",
          "name": "sender",
          "type": "address"
        },
        {
          "indexed": false,
          "internalType": "uint256",
          "name": "tokenAmount",
          "type": "uint256"
        }
      ],
      "name": "EthDeposited",
      "type": "event"
    },
    {
      "anonymous": false,
      "inputs": [
        {
          "indexed": true,
          "internalType": "address",
          "name": "sender",
          "type": "address"
        },
        {
          "indexed": false,
          "internalType": "uint256",
          "name": "number",
          "type": "uint256"
        }
      ],
      "name": "FlashWithdrawalNodeIncreased",
      "type": "event"
    },
    {
      "anonymous": false,
      "inputs": [
        {
          "indexed": false,
          "internalType": "uint8",
          "name": "version",
          "type": "uint8"
        }
      ],
      "name": "Initialized",
      "type": "event"
    },
    {
      "anonymous": false,
      "inputs": [
        {
          "indexed": true,
          "internalType": "address",
          "name": "sender",
          "type": "address"
        },
        {
          "indexed": false,
          "internalType": "address",
          "name": "operator",
          "type": "address"
        }
      ],
      "name": "OperatorSet",
      "type": "event"
    },
    {
      "anonymous": false,
      "inputs": [
        {
          "indexed": true,
          "internalType": "address",
          "name": "previousOwner",
          "type": "address"
        },
        {
          "indexed": true,
          "internalType": "address",
          "name": "newOwner",
          "type": "address"
        }
      ],
      "name": "OwnershipTransferred",
      "type": "event"
    },
    {
      "anonymous": false,
      "inputs": [
        {
          "indexed": true,
          "internalType": "address",
          "name": "sender",
          "type": "address"
        },
        {
          "indexed": false,
          "internalType": "uint256",
          "name": "amount",
          "type": "uint256"
        }
      ],
      "name": "RewardAdded",
      "type": "event"
    },
    {
      "anonymous": false,
      "inputs": [
        {
          "indexed": true,
          "internalType": "address",
          "name": "sender",
          "type": "address"
        },
        {
          "indexed": false,
          "internalType": "uint256",
          "name": "rewardNumerator",
          "type": "uint256"
        }
      ],
      "name": "RewardNumeratorSet",
      "type": "event"
    },
    {
      "anonymous": false,
      "inputs": [
        {
          "indexed": true,
          "internalType": "address",
          "name": "sender",
          "type": "address"
        },
        {
          "indexed": false,
          "internalType": "uint256",
          "name": "amount",
          "type": "uint256"
        }
      ],
      "name": "RewardRemoved",
      "type": "event"
    },
    {
      "anonymous": false,
      "inputs": [
        {
          "indexed": true,
          "internalType": "address",
          "name": "sender",
          "type": "address"
        },
        {
          "indexed": false,
          "internalType": "address",
          "name": "slpCore",
          "type": "address"
        }
      ],
      "name": "SLPCoreSet",
      "type": "event"
    },
    {
      "anonymous": false,
      "inputs": [
        {
          "indexed": true,
          "internalType": "address",
          "name": "sender",
          "type": "address"
        },
        {
          "indexed": false,
          "internalType": "uint256",
          "name": "number",
          "type": "uint256"
        }
      ],
      "name": "WithdrawalNodeIncreased",
      "type": "event"
    },
    {
      "inputs": [],
      "name": "DEPOSIT_SIZE",
      "outputs": [
        {
          "internalType": "uint256",
          "name": "",
          "type": "uint256"
        }
      ],
      "stateMutability": "view",
      "type": "function"
    },
    {
      "inputs": [],
      "name": "REWARD_DENOMINATOR",
      "outputs": [
        {
          "internalType": "uint256",
          "name": "",
          "type": "uint256"
        }
      ],
      "stateMutability": "view",
      "type": "function"
    },
    {
      "inputs": [
        {
          "internalType": "uint256",
          "name": "_rewardAmount",
          "type": "uint256"
        }
      ],
      "name": "addReward",
      "outputs": [],
      "stateMutability": "nonpayable",
      "type": "function"
    },
    {
      "inputs": [],
      "name": "depositETH",
      "outputs": [],
      "stateMutability": "payable",
      "type": "function"
    },
    {
      "inputs": [
        {
          "internalType": "address payable",
          "name": "recipient",
          "type": "address"
        },
        {
          "internalType": "uint256",
          "name": "amount",
          "type": "uint256"
        }
      ],
      "name": "emergencyWithdrawETH",
      "outputs": [],
      "stateMutability": "nonpayable",
      "type": "function"
    },
    {
      "inputs": [
        {
          "internalType": "uint256",
          "name": "n",
          "type": "uint256"
        }
      ],
      "name": "flashWithdrawalNode",
      "outputs": [],
      "stateMutability": "nonpayable",
      "type": "function"
    },
    {
      "inputs": [],
      "name": "flashWithdrawalNodeNumber",
      "outputs": [
        {
          "internalType": "uint256",
          "name": "",
          "type": "uint256"
        }
      ],
      "stateMutability": "view",
      "type": "function"
    },
    {
      "inputs": [],
      "name": "getTodayTimestamp",
      "outputs": [
        {
          "internalType": "uint256",
          "name": "",
          "type": "uint256"
        }
      ],
      "stateMutability": "view",
      "type": "function"
    },
    {
      "inputs": [
        {
          "internalType": "uint256",
          "name": "n",
          "type": "uint256"
        }
      ],
      "name": "increaseWithdrawalNode",
      "outputs": [],
      "stateMutability": "nonpayable",
      "type": "function"
    },
    {
      "inputs": [
        {
          "internalType": "address",
          "name": "_slpDeposit",
          "type": "address"
        },
        {
          "internalType": "address",
          "name": "_operator",
          "type": "address"
        },
        {
          "internalType": "uint256",
          "name": "_rewardNumerator",
          "type": "uint256"
        }
      ],
      "name": "initialize",
      "outputs": [],
      "stateMutability": "nonpayable",
      "type": "function"
    },
    {
      "inputs": [],
      "name": "operator",
      "outputs": [
        {
          "internalType": "address",
          "name": "",
          "type": "address"
        }
      ],
      "stateMutability": "view",
      "type": "function"
    },
    {
      "inputs": [],
      "name": "owner",
      "outputs": [
        {
          "internalType": "address",
          "name": "",
          "type": "address"
        }
      ],
      "stateMutability": "view",
      "type": "function"
    },
    {
      "inputs": [
        {
          "internalType": "uint256",
          "name": "_rewardAmount",
          "type": "uint256"
        }
      ],
      "name": "removeReward",
      "outputs": [],
      "stateMutability": "nonpayable",
      "type": "function"
    },
    {
      "inputs": [],
      "name": "renounceOwnership",
      "outputs": [],
      "stateMutability": "nonpayable",
      "type": "function"
    },
    {
      "inputs": [
        {
          "internalType": "uint256",
          "name": "",
          "type": "uint256"
        }
      ],
      "name": "rewardDays",
      "outputs": [
        {
          "internalType": "bool",
          "name": "",
          "type": "bool"
        }
      ],
      "stateMutability": "view",
      "type": "function"
    },
    {
      "inputs": [],
      "name": "rewardNumerator",
      "outputs": [
        {
          "internalType": "uint256",
          "name": "",
          "type": "uint256"
        }
      ],
      "stateMutability": "view",
      "type": "function"
    },
    {
      "inputs": [
        {
          "internalType": "address",
          "name": "_operator",
          "type": "address"
        }
      ],
      "name": "setOperator",
      "outputs": [],
      "stateMutability": "nonpayable",
      "type": "function"
    },
    {
      "inputs": [
        {
          "internalType": "uint256",
          "name": "_rewardNumerator",
          "type": "uint256"
        }
      ],
      "name": "setRewardNumerator",
      "outputs": [],
      "stateMutability": "nonpayable",
      "type": "function"
    },
    {
      "inputs": [
        {
          "internalType": "address",
          "name": "_slpCore",
          "type": "address"
        }
      ],
      "name": "setSLPCore",
      "outputs": [],
      "stateMutability": "nonpayable",
      "type": "function"
    },
    {
      "inputs": [],
      "name": "slpCore",
      "outputs": [
        {
          "internalType": "contract ISLPCore",
          "name": "",
          "type": "address"
        }
      ],
      "stateMutability": "view",
      "type": "function"
    },
    {
      "inputs": [],
      "name": "slpDeposit",
      "outputs": [
        {
          "internalType": "contract ISLPDeposit",
          "name": "",
          "type": "address"
        }
      ],
      "stateMutability": "view",
      "type": "function"
    },
    {
      "inputs": [
        {
          "internalType": "address",
          "name": "newOwner",
          "type": "address"
        }
      ],
      "name": "transferOwnership",
      "outputs": [],
      "stateMutability": "nonpayable",
      "type": "function"
    },
    {
      "inputs": [],
      "name": "withdrawalNodeNumber",
      "outputs": [
        {
          "internalType": "uint256",
          "name": "",
          "type": "uint256"
        }
      ],
      "stateMutability": "view",
      "type": "function"
    }
  ],
  "transactionHash": "0x0350933fadd87be16d0be32cde22046f49235c03ac515ef382dc5380359c4e99",
  "args": [],
  "numDeployments": 2,
  "solcInputHash": "d4dad65a9a3607e7631aceb42d6cb9b8",
  "bytecode": "0x608060405234801561001057600080fd5b5061158d806100206000396000f3fe6080604052600436106101405760003560e01c80638da5cb5b116100b6578063cdd432d01161006f578063cdd432d01461037f578063d79e856714610395578063f2fde38b146103b5578063f6326fb3146103d5578063f96eda4c146103dd578063fe9a3e2b146103fd57600080fd5b80638da5cb5b146102cb578063a7259008146102e9578063b2afdb5f14610309578063b3ab15fb1461031f578063b431a5011461033f578063c553173f1461035f57600080fd5b806336bf33251161010857806336bf332514610227578063570ca735146102445780636b96bb8714610264578063715018a61461027a57806374de4ec41461028f578063819a9398146102af57600080fd5b80630334520314610145578063159de7281461018a5780631794bb3c146101ac57806322f808d5146101cc5780632a487ef314610204575b600080fd5b34801561015157600080fd5b50610175610160366004611374565b606a6020526000908152604090205460ff1681565b60405190151581526020015b60405180910390f35b34801561019657600080fd5b506101aa6101a53660046113a2565b61041d565b005b3480156101b857600080fd5b506101aa6101c73660046113c6565b6104d7565b3480156101d857600080fd5b506066546101ec906001600160a01b031681565b6040516001600160a01b039091168152602001610181565b34801561021057600080fd5b5061021961071f565b604051908152602001610181565b34801561023357600080fd5b506102196801bc16d674ec80000081565b34801561025057600080fd5b506067546101ec906001600160a01b031681565b34801561027057600080fd5b5061021960685481565b34801561028657600080fd5b506101aa610740565b34801561029b57600080fd5b506101aa6102aa366004611374565b610754565b3480156102bb57600080fd5b50610219670de0b6b3a764000081565b3480156102d757600080fd5b506033546001600160a01b03166101ec565b3480156102f557600080fd5b506101aa610304366004611374565b6109fa565b34801561031557600080fd5b50610219606b5481565b34801561032b57600080fd5b506101aa61033a3660046113a2565b610bcc565b34801561034b57600080fd5b506065546101ec906001600160a01b031681565b34801561036b57600080fd5b506101aa61037a366004611374565b610c75565b34801561038b57600080fd5b5061021960695481565b3480156103a157600080fd5b506101aa6103b0366004611407565b610e89565b3480156103c157600080fd5b506101aa6103d03660046113a2565b610e9f565b6101aa610f18565b3480156103e957600080fd5b506101aa6103f8366004611374565b610fa9565b34801561040957600080fd5b506101aa610418366004611374565b611040565b61042561114b565b6001600160a01b0381166104805760405162461bcd60e51b815260206004820152601860248201527f496e76616c696420534c5020636f72652061646472657373000000000000000060448201526064015b60405180910390fd5b606580546001600160a01b0319166001600160a01b03831690811790915560405190815233907fa5d340708c2045ce2d4e31ab8dec9915a3d8293f35b5d94f424166483d1cba54906020015b60405180910390a250565b600054610100900460ff16158080156104f75750600054600160ff909116105b806105115750303b158015610511575060005460ff166001145b6105745760405162461bcd60e51b815260206004820152602e60248201527f496e697469616c697a61626c653a20636f6e747261637420697320616c72656160448201526d191e481a5b9a5d1a585b1a5e995960921b6064820152608401610477565b6000805460ff191660011790558015610597576000805461ff0019166101001790555b6001600160a01b0384166105ed5760405162461bcd60e51b815260206004820152601b60248201527f496e76616c696420534c50206465706f736974206164647265737300000000006044820152606401610477565b6001600160a01b03831661063e5760405162461bcd60e51b8152602060048201526018602482015277496e76616c6964206f70657261746f72206164647265737360401b6044820152606401610477565b670de0b6b3a76400008211156106965760405162461bcd60e51b815260206004820152601a60248201527f526577617264206e756d657261746f7220746f6f206c617267650000000000006044820152606401610477565b61069e6111a5565b606680546001600160a01b038087166001600160a01b031992831617909255606780549286169290911691909117905560698290558015610719576000805461ff0019169055604051600181527f7f26b83ff96e1f2b6a682f133852f6798a09c465da95921460cefb38474024989060200160405180910390a15b50505050565b600061072e6201518042611449565b61073b906201518061146b565b905090565b61074861114b565b61075260006111d4565b565b6067546001600160a01b0316331461077e5760405162461bcd60e51b815260040161047790611488565b80670de0b6b3a7640000606954606560009054906101000a90046001600160a01b03166001600160a01b031663104e99296040518163ffffffff1660e01b8152600401602060405180830381865afa1580156107de573d6000803e3d6000fd5b505050506040513d601f19601f8201168201806040525081019061080291906114b8565b61080c919061146b565b6108169190611449565b8111156108655760405162461bcd60e51b815260206004820152601a60248201527f52657761726420766172696174696f6e20746f6f206c617267650000000000006044820152606401610477565b600061086f61071f565b6000818152606a602052604090205490915060ff16156108be5760405162461bcd60e51b815260206004820152600a6024820152695061696420746f64617960b01b6044820152606401610477565b6000818152606a60205260409020805460ff19166001179055478311156108f75760405162461bcd60e51b8152600401610477906114d1565b606554604051631d3793b160e21b8152600481018590526001600160a01b03909116906374de4ec490602401600060405180830381600087803b15801561093d57600080fd5b505af1158015610951573d6000803e3d6000fd5b50505050606660009054906101000a90046001600160a01b03166001600160a01b031663f6326fb3846040518263ffffffff1660e01b81526004016000604051808303818588803b1580156109a557600080fd5b505af11580156109b9573d6000803e3d6000fd5b50506040518681523393507fac24935fd910bc682b5ccb1a07b718cadf8cf2f6d1404c4f3ddc3662dae40e29925060200190505b60405180910390a2505050565b6067546001600160a01b03163314610a245760405162461bcd60e51b815260040161047790611488565b6000610a396801bc16d674ec8000008361146b565b6066549091506001600160a01b031631811115610a685760405162461bcd60e51b8152600401610477906114d1565b606654604051634782f77960e01b8152306004820152602481018390526001600160a01b0390911690634782f77990604401600060405180830381600087803b158015610ab457600080fd5b505af1158015610ac8573d6000803e3d6000fd5b505050508160686000828254610ade91906114f9565b9250508190555081606b6000828254610af791906114f9565b909155505060655460408051631a6a493960e31b815290516001600160a01b039092169163d35249c8918491600480830192600092919082900301818588803b158015610b4357600080fd5b505af1158015610b57573d6000803e3d6000fd5b50506040518581523393507f050608bb8214ae2070d31e9333905ec0a77ab57398ce3cf62e78bc733a26f17f9250602001905060405180910390a260405182815233907fe66884521618db3e4d849b8fd44f56fe5fdab7a150f65cdc8c7ee71a624d9830906020015b60405180910390a25050565b610bd461114b565b6001600160a01b038116610c255760405162461bcd60e51b8152602060048201526018602482015277496e76616c6964206f70657261746f72206164647265737360401b6044820152606401610477565b606780546001600160a01b0319166001600160a01b03831690811790915560405190815233907ffd489696792cc4c5d5b226c46f008e459c8ec9b746c49191d74bb92c19fd1867906020016104cc565b6067546001600160a01b03163314610c9f5760405162461bcd60e51b815260040161047790611488565b80670de0b6b3a7640000606954606560009054906101000a90046001600160a01b03166001600160a01b031663104e99296040518163ffffffff1660e01b8152600401602060405180830381865afa158015610cff573d6000803e3d6000fd5b505050506040513d601f19601f82011682018060405250810190610d2391906114b8565b610d2d919061146b565b610d379190611449565b811115610d865760405162461bcd60e51b815260206004820152601a60248201527f52657761726420766172696174696f6e20746f6f206c617267650000000000006044820152606401610477565b6000610d9061071f565b6000818152606a602052604090205490915060ff1615610ddf5760405162461bcd60e51b815260206004820152600a6024820152695061696420746f64617960b01b6044820152606401610477565b6000818152606a602052604090819020805460ff19166001179055606554905163c553173f60e01b8152600481018590526001600160a01b039091169063c553173f90602401600060405180830381600087803b158015610e3f57600080fd5b505af1158015610e53573d6000803e3d6000fd5b50506040518581523392507fccdd1b4597f1516187e25b38fbad3e75a428981d2a1d898667abb3cdd95a672f91506020016109ed565b610e9161114b565b610e9b8282611226565b5050565b610ea761114b565b6001600160a01b038116610f0c5760405162461bcd60e51b815260206004820152602660248201527f4f776e61626c653a206e6577206f776e657220697320746865207a65726f206160448201526564647265737360d01b6064820152608401610477565b610f15816111d4565b50565b6066546001600160a01b03163314610f725760405162461bcd60e51b815260206004820152601860248201527f43616c6c6572206973206e6f7420736c704465706f73697400000000000000006044820152606401610477565b60405134815233907f66ff7c8f71ccc7c36152a41920d0d3b46ef3034359f76aa1498ed4478c204b5c9060200160405180910390a2565b610fb161114b565b670de0b6b3a76400008111156110095760405162461bcd60e51b815260206004820152601a60248201527f526577617264206e756d657261746f7220746f6f206c617267650000000000006044820152606401610477565b606981905560405181815233907fd72b2a4d376d2c1c21410f7e7f0331ad771641b67d7a43c00883bf880872b019906020016104cc565b6067546001600160a01b0316331461106a5760405162461bcd60e51b815260040161047790611488565b600061107f6801bc16d674ec8000008361146b565b9050478111156110a15760405162461bcd60e51b8152600401610477906114d1565b81606860008282546110b391906114f9565b909155505060655460408051631a6a493960e31b815290516001600160a01b039092169163d35249c8918491600480830192600092919082900301818588803b1580156110ff57600080fd5b505af1158015611113573d6000803e3d6000fd5b50506040518581523393507f050608bb8214ae2070d31e9333905ec0a77ab57398ce3cf62e78bc733a26f17f92506020019050610bc0565b6033546001600160a01b031633146107525760405162461bcd60e51b815260206004820181905260248201527f4f776e61626c653a2063616c6c6572206973206e6f7420746865206f776e65726044820152606401610477565b600054610100900460ff166111cc5760405162461bcd60e51b81526004016104779061150c565b610752611344565b603380546001600160a01b038381166001600160a01b0319831681179093556040519116919082907f8be0079c531659141344cd1fd0a4f28419497f9722a3daafe3b4186f6b6457e090600090a35050565b804710156112765760405162461bcd60e51b815260206004820152601d60248201527f416464726573733a20696e73756666696369656e742062616c616e63650000006044820152606401610477565b6000826001600160a01b03168260405160006040518083038185875af1925050503d80600081146112c3576040519150601f19603f3d011682016040523d82523d6000602084013e6112c8565b606091505b505090508061133f5760405162461bcd60e51b815260206004820152603a60248201527f416464726573733a20756e61626c6520746f2073656e642076616c75652c207260448201527f6563697069656e74206d617920686176652072657665727465640000000000006064820152608401610477565b505050565b600054610100900460ff1661136b5760405162461bcd60e51b81526004016104779061150c565b610752336111d4565b60006020828403121561138657600080fd5b5035919050565b6001600160a01b0381168114610f1557600080fd5b6000602082840312156113b457600080fd5b81356113bf8161138d565b9392505050565b6000806000606084860312156113db57600080fd5b83356113e68161138d565b925060208401356113f68161138d565b929592945050506040919091013590565b6000806040838503121561141a57600080fd5b82356114258161138d565b946020939093013593505050565b634e487b7160e01b600052601160045260246000fd5b60008261146657634e487b7160e01b600052601260045260246000fd5b500490565b808202811582820484141761148257611482611433565b92915050565b60208082526016908201527521b0b63632b91034b9903737ba1037b832b930ba37b960511b604082015260600190565b6000602082840312156114ca57600080fd5b5051919050565b6020808252600e908201526d09cdee840cadcdeeaced0408aa8960931b604082015260600190565b8082018082111561148257611482611433565b6020808252602b908201527f496e697469616c697a61626c653a20636f6e7472616374206973206e6f74206960408201526a6e697469616c697a696e6760a81b60608201526080019056fea2646970667358221220ff0e864503e37f9471ac8a370854315044345618bcf10ea3b658d57015cb890164736f6c63430008110033",
  "devdoc": {
    "kind": "dev",
    "methods": {
      "owner()": {
        "details": "Returns the address of the current owner."
      },
      "renounceOwnership()": {
        "details": "Leaves the contract without owner. It will not be possible to call `onlyOwner` functions anymore. Can only be called by the current owner. NOTE: Renouncing ownership will leave the contract without an owner, thereby removing any functionality that is only available to the owner."
      },
      "transferOwnership(address)": {
        "details": "Transfers ownership of the contract to a new account (`newOwner`). Can only be called by the current owner."
      }
    },
    "version": 1
  },
  "userdoc": {
    "kind": "user",
    "methods": {},
    "version": 1
  },
  "storageLayout": {
    "storage": [
      {
        "astId": 138,
        "contract": "contracts/WithdrawalVault.sol:WithdrawalVault",
        "label": "_initialized",
        "offset": 0,
        "slot": "0",
        "type": "t_uint8"
      },
      {
        "astId": 141,
        "contract": "contracts/WithdrawalVault.sol:WithdrawalVault",
        "label": "_initializing",
        "offset": 1,
        "slot": "0",
        "type": "t_bool"
      },
      {
        "astId": 1220,
        "contract": "contracts/WithdrawalVault.sol:WithdrawalVault",
        "label": "__gap",
        "offset": 0,
        "slot": "1",
        "type": "t_array(t_uint256)50_storage"
      },
      {
        "astId": 10,
        "contract": "contracts/WithdrawalVault.sol:WithdrawalVault",
        "label": "_owner",
        "offset": 0,
        "slot": "51",
        "type": "t_address"
      },
      {
        "astId": 130,
        "contract": "contracts/WithdrawalVault.sol:WithdrawalVault",
        "label": "__gap",
        "offset": 0,
        "slot": "52",
        "type": "t_array(t_uint256)49_storage"
      },
      {
        "astId": 3741,
        "contract": "contracts/WithdrawalVault.sol:WithdrawalVault",
        "label": "slpCore",
        "offset": 0,
        "slot": "101",
        "type": "t_contract(ISLPCore)3671"
      },
      {
        "astId": 3744,
        "contract": "contracts/WithdrawalVault.sol:WithdrawalVault",
        "label": "slpDeposit",
        "offset": 0,
        "slot": "102",
        "type": "t_contract(ISLPDeposit)3682"
      },
      {
        "astId": 3746,
        "contract": "contracts/WithdrawalVault.sol:WithdrawalVault",
        "label": "operator",
        "offset": 0,
        "slot": "103",
        "type": "t_address"
      },
      {
        "astId": 3748,
        "contract": "contracts/WithdrawalVault.sol:WithdrawalVault",
        "label": "withdrawalNodeNumber",
        "offset": 0,
        "slot": "104",
        "type": "t_uint256"
      },
      {
        "astId": 3750,
        "contract": "contracts/WithdrawalVault.sol:WithdrawalVault",
        "label": "rewardNumerator",
        "offset": 0,
        "slot": "105",
        "type": "t_uint256"
      },
      {
        "astId": 3754,
        "contract": "contracts/WithdrawalVault.sol:WithdrawalVault",
        "label": "rewardDays",
        "offset": 0,
        "slot": "106",
        "type": "t_mapping(t_uint256,t_bool)"
      },
      {
        "astId": 3756,
        "contract": "contracts/WithdrawalVault.sol:WithdrawalVault",
        "label": "flashWithdrawalNodeNumber",
        "offset": 0,
        "slot": "107",
        "type": "t_uint256"
      }
    ],
    "types": {
      "t_address": {
        "encoding": "inplace",
        "label": "address",
        "numberOfBytes": "20"
      },
      "t_array(t_uint256)49_storage": {
        "base": "t_uint256",
        "encoding": "inplace",
        "label": "uint256[49]",
        "numberOfBytes": "1568"
      },
      "t_array(t_uint256)50_storage": {
        "base": "t_uint256",
        "encoding": "inplace",
        "label": "uint256[50]",
        "numberOfBytes": "1600"
      },
      "t_bool": {
        "encoding": "inplace",
        "label": "bool",
        "numberOfBytes": "1"
      },
      "t_contract(ISLPCore)3671": {
        "encoding": "inplace",
        "label": "contract ISLPCore",
        "numberOfBytes": "20"
      },
      "t_contract(ISLPDeposit)3682": {
        "encoding": "inplace",
        "label": "contract ISLPDeposit",
        "numberOfBytes": "20"
      },
      "t_mapping(t_uint256,t_bool)": {
        "encoding": "mapping",
        "key": "t_uint256",
        "label": "mapping(uint256 => bool)",
        "numberOfBytes": "32",
        "value": "t_bool"
      },
      "t_uint256": {
        "encoding": "inplace",
        "label": "uint256",
        "numberOfBytes": "32"
      },
      "t_uint8": {
        "encoding": "inplace",
        "label": "uint8",
        "numberOfBytes": "1"
      }
    }
  }
}