{
  "address": "0xed8e7639040d0f81a4AFDc2b805aa325050EEB32",
  "abi": [
    {
      "anonymous": false,
      "inputs": [
        {
          "indexed": true,
          "internalType": "address",
          "name": "sender",
          "type": "address"
        },
        {
          "indexed": false,
          "internalType": "uint256",
          "name": "tokenAmount",
          "type": "uint256"
        },
        {
          "indexed": false,
          "internalType": "uint256",
          "name": "vTokenAmount",
          "type": "uint256"
        }
      ],
      "name": "Deposited",
      "type": "event"
    },
    {
      "anonymous": false,
      "inputs": [
        {
          "indexed": false,
          "internalType": "uint8",
          "name": "version",
          "type": "uint8"
        }
      ],
      "name": "Initialized",
      "type": "event"
    },
    {
      "anonymous": false,
      "inputs": [
        {
          "indexed": true,
          "internalType": "address",
          "name": "previousOwner",
          "type": "address"
        },
        {
          "indexed": true,
          "internalType": "address",
          "name": "newOwner",
          "type": "address"
        }
      ],
      "name": "OwnershipTransferred",
      "type": "event"
    },
    {
      "anonymous": false,
      "inputs": [
        {
          "indexed": false,
          "internalType": "address",
          "name": "account",
          "type": "address"
        }
      ],
      "name": "Paused",
      "type": "event"
    },
    {
      "anonymous": false,
      "inputs": [
        {
          "indexed": true,
          "internalType": "address",
          "name": "sender",
          "type": "address"
        },
        {
          "indexed": false,
          "internalType": "uint256",
          "name": "tokenAmount",
          "type": "uint256"
        },
        {
          "indexed": false,
          "internalType": "uint256",
          "name": "vTokenAmount",
          "type": "uint256"
        }
      ],
      "name": "Renewed",
      "type": "event"
    },
    {
      "anonymous": false,
      "inputs": [
        {
          "indexed": true,
          "internalType": "address",
          "name": "sender",
          "type": "address"
        },
        {
          "indexed": false,
          "internalType": "uint256",
          "name": "amount",
          "type": "uint256"
        },
        {
          "indexed": false,
          "internalType": "uint256",
          "name": "fee",
          "type": "uint256"
        }
      ],
      "name": "RewardAdded",
      "type": "event"
    },
    {
      "anonymous": false,
      "inputs": [
        {
          "indexed": true,
          "internalType": "address",
          "name": "sender",
          "type": "address"
        },
        {
          "indexed": false,
          "internalType": "uint256",
          "name": "amount",
          "type": "uint256"
        }
      ],
      "name": "RewardRemoved",
      "type": "event"
    },
    {
      "anonymous": false,
      "inputs": [
        {
          "indexed": false,
          "internalType": "address",
          "name": "account",
          "type": "address"
        }
      ],
      "name": "Unpaused",
      "type": "event"
    },
    {
      "inputs": [],
      "name": "DEAD_ADDRESS",
      "outputs": [
        {
          "internalType": "address",
          "name": "",
          "type": "address"
        }
      ],
      "stateMutability": "view",
      "type": "function"
    },
    {
      "inputs": [],
      "name": "FEE_RATE_DENOMINATOR",
      "outputs": [
        {
          "internalType": "uint256",
          "name": "",
          "type": "uint256"
        }
      ],
      "stateMutability": "view",
      "type": "function"
    },
    {
      "inputs": [
        {
          "internalType": "uint256",
          "name": "amount",
          "type": "uint256"
        }
      ],
      "name": "addReward",
      "outputs": [],
      "stateMutability": "nonpayable",
      "type": "function"
    },
    {
      "inputs": [
        {
          "internalType": "uint256",
          "name": "tokenAmount",
          "type": "uint256"
        }
      ],
      "name": "calculateVTokenAmount",
      "outputs": [
        {
          "internalType": "uint256",
          "name": "vTokenAmount",
          "type": "uint256"
        }
      ],
      "stateMutability": "view",
      "type": "function"
    },
    {
      "inputs": [],
      "name": "feeRate",
      "outputs": [
        {
          "internalType": "uint256",
          "name": "",
          "type": "uint256"
        }
      ],
      "stateMutability": "view",
      "type": "function"
    },
    {
      "inputs": [],
      "name": "feeReceiver",
      "outputs": [
        {
          "internalType": "address",
          "name": "",
          "type": "address"
        }
      ],
      "stateMutability": "view",
      "type": "function"
    },
    {
      "inputs": [
        {
          "internalType": "address",
          "name": "_vETH1",
          "type": "address"
        },
        {
          "internalType": "address",
          "name": "_vETH2",
          "type": "address"
        },
        {
          "internalType": "address",
          "name": "_slpDeposit",
          "type": "address"
        },
        {
          "internalType": "address",
          "name": "_operator",
          "type": "address"
        },
        {
          "internalType": "address",
          "name": "_feeReceiver",
          "type": "address"
        },
        {
          "internalType": "uint256",
          "name": "_initTokenPool",
          "type": "uint256"
        },
        {
          "internalType": "uint256",
          "name": "_feeRate",
          "type": "uint256"
        }
      ],
      "name": "initialize",
      "outputs": [],
      "stateMutability": "nonpayable",
      "type": "function"
    },
    {
      "inputs": [],
      "name": "mint",
      "outputs": [],
      "stateMutability": "payable",
      "type": "function"
    },
    {
      "inputs": [],
      "name": "operator",
      "outputs": [
        {
          "internalType": "address",
          "name": "",
          "type": "address"
        }
      ],
      "stateMutability": "view",
      "type": "function"
    },
    {
      "inputs": [],
      "name": "owner",
      "outputs": [
        {
          "internalType": "address",
          "name": "",
          "type": "address"
        }
      ],
      "stateMutability": "view",
      "type": "function"
    },
    {
      "inputs": [],
      "name": "pause",
      "outputs": [],
      "stateMutability": "nonpayable",
      "type": "function"
    },
    {
      "inputs": [],
      "name": "paused",
      "outputs": [
        {
          "internalType": "bool",
          "name": "",
          "type": "bool"
        }
      ],
      "stateMutability": "view",
      "type": "function"
    },
    {
      "inputs": [
        {
          "internalType": "uint256",
          "name": "amount",
          "type": "uint256"
        }
      ],
      "name": "removeReward",
      "outputs": [],
      "stateMutability": "nonpayable",
      "type": "function"
    },
    {
      "inputs": [
        {
          "internalType": "uint256",
          "name": "vETH1Amount",
          "type": "uint256"
        }
      ],
      "name": "renew",
      "outputs": [],
      "stateMutability": "nonpayable",
      "type": "function"
    },
    {
      "inputs": [],
      "name": "renounceOwnership",
      "outputs": [],
      "stateMutability": "nonpayable",
      "type": "function"
    },
    {
      "inputs": [
        {
          "internalType": "uint256",
          "name": "_feeRate",
          "type": "uint256"
        }
      ],
      "name": "setFeeRate",
      "outputs": [],
      "stateMutability": "nonpayable",
      "type": "function"
    },
    {
      "inputs": [
        {
          "internalType": "address",
          "name": "_feeReceiver",
          "type": "address"
        }
      ],
      "name": "setFeeReceiver",
      "outputs": [],
      "stateMutability": "nonpayable",
      "type": "function"
    },
    {
      "inputs": [
        {
          "internalType": "address",
          "name": "newOperator",
          "type": "address"
        }
      ],
      "name": "setOperator",
      "outputs": [],
      "stateMutability": "nonpayable",
      "type": "function"
    },
    {
      "inputs": [],
      "name": "slpDeposit",
      "outputs": [
        {
          "internalType": "address",
          "name": "",
          "type": "address"
        }
      ],
      "stateMutability": "view",
      "type": "function"
    },
    {
      "inputs": [],
      "name": "tokenPool",
      "outputs": [
        {
          "internalType": "uint256",
          "name": "",
          "type": "uint256"
        }
      ],
      "stateMutability": "view",
      "type": "function"
    },
    {
      "inputs": [
        {
          "internalType": "address",
          "name": "newOwner",
          "type": "address"
        }
      ],
      "name": "transferOwnership",
      "outputs": [],
      "stateMutability": "nonpayable",
      "type": "function"
    },
    {
      "inputs": [],
      "name": "unpause",
      "outputs": [],
      "stateMutability": "nonpayable",
      "type": "function"
    },
    {
      "inputs": [],
      "name": "vETH1",
      "outputs": [
        {
          "internalType": "address",
          "name": "",
          "type": "address"
        }
      ],
      "stateMutability": "view",
      "type": "function"
    },
    {
      "inputs": [],
      "name": "vETH2",
      "outputs": [
        {
          "internalType": "address",
          "name": "",
          "type": "address"
        }
      ],
      "stateMutability": "view",
      "type": "function"
    }
  ],
  "transactionHash": "0x8c561e848ffa05969f18ad2cd3ebe176e0e27a47ce3103a087c095d91d93fe45",
  "args": [],
  "numDeployments": 1,
  "solcInputHash": "7e2fdf982078c2d36bd357fca0977176",
  "bytecode": "0x608060405234801561001057600080fd5b506114d1806100206000396000f3fe60806040526004361061014b5760003560e01c8063715018a6116100b6578063b33f95271161006f578063b33f95271461035d578063b3ab15fb1461037d578063b3f006741461039d578063c553173f146103bd578063efdcd974146103dd578063f2fde38b146103fd57600080fd5b8063715018a6146102bf57806374de4ec4146102d45780638456cb59146102f45780638da5cb5b14610309578063978bbdb914610327578063b179b4651461033d57600080fd5b806345596e2e1161010857806345596e2e146102105780634e6fd6c414610230578063570ca735146102465780635a70ad28146102665780635baa75091461027c5780635c975abb1461029c57600080fd5b8063104e9929146101505780631249c58b14610179578063193a225c146101835780631ec01fcd146101bb57806322f808d5146101db5780633f4ba83a146101fb575b600080fd5b34801561015c57600080fd5b5061016660ce5481565b6040519081526020015b60405180910390f35b61018161041d565b005b34801561018f57600080fd5b5060ca546101a3906001600160a01b031681565b6040516001600160a01b039091168152602001610170565b3480156101c757600080fd5b5060c9546101a3906001600160a01b031681565b3480156101e757600080fd5b5060cb546101a3906001600160a01b031681565b34801561020757600080fd5b5061018161059a565b34801561021c57600080fd5b5061018161022b366004611265565b6105aa565b34801561023c57600080fd5b506101a361dead81565b34801561025257600080fd5b5060cc546101a3906001600160a01b031681565b34801561027257600080fd5b5061016661271081565b34801561028857600080fd5b50610181610297366004611265565b6105be565b3480156102a857600080fd5b5060975460ff166040519015158152602001610170565b3480156102cb57600080fd5b506101816106ee565b3480156102e057600080fd5b506101816102ef366004611265565b610700565b34801561030057600080fd5b5061018161083e565b34801561031557600080fd5b506033546001600160a01b03166101a3565b34801561033357600080fd5b5061016660cf5481565b34801561034957600080fd5b50610166610358366004611265565b61084e565b34801561036957600080fd5b5061018161037836600461129a565b6108e3565b34801561038957600080fd5b50610181610398366004611312565b610a6f565b3480156103a957600080fd5b5060cd546101a3906001600160a01b031681565b3480156103c957600080fd5b506101816103d8366004611265565b610a99565b3480156103e957600080fd5b506101816103f8366004611312565b610b34565b34801561040957600080fd5b50610181610418366004611312565b610b5e565b610425610bd4565b61042d610c2d565b348061046e5760405162461bcd60e51b815260206004820152600b60248201526a16995c9bc8185b5bdd5b9d60aa1b60448201526064015b60405180910390fd5b60006104798261084e565b60ce549091506104899083610c73565b60ce5560cb546040805163f6326fb360e01b815290516001600160a01b039092169163f6326fb3918591600480830192600092919082900301818588803b1580156104d357600080fd5b505af11580156104e7573d6000803e3d6000fd5b505060ca546040516340c10f1960e01b8152336004820152602481018690526001600160a01b0390911693506340c10f1992506044019050600060405180830381600087803b15801561053957600080fd5b505af115801561054d573d6000803e3d6000fd5b505060408051858152602081018590523393507f73a19dd210f1a7f902193214c0ee91dd35ee5b4d920cba8d519eca65a7b488ca92500160405180910390a250506105986001606555565b565b6105a2610c8f565b610598610ce9565b6105b2610c8f565b6105bb81610d3b565b50565b6105c6610bd4565b6105ce610c2d565b6000811161060c5760405162461bcd60e51b815260206004820152600b60248201526a16995c9bc8185b5bdd5b9d60aa1b6044820152606401610465565b60006106178261084e565b60ce549091506106279083610c73565b60ce5560c954610644906001600160a01b03163361dead85610d8b565b60ca546040516340c10f1960e01b8152336004820152602481018390526001600160a01b03909116906340c10f1990604401600060405180830381600087803b15801561069057600080fd5b505af11580156106a4573d6000803e3d6000fd5b505060408051858152602081018590523393507f9f1eab6cdd1daff5126e5746868327717314baefd3abd72422a3064e1300279c92500160405180910390a2506105bb6001606555565b6106f6610c8f565b6105986000610deb565b60cc546001600160a01b031633146107535760405162461bcd60e51b815260206004820152601660248201527521b0b63632b91034b9903737ba1037b832b930ba37b960511b6044820152606401610465565b600061077661271061077060cf5485610e3d90919063ffffffff16565b90610e49565b905060006107838261084e565b60ce549091506107939084610c73565b60ce5560ca5460cd546040516340c10f1960e01b81526001600160a01b039182166004820152602481018490529116906340c10f1990604401600060405180830381600087803b1580156107e657600080fd5b505af11580156107fa573d6000803e3d6000fd5b505060408051868152602081018590523393507f6a6f77044107a33658235d41bedbbaf2fe9ccdceb313143c947a5e76e1ec847492500160405180910390a2505050565b610846610c8f565b610598610e55565b60008060ca60009054906101000a90046001600160a01b03166001600160a01b03166318160ddd6040518163ffffffff1660e01b8152600401602060405180830381865afa1580156108a4573d6000803e3d6000fd5b505050506040513d601f19601f820116820180604052508101906108c8919061132d565b60ce549091506108dc906107708584610e3d565b9392505050565b600054610100900460ff16158080156109035750600054600160ff909116105b8061091d5750303b15801561091d575060005460ff166001145b6109805760405162461bcd60e51b815260206004820152602e60248201527f496e697469616c697a61626c653a20636f6e747261637420697320616c72656160448201526d191e481a5b9a5d1a585b1a5e995960921b6064820152608401610465565b6000805460ff1916600117905580156109a3576000805461ff0019166101001790555b6109ab610e92565b6109b3610ec1565b6109bb610ef0565b60c980546001600160a01b03199081166001600160a01b038b81169190911790925560ca805482168a841617905560cb8054821689841617905560cc8054821688841617905560cd805490911691861691909117905560ce839055610a1f82610d3b565b8015610a65576000805461ff0019169055604051600181527f7f26b83ff96e1f2b6a682f133852f6798a09c465da95921460cefb38474024989060200160405180910390a15b5050505050505050565b610a77610c8f565b60cc80546001600160a01b0319166001600160a01b0392909216919091179055565b60cc546001600160a01b03163314610aec5760405162461bcd60e51b815260206004820152601660248201527521b0b63632b91034b9903737ba1037b832b930ba37b960511b6044820152606401610465565b60ce54610af99082610f1f565b60ce5560405181815233907fccdd1b4597f1516187e25b38fbad3e75a428981d2a1d898667abb3cdd95a672f9060200160405180910390a250565b610b3c610c8f565b60cd80546001600160a01b0319166001600160a01b0392909216919091179055565b610b66610c8f565b6001600160a01b038116610bcb5760405162461bcd60e51b815260206004820152602660248201527f4f776e61626c653a206e6577206f776e657220697320746865207a65726f206160448201526564647265737360d01b6064820152608401610465565b6105bb81610deb565b600260655403610c265760405162461bcd60e51b815260206004820152601f60248201527f5265656e7472616e637947756172643a207265656e7472616e742063616c6c006044820152606401610465565b6002606555565b60975460ff16156105985760405162461bcd60e51b815260206004820152601060248201526f14185d5cd8589b194e881c185d5cd95960821b6044820152606401610465565b6000610c7f828461135c565b90505b92915050565b6001606555565b6033546001600160a01b031633146105985760405162461bcd60e51b815260206004820181905260248201527f4f776e61626c653a2063616c6c6572206973206e6f7420746865206f776e65726044820152606401610465565b610cf1610f2b565b6097805460ff191690557f5db9ee0a495bf2e6ff9c91a7834c1ba4fdd244a5e8aa4e537bd38aeae4b073aa335b6040516001600160a01b03909116815260200160405180910390a1565b612710811115610d865760405162461bcd60e51b8152602060048201526016602482015275466565207261746520657863656564732072616e676560501b6044820152606401610465565b60cf55565b604080516001600160a01b0385811660248301528416604482015260648082018490528251808303909101815260849091019091526020810180516001600160e01b03166323b872dd60e01b179052610de5908590610f74565b50505050565b603380546001600160a01b038381166001600160a01b0319831681179093556040519116919082907f8be0079c531659141344cd1fd0a4f28419497f9722a3daafe3b4186f6b6457e090600090a35050565b6000610c7f828461136f565b6000610c7f8284611386565b610e5d610c2d565b6097805460ff191660011790557f62e78cea01bee320cd4e420270b5ea74000d11b0c9f74754ebdbfc544b05a258610d1e3390565b600054610100900460ff16610eb95760405162461bcd60e51b8152600401610465906113a8565b61059861104b565b600054610100900460ff16610ee85760405162461bcd60e51b8152600401610465906113a8565b61059861107b565b600054610100900460ff16610f175760405162461bcd60e51b8152600401610465906113a8565b6105986110a2565b6000610c7f82846113f3565b60975460ff166105985760405162461bcd60e51b815260206004820152601460248201527314185d5cd8589b194e881b9bdd081c185d5cd95960621b6044820152606401610465565b6000610fc9826040518060400160405280602081526020017f5361666545524332303a206c6f772d6c6576656c2063616c6c206661696c6564815250856001600160a01b03166110d59092919063ffffffff16565b8051909150156110465780806020019051810190610fe79190611406565b6110465760405162461bcd60e51b815260206004820152602a60248201527f5361666545524332303a204552433230206f7065726174696f6e20646964206e6044820152691bdd081cdd58d8d9595960b21b6064820152608401610465565b505050565b600054610100900460ff166110725760405162461bcd60e51b8152600401610465906113a8565b61059833610deb565b600054610100900460ff16610c885760405162461bcd60e51b8152600401610465906113a8565b600054610100900460ff166110c95760405162461bcd60e51b8152600401610465906113a8565b6097805460ff19169055565b60606110e484846000856110ec565b949350505050565b60608247101561114d5760405162461bcd60e51b815260206004820152602660248201527f416464726573733a20696e73756666696369656e742062616c616e636520666f6044820152651c8818d85b1b60d21b6064820152608401610465565b600080866001600160a01b03168587604051611169919061144c565b60006040518083038185875af1925050503d80600081146111a6576040519150601f19603f3d011682016040523d82523d6000602084013e6111ab565b606091505b50915091506111bc878383876111c7565b979650505050505050565b6060831561123657825160000361122f576001600160a01b0385163b61122f5760405162461bcd60e51b815260206004820152601d60248201527f416464726573733a2063616c6c20746f206e6f6e2d636f6e74726163740000006044820152606401610465565b50816110e4565b6110e4838381511561124b5781518083602001fd5b8060405162461bcd60e51b81526004016104659190611468565b60006020828403121561127757600080fd5b5035919050565b80356001600160a01b038116811461129557600080fd5b919050565b600080600080600080600060e0888a0312156112b557600080fd5b6112be8861127e565b96506112cc6020890161127e565b95506112da6040890161127e565b94506112e86060890161127e565b93506112f66080890161127e565b925060a0880135915060c0880135905092959891949750929550565b60006020828403121561132457600080fd5b610c7f8261127e565b60006020828403121561133f57600080fd5b5051919050565b634e487b7160e01b600052601160045260246000fd5b80820180821115610c8257610c82611346565b8082028115828204841417610c8257610c82611346565b6000826113a357634e487b7160e01b600052601260045260246000fd5b500490565b6020808252602b908201527f496e697469616c697a61626c653a20636f6e7472616374206973206e6f74206960408201526a6e697469616c697a696e6760a81b606082015260800190565b81810381811115610c8257610c82611346565b60006020828403121561141857600080fd5b815180151581146108dc57600080fd5b60005b8381101561144357818101518382015260200161142b565b50506000910152565b6000825161145e818460208701611428565b9190910192915050565b6020815260008251806020840152611487816040850160208701611428565b601f01601f1916919091016040019291505056fea2646970667358221220f4f989011a3431dbf324dab41c6632363c2b951efb4d4d60d89d1f31a695319164736f6c63430008110033",
  "devdoc": {
    "kind": "dev",
    "methods": {
      "owner()": {
        "details": "Returns the address of the current owner."
      },
      "paused()": {
        "details": "Returns true if the contract is paused, and false otherwise."
      },
      "renounceOwnership()": {
        "details": "Leaves the contract without owner. It will not be possible to call `onlyOwner` functions anymore. Can only be called by the current owner. NOTE: Renouncing ownership will leave the contract without an owner, thereby removing any functionality that is only available to the owner."
      },
      "transferOwnership(address)": {
        "details": "Transfers ownership of the contract to a new account (`newOwner`). Can only be called by the current owner."
      }
    },
    "version": 1
  },
  "userdoc": {
    "kind": "user",
    "methods": {},
    "version": 1
  },
  "storageLayout": {
    "storage": [
      {
        "astId": 138,
        "contract": "contracts/SLPCore.sol:SLPCore",
        "label": "_initialized",
        "offset": 0,
        "slot": "0",
        "type": "t_uint8"
      },
      {
        "astId": 141,
        "contract": "contracts/SLPCore.sol:SLPCore",
        "label": "_initializing",
        "offset": 1,
        "slot": "0",
        "type": "t_bool"
      },
      {
        "astId": 1220,
        "contract": "contracts/SLPCore.sol:SLPCore",
        "label": "__gap",
        "offset": 0,
        "slot": "1",
        "type": "t_array(t_uint256)50_storage"
      },
      {
        "astId": 10,
        "contract": "contracts/SLPCore.sol:SLPCore",
        "label": "_owner",
        "offset": 0,
        "slot": "51",
        "type": "t_address"
      },
      {
        "astId": 130,
        "contract": "contracts/SLPCore.sol:SLPCore",
        "label": "__gap",
        "offset": 0,
        "slot": "52",
        "type": "t_array(t_uint256)49_storage"
      },
      {
        "astId": 441,
        "contract": "contracts/SLPCore.sol:SLPCore",
        "label": "_status",
        "offset": 0,
        "slot": "101",
        "type": "t_uint256"
      },
      {
        "astId": 499,
        "contract": "contracts/SLPCore.sol:SLPCore",
        "label": "__gap",
        "offset": 0,
        "slot": "102",
        "type": "t_array(t_uint256)49_storage"
      },
      {
        "astId": 321,
        "contract": "contracts/SLPCore.sol:SLPCore",
        "label": "_paused",
        "offset": 0,
        "slot": "151",
        "type": "t_bool"
      },
      {
        "astId": 426,
        "contract": "contracts/SLPCore.sol:SLPCore",
        "label": "__gap",
        "offset": 0,
        "slot": "152",
        "type": "t_array(t_uint256)49_storage"
      },
      {
        "astId": 1594,
        "contract": "contracts/SLPCore.sol:SLPCore",
        "label": "vETH1",
        "offset": 0,
        "slot": "201",
        "type": "t_address"
      },
      {
        "astId": 1596,
        "contract": "contracts/SLPCore.sol:SLPCore",
        "label": "vETH2",
        "offset": 0,
        "slot": "202",
        "type": "t_address"
      },
      {
        "astId": 1598,
        "contract": "contracts/SLPCore.sol:SLPCore",
        "label": "slpDeposit",
        "offset": 0,
        "slot": "203",
        "type": "t_address"
      },
      {
        "astId": 1600,
        "contract": "contracts/SLPCore.sol:SLPCore",
        "label": "operator",
        "offset": 0,
        "slot": "204",
        "type": "t_address"
      },
      {
        "astId": 1602,
        "contract": "contracts/SLPCore.sol:SLPCore",
        "label": "feeReceiver",
        "offset": 0,
        "slot": "205",
        "type": "t_address"
      },
      {
        "astId": 1604,
        "contract": "contracts/SLPCore.sol:SLPCore",
        "label": "tokenPool",
        "offset": 0,
        "slot": "206",
        "type": "t_uint256"
      },
      {
        "astId": 1606,
        "contract": "contracts/SLPCore.sol:SLPCore",
        "label": "feeRate",
        "offset": 0,
        "slot": "207",
        "type": "t_uint256"
      }
    ],
    "types": {
      "t_address": {
        "encoding": "inplace",
        "label": "address",
        "numberOfBytes": "20"
      },
      "t_array(t_uint256)49_storage": {
        "base": "t_uint256",
        "encoding": "inplace",
        "label": "uint256[49]",
        "numberOfBytes": "1568"
      },
      "t_array(t_uint256)50_storage": {
        "base": "t_uint256",
        "encoding": "inplace",
        "label": "uint256[50]",
        "numberOfBytes": "1600"
      },
      "t_bool": {
        "encoding": "inplace",
        "label": "bool",
        "numberOfBytes": "1"
      },
      "t_uint256": {
        "encoding": "inplace",
        "label": "uint256",
        "numberOfBytes": "32"
      },
      "t_uint8": {
        "encoding": "inplace",
        "label": "uint8",
        "numberOfBytes": "1"
      }
    }
  }
}