{
  "address": "0xe617B1731EF3e50B52BB4a896919dCe05a213b57",
  "abi": [
    {
      "anonymous": false,
      "inputs": [
        {
          "indexed": false,
          "internalType": "uint8",
          "name": "version",
          "type": "uint8"
        }
      ],
      "name": "Initialized",
      "type": "event"
    },
    {
      "anonymous": false,
      "inputs": [
        {
          "indexed": true,
          "internalType": "address",
          "name": "previousOwner",
          "type": "address"
        },
        {
          "indexed": true,
          "internalType": "address",
          "name": "newOwner",
          "type": "address"
        }
      ],
      "name": "OwnershipTransferred",
      "type": "event"
    },
    {
      "inputs": [
        {
          "internalType": "uint256",
          "name": "index",
          "type": "uint256"
        },
        {
          "internalType": "bytes32[]",
          "name": "proof",
          "type": "bytes32[]"
        },
        {
          "internalType": "bool[]",
          "name": "proofFlags",
          "type": "bool[]"
        },
        {
          "components": [
            {
              "internalType": "bytes",
              "name": "pubkey",
              "type": "bytes"
            },
            {
              "internalType": "bytes",
              "name": "withdrawal_credentials",
              "type": "bytes"
            },
            {
              "internalType": "bytes",
              "name": "signature",
              "type": "bytes"
            },
            {
              "internalType": "bytes32",
              "name": "deposit_data_root",
              "type": "bytes32"
            }
          ],
          "internalType": "struct SLPDeposit.Validator[]",
          "name": "validators",
          "type": "tuple[]"
        }
      ],
      "name": "batchDeposit",
      "outputs": [],
      "stateMutability": "nonpayable",
      "type": "function"
    },
    {
      "inputs": [],
      "name": "depositContract",
      "outputs": [
        {
          "internalType": "address",
          "name": "",
          "type": "address"
        }
      ],
      "stateMutability": "view",
      "type": "function"
    },
    {
      "inputs": [],
      "name": "depositETH",
      "outputs": [],
      "stateMutability": "payable",
      "type": "function"
    },
    {
      "inputs": [
        {
          "internalType": "address",
          "name": "_depositContract",
          "type": "address"
        }
      ],
      "name": "initialize",
      "outputs": [],
      "stateMutability": "nonpayable",
      "type": "function"
    },
    {
      "inputs": [
        {
          "internalType": "uint256",
          "name": "",
          "type": "uint256"
        }
      ],
      "name": "merkleRoots",
      "outputs": [
        {
          "internalType": "bytes32",
          "name": "",
          "type": "bytes32"
        }
      ],
      "stateMutability": "view",
      "type": "function"
    },
    {
      "inputs": [],
      "name": "owner",
      "outputs": [
        {
          "internalType": "address",
          "name": "",
          "type": "address"
        }
      ],
      "stateMutability": "view",
      "type": "function"
    },
    {
      "inputs": [],
      "name": "renounceOwnership",
      "outputs": [],
      "stateMutability": "nonpayable",
      "type": "function"
    },
    {
      "inputs": [
        {
          "internalType": "uint256",
          "name": "index",
          "type": "uint256"
        },
        {
          "internalType": "bytes32",
          "name": "merkleRoot",
          "type": "bytes32"
        }
      ],
      "name": "setMerkleRoot",
      "outputs": [],
      "stateMutability": "nonpayable",
      "type": "function"
    },
    {
      "inputs": [
        {
          "internalType": "address",
          "name": "newOwner",
          "type": "address"
        }
      ],
      "name": "transferOwnership",
      "outputs": [],
      "stateMutability": "nonpayable",
      "type": "function"
    }
  ],
  "transactionHash": "0xcedc2e8bf652b90fbd19f0be0b51bc48a1376dbae86f6b64d825235519d4910c",
  "args": [],
  "numDeployments": 2,
  "solcInputHash": "162606f55f2ebf2c4e98d23e2822b36c",
  "bytecode": "0x608060405234801561001057600080fd5b50610ff8806100206000396000f3fe6080604052600436106100865760003560e01c80638da5cb5b116100595780638da5cb5b14610122578063c4d66de814610154578063e94ad65b14610174578063f2fde38b14610194578063f6326fb3146100ab57600080fd5b806318712c211461008b578063715018a6146100ad57806371c5ecb1146100c25780637847847014610102575b600080fd5b34801561009757600080fd5b506100ab6100a6366004610a9b565b6101b4565b005b3480156100b957600080fd5b506100ab610267565b3480156100ce57600080fd5b506100ef6100dd366004610abd565b60666020526000908152604090205481565b6040519081526020015b60405180910390f35b34801561010e57600080fd5b506100ab61011d366004610d69565b61027b565b34801561012e57600080fd5b506033546001600160a01b03165b6040516001600160a01b0390911681526020016100f9565b34801561016057600080fd5b506100ab61016f366004610e52565b610422565b34801561018057600080fd5b5060655461013c906001600160a01b031681565b3480156101a057600080fd5b506100ab6101af366004610e52565b6105a5565b6101bc61061e565b600082815260666020526040902054156102125760405162461bcd60e51b81526020600482015260126024820152714d65726b6c6520726f6f742065786973747360701b60448201526064015b60405180910390fd5b806102555760405162461bcd60e51b8152602060048201526013602482015272125b9d985b1a59081b595c9adb19481c9bdbdd606a1b6044820152606401610209565b60009182526066602052604090912055565b61026f61061e565b6102796000610678565b565b61028361061e565b600084815260666020526040902054806102d85760405162461bcd60e51b81526020600482015260166024820152754d65726b6c6520726f6f74206e6f742065786973747360501b6044820152606401610209565b6000825167ffffffffffffffff8111156102f4576102f4610ad6565b60405190808252806020026020018201604052801561031d578160200160208202803683370190505b50905060005b83518110156103805783818151811061033e5761033e610e7b565b6020026020010151602001518051906020012082828151811061036357610363610e7b565b60209081029190910101528061037881610ea7565b915050610323565b5061038d858584846106ca565b6103d95760405162461bcd60e51b815260206004820181905260248201527f4d65726b6c652070726f6f6620766572696669636174696f6e206661696c65646044820152606401610209565b60005b8351811015610419576104078482815181106103fa576103fa610e7b565b60200260200101516106e2565b8061041181610ea7565b9150506103dc565b50505050505050565b600054610100900460ff16158080156104425750600054600160ff909116105b8061045c5750303b15801561045c575060005460ff166001145b6104bf5760405162461bcd60e51b815260206004820152602e60248201527f496e697469616c697a61626c653a20636f6e747261637420697320616c72656160448201526d191e481a5b9a5d1a585b1a5e995960921b6064820152608401610209565b6000805460ff1916600117905580156104e2576000805461ff0019166101001790555b6001600160a01b0382166105385760405162461bcd60e51b815260206004820152601860248201527f496e76616c6964206465706f73697420636f6e747261637400000000000000006044820152606401610209565b6105406107a8565b606580546001600160a01b0319166001600160a01b03841617905580156105a1576000805461ff0019169055604051600181527f7f26b83ff96e1f2b6a682f133852f6798a09c465da95921460cefb38474024989060200160405180910390a15b5050565b6105ad61061e565b6001600160a01b0381166106125760405162461bcd60e51b815260206004820152602660248201527f4f776e61626c653a206e6577206f776e657220697320746865207a65726f206160448201526564647265737360d01b6064820152608401610209565b61061b81610678565b50565b6033546001600160a01b031633146102795760405162461bcd60e51b815260206004820181905260248201527f4f776e61626c653a2063616c6c6572206973206e6f7420746865206f776e65726044820152606401610209565b603380546001600160a01b038381166001600160a01b0319831681179093556040519116919082907f8be0079c531659141344cd1fd0a4f28419497f9722a3daafe3b4186f6b6457e090600090a35050565b6000826106d88686856107d7565b1495945050505050565b6801bc16d674ec800000478111156107335760405162461bcd60e51b8152602060048201526014602482015273496e73756666696369656e742062616c616e636560601b6044820152606401610209565b60655482516020840151604080860151606087015191516304512a2360e31b81526001600160a01b0390951694632289511894879461077b9491939092909190600401610f06565b6000604051808303818588803b15801561079457600080fd5b505af1158015610419573d6000803e3d6000fd5b600054610100900460ff166107cf5760405162461bcd60e51b815260040161020990610f51565b610279610a37565b805182518451600092919081906001906107f19085610f9c565b6107fb9190610faf565b146108485760405162461bcd60e51b815260206004820152601f60248201527f4d65726b6c6550726f6f663a20696e76616c6964206d756c746970726f6f66006044820152606401610209565b60008167ffffffffffffffff81111561086357610863610ad6565b60405190808252806020026020018201604052801561088c578160200160208202803683370190505b5090506000806000805b858110156109cc5760008785106108d15785846108b281610ea7565b9550815181106108c4576108c4610e7b565b60200260200101516108f7565b89856108dc81610ea7565b9650815181106108ee576108ee610e7b565b60200260200101515b905060008b838151811061090d5761090d610e7b565b6020026020010151610943578c8461092481610ea7565b95508151811061093657610936610e7b565b602002602001015161098d565b88861061096757868561095581610ea7565b96508151811061093657610936610e7b565b8a8661097281610ea7565b97508151811061098457610984610e7b565b60200260200101515b90506109998282610a67565b8784815181106109ab576109ab610e7b565b602002602001018181525050505080806109c490610ea7565b915050610896565b508415610a0457836109df600187610faf565b815181106109ef576109ef610e7b565b60200260200101519650505050505050610a30565b8515610a1d57876000815181106109ef576109ef610e7b565b896000815181106109ef576109ef610e7b565b9392505050565b600054610100900460ff16610a5e5760405162461bcd60e51b815260040161020990610f51565b61027933610678565b6000818310610a83576000828152602084905260409020610a92565b60008381526020839052604090205b90505b92915050565b60008060408385031215610aae57600080fd5b50508035926020909101359150565b600060208284031215610acf57600080fd5b5035919050565b634e487b7160e01b600052604160045260246000fd5b6040516080810167ffffffffffffffff81118282101715610b0f57610b0f610ad6565b60405290565b604051601f8201601f1916810167ffffffffffffffff81118282101715610b3e57610b3e610ad6565b604052919050565b600067ffffffffffffffff821115610b6057610b60610ad6565b5060051b60200190565b600082601f830112610b7b57600080fd5b81356020610b90610b8b83610b46565b610b15565b82815260059290921b84018101918181019086841115610baf57600080fd5b8286015b84811015610bd95780358015158114610bcc5760008081fd5b8352918301918301610bb3565b509695505050505050565b600082601f830112610bf557600080fd5b813567ffffffffffffffff811115610c0f57610c0f610ad6565b610c22601f8201601f1916602001610b15565b818152846020838601011115610c3757600080fd5b816020850160208301376000918101602001919091529392505050565b600082601f830112610c6557600080fd5b81356020610c75610b8b83610b46565b82815260059290921b84018101918181019086841115610c9457600080fd5b8286015b84811015610bd957803567ffffffffffffffff80821115610cb95760008081fd5b908801906080828b03601f1901811315610cd35760008081fd5b610cdb610aec565b8784013583811115610ced5760008081fd5b610cfb8d8a83880101610be4565b82525060408085013584811115610d125760008081fd5b610d208e8b83890101610be4565b8a8401525060608086013585811115610d395760008081fd5b610d478f8c838a0101610be4565b9284019290925294909201359381019390935250508352918301918301610c98565b60008060008060808587031215610d7f57600080fd5b8435935060208086013567ffffffffffffffff80821115610d9f57600080fd5b818801915088601f830112610db357600080fd5b8135610dc1610b8b82610b46565b81815260059190911b8301840190848101908b831115610de057600080fd5b938501935b82851015610dfe57843582529385019390850190610de5565b975050506040880135925080831115610e1657600080fd5b610e2289848a01610b6a565b94506060880135925080831115610e3857600080fd5b5050610e4687828801610c54565b91505092959194509250565b600060208284031215610e6457600080fd5b81356001600160a01b0381168114610a3057600080fd5b634e487b7160e01b600052603260045260246000fd5b634e487b7160e01b600052601160045260246000fd5b600060018201610eb957610eb9610e91565b5060010190565b6000815180845260005b81811015610ee657602081850181015186830182015201610eca565b506000602082860101526020601f19601f83011685010191505092915050565b608081526000610f196080830187610ec0565b8281036020840152610f2b8187610ec0565b90508281036040840152610f3f8186610ec0565b91505082606083015295945050505050565b6020808252602b908201527f496e697469616c697a61626c653a20636f6e7472616374206973206e6f74206960408201526a6e697469616c697a696e6760a81b606082015260800190565b80820180821115610a9557610a95610e91565b81810381811115610a9557610a95610e9156fea26469706673582212200a90d1f3df0dd240d875e5e4a6cacd62ef3fdff25ead473617c4632dd98879f564736f6c63430008110033",
  "devdoc": {
    "kind": "dev",
    "methods": {
      "owner()": {
        "details": "Returns the address of the current owner."
      },
      "renounceOwnership()": {
        "details": "Leaves the contract without owner. It will not be possible to call `onlyOwner` functions anymore. Can only be called by the current owner. NOTE: Renouncing ownership will leave the contract without an owner, thereby removing any functionality that is only available to the owner."
      },
      "transferOwnership(address)": {
        "details": "Transfers ownership of the contract to a new account (`newOwner`). Can only be called by the current owner."
      }
    },
    "version": 1
  },
  "userdoc": {
    "kind": "user",
    "methods": {},
    "version": 1
  },
  "storageLayout": {
    "storage": [
      {
        "astId": 138,
        "contract": "contracts/SLPDeposit.sol:SLPDeposit",
        "label": "_initialized",
        "offset": 0,
        "slot": "0",
        "type": "t_uint8"
      },
      {
        "astId": 141,
        "contract": "contracts/SLPDeposit.sol:SLPDeposit",
        "label": "_initializing",
        "offset": 1,
        "slot": "0",
        "type": "t_bool"
      },
      {
        "astId": 1220,
        "contract": "contracts/SLPDeposit.sol:SLPDeposit",
        "label": "__gap",
        "offset": 0,
        "slot": "1",
        "type": "t_array(t_uint256)50_storage"
      },
      {
        "astId": 10,
        "contract": "contracts/SLPDeposit.sol:SLPDeposit",
        "label": "_owner",
        "offset": 0,
        "slot": "51",
        "type": "t_address"
      },
      {
        "astId": 130,
        "contract": "contracts/SLPDeposit.sol:SLPDeposit",
        "label": "__gap",
        "offset": 0,
        "slot": "52",
        "type": "t_array(t_uint256)49_storage"
      },
      {
        "astId": 3597,
        "contract": "contracts/SLPDeposit.sol:SLPDeposit",
        "label": "depositContract",
        "offset": 0,
        "slot": "101",
        "type": "t_address"
      },
      {
        "astId": 3601,
        "contract": "contracts/SLPDeposit.sol:SLPDeposit",
        "label": "merkleRoots",
        "offset": 0,
        "slot": "102",
        "type": "t_mapping(t_uint256,t_bytes32)"
      }
    ],
    "types": {
      "t_address": {
        "encoding": "inplace",
        "label": "address",
        "numberOfBytes": "20"
      },
      "t_array(t_uint256)49_storage": {
        "base": "t_uint256",
        "encoding": "inplace",
        "label": "uint256[49]",
        "numberOfBytes": "1568"
      },
      "t_array(t_uint256)50_storage": {
        "base": "t_uint256",
        "encoding": "inplace",
        "label": "uint256[50]",
        "numberOfBytes": "1600"
      },
      "t_bool": {
        "encoding": "inplace",
        "label": "bool",
        "numberOfBytes": "1"
      },
      "t_bytes32": {
        "encoding": "inplace",
        "label": "bytes32",
        "numberOfBytes": "32"
      },
      "t_mapping(t_uint256,t_bytes32)": {
        "encoding": "mapping",
        "key": "t_uint256",
        "label": "mapping(uint256 => bytes32)",
        "numberOfBytes": "32",
        "value": "t_bytes32"
      },
      "t_uint256": {
        "encoding": "inplace",
        "label": "uint256",
        "numberOfBytes": "32"
      },
      "t_uint8": {
        "encoding": "inplace",
        "label": "uint8",
        "numberOfBytes": "1"
      }
    }
  }
}