{
  "address": "0xfC66A310BAe6Fa382Aa48a2e82299CE0dc98D14F",
  "abi": [
    {
      "anonymous": false,
      "inputs": [
        {
          "indexed": true,
          "internalType": "address",
          "name": "sender",
          "type": "address"
        },
        {
          "indexed": false,
          "internalType": "uint256",
          "name": "tokenAmount",
          "type": "uint256"
        }
      ],
      "name": "EthDeposited",
      "type": "event"
    },
    {
      "anonymous": false,
      "inputs": [
        {
          "indexed": true,
          "internalType": "address",
          "name": "sender",
          "type": "address"
        },
        {
          "indexed": false,
          "internalType": "uint256",
          "name": "number",
          "type": "uint256"
        }
      ],
      "name": "FlashWithdrawalNodeIncreased",
      "type": "event"
    },
    {
      "anonymous": false,
      "inputs": [
        {
          "indexed": false,
          "internalType": "uint8",
          "name": "version",
          "type": "uint8"
        }
      ],
      "name": "Initialized",
      "type": "event"
    },
    {
      "anonymous": false,
      "inputs": [
        {
          "indexed": true,
          "internalType": "address",
          "name": "sender",
          "type": "address"
        },
        {
          "indexed": false,
          "internalType": "address",
          "name": "operator",
          "type": "address"
        }
      ],
      "name": "OperatorSet",
      "type": "event"
    },
    {
      "anonymous": false,
      "inputs": [
        {
          "indexed": true,
          "internalType": "address",
          "name": "previousOwner",
          "type": "address"
        },
        {
          "indexed": true,
          "internalType": "address",
          "name": "newOwner",
          "type": "address"
        }
      ],
      "name": "OwnershipTransferred",
      "type": "event"
    },
    {
      "anonymous": false,
      "inputs": [
        {
          "indexed": true,
          "internalType": "address",
          "name": "sender",
          "type": "address"
        },
        {
          "indexed": false,
          "internalType": "uint256",
          "name": "amount",
          "type": "uint256"
        }
      ],
      "name": "RewardAdded",
      "type": "event"
    },
    {
      "anonymous": false,
      "inputs": [
        {
          "indexed": true,
          "internalType": "address",
          "name": "sender",
          "type": "address"
        },
        {
          "indexed": false,
          "internalType": "uint256",
          "name": "rewardNumerator",
          "type": "uint256"
        }
      ],
      "name": "RewardNumeratorSet",
      "type": "event"
    },
    {
      "anonymous": false,
      "inputs": [
        {
          "indexed": true,
          "internalType": "address",
          "name": "sender",
          "type": "address"
        },
        {
          "indexed": false,
          "internalType": "uint256",
          "name": "amount",
          "type": "uint256"
        }
      ],
      "name": "RewardRemoved",
      "type": "event"
    },
    {
      "anonymous": false,
      "inputs": [
        {
          "indexed": true,
          "internalType": "address",
          "name": "sender",
          "type": "address"
        },
        {
          "indexed": false,
          "internalType": "address",
          "name": "slpCore",
          "type": "address"
        }
      ],
      "name": "SLPCoreSet",
      "type": "event"
    },
    {
      "anonymous": false,
      "inputs": [
        {
          "indexed": true,
          "internalType": "address",
          "name": "sender",
          "type": "address"
        },
        {
          "indexed": false,
          "internalType": "uint256",
          "name": "number",
          "type": "uint256"
        }
      ],
      "name": "WithdrawalNodeIncreased",
      "type": "event"
    },
    {
      "inputs": [],
      "name": "DEPOSIT_SIZE",
      "outputs": [
        {
          "internalType": "uint256",
          "name": "",
          "type": "uint256"
        }
      ],
      "stateMutability": "view",
      "type": "function"
    },
    {
      "inputs": [],
      "name": "REWARD_DENOMINATOR",
      "outputs": [
        {
          "internalType": "uint256",
          "name": "",
          "type": "uint256"
        }
      ],
      "stateMutability": "view",
      "type": "function"
    },
    {
      "inputs": [
        {
          "internalType": "uint256",
          "name": "_rewardAmount",
          "type": "uint256"
        }
      ],
      "name": "addReward",
      "outputs": [],
      "stateMutability": "nonpayable",
      "type": "function"
    },
    {
      "inputs": [],
      "name": "depositETH",
      "outputs": [],
      "stateMutability": "payable",
      "type": "function"
    },
    {
      "inputs": [
        {
          "internalType": "uint256",
          "name": "n",
          "type": "uint256"
        }
      ],
      "name": "flashWithdrawalNode",
      "outputs": [],
      "stateMutability": "nonpayable",
      "type": "function"
    },
    {
      "inputs": [],
      "name": "flashWithdrawalNodeNumber",
      "outputs": [
        {
          "internalType": "uint256",
          "name": "",
          "type": "uint256"
        }
      ],
      "stateMutability": "view",
      "type": "function"
    },
    {
      "inputs": [],
      "name": "getTodayTimestamp",
      "outputs": [
        {
          "internalType": "uint256",
          "name": "",
          "type": "uint256"
        }
      ],
      "stateMutability": "view",
      "type": "function"
    },
    {
      "inputs": [
        {
          "internalType": "uint256",
          "name": "n",
          "type": "uint256"
        }
      ],
      "name": "increaseWithdrawalNode",
      "outputs": [],
      "stateMutability": "nonpayable",
      "type": "function"
    },
    {
      "inputs": [
        {
          "internalType": "address",
          "name": "_slpDeposit",
          "type": "address"
        },
        {
          "internalType": "address",
          "name": "_operator",
          "type": "address"
        },
        {
          "internalType": "uint256",
          "name": "_rewardNumerator",
          "type": "uint256"
        }
      ],
      "name": "initialize",
      "outputs": [],
      "stateMutability": "nonpayable",
      "type": "function"
    },
    {
      "inputs": [],
      "name": "operator",
      "outputs": [
        {
          "internalType": "address",
          "name": "",
          "type": "address"
        }
      ],
      "stateMutability": "view",
      "type": "function"
    },
    {
      "inputs": [],
      "name": "owner",
      "outputs": [
        {
          "internalType": "address",
          "name": "",
          "type": "address"
        }
      ],
      "stateMutability": "view",
      "type": "function"
    },
    {
      "inputs": [
        {
          "internalType": "uint256",
          "name": "_rewardAmount",
          "type": "uint256"
        }
      ],
      "name": "removeReward",
      "outputs": [],
      "stateMutability": "nonpayable",
      "type": "function"
    },
    {
      "inputs": [],
      "name": "renounceOwnership",
      "outputs": [],
      "stateMutability": "nonpayable",
      "type": "function"
    },
    {
      "inputs": [
        {
          "internalType": "uint256",
          "name": "",
          "type": "uint256"
        }
      ],
      "name": "rewardDays",
      "outputs": [
        {
          "internalType": "bool",
          "name": "",
          "type": "bool"
        }
      ],
      "stateMutability": "view",
      "type": "function"
    },
    {
      "inputs": [],
      "name": "rewardNumerator",
      "outputs": [
        {
          "internalType": "uint256",
          "name": "",
          "type": "uint256"
        }
      ],
      "stateMutability": "view",
      "type": "function"
    },
    {
      "inputs": [
        {
          "internalType": "address",
          "name": "_operator",
          "type": "address"
        }
      ],
      "name": "setOperator",
      "outputs": [],
      "stateMutability": "nonpayable",
      "type": "function"
    },
    {
      "inputs": [
        {
          "internalType": "uint256",
          "name": "_rewardNumerator",
          "type": "uint256"
        }
      ],
      "name": "setRewardNumerator",
      "outputs": [],
      "stateMutability": "nonpayable",
      "type": "function"
    },
    {
      "inputs": [
        {
          "internalType": "address",
          "name": "_slpCore",
          "type": "address"
        }
      ],
      "name": "setSLPCore",
      "outputs": [],
      "stateMutability": "nonpayable",
      "type": "function"
    },
    {
      "inputs": [],
      "name": "slpCore",
      "outputs": [
        {
          "internalType": "contract ISLPCore",
          "name": "",
          "type": "address"
        }
      ],
      "stateMutability": "view",
      "type": "function"
    },
    {
      "inputs": [],
      "name": "slpDeposit",
      "outputs": [
        {
          "internalType": "contract ISLPDeposit",
          "name": "",
          "type": "address"
        }
      ],
      "stateMutability": "view",
      "type": "function"
    },
    {
      "inputs": [
        {
          "internalType": "address",
          "name": "newOwner",
          "type": "address"
        }
      ],
      "name": "transferOwnership",
      "outputs": [],
      "stateMutability": "nonpayable",
      "type": "function"
    },
    {
      "inputs": [],
      "name": "withdrawalNodeNumber",
      "outputs": [
        {
          "internalType": "uint256",
          "name": "",
          "type": "uint256"
        }
      ],
      "stateMutability": "view",
      "type": "function"
    }
  ],
  "transactionHash": "0x426294a2a607ed8e00e23c7a42eddf7172be2bf45e4de756f964e941f9720ea2",
  "args": [],
  "numDeployments": 2,
  "solcInputHash": "03ca45a1359110a89bdafd1b340e4162",
  "bytecode": "0x608060405234801561001057600080fd5b50611402806100206000396000f3fe6080604052600436106101355760003560e01c80638da5cb5b116100ab578063c553173f1161006f578063c553173f14610354578063cdd432d014610374578063f2fde38b1461038a578063f6326fb3146103aa578063f96eda4c146103b2578063fe9a3e2b146103d257600080fd5b80638da5cb5b146102c0578063a7259008146102de578063b2afdb5f146102fe578063b3ab15fb14610314578063b431a5011461033457600080fd5b806336bf3325116100fd57806336bf33251461021c578063570ca735146102395780636b96bb8714610259578063715018a61461026f57806374de4ec414610284578063819a9398146102a457600080fd5b8063033452031461013a578063159de7281461017f5780631794bb3c146101a157806322f808d5146101c15780632a487ef3146101f9575b600080fd5b34801561014657600080fd5b5061016a610155366004611215565b606a6020526000908152604090205460ff1681565b60405190151581526020015b60405180910390f35b34801561018b57600080fd5b5061019f61019a36600461124a565b6103f2565b005b3480156101ad57600080fd5b5061019f6101bc36600461126c565b6104ac565b3480156101cd57600080fd5b506066546101e1906001600160a01b031681565b6040516001600160a01b039091168152602001610176565b34801561020557600080fd5b5061020e6106f4565b604051908152602001610176565b34801561022857600080fd5b5061020e6801bc16d674ec80000081565b34801561024557600080fd5b506067546101e1906001600160a01b031681565b34801561026557600080fd5b5061020e60685481565b34801561027b57600080fd5b5061019f610715565b34801561029057600080fd5b5061019f61029f366004611215565b610729565b3480156102b057600080fd5b5061020e670de0b6b3a764000081565b3480156102cc57600080fd5b506033546001600160a01b03166101e1565b3480156102ea57600080fd5b5061019f6102f9366004611215565b6109cf565b34801561030a57600080fd5b5061020e606b5481565b34801561032057600080fd5b5061019f61032f36600461124a565b610ba1565b34801561034057600080fd5b506065546101e1906001600160a01b031681565b34801561036057600080fd5b5061019f61036f366004611215565b610c4a565b34801561038057600080fd5b5061020e60695481565b34801561039657600080fd5b5061019f6103a536600461124a565b610e5e565b61019f610ed7565b3480156103be57600080fd5b5061019f6103cd366004611215565b610f68565b3480156103de57600080fd5b5061019f6103ed366004611215565b610fff565b6103fa61110a565b6001600160a01b0381166104555760405162461bcd60e51b815260206004820152601860248201527f496e76616c696420534c5020636f72652061646472657373000000000000000060448201526064015b60405180910390fd5b606580546001600160a01b0319166001600160a01b03831690811790915560405190815233907fa5d340708c2045ce2d4e31ab8dec9915a3d8293f35b5d94f424166483d1cba54906020015b60405180910390a250565b600054610100900460ff16158080156104cc5750600054600160ff909116105b806104e65750303b1580156104e6575060005460ff166001145b6105495760405162461bcd60e51b815260206004820152602e60248201527f496e697469616c697a61626c653a20636f6e747261637420697320616c72656160448201526d191e481a5b9a5d1a585b1a5e995960921b606482015260840161044c565b6000805460ff19166001179055801561056c576000805461ff0019166101001790555b6001600160a01b0384166105c25760405162461bcd60e51b815260206004820152601b60248201527f496e76616c696420534c50206465706f73697420616464726573730000000000604482015260640161044c565b6001600160a01b0383166106135760405162461bcd60e51b8152602060048201526018602482015277496e76616c6964206f70657261746f72206164647265737360401b604482015260640161044c565b670de0b6b3a764000082111561066b5760405162461bcd60e51b815260206004820152601a60248201527f526577617264206e756d657261746f7220746f6f206c61726765000000000000604482015260640161044c565b610673611164565b606680546001600160a01b038087166001600160a01b0319928316179092556067805492861692909116919091179055606982905580156106ee576000805461ff0019169055604051600181527f7f26b83ff96e1f2b6a682f133852f6798a09c465da95921460cefb38474024989060200160405180910390a15b50505050565b600061070362015180426112be565b61071090620151806112e0565b905090565b61071d61110a565b6107276000611193565b565b6067546001600160a01b031633146107535760405162461bcd60e51b815260040161044c906112fd565b80670de0b6b3a7640000606954606560009054906101000a90046001600160a01b03166001600160a01b031663104e99296040518163ffffffff1660e01b8152600401602060405180830381865afa1580156107b3573d6000803e3d6000fd5b505050506040513d601f19601f820116820180604052508101906107d7919061132d565b6107e191906112e0565b6107eb91906112be565b81111561083a5760405162461bcd60e51b815260206004820152601a60248201527f52657761726420766172696174696f6e20746f6f206c61726765000000000000604482015260640161044c565b60006108446106f4565b6000818152606a602052604090205490915060ff16156108935760405162461bcd60e51b815260206004820152600a6024820152695061696420746f64617960b01b604482015260640161044c565b6000818152606a60205260409020805460ff19166001179055478311156108cc5760405162461bcd60e51b815260040161044c90611346565b606554604051631d3793b160e21b8152600481018590526001600160a01b03909116906374de4ec490602401600060405180830381600087803b15801561091257600080fd5b505af1158015610926573d6000803e3d6000fd5b50505050606660009054906101000a90046001600160a01b03166001600160a01b031663f6326fb3846040518263ffffffff1660e01b81526004016000604051808303818588803b15801561097a57600080fd5b505af115801561098e573d6000803e3d6000fd5b50506040518681523393507fac24935fd910bc682b5ccb1a07b718cadf8cf2f6d1404c4f3ddc3662dae40e29925060200190505b60405180910390a2505050565b6067546001600160a01b031633146109f95760405162461bcd60e51b815260040161044c906112fd565b6000610a0e6801bc16d674ec800000836112e0565b6066549091506001600160a01b031631811115610a3d5760405162461bcd60e51b815260040161044c90611346565b606654604051634782f77960e01b8152306004820152602481018390526001600160a01b0390911690634782f77990604401600060405180830381600087803b158015610a8957600080fd5b505af1158015610a9d573d6000803e3d6000fd5b505050508160686000828254610ab3919061136e565b9250508190555081606b6000828254610acc919061136e565b909155505060655460408051631a6a493960e31b815290516001600160a01b039092169163d35249c8918491600480830192600092919082900301818588803b158015610b1857600080fd5b505af1158015610b2c573d6000803e3d6000fd5b50506040518581523393507f050608bb8214ae2070d31e9333905ec0a77ab57398ce3cf62e78bc733a26f17f9250602001905060405180910390a260405182815233907fe66884521618db3e4d849b8fd44f56fe5fdab7a150f65cdc8c7ee71a624d9830906020015b60405180910390a25050565b610ba961110a565b6001600160a01b038116610bfa5760405162461bcd60e51b8152602060048201526018602482015277496e76616c6964206f70657261746f72206164647265737360401b604482015260640161044c565b606780546001600160a01b0319166001600160a01b03831690811790915560405190815233907ffd489696792cc4c5d5b226c46f008e459c8ec9b746c49191d74bb92c19fd1867906020016104a1565b6067546001600160a01b03163314610c745760405162461bcd60e51b815260040161044c906112fd565b80670de0b6b3a7640000606954606560009054906101000a90046001600160a01b03166001600160a01b031663104e99296040518163ffffffff1660e01b8152600401602060405180830381865afa158015610cd4573d6000803e3d6000fd5b505050506040513d601f19601f82011682018060405250810190610cf8919061132d565b610d0291906112e0565b610d0c91906112be565b811115610d5b5760405162461bcd60e51b815260206004820152601a60248201527f52657761726420766172696174696f6e20746f6f206c61726765000000000000604482015260640161044c565b6000610d656106f4565b6000818152606a602052604090205490915060ff1615610db45760405162461bcd60e51b815260206004820152600a6024820152695061696420746f64617960b01b604482015260640161044c565b6000818152606a602052604090819020805460ff19166001179055606554905163c553173f60e01b8152600481018590526001600160a01b039091169063c553173f90602401600060405180830381600087803b158015610e1457600080fd5b505af1158015610e28573d6000803e3d6000fd5b50506040518581523392507fccdd1b4597f1516187e25b38fbad3e75a428981d2a1d898667abb3cdd95a672f91506020016109c2565b610e6661110a565b6001600160a01b038116610ecb5760405162461bcd60e51b815260206004820152602660248201527f4f776e61626c653a206e6577206f776e657220697320746865207a65726f206160448201526564647265737360d01b606482015260840161044c565b610ed481611193565b50565b6066546001600160a01b03163314610f315760405162461bcd60e51b815260206004820152601860248201527f43616c6c6572206973206e6f7420736c704465706f7369740000000000000000604482015260640161044c565b60405134815233907f66ff7c8f71ccc7c36152a41920d0d3b46ef3034359f76aa1498ed4478c204b5c9060200160405180910390a2565b610f7061110a565b670de0b6b3a7640000811115610fc85760405162461bcd60e51b815260206004820152601a60248201527f526577617264206e756d657261746f7220746f6f206c61726765000000000000604482015260640161044c565b606981905560405181815233907fd72b2a4d376d2c1c21410f7e7f0331ad771641b67d7a43c00883bf880872b019906020016104a1565b6067546001600160a01b031633146110295760405162461bcd60e51b815260040161044c906112fd565b600061103e6801bc16d674ec800000836112e0565b9050478111156110605760405162461bcd60e51b815260040161044c90611346565b8160686000828254611072919061136e565b909155505060655460408051631a6a493960e31b815290516001600160a01b039092169163d35249c8918491600480830192600092919082900301818588803b1580156110be57600080fd5b505af11580156110d2573d6000803e3d6000fd5b50506040518581523393507f050608bb8214ae2070d31e9333905ec0a77ab57398ce3cf62e78bc733a26f17f92506020019050610b95565b6033546001600160a01b031633146107275760405162461bcd60e51b815260206004820181905260248201527f4f776e61626c653a2063616c6c6572206973206e6f7420746865206f776e6572604482015260640161044c565b600054610100900460ff1661118b5760405162461bcd60e51b815260040161044c90611381565b6107276111e5565b603380546001600160a01b038381166001600160a01b0319831681179093556040519116919082907f8be0079c531659141344cd1fd0a4f28419497f9722a3daafe3b4186f6b6457e090600090a35050565b600054610100900460ff1661120c5760405162461bcd60e51b815260040161044c90611381565b61072733611193565b60006020828403121561122757600080fd5b5035919050565b80356001600160a01b038116811461124557600080fd5b919050565b60006020828403121561125c57600080fd5b6112658261122e565b9392505050565b60008060006060848603121561128157600080fd5b61128a8461122e565b92506112986020850161122e565b9150604084013590509250925092565b634e487b7160e01b600052601160045260246000fd5b6000826112db57634e487b7160e01b600052601260045260246000fd5b500490565b80820281158282048414176112f7576112f76112a8565b92915050565b60208082526016908201527521b0b63632b91034b9903737ba1037b832b930ba37b960511b604082015260600190565b60006020828403121561133f57600080fd5b5051919050565b6020808252600e908201526d09cdee840cadcdeeaced0408aa8960931b604082015260600190565b808201808211156112f7576112f76112a8565b6020808252602b908201527f496e697469616c697a61626c653a20636f6e7472616374206973206e6f74206960408201526a6e697469616c697a696e6760a81b60608201526080019056fea2646970667358221220e12c7e2b5f87efeb2e1cee9a7920d16b80f8424571a43c9a8b2ce9a2cdc7c3a064736f6c63430008110033",
  "devdoc": {
    "kind": "dev",
    "methods": {
      "owner()": {
        "details": "Returns the address of the current owner."
      },
      "renounceOwnership()": {
        "details": "Leaves the contract without owner. It will not be possible to call `onlyOwner` functions anymore. Can only be called by the current owner. NOTE: Renouncing ownership will leave the contract without an owner, thereby removing any functionality that is only available to the owner."
      },
      "transferOwnership(address)": {
        "details": "Transfers ownership of the contract to a new account (`newOwner`). Can only be called by the current owner."
      }
    },
    "version": 1
  },
  "userdoc": {
    "kind": "user",
    "methods": {},
    "version": 1
  },
  "storageLayout": {
    "storage": [
      {
        "astId": 138,
        "contract": "contracts/WithdrawalVault.sol:WithdrawalVault",
        "label": "_initialized",
        "offset": 0,
        "slot": "0",
        "type": "t_uint8"
      },
      {
        "astId": 141,
        "contract": "contracts/WithdrawalVault.sol:WithdrawalVault",
        "label": "_initializing",
        "offset": 1,
        "slot": "0",
        "type": "t_bool"
      },
      {
        "astId": 625,
        "contract": "contracts/WithdrawalVault.sol:WithdrawalVault",
        "label": "__gap",
        "offset": 0,
        "slot": "1",
        "type": "t_array(t_uint256)50_storage"
      },
      {
        "astId": 10,
        "contract": "contracts/WithdrawalVault.sol:WithdrawalVault",
        "label": "_owner",
        "offset": 0,
        "slot": "51",
        "type": "t_address"
      },
      {
        "astId": 130,
        "contract": "contracts/WithdrawalVault.sol:WithdrawalVault",
        "label": "__gap",
        "offset": 0,
        "slot": "52",
        "type": "t_array(t_uint256)49_storage"
      },
      {
        "astId": 719,
        "contract": "contracts/WithdrawalVault.sol:WithdrawalVault",
        "label": "slpCore",
        "offset": 0,
        "slot": "101",
        "type": "t_contract(ISLPCore)649"
      },
      {
        "astId": 722,
        "contract": "contracts/WithdrawalVault.sol:WithdrawalVault",
        "label": "slpDeposit",
        "offset": 0,
        "slot": "102",
        "type": "t_contract(ISLPDeposit)660"
      },
      {
        "astId": 724,
        "contract": "contracts/WithdrawalVault.sol:WithdrawalVault",
        "label": "operator",
        "offset": 0,
        "slot": "103",
        "type": "t_address"
      },
      {
        "astId": 726,
        "contract": "contracts/WithdrawalVault.sol:WithdrawalVault",
        "label": "withdrawalNodeNumber",
        "offset": 0,
        "slot": "104",
        "type": "t_uint256"
      },
      {
        "astId": 728,
        "contract": "contracts/WithdrawalVault.sol:WithdrawalVault",
        "label": "rewardNumerator",
        "offset": 0,
        "slot": "105",
        "type": "t_uint256"
      },
      {
        "astId": 732,
        "contract": "contracts/WithdrawalVault.sol:WithdrawalVault",
        "label": "rewardDays",
        "offset": 0,
        "slot": "106",
        "type": "t_mapping(t_uint256,t_bool)"
      },
      {
        "astId": 734,
        "contract": "contracts/WithdrawalVault.sol:WithdrawalVault",
        "label": "flashWithdrawalNodeNumber",
        "offset": 0,
        "slot": "107",
        "type": "t_uint256"
      }
    ],
    "types": {
      "t_address": {
        "encoding": "inplace",
        "label": "address",
        "numberOfBytes": "20"
      },
      "t_array(t_uint256)49_storage": {
        "base": "t_uint256",
        "encoding": "inplace",
        "label": "uint256[49]",
        "numberOfBytes": "1568"
      },
      "t_array(t_uint256)50_storage": {
        "base": "t_uint256",
        "encoding": "inplace",
        "label": "uint256[50]",
        "numberOfBytes": "1600"
      },
      "t_bool": {
        "encoding": "inplace",
        "label": "bool",
        "numberOfBytes": "1"
      },
      "t_contract(ISLPCore)649": {
        "encoding": "inplace",
        "label": "contract ISLPCore",
        "numberOfBytes": "20"
      },
      "t_contract(ISLPDeposit)660": {
        "encoding": "inplace",
        "label": "contract ISLPDeposit",
        "numberOfBytes": "20"
      },
      "t_mapping(t_uint256,t_bool)": {
        "encoding": "mapping",
        "key": "t_uint256",
        "label": "mapping(uint256 => bool)",
        "numberOfBytes": "32",
        "value": "t_bool"
      },
      "t_uint256": {
        "encoding": "inplace",
        "label": "uint256",
        "numberOfBytes": "32"
      },
      "t_uint8": {
        "encoding": "inplace",
        "label": "uint8",
        "numberOfBytes": "1"
      }
    }
  }
}